{
	"ownership/Ownable.sol": {
		"Ownable": {
			"abi": [
				{
					"inputs": [],
					"stateMutability": "nonpayable",
					"type": "constructor"
				},
				{
					"anonymous": false,
					"inputs": [
						{
							"indexed": false,
							"internalType": "address",
							"name": "oldOwner",
							"type": "address"
						},
						{
							"indexed": false,
							"internalType": "address",
							"name": "newOwner",
							"type": "address"
						}
					],
					"name": "NewOwner",
					"type": "event"
				},
				{
					"inputs": [],
					"name": "contractOwner",
					"outputs": [
						{
							"internalType": "address",
							"name": "",
							"type": "address"
						}
					],
					"stateMutability": "view",
					"type": "function"
				},
				{
					"inputs": [],
					"name": "isOwner",
					"outputs": [
						{
							"internalType": "bool",
							"name": "",
							"type": "bool"
						}
					],
					"stateMutability": "view",
					"type": "function"
				},
				{
					"inputs": [
						{
							"internalType": "address",
							"name": "_newOwner",
							"type": "address"
						}
					],
					"name": "transferOwnership",
					"outputs": [],
					"stateMutability": "nonpayable",
					"type": "function"
				}
			],
			"devdoc": {
				"kind": "dev",
				"methods": {},
				"version": 1
			},
			"evm": {
				"assembly": "    /* \"ownership/Ownable.sol\":120:779  contract Ownable is ReentrancyGuard {... */\n  mstore(0x40, 0x80)\n    /* \"ownership/Ownable.sol\":242:285  constructor() {... */\n  callvalue\n  dup1\n  iszero\n  tag_1\n  jumpi\n  0x00\n  dup1\n  revert\ntag_1:\n  pop\n    /* \"@openzeppelin/contracts/security/ReentrancyGuard.sol\":1701:1702  1 */\n  0x01\n    /* \"@openzeppelin/contracts/security/ReentrancyGuard.sol\":1806:1813  _status */\n  0x00\n    /* \"@openzeppelin/contracts/security/ReentrancyGuard.sol\":1806:1828  _status = _NOT_ENTERED */\n  dup2\n  swap1\n  sstore\n  pop\n    /* \"ownership/Ownable.sol\":270:280  msg.sender */\n  caller\n    /* \"ownership/Ownable.sol\":262:267  owner */\n  0x01\n  0x00\n    /* \"ownership/Ownable.sol\":262:280  owner = msg.sender */\n  0x0100\n  exp\n  dup2\n  sload\n  dup2\n  0xffffffffffffffffffffffffffffffffffffffff\n  mul\n  not\n  and\n  swap1\n  dup4\n  0xffffffffffffffffffffffffffffffffffffffff\n  and\n  mul\n  or\n  swap1\n  sstore\n  pop\n    /* \"ownership/Ownable.sol\":120:779  contract Ownable is ReentrancyGuard {... */\n  dataSize(sub_0)\n  dup1\n  dataOffset(sub_0)\n  0x00\n  codecopy\n  0x00\n  return\nstop\n\nsub_0: assembly {\n        /* \"ownership/Ownable.sol\":120:779  contract Ownable is ReentrancyGuard {... */\n      mstore(0x40, 0x80)\n      callvalue\n      dup1\n      iszero\n      tag_1\n      jumpi\n      0x00\n      dup1\n      revert\n    tag_1:\n      pop\n      jumpi(tag_2, lt(calldatasize, 0x04))\n      shr(0xe0, calldataload(0x00))\n      dup1\n      0x8f32d59b\n      eq\n      tag_3\n      jumpi\n      dup1\n      0xce606ee0\n      eq\n      tag_4\n      jumpi\n      dup1\n      0xf2fde38b\n      eq\n      tag_5\n      jumpi\n    tag_2:\n      0x00\n      dup1\n      revert\n        /* \"ownership/Ownable.sol\":470:553  function isOwner() public view returns (bool) {... */\n    tag_3:\n      tag_6\n      tag_7\n      jump\t// in\n    tag_6:\n      mload(0x40)\n      tag_8\n      swap2\n      swap1\n      tag_9\n      jump\t// in\n    tag_8:\n      mload(0x40)\n      dup1\n      swap2\n      sub\n      swap1\n      return\n        /* \"ownership/Ownable.sol\":386:466  function contractOwner() external view returns (address) {... */\n    tag_4:\n      tag_10\n      tag_11\n      jump\t// in\n    tag_10:\n      mload(0x40)\n      tag_12\n      swap2\n      swap1\n      tag_13\n      jump\t// in\n    tag_12:\n      mload(0x40)\n      dup1\n      swap2\n      sub\n      swap1\n      return\n        /* \"ownership/Ownable.sol\":557:776  function transferOwnership(address _newOwner) external nonReentrant onlyOwner {... */\n    tag_5:\n      tag_14\n      0x04\n      dup1\n      calldatasize\n      sub\n      dup2\n      add\n      swap1\n      tag_15\n      swap2\n      swap1\n      tag_16\n      jump\t// in\n    tag_15:\n      tag_17\n      jump\t// in\n    tag_14:\n      stop\n        /* \"ownership/Ownable.sol\":470:553  function isOwner() public view returns (bool) {... */\n    tag_7:\n        /* \"ownership/Ownable.sol\":510:514  bool */\n      0x00\n        /* \"ownership/Ownable.sol\":543:548  owner */\n      0x01\n      0x00\n      swap1\n      sload\n      swap1\n      0x0100\n      exp\n      swap1\n      div\n      0xffffffffffffffffffffffffffffffffffffffff\n      and\n        /* \"ownership/Ownable.sol\":529:548  msg.sender == owner */\n      0xffffffffffffffffffffffffffffffffffffffff\n      and\n        /* \"ownership/Ownable.sol\":529:539  msg.sender */\n      caller\n        /* \"ownership/Ownable.sol\":529:548  msg.sender == owner */\n      0xffffffffffffffffffffffffffffffffffffffff\n      and\n      eq\n        /* \"ownership/Ownable.sol\":522:548  return msg.sender == owner */\n      swap1\n      pop\n        /* \"ownership/Ownable.sol\":470:553  function isOwner() public view returns (bool) {... */\n      swap1\n      jump\t// out\n        /* \"ownership/Ownable.sol\":386:466  function contractOwner() external view returns (address) {... */\n    tag_11:\n        /* \"ownership/Ownable.sol\":434:441  address */\n      0x00\n        /* \"ownership/Ownable.sol\":456:461  owner */\n      0x01\n      0x00\n      swap1\n      sload\n      swap1\n      0x0100\n      exp\n      swap1\n      div\n      0xffffffffffffffffffffffffffffffffffffffff\n      and\n        /* \"ownership/Ownable.sol\":449:461  return owner */\n      swap1\n      pop\n        /* \"ownership/Ownable.sol\":386:466  function contractOwner() external view returns (address) {... */\n      swap1\n      jump\t// out\n        /* \"ownership/Ownable.sol\":557:776  function transferOwnership(address _newOwner) external nonReentrant onlyOwner {... */\n    tag_17:\n        /* \"@openzeppelin/contracts/security/ReentrancyGuard.sol\":1744:1745  2 */\n      0x02\n        /* \"@openzeppelin/contracts/security/ReentrancyGuard.sol\":2325:2332  _status */\n      sload(0x00)\n        /* \"@openzeppelin/contracts/security/ReentrancyGuard.sol\":2325:2344  _status != _ENTERED */\n      eq\n      iszero\n        /* \"@openzeppelin/contracts/security/ReentrancyGuard.sol\":2317:2380  require(_status != _ENTERED, \"ReentrancyGuard: reentrant call\") */\n      tag_21\n      jumpi\n      mload(0x40)\n      0x08c379a000000000000000000000000000000000000000000000000000000000\n      dup2\n      mstore\n      0x04\n      add\n      tag_22\n      swap1\n      tag_23\n      jump\t// in\n    tag_22:\n      mload(0x40)\n      dup1\n      swap2\n      sub\n      swap1\n      revert\n    tag_21:\n        /* \"@openzeppelin/contracts/security/ReentrancyGuard.sol\":1744:1745  2 */\n      0x02\n        /* \"@openzeppelin/contracts/security/ReentrancyGuard.sol\":2455:2462  _status */\n      0x00\n        /* \"@openzeppelin/contracts/security/ReentrancyGuard.sol\":2455:2473  _status = _ENTERED */\n      dup2\n      swap1\n      sstore\n      pop\n        /* \"ownership/Ownable.sol\":324:333  isOwner() */\n      tag_25\n        /* \"ownership/Ownable.sol\":324:331  isOwner */\n      tag_7\n        /* \"ownership/Ownable.sol\":324:333  isOwner() */\n      jump\t// in\n    tag_25:\n        /* \"ownership/Ownable.sol\":316:370  require(isOwner(), \"Ownable: caller is not the owner\") */\n      tag_26\n      jumpi\n      mload(0x40)\n      0x08c379a000000000000000000000000000000000000000000000000000000000\n      dup2\n      mstore\n      0x04\n      add\n      tag_27\n      swap1\n      tag_28\n      jump\t// in\n    tag_27:\n      mload(0x40)\n      dup1\n      swap2\n      sub\n      swap1\n      revert\n    tag_26:\n        /* \"ownership/Ownable.sol\":670:671  0 */\n      0x00\n        /* \"ownership/Ownable.sol\":649:672  _newOwner != address(0) */\n      0xffffffffffffffffffffffffffffffffffffffff\n      and\n        /* \"ownership/Ownable.sol\":649:658  _newOwner */\n      dup2\n        /* \"ownership/Ownable.sol\":649:672  _newOwner != address(0) */\n      0xffffffffffffffffffffffffffffffffffffffff\n      and\n      eq\n      iszero\n        /* \"ownership/Ownable.sol\":641:706  require(_newOwner != address(0), 'Ownable: address is not valid') */\n      tag_30\n      jumpi\n      mload(0x40)\n      0x08c379a000000000000000000000000000000000000000000000000000000000\n      dup2\n      mstore\n      0x04\n      add\n      tag_31\n      swap1\n      tag_32\n      jump\t// in\n    tag_31:\n      mload(0x40)\n      dup1\n      swap2\n      sub\n      swap1\n      revert\n    tag_30:\n        /* \"ownership/Ownable.sol\":720:729  _newOwner */\n      dup1\n        /* \"ownership/Ownable.sol\":712:717  owner */\n      0x01\n      0x00\n        /* \"ownership/Ownable.sol\":712:729  owner = _newOwner */\n      0x0100\n      exp\n      dup2\n      sload\n      dup2\n      0xffffffffffffffffffffffffffffffffffffffff\n      mul\n      not\n      and\n      swap1\n      dup4\n      0xffffffffffffffffffffffffffffffffffffffff\n      and\n      mul\n      or\n      swap1\n      sstore\n      pop\n        /* \"ownership/Ownable.sol\":740:771  NewOwner(msg.sender, _newOwner) */\n      0x70aea8d848e8a90fb7661b227dc522eb6395c3dac71b63cb59edd5c9899b2364\n        /* \"ownership/Ownable.sol\":749:759  msg.sender */\n      caller\n        /* \"ownership/Ownable.sol\":761:770  _newOwner */\n      dup3\n        /* \"ownership/Ownable.sol\":740:771  NewOwner(msg.sender, _newOwner) */\n      mload(0x40)\n      tag_33\n      swap3\n      swap2\n      swap1\n      tag_34\n      jump\t// in\n    tag_33:\n      mload(0x40)\n      dup1\n      swap2\n      sub\n      swap1\n      log1\n        /* \"@openzeppelin/contracts/security/ReentrancyGuard.sol\":1701:1702  1 */\n      0x01\n        /* \"@openzeppelin/contracts/security/ReentrancyGuard.sol\":2628:2635  _status */\n      0x00\n        /* \"@openzeppelin/contracts/security/ReentrancyGuard.sol\":2628:2650  _status = _NOT_ENTERED */\n      dup2\n      swap1\n      sstore\n      pop\n        /* \"ownership/Ownable.sol\":557:776  function transferOwnership(address _newOwner) external nonReentrant onlyOwner {... */\n      pop\n      jump\t// out\n        /* \"#utility.yul\":7:146   */\n    tag_36:\n      0x00\n        /* \"#utility.yul\":91:97   */\n      dup2\n        /* \"#utility.yul\":78:98   */\n      calldataload\n        /* \"#utility.yul\":69:98   */\n      swap1\n      pop\n        /* \"#utility.yul\":107:140   */\n      tag_38\n        /* \"#utility.yul\":134:139   */\n      dup2\n        /* \"#utility.yul\":107:140   */\n      tag_39\n      jump\t// in\n    tag_38:\n        /* \"#utility.yul\":59:146   */\n      swap3\n      swap2\n      pop\n      pop\n      jump\t// out\n        /* \"#utility.yul\":152:414   */\n    tag_16:\n      0x00\n        /* \"#utility.yul\":260:262   */\n      0x20\n        /* \"#utility.yul\":248:257   */\n      dup3\n        /* \"#utility.yul\":239:246   */\n      dup5\n        /* \"#utility.yul\":235:258   */\n      sub\n        /* \"#utility.yul\":231:263   */\n      slt\n        /* \"#utility.yul\":228:230   */\n      iszero\n      tag_41\n      jumpi\n        /* \"#utility.yul\":276:277   */\n      0x00\n        /* \"#utility.yul\":273:274   */\n      dup1\n        /* \"#utility.yul\":266:278   */\n      revert\n        /* \"#utility.yul\":228:230   */\n    tag_41:\n        /* \"#utility.yul\":319:320   */\n      0x00\n        /* \"#utility.yul\":344:397   */\n      tag_42\n        /* \"#utility.yul\":389:396   */\n      dup5\n        /* \"#utility.yul\":380:386   */\n      dup3\n        /* \"#utility.yul\":369:378   */\n      dup6\n        /* \"#utility.yul\":365:387   */\n      add\n        /* \"#utility.yul\":344:397   */\n      tag_36\n      jump\t// in\n    tag_42:\n        /* \"#utility.yul\":334:397   */\n      swap2\n      pop\n        /* \"#utility.yul\":290:407   */\n      pop\n        /* \"#utility.yul\":218:414   */\n      swap3\n      swap2\n      pop\n      pop\n      jump\t// out\n        /* \"#utility.yul\":420:538   */\n    tag_43:\n        /* \"#utility.yul\":507:531   */\n      tag_45\n        /* \"#utility.yul\":525:530   */\n      dup2\n        /* \"#utility.yul\":507:531   */\n      tag_46\n      jump\t// in\n    tag_45:\n        /* \"#utility.yul\":502:505   */\n      dup3\n        /* \"#utility.yul\":495:532   */\n      mstore\n        /* \"#utility.yul\":485:538   */\n      pop\n      pop\n      jump\t// out\n        /* \"#utility.yul\":544:653   */\n    tag_47:\n        /* \"#utility.yul\":625:646   */\n      tag_49\n        /* \"#utility.yul\":640:645   */\n      dup2\n        /* \"#utility.yul\":625:646   */\n      tag_50\n      jump\t// in\n    tag_49:\n        /* \"#utility.yul\":620:623   */\n      dup3\n        /* \"#utility.yul\":613:647   */\n      mstore\n        /* \"#utility.yul\":603:653   */\n      pop\n      pop\n      jump\t// out\n        /* \"#utility.yul\":659:986   */\n    tag_51:\n      0x00\n        /* \"#utility.yul\":822:889   */\n      tag_53\n        /* \"#utility.yul\":886:888   */\n      0x1d\n        /* \"#utility.yul\":881:884   */\n      dup4\n        /* \"#utility.yul\":822:889   */\n      tag_54\n      jump\t// in\n    tag_53:\n        /* \"#utility.yul\":815:889   */\n      swap2\n      pop\n        /* \"#utility.yul\":919:950   */\n      0x4f776e61626c653a2061646472657373206973206e6f742076616c6964000000\n        /* \"#utility.yul\":915:916   */\n      0x00\n        /* \"#utility.yul\":910:913   */\n      dup4\n        /* \"#utility.yul\":906:917   */\n      add\n        /* \"#utility.yul\":899:951   */\n      mstore\n        /* \"#utility.yul\":977:979   */\n      0x20\n        /* \"#utility.yul\":972:975   */\n      dup3\n        /* \"#utility.yul\":968:980   */\n      add\n        /* \"#utility.yul\":961:980   */\n      swap1\n      pop\n        /* \"#utility.yul\":805:986   */\n      swap2\n      swap1\n      pop\n      jump\t// out\n        /* \"#utility.yul\":992:1322   */\n    tag_55:\n      0x00\n        /* \"#utility.yul\":1155:1222   */\n      tag_57\n        /* \"#utility.yul\":1219:1221   */\n      0x20\n        /* \"#utility.yul\":1214:1217   */\n      dup4\n        /* \"#utility.yul\":1155:1222   */\n      tag_54\n      jump\t// in\n    tag_57:\n        /* \"#utility.yul\":1148:1222   */\n      swap2\n      pop\n        /* \"#utility.yul\":1252:1286   */\n      0x4f776e61626c653a2063616c6c6572206973206e6f7420746865206f776e6572\n        /* \"#utility.yul\":1248:1249   */\n      0x00\n        /* \"#utility.yul\":1243:1246   */\n      dup4\n        /* \"#utility.yul\":1239:1250   */\n      add\n        /* \"#utility.yul\":1232:1287   */\n      mstore\n        /* \"#utility.yul\":1313:1315   */\n      0x20\n        /* \"#utility.yul\":1308:1311   */\n      dup3\n        /* \"#utility.yul\":1304:1316   */\n      add\n        /* \"#utility.yul\":1297:1316   */\n      swap1\n      pop\n        /* \"#utility.yul\":1138:1322   */\n      swap2\n      swap1\n      pop\n      jump\t// out\n        /* \"#utility.yul\":1328:1657   */\n    tag_58:\n      0x00\n        /* \"#utility.yul\":1491:1558   */\n      tag_60\n        /* \"#utility.yul\":1555:1557   */\n      0x1f\n        /* \"#utility.yul\":1550:1553   */\n      dup4\n        /* \"#utility.yul\":1491:1558   */\n      tag_54\n      jump\t// in\n    tag_60:\n        /* \"#utility.yul\":1484:1558   */\n      swap2\n      pop\n        /* \"#utility.yul\":1588:1621   */\n      0x5265656e7472616e637947756172643a207265656e7472616e742063616c6c00\n        /* \"#utility.yul\":1584:1585   */\n      0x00\n        /* \"#utility.yul\":1579:1582   */\n      dup4\n        /* \"#utility.yul\":1575:1586   */\n      add\n        /* \"#utility.yul\":1568:1622   */\n      mstore\n        /* \"#utility.yul\":1648:1650   */\n      0x20\n        /* \"#utility.yul\":1643:1646   */\n      dup3\n        /* \"#utility.yul\":1639:1651   */\n      add\n        /* \"#utility.yul\":1632:1651   */\n      swap1\n      pop\n        /* \"#utility.yul\":1474:1657   */\n      swap2\n      swap1\n      pop\n      jump\t// out\n        /* \"#utility.yul\":1663:1885   */\n    tag_13:\n      0x00\n        /* \"#utility.yul\":1794:1796   */\n      0x20\n        /* \"#utility.yul\":1783:1792   */\n      dup3\n        /* \"#utility.yul\":1779:1797   */\n      add\n        /* \"#utility.yul\":1771:1797   */\n      swap1\n      pop\n        /* \"#utility.yul\":1807:1878   */\n      tag_62\n        /* \"#utility.yul\":1875:1876   */\n      0x00\n        /* \"#utility.yul\":1864:1873   */\n      dup4\n        /* \"#utility.yul\":1860:1877   */\n      add\n        /* \"#utility.yul\":1851:1857   */\n      dup5\n        /* \"#utility.yul\":1807:1878   */\n      tag_43\n      jump\t// in\n    tag_62:\n        /* \"#utility.yul\":1761:1885   */\n      swap3\n      swap2\n      pop\n      pop\n      jump\t// out\n        /* \"#utility.yul\":1891:2223   */\n    tag_34:\n      0x00\n        /* \"#utility.yul\":2050:2052   */\n      0x40\n        /* \"#utility.yul\":2039:2048   */\n      dup3\n        /* \"#utility.yul\":2035:2053   */\n      add\n        /* \"#utility.yul\":2027:2053   */\n      swap1\n      pop\n        /* \"#utility.yul\":2063:2134   */\n      tag_64\n        /* \"#utility.yul\":2131:2132   */\n      0x00\n        /* \"#utility.yul\":2120:2129   */\n      dup4\n        /* \"#utility.yul\":2116:2133   */\n      add\n        /* \"#utility.yul\":2107:2113   */\n      dup6\n        /* \"#utility.yul\":2063:2134   */\n      tag_43\n      jump\t// in\n    tag_64:\n        /* \"#utility.yul\":2144:2216   */\n      tag_65\n        /* \"#utility.yul\":2212:2214   */\n      0x20\n        /* \"#utility.yul\":2201:2210   */\n      dup4\n        /* \"#utility.yul\":2197:2215   */\n      add\n        /* \"#utility.yul\":2188:2194   */\n      dup5\n        /* \"#utility.yul\":2144:2216   */\n      tag_43\n      jump\t// in\n    tag_65:\n        /* \"#utility.yul\":2017:2223   */\n      swap4\n      swap3\n      pop\n      pop\n      pop\n      jump\t// out\n        /* \"#utility.yul\":2229:2439   */\n    tag_9:\n      0x00\n        /* \"#utility.yul\":2354:2356   */\n      0x20\n        /* \"#utility.yul\":2343:2352   */\n      dup3\n        /* \"#utility.yul\":2339:2357   */\n      add\n        /* \"#utility.yul\":2331:2357   */\n      swap1\n      pop\n        /* \"#utility.yul\":2367:2432   */\n      tag_67\n        /* \"#utility.yul\":2429:2430   */\n      0x00\n        /* \"#utility.yul\":2418:2427   */\n      dup4\n        /* \"#utility.yul\":2414:2431   */\n      add\n        /* \"#utility.yul\":2405:2411   */\n      dup5\n        /* \"#utility.yul\":2367:2432   */\n      tag_47\n      jump\t// in\n    tag_67:\n        /* \"#utility.yul\":2321:2439   */\n      swap3\n      swap2\n      pop\n      pop\n      jump\t// out\n        /* \"#utility.yul\":2445:2864   */\n    tag_32:\n      0x00\n        /* \"#utility.yul\":2649:2651   */\n      0x20\n        /* \"#utility.yul\":2638:2647   */\n      dup3\n        /* \"#utility.yul\":2634:2652   */\n      add\n        /* \"#utility.yul\":2626:2652   */\n      swap1\n      pop\n        /* \"#utility.yul\":2698:2707   */\n      dup2\n        /* \"#utility.yul\":2692:2696   */\n      dup2\n        /* \"#utility.yul\":2688:2708   */\n      sub\n        /* \"#utility.yul\":2684:2685   */\n      0x00\n        /* \"#utility.yul\":2673:2682   */\n      dup4\n        /* \"#utility.yul\":2669:2686   */\n      add\n        /* \"#utility.yul\":2662:2709   */\n      mstore\n        /* \"#utility.yul\":2726:2857   */\n      tag_69\n        /* \"#utility.yul\":2852:2856   */\n      dup2\n        /* \"#utility.yul\":2726:2857   */\n      tag_51\n      jump\t// in\n    tag_69:\n        /* \"#utility.yul\":2718:2857   */\n      swap1\n      pop\n        /* \"#utility.yul\":2616:2864   */\n      swap2\n      swap1\n      pop\n      jump\t// out\n        /* \"#utility.yul\":2870:3289   */\n    tag_28:\n      0x00\n        /* \"#utility.yul\":3074:3076   */\n      0x20\n        /* \"#utility.yul\":3063:3072   */\n      dup3\n        /* \"#utility.yul\":3059:3077   */\n      add\n        /* \"#utility.yul\":3051:3077   */\n      swap1\n      pop\n        /* \"#utility.yul\":3123:3132   */\n      dup2\n        /* \"#utility.yul\":3117:3121   */\n      dup2\n        /* \"#utility.yul\":3113:3133   */\n      sub\n        /* \"#utility.yul\":3109:3110   */\n      0x00\n        /* \"#utility.yul\":3098:3107   */\n      dup4\n        /* \"#utility.yul\":3094:3111   */\n      add\n        /* \"#utility.yul\":3087:3134   */\n      mstore\n        /* \"#utility.yul\":3151:3282   */\n      tag_71\n        /* \"#utility.yul\":3277:3281   */\n      dup2\n        /* \"#utility.yul\":3151:3282   */\n      tag_55\n      jump\t// in\n    tag_71:\n        /* \"#utility.yul\":3143:3282   */\n      swap1\n      pop\n        /* \"#utility.yul\":3041:3289   */\n      swap2\n      swap1\n      pop\n      jump\t// out\n        /* \"#utility.yul\":3295:3714   */\n    tag_23:\n      0x00\n        /* \"#utility.yul\":3499:3501   */\n      0x20\n        /* \"#utility.yul\":3488:3497   */\n      dup3\n        /* \"#utility.yul\":3484:3502   */\n      add\n        /* \"#utility.yul\":3476:3502   */\n      swap1\n      pop\n        /* \"#utility.yul\":3548:3557   */\n      dup2\n        /* \"#utility.yul\":3542:3546   */\n      dup2\n        /* \"#utility.yul\":3538:3558   */\n      sub\n        /* \"#utility.yul\":3534:3535   */\n      0x00\n        /* \"#utility.yul\":3523:3532   */\n      dup4\n        /* \"#utility.yul\":3519:3536   */\n      add\n        /* \"#utility.yul\":3512:3559   */\n      mstore\n        /* \"#utility.yul\":3576:3707   */\n      tag_73\n        /* \"#utility.yul\":3702:3706   */\n      dup2\n        /* \"#utility.yul\":3576:3707   */\n      tag_58\n      jump\t// in\n    tag_73:\n        /* \"#utility.yul\":3568:3707   */\n      swap1\n      pop\n        /* \"#utility.yul\":3466:3714   */\n      swap2\n      swap1\n      pop\n      jump\t// out\n        /* \"#utility.yul\":3720:3889   */\n    tag_54:\n      0x00\n        /* \"#utility.yul\":3838:3844   */\n      dup3\n        /* \"#utility.yul\":3833:3836   */\n      dup3\n        /* \"#utility.yul\":3826:3845   */\n      mstore\n        /* \"#utility.yul\":3878:3882   */\n      0x20\n        /* \"#utility.yul\":3873:3876   */\n      dup3\n        /* \"#utility.yul\":3869:3883   */\n      add\n        /* \"#utility.yul\":3854:3883   */\n      swap1\n      pop\n        /* \"#utility.yul\":3816:3889   */\n      swap3\n      swap2\n      pop\n      pop\n      jump\t// out\n        /* \"#utility.yul\":3895:3991   */\n    tag_46:\n      0x00\n        /* \"#utility.yul\":3961:3985   */\n      tag_76\n        /* \"#utility.yul\":3979:3984   */\n      dup3\n        /* \"#utility.yul\":3961:3985   */\n      tag_77\n      jump\t// in\n    tag_76:\n        /* \"#utility.yul\":3950:3985   */\n      swap1\n      pop\n        /* \"#utility.yul\":3940:3991   */\n      swap2\n      swap1\n      pop\n      jump\t// out\n        /* \"#utility.yul\":3997:4087   */\n    tag_50:\n      0x00\n        /* \"#utility.yul\":4074:4079   */\n      dup2\n        /* \"#utility.yul\":4067:4080   */\n      iszero\n        /* \"#utility.yul\":4060:4081   */\n      iszero\n        /* \"#utility.yul\":4049:4081   */\n      swap1\n      pop\n        /* \"#utility.yul\":4039:4087   */\n      swap2\n      swap1\n      pop\n      jump\t// out\n        /* \"#utility.yul\":4093:4219   */\n    tag_77:\n      0x00\n        /* \"#utility.yul\":4170:4212   */\n      0xffffffffffffffffffffffffffffffffffffffff\n        /* \"#utility.yul\":4163:4168   */\n      dup3\n        /* \"#utility.yul\":4159:4213   */\n      and\n        /* \"#utility.yul\":4148:4213   */\n      swap1\n      pop\n        /* \"#utility.yul\":4138:4219   */\n      swap2\n      swap1\n      pop\n      jump\t// out\n        /* \"#utility.yul\":4225:4347   */\n    tag_39:\n        /* \"#utility.yul\":4298:4322   */\n      tag_81\n        /* \"#utility.yul\":4316:4321   */\n      dup2\n        /* \"#utility.yul\":4298:4322   */\n      tag_46\n      jump\t// in\n    tag_81:\n        /* \"#utility.yul\":4291:4296   */\n      dup2\n        /* \"#utility.yul\":4288:4323   */\n      eq\n        /* \"#utility.yul\":4278:4280   */\n      tag_82\n      jumpi\n        /* \"#utility.yul\":4337:4338   */\n      0x00\n        /* \"#utility.yul\":4334:4335   */\n      dup1\n        /* \"#utility.yul\":4327:4339   */\n      revert\n        /* \"#utility.yul\":4278:4280   */\n    tag_82:\n        /* \"#utility.yul\":4268:4347   */\n      pop\n      jump\t// out\n\n    auxdata: 0xa26469706673582212204ca659bd2333e8e139bcc412b34a24f9ab234b179392a163528a13491e384e0864736f6c63430008000033\n}\n",
				"bytecode": {
					"linkReferences": {},
					"object": "608060405234801561001057600080fd5b50600160008190555033600160006101000a81548173ffffffffffffffffffffffffffffffffffffffff021916908373ffffffffffffffffffffffffffffffffffffffff160217905550610521806100696000396000f3fe608060405234801561001057600080fd5b50600436106100415760003560e01c80638f32d59b14610046578063ce606ee014610064578063f2fde38b14610082575b600080fd5b61004e61009e565b60405161005b919061040a565b60405180910390f35b61006c6100f6565b60405161007991906103c6565b60405180910390f35b61009c600480360381019061009791906102bf565b610120565b005b6000600160009054906101000a900473ffffffffffffffffffffffffffffffffffffffff1673ffffffffffffffffffffffffffffffffffffffff163373ffffffffffffffffffffffffffffffffffffffff1614905090565b6000600160009054906101000a900473ffffffffffffffffffffffffffffffffffffffff16905090565b60026000541415610166576040517f08c379a000000000000000000000000000000000000000000000000000000000815260040161015d90610465565b60405180910390fd5b600260008190555061017661009e565b6101b5576040517f08c379a00000000000000000000000000000000000000000000000000000000081526004016101ac90610445565b60405180910390fd5b600073ffffffffffffffffffffffffffffffffffffffff168173ffffffffffffffffffffffffffffffffffffffff161415610225576040517f08c379a000000000000000000000000000000000000000000000000000000000815260040161021c90610425565b60405180910390fd5b80600160006101000a81548173ffffffffffffffffffffffffffffffffffffffff021916908373ffffffffffffffffffffffffffffffffffffffff1602179055507f70aea8d848e8a90fb7661b227dc522eb6395c3dac71b63cb59edd5c9899b236433826040516102979291906103e1565b60405180910390a1600160008190555050565b6000813590506102b9816104d4565b92915050565b6000602082840312156102d157600080fd5b60006102df848285016102aa565b91505092915050565b6102f181610496565b82525050565b610300816104a8565b82525050565b6000610313601d83610485565b91507f4f776e61626c653a2061646472657373206973206e6f742076616c69640000006000830152602082019050919050565b6000610353602083610485565b91507f4f776e61626c653a2063616c6c6572206973206e6f7420746865206f776e65726000830152602082019050919050565b6000610393601f83610485565b91507f5265656e7472616e637947756172643a207265656e7472616e742063616c6c006000830152602082019050919050565b60006020820190506103db60008301846102e8565b92915050565b60006040820190506103f660008301856102e8565b61040360208301846102e8565b9392505050565b600060208201905061041f60008301846102f7565b92915050565b6000602082019050818103600083015261043e81610306565b9050919050565b6000602082019050818103600083015261045e81610346565b9050919050565b6000602082019050818103600083015261047e81610386565b9050919050565b600082825260208201905092915050565b60006104a1826104b4565b9050919050565b60008115159050919050565b600073ffffffffffffffffffffffffffffffffffffffff82169050919050565b6104dd81610496565b81146104e857600080fd5b5056fea26469706673582212204ca659bd2333e8e139bcc412b34a24f9ab234b179392a163528a13491e384e0864736f6c63430008000033",
					"opcodes": "PUSH1 0x80 PUSH1 0x40 MSTORE CALLVALUE DUP1 ISZERO PUSH2 0x10 JUMPI PUSH1 0x0 DUP1 REVERT JUMPDEST POP PUSH1 0x1 PUSH1 0x0 DUP2 SWAP1 SSTORE POP CALLER PUSH1 0x1 PUSH1 0x0 PUSH2 0x100 EXP DUP2 SLOAD DUP2 PUSH20 0xFFFFFFFFFFFFFFFFFFFFFFFFFFFFFFFFFFFFFFFF MUL NOT AND SWAP1 DUP4 PUSH20 0xFFFFFFFFFFFFFFFFFFFFFFFFFFFFFFFFFFFFFFFF AND MUL OR SWAP1 SSTORE POP PUSH2 0x521 DUP1 PUSH2 0x69 PUSH1 0x0 CODECOPY PUSH1 0x0 RETURN INVALID PUSH1 0x80 PUSH1 0x40 MSTORE CALLVALUE DUP1 ISZERO PUSH2 0x10 JUMPI PUSH1 0x0 DUP1 REVERT JUMPDEST POP PUSH1 0x4 CALLDATASIZE LT PUSH2 0x41 JUMPI PUSH1 0x0 CALLDATALOAD PUSH1 0xE0 SHR DUP1 PUSH4 0x8F32D59B EQ PUSH2 0x46 JUMPI DUP1 PUSH4 0xCE606EE0 EQ PUSH2 0x64 JUMPI DUP1 PUSH4 0xF2FDE38B EQ PUSH2 0x82 JUMPI JUMPDEST PUSH1 0x0 DUP1 REVERT JUMPDEST PUSH2 0x4E PUSH2 0x9E JUMP JUMPDEST PUSH1 0x40 MLOAD PUSH2 0x5B SWAP2 SWAP1 PUSH2 0x40A JUMP JUMPDEST PUSH1 0x40 MLOAD DUP1 SWAP2 SUB SWAP1 RETURN JUMPDEST PUSH2 0x6C PUSH2 0xF6 JUMP JUMPDEST PUSH1 0x40 MLOAD PUSH2 0x79 SWAP2 SWAP1 PUSH2 0x3C6 JUMP JUMPDEST PUSH1 0x40 MLOAD DUP1 SWAP2 SUB SWAP1 RETURN JUMPDEST PUSH2 0x9C PUSH1 0x4 DUP1 CALLDATASIZE SUB DUP2 ADD SWAP1 PUSH2 0x97 SWAP2 SWAP1 PUSH2 0x2BF JUMP JUMPDEST PUSH2 0x120 JUMP JUMPDEST STOP JUMPDEST PUSH1 0x0 PUSH1 0x1 PUSH1 0x0 SWAP1 SLOAD SWAP1 PUSH2 0x100 EXP SWAP1 DIV PUSH20 0xFFFFFFFFFFFFFFFFFFFFFFFFFFFFFFFFFFFFFFFF AND PUSH20 0xFFFFFFFFFFFFFFFFFFFFFFFFFFFFFFFFFFFFFFFF AND CALLER PUSH20 0xFFFFFFFFFFFFFFFFFFFFFFFFFFFFFFFFFFFFFFFF AND EQ SWAP1 POP SWAP1 JUMP JUMPDEST PUSH1 0x0 PUSH1 0x1 PUSH1 0x0 SWAP1 SLOAD SWAP1 PUSH2 0x100 EXP SWAP1 DIV PUSH20 0xFFFFFFFFFFFFFFFFFFFFFFFFFFFFFFFFFFFFFFFF AND SWAP1 POP SWAP1 JUMP JUMPDEST PUSH1 0x2 PUSH1 0x0 SLOAD EQ ISZERO PUSH2 0x166 JUMPI PUSH1 0x40 MLOAD PUSH32 0x8C379A000000000000000000000000000000000000000000000000000000000 DUP2 MSTORE PUSH1 0x4 ADD PUSH2 0x15D SWAP1 PUSH2 0x465 JUMP JUMPDEST PUSH1 0x40 MLOAD DUP1 SWAP2 SUB SWAP1 REVERT JUMPDEST PUSH1 0x2 PUSH1 0x0 DUP2 SWAP1 SSTORE POP PUSH2 0x176 PUSH2 0x9E JUMP JUMPDEST PUSH2 0x1B5 JUMPI PUSH1 0x40 MLOAD PUSH32 0x8C379A000000000000000000000000000000000000000000000000000000000 DUP2 MSTORE PUSH1 0x4 ADD PUSH2 0x1AC SWAP1 PUSH2 0x445 JUMP JUMPDEST PUSH1 0x40 MLOAD DUP1 SWAP2 SUB SWAP1 REVERT JUMPDEST PUSH1 0x0 PUSH20 0xFFFFFFFFFFFFFFFFFFFFFFFFFFFFFFFFFFFFFFFF AND DUP2 PUSH20 0xFFFFFFFFFFFFFFFFFFFFFFFFFFFFFFFFFFFFFFFF AND EQ ISZERO PUSH2 0x225 JUMPI PUSH1 0x40 MLOAD PUSH32 0x8C379A000000000000000000000000000000000000000000000000000000000 DUP2 MSTORE PUSH1 0x4 ADD PUSH2 0x21C SWAP1 PUSH2 0x425 JUMP JUMPDEST PUSH1 0x40 MLOAD DUP1 SWAP2 SUB SWAP1 REVERT JUMPDEST DUP1 PUSH1 0x1 PUSH1 0x0 PUSH2 0x100 EXP DUP2 SLOAD DUP2 PUSH20 0xFFFFFFFFFFFFFFFFFFFFFFFFFFFFFFFFFFFFFFFF MUL NOT AND SWAP1 DUP4 PUSH20 0xFFFFFFFFFFFFFFFFFFFFFFFFFFFFFFFFFFFFFFFF AND MUL OR SWAP1 SSTORE POP PUSH32 0x70AEA8D848E8A90FB7661B227DC522EB6395C3DAC71B63CB59EDD5C9899B2364 CALLER DUP3 PUSH1 0x40 MLOAD PUSH2 0x297 SWAP3 SWAP2 SWAP1 PUSH2 0x3E1 JUMP JUMPDEST PUSH1 0x40 MLOAD DUP1 SWAP2 SUB SWAP1 LOG1 PUSH1 0x1 PUSH1 0x0 DUP2 SWAP1 SSTORE POP POP JUMP JUMPDEST PUSH1 0x0 DUP2 CALLDATALOAD SWAP1 POP PUSH2 0x2B9 DUP2 PUSH2 0x4D4 JUMP JUMPDEST SWAP3 SWAP2 POP POP JUMP JUMPDEST PUSH1 0x0 PUSH1 0x20 DUP3 DUP5 SUB SLT ISZERO PUSH2 0x2D1 JUMPI PUSH1 0x0 DUP1 REVERT JUMPDEST PUSH1 0x0 PUSH2 0x2DF DUP5 DUP3 DUP6 ADD PUSH2 0x2AA JUMP JUMPDEST SWAP2 POP POP SWAP3 SWAP2 POP POP JUMP JUMPDEST PUSH2 0x2F1 DUP2 PUSH2 0x496 JUMP JUMPDEST DUP3 MSTORE POP POP JUMP JUMPDEST PUSH2 0x300 DUP2 PUSH2 0x4A8 JUMP JUMPDEST DUP3 MSTORE POP POP JUMP JUMPDEST PUSH1 0x0 PUSH2 0x313 PUSH1 0x1D DUP4 PUSH2 0x485 JUMP JUMPDEST SWAP2 POP PUSH32 0x4F776E61626C653A2061646472657373206973206E6F742076616C6964000000 PUSH1 0x0 DUP4 ADD MSTORE PUSH1 0x20 DUP3 ADD SWAP1 POP SWAP2 SWAP1 POP JUMP JUMPDEST PUSH1 0x0 PUSH2 0x353 PUSH1 0x20 DUP4 PUSH2 0x485 JUMP JUMPDEST SWAP2 POP PUSH32 0x4F776E61626C653A2063616C6C6572206973206E6F7420746865206F776E6572 PUSH1 0x0 DUP4 ADD MSTORE PUSH1 0x20 DUP3 ADD SWAP1 POP SWAP2 SWAP1 POP JUMP JUMPDEST PUSH1 0x0 PUSH2 0x393 PUSH1 0x1F DUP4 PUSH2 0x485 JUMP JUMPDEST SWAP2 POP PUSH32 0x5265656E7472616E637947756172643A207265656E7472616E742063616C6C00 PUSH1 0x0 DUP4 ADD MSTORE PUSH1 0x20 DUP3 ADD SWAP1 POP SWAP2 SWAP1 POP JUMP JUMPDEST PUSH1 0x0 PUSH1 0x20 DUP3 ADD SWAP1 POP PUSH2 0x3DB PUSH1 0x0 DUP4 ADD DUP5 PUSH2 0x2E8 JUMP JUMPDEST SWAP3 SWAP2 POP POP JUMP JUMPDEST PUSH1 0x0 PUSH1 0x40 DUP3 ADD SWAP1 POP PUSH2 0x3F6 PUSH1 0x0 DUP4 ADD DUP6 PUSH2 0x2E8 JUMP JUMPDEST PUSH2 0x403 PUSH1 0x20 DUP4 ADD DUP5 PUSH2 0x2E8 JUMP JUMPDEST SWAP4 SWAP3 POP POP POP JUMP JUMPDEST PUSH1 0x0 PUSH1 0x20 DUP3 ADD SWAP1 POP PUSH2 0x41F PUSH1 0x0 DUP4 ADD DUP5 PUSH2 0x2F7 JUMP JUMPDEST SWAP3 SWAP2 POP POP JUMP JUMPDEST PUSH1 0x0 PUSH1 0x20 DUP3 ADD SWAP1 POP DUP2 DUP2 SUB PUSH1 0x0 DUP4 ADD MSTORE PUSH2 0x43E DUP2 PUSH2 0x306 JUMP JUMPDEST SWAP1 POP SWAP2 SWAP1 POP JUMP JUMPDEST PUSH1 0x0 PUSH1 0x20 DUP3 ADD SWAP1 POP DUP2 DUP2 SUB PUSH1 0x0 DUP4 ADD MSTORE PUSH2 0x45E DUP2 PUSH2 0x346 JUMP JUMPDEST SWAP1 POP SWAP2 SWAP1 POP JUMP JUMPDEST PUSH1 0x0 PUSH1 0x20 DUP3 ADD SWAP1 POP DUP2 DUP2 SUB PUSH1 0x0 DUP4 ADD MSTORE PUSH2 0x47E DUP2 PUSH2 0x386 JUMP JUMPDEST SWAP1 POP SWAP2 SWAP1 POP JUMP JUMPDEST PUSH1 0x0 DUP3 DUP3 MSTORE PUSH1 0x20 DUP3 ADD SWAP1 POP SWAP3 SWAP2 POP POP JUMP JUMPDEST PUSH1 0x0 PUSH2 0x4A1 DUP3 PUSH2 0x4B4 JUMP JUMPDEST SWAP1 POP SWAP2 SWAP1 POP JUMP JUMPDEST PUSH1 0x0 DUP2 ISZERO ISZERO SWAP1 POP SWAP2 SWAP1 POP JUMP JUMPDEST PUSH1 0x0 PUSH20 0xFFFFFFFFFFFFFFFFFFFFFFFFFFFFFFFFFFFFFFFF DUP3 AND SWAP1 POP SWAP2 SWAP1 POP JUMP JUMPDEST PUSH2 0x4DD DUP2 PUSH2 0x496 JUMP JUMPDEST DUP2 EQ PUSH2 0x4E8 JUMPI PUSH1 0x0 DUP1 REVERT JUMPDEST POP JUMP INVALID LOG2 PUSH5 0x6970667358 0x22 SLT KECCAK256 0x4C 0xA6 MSIZE 0xBD 0x23 CALLER 0xE8 0xE1 CODECOPY 0xBC 0xC4 SLT 0xB3 0x4A 0x24 0xF9 0xAB 0x23 0x4B OR SWAP4 SWAP3 LOG1 PUSH4 0x528A1349 0x1E CODESIZE 0x4E ADDMOD PUSH5 0x736F6C6343 STOP ADDMOD STOP STOP CALLER "
				},
				"gasEstimates": {
					"creation": {
						"codeDepositCost": "262600",
						"executionCost": "41186",
						"totalCost": "303786"
					},
					"external": {
						"contractOwner()": "1222",
						"isOwner()": "1174",
						"transferOwnership(address)": "infinite"
					}
				},
				"methodIdentifiers": {
					"contractOwner()": "ce606ee0",
					"isOwner()": "8f32d59b",
					"transferOwnership(address)": "f2fde38b"
				}
			},
			"storageLayout": {
				"storage": [
					{
						"astId": 10,
						"contract": "ownership/Ownable.sol:Ownable",
						"label": "_status",
						"offset": 0,
						"slot": "0",
						"type": "t_uint256"
					},
					{
						"astId": 776,
						"contract": "ownership/Ownable.sol:Ownable",
						"label": "owner",
						"offset": 0,
						"slot": "1",
						"type": "t_address"
					}
				],
				"types": {
					"t_address": {
						"encoding": "inplace",
						"label": "address",
						"numberOfBytes": "20"
					},
					"t_uint256": {
						"encoding": "inplace",
						"label": "uint256",
						"numberOfBytes": "32"
					}
				}
			},
			"userdoc": {
				"kind": "user",
				"methods": {},
				"version": 1
			}
		}
	}
}