{
	"lifecycle/Pausable.sol": {
		"Pausable": {
			"abi": [
				{
					"anonymous": false,
					"inputs": [
						{
							"indexed": false,
							"internalType": "address",
							"name": "oldOwner",
							"type": "address"
						},
						{
							"indexed": false,
							"internalType": "address",
							"name": "newOwner",
							"type": "address"
						}
					],
					"name": "NewOwner",
					"type": "event"
				},
				{
					"anonymous": false,
					"inputs": [
						{
							"indexed": false,
							"internalType": "address",
							"name": "account",
							"type": "address"
						}
					],
					"name": "Paused",
					"type": "event"
				},
				{
					"anonymous": false,
					"inputs": [
						{
							"indexed": false,
							"internalType": "address",
							"name": "account",
							"type": "address"
						}
					],
					"name": "Unpaused",
					"type": "event"
				},
				{
					"inputs": [],
					"name": "contractOwner",
					"outputs": [
						{
							"internalType": "address",
							"name": "",
							"type": "address"
						}
					],
					"stateMutability": "view",
					"type": "function"
				},
				{
					"inputs": [],
					"name": "isOwner",
					"outputs": [
						{
							"internalType": "bool",
							"name": "",
							"type": "bool"
						}
					],
					"stateMutability": "view",
					"type": "function"
				},
				{
					"inputs": [],
					"name": "pause",
					"outputs": [],
					"stateMutability": "nonpayable",
					"type": "function"
				},
				{
					"inputs": [],
					"name": "paused",
					"outputs": [
						{
							"internalType": "bool",
							"name": "",
							"type": "bool"
						}
					],
					"stateMutability": "view",
					"type": "function"
				},
				{
					"inputs": [
						{
							"internalType": "address",
							"name": "_newOwner",
							"type": "address"
						}
					],
					"name": "transferOwnership",
					"outputs": [],
					"stateMutability": "nonpayable",
					"type": "function"
				},
				{
					"inputs": [],
					"name": "unpause",
					"outputs": [],
					"stateMutability": "nonpayable",
					"type": "function"
				}
			],
			"devdoc": {
				"kind": "dev",
				"methods": {},
				"version": 1
			},
			"evm": {
				"assembly": "    /* \"lifecycle/Pausable.sol\":92:742  contract Pausable is Ownable {... */\n  mstore(0x40, 0x80)\n  callvalue\n  dup1\n  iszero\n  tag_1\n  jumpi\n  0x00\n  dup1\n  revert\ntag_1:\n  pop\n    /* \"ownership/Ownable.sol\":187:197  msg.sender */\n  caller\n    /* \"ownership/Ownable.sol\":179:184  owner */\n  0x00\n  dup1\n    /* \"ownership/Ownable.sol\":179:197  owner = msg.sender */\n  0x0100\n  exp\n  dup2\n  sload\n  dup2\n  0xffffffffffffffffffffffffffffffffffffffff\n  mul\n  not\n  and\n  swap1\n  dup4\n  0xffffffffffffffffffffffffffffffffffffffff\n  and\n  mul\n  or\n  swap1\n  sstore\n  pop\n    /* \"lifecycle/Pausable.sol\":92:742  contract Pausable is Ownable {... */\n  dataSize(sub_0)\n  dup1\n  dataOffset(sub_0)\n  0x00\n  codecopy\n  0x00\n  return\nstop\n\nsub_0: assembly {\n        /* \"lifecycle/Pausable.sol\":92:742  contract Pausable is Ownable {... */\n      mstore(0x40, 0x80)\n      callvalue\n      dup1\n      iszero\n      tag_1\n      jumpi\n      0x00\n      dup1\n      revert\n    tag_1:\n      pop\n      jumpi(tag_2, lt(calldatasize, 0x04))\n      shr(0xe0, calldataload(0x00))\n      dup1\n      0x3f4ba83a\n      eq\n      tag_3\n      jumpi\n      dup1\n      0x5c975abb\n      eq\n      tag_4\n      jumpi\n      dup1\n      0x8456cb59\n      eq\n      tag_5\n      jumpi\n      dup1\n      0x8f32d59b\n      eq\n      tag_6\n      jumpi\n      dup1\n      0xce606ee0\n      eq\n      tag_7\n      jumpi\n      dup1\n      0xf2fde38b\n      eq\n      tag_8\n      jumpi\n    tag_2:\n      0x00\n      dup1\n      revert\n        /* \"lifecycle/Pausable.sol\":624:740  function unpause() external onlyOwner whenPaused {... */\n    tag_3:\n      tag_9\n      tag_10\n      jump\t// in\n    tag_9:\n      stop\n        /* \"lifecycle/Pausable.sol\":420:498  function paused() external view returns (bool) {... */\n    tag_4:\n      tag_11\n      tag_12\n      jump\t// in\n    tag_11:\n      mload(0x40)\n      tag_13\n      swap2\n      swap1\n      tag_14\n      jump\t// in\n    tag_13:\n      mload(0x40)\n      dup1\n      swap2\n      sub\n      swap1\n      return\n        /* \"lifecycle/Pausable.sol\":504:618  function pause() external onlyOwner whenNotPaused {... */\n    tag_5:\n      tag_15\n      tag_16\n      jump\t// in\n    tag_15:\n      stop\n        /* \"ownership/Ownable.sol\":387:470  function isOwner() public view returns (bool) {... */\n    tag_6:\n      tag_17\n      tag_18\n      jump\t// in\n    tag_17:\n      mload(0x40)\n      tag_19\n      swap2\n      swap1\n      tag_14\n      jump\t// in\n    tag_19:\n      mload(0x40)\n      dup1\n      swap2\n      sub\n      swap1\n      return\n        /* \"ownership/Ownable.sol\":303:383  function contractOwner() external view returns (address) {... */\n    tag_7:\n      tag_20\n      tag_21\n      jump\t// in\n    tag_20:\n      mload(0x40)\n      tag_22\n      swap2\n      swap1\n      tag_23\n      jump\t// in\n    tag_22:\n      mload(0x40)\n      dup1\n      swap2\n      sub\n      swap1\n      return\n        /* \"ownership/Ownable.sol\":474:680  function transferOwnership(address _newOwner) external onlyOwner {... */\n    tag_8:\n      tag_24\n      0x04\n      dup1\n      calldatasize\n      sub\n      dup2\n      add\n      swap1\n      tag_25\n      swap2\n      swap1\n      tag_26\n      jump\t// in\n    tag_25:\n      tag_27\n      jump\t// in\n    tag_24:\n      stop\n        /* \"lifecycle/Pausable.sol\":624:740  function unpause() external onlyOwner whenPaused {... */\n    tag_10:\n        /* \"ownership/Ownable.sol\":241:250  isOwner() */\n      tag_29\n        /* \"ownership/Ownable.sol\":241:248  isOwner */\n      tag_18\n        /* \"ownership/Ownable.sol\":241:250  isOwner() */\n      jump\t// in\n    tag_29:\n        /* \"ownership/Ownable.sol\":233:287  require(isOwner(), \"Ownable: caller is not the owner\") */\n      tag_30\n      jumpi\n      mload(0x40)\n      0x08c379a000000000000000000000000000000000000000000000000000000000\n      dup2\n      mstore\n      0x04\n      add\n      tag_31\n      swap1\n      tag_32\n      jump\t// in\n    tag_31:\n      mload(0x40)\n      dup1\n      swap2\n      sub\n      swap1\n      revert\n    tag_30:\n        /* \"lifecycle/Pausable.sol\":364:371  _paused */\n      0x00\n      0x14\n      swap1\n      sload\n      swap1\n      0x0100\n      exp\n      swap1\n      div\n      0xff\n      and\n        /* \"lifecycle/Pausable.sol\":356:396  require(_paused, \"Pausable: not paused\") */\n      tag_34\n      jumpi\n      mload(0x40)\n      0x08c379a000000000000000000000000000000000000000000000000000000000\n      dup2\n      mstore\n      0x04\n      add\n      tag_35\n      swap1\n      tag_36\n      jump\t// in\n    tag_35:\n      mload(0x40)\n      dup1\n      swap2\n      sub\n      swap1\n      revert\n    tag_34:\n        /* \"lifecycle/Pausable.sol\":693:698  false */\n      0x00\n        /* \"lifecycle/Pausable.sol\":683:690  _paused */\n      dup1\n      0x14\n        /* \"lifecycle/Pausable.sol\":683:698  _paused = false */\n      0x0100\n      exp\n      dup2\n      sload\n      dup2\n      0xff\n      mul\n      not\n      and\n      swap1\n      dup4\n      iszero\n      iszero\n      mul\n      or\n      swap1\n      sstore\n      pop\n        /* \"lifecycle/Pausable.sol\":713:733  Unpaused(msg.sender) */\n      0x5db9ee0a495bf2e6ff9c91a7834c1ba4fdd244a5e8aa4e537bd38aeae4b073aa\n        /* \"lifecycle/Pausable.sol\":722:732  msg.sender */\n      caller\n        /* \"lifecycle/Pausable.sol\":713:733  Unpaused(msg.sender) */\n      mload(0x40)\n      tag_38\n      swap2\n      swap1\n      tag_23\n      jump\t// in\n    tag_38:\n      mload(0x40)\n      dup1\n      swap2\n      sub\n      swap1\n      log1\n        /* \"lifecycle/Pausable.sol\":624:740  function unpause() external onlyOwner whenPaused {... */\n      jump\t// out\n        /* \"lifecycle/Pausable.sol\":420:498  function paused() external view returns (bool) {... */\n    tag_12:\n        /* \"lifecycle/Pausable.sol\":461:465  bool */\n      0x00\n        /* \"lifecycle/Pausable.sol\":484:491  _paused */\n      dup1\n      0x14\n      swap1\n      sload\n      swap1\n      0x0100\n      exp\n      swap1\n      div\n      0xff\n      and\n        /* \"lifecycle/Pausable.sol\":477:491  return _paused */\n      swap1\n      pop\n        /* \"lifecycle/Pausable.sol\":420:498  function paused() external view returns (bool) {... */\n      swap1\n      jump\t// out\n        /* \"lifecycle/Pausable.sol\":504:618  function pause() external onlyOwner whenNotPaused {... */\n    tag_16:\n        /* \"ownership/Ownable.sol\":241:250  isOwner() */\n      tag_41\n        /* \"ownership/Ownable.sol\":241:248  isOwner */\n      tag_18\n        /* \"ownership/Ownable.sol\":241:250  isOwner() */\n      jump\t// in\n    tag_41:\n        /* \"ownership/Ownable.sol\":233:287  require(isOwner(), \"Ownable: caller is not the owner\") */\n      tag_42\n      jumpi\n      mload(0x40)\n      0x08c379a000000000000000000000000000000000000000000000000000000000\n      dup2\n      mstore\n      0x04\n      add\n      tag_43\n      swap1\n      tag_32\n      jump\t// in\n    tag_43:\n      mload(0x40)\n      dup1\n      swap2\n      sub\n      swap1\n      revert\n    tag_42:\n        /* \"lifecycle/Pausable.sol\":272:279  _paused */\n      0x00\n      0x14\n      swap1\n      sload\n      swap1\n      0x0100\n      exp\n      swap1\n      div\n      0xff\n      and\n        /* \"lifecycle/Pausable.sol\":271:279  !_paused */\n      iszero\n        /* \"lifecycle/Pausable.sol\":263:300  require(!_paused, \"Pausable: paused\") */\n      tag_45\n      jumpi\n      mload(0x40)\n      0x08c379a000000000000000000000000000000000000000000000000000000000\n      dup2\n      mstore\n      0x04\n      add\n      tag_46\n      swap1\n      tag_47\n      jump\t// in\n    tag_46:\n      mload(0x40)\n      dup1\n      swap2\n      sub\n      swap1\n      revert\n    tag_45:\n        /* \"lifecycle/Pausable.sol\":574:578  true */\n      0x01\n        /* \"lifecycle/Pausable.sol\":564:571  _paused */\n      0x00\n      0x14\n        /* \"lifecycle/Pausable.sol\":564:578  _paused = true */\n      0x0100\n      exp\n      dup2\n      sload\n      dup2\n      0xff\n      mul\n      not\n      and\n      swap1\n      dup4\n      iszero\n      iszero\n      mul\n      or\n      swap1\n      sstore\n      pop\n        /* \"lifecycle/Pausable.sol\":593:611  Paused(msg.sender) */\n      0x62e78cea01bee320cd4e420270b5ea74000d11b0c9f74754ebdbfc544b05a258\n        /* \"lifecycle/Pausable.sol\":600:610  msg.sender */\n      caller\n        /* \"lifecycle/Pausable.sol\":593:611  Paused(msg.sender) */\n      mload(0x40)\n      tag_49\n      swap2\n      swap1\n      tag_23\n      jump\t// in\n    tag_49:\n      mload(0x40)\n      dup1\n      swap2\n      sub\n      swap1\n      log1\n        /* \"lifecycle/Pausable.sol\":504:618  function pause() external onlyOwner whenNotPaused {... */\n      jump\t// out\n        /* \"ownership/Ownable.sol\":387:470  function isOwner() public view returns (bool) {... */\n    tag_18:\n        /* \"ownership/Ownable.sol\":427:431  bool */\n      0x00\n        /* \"ownership/Ownable.sol\":460:465  owner */\n      dup1\n      0x00\n      swap1\n      sload\n      swap1\n      0x0100\n      exp\n      swap1\n      div\n      0xffffffffffffffffffffffffffffffffffffffff\n      and\n        /* \"ownership/Ownable.sol\":446:465  msg.sender == owner */\n      0xffffffffffffffffffffffffffffffffffffffff\n      and\n        /* \"ownership/Ownable.sol\":446:456  msg.sender */\n      caller\n        /* \"ownership/Ownable.sol\":446:465  msg.sender == owner */\n      0xffffffffffffffffffffffffffffffffffffffff\n      and\n      eq\n        /* \"ownership/Ownable.sol\":439:465  return msg.sender == owner */\n      swap1\n      pop\n        /* \"ownership/Ownable.sol\":387:470  function isOwner() public view returns (bool) {... */\n      swap1\n      jump\t// out\n        /* \"ownership/Ownable.sol\":303:383  function contractOwner() external view returns (address) {... */\n    tag_21:\n        /* \"ownership/Ownable.sol\":351:358  address */\n      0x00\n        /* \"ownership/Ownable.sol\":373:378  owner */\n      dup1\n      0x00\n      swap1\n      sload\n      swap1\n      0x0100\n      exp\n      swap1\n      div\n      0xffffffffffffffffffffffffffffffffffffffff\n      and\n        /* \"ownership/Ownable.sol\":366:378  return owner */\n      swap1\n      pop\n        /* \"ownership/Ownable.sol\":303:383  function contractOwner() external view returns (address) {... */\n      swap1\n      jump\t// out\n        /* \"ownership/Ownable.sol\":474:680  function transferOwnership(address _newOwner) external onlyOwner {... */\n    tag_27:\n        /* \"ownership/Ownable.sol\":241:250  isOwner() */\n      tag_53\n        /* \"ownership/Ownable.sol\":241:248  isOwner */\n      tag_18\n        /* \"ownership/Ownable.sol\":241:250  isOwner() */\n      jump\t// in\n    tag_53:\n        /* \"ownership/Ownable.sol\":233:287  require(isOwner(), \"Ownable: caller is not the owner\") */\n      tag_54\n      jumpi\n      mload(0x40)\n      0x08c379a000000000000000000000000000000000000000000000000000000000\n      dup2\n      mstore\n      0x04\n      add\n      tag_55\n      swap1\n      tag_32\n      jump\t// in\n    tag_55:\n      mload(0x40)\n      dup1\n      swap2\n      sub\n      swap1\n      revert\n    tag_54:\n        /* \"ownership/Ownable.sol\":574:575  0 */\n      0x00\n        /* \"ownership/Ownable.sol\":553:576  _newOwner != address(0) */\n      0xffffffffffffffffffffffffffffffffffffffff\n      and\n        /* \"ownership/Ownable.sol\":553:562  _newOwner */\n      dup2\n        /* \"ownership/Ownable.sol\":553:576  _newOwner != address(0) */\n      0xffffffffffffffffffffffffffffffffffffffff\n      and\n      eq\n      iszero\n        /* \"ownership/Ownable.sol\":545:610  require(_newOwner != address(0), 'Ownable: address is not valid') */\n      tag_57\n      jumpi\n      mload(0x40)\n      0x08c379a000000000000000000000000000000000000000000000000000000000\n      dup2\n      mstore\n      0x04\n      add\n      tag_58\n      swap1\n      tag_59\n      jump\t// in\n    tag_58:\n      mload(0x40)\n      dup1\n      swap2\n      sub\n      swap1\n      revert\n    tag_57:\n        /* \"ownership/Ownable.sol\":624:633  _newOwner */\n      dup1\n        /* \"ownership/Ownable.sol\":616:621  owner */\n      0x00\n      dup1\n        /* \"ownership/Ownable.sol\":616:633  owner = _newOwner */\n      0x0100\n      exp\n      dup2\n      sload\n      dup2\n      0xffffffffffffffffffffffffffffffffffffffff\n      mul\n      not\n      and\n      swap1\n      dup4\n      0xffffffffffffffffffffffffffffffffffffffff\n      and\n      mul\n      or\n      swap1\n      sstore\n      pop\n        /* \"ownership/Ownable.sol\":644:675  NewOwner(msg.sender, _newOwner) */\n      0x70aea8d848e8a90fb7661b227dc522eb6395c3dac71b63cb59edd5c9899b2364\n        /* \"ownership/Ownable.sol\":653:663  msg.sender */\n      caller\n        /* \"ownership/Ownable.sol\":665:674  _newOwner */\n      dup3\n        /* \"ownership/Ownable.sol\":644:675  NewOwner(msg.sender, _newOwner) */\n      mload(0x40)\n      tag_60\n      swap3\n      swap2\n      swap1\n      tag_61\n      jump\t// in\n    tag_60:\n      mload(0x40)\n      dup1\n      swap2\n      sub\n      swap1\n      log1\n        /* \"ownership/Ownable.sol\":474:680  function transferOwnership(address _newOwner) external onlyOwner {... */\n      pop\n      jump\t// out\n        /* \"#utility.yul\":7:146   */\n    tag_63:\n      0x00\n        /* \"#utility.yul\":91:97   */\n      dup2\n        /* \"#utility.yul\":78:98   */\n      calldataload\n        /* \"#utility.yul\":69:98   */\n      swap1\n      pop\n        /* \"#utility.yul\":107:140   */\n      tag_65\n        /* \"#utility.yul\":134:139   */\n      dup2\n        /* \"#utility.yul\":107:140   */\n      tag_66\n      jump\t// in\n    tag_65:\n        /* \"#utility.yul\":59:146   */\n      swap3\n      swap2\n      pop\n      pop\n      jump\t// out\n        /* \"#utility.yul\":152:414   */\n    tag_26:\n      0x00\n        /* \"#utility.yul\":260:262   */\n      0x20\n        /* \"#utility.yul\":248:257   */\n      dup3\n        /* \"#utility.yul\":239:246   */\n      dup5\n        /* \"#utility.yul\":235:258   */\n      sub\n        /* \"#utility.yul\":231:263   */\n      slt\n        /* \"#utility.yul\":228:230   */\n      iszero\n      tag_68\n      jumpi\n        /* \"#utility.yul\":276:277   */\n      0x00\n        /* \"#utility.yul\":273:274   */\n      dup1\n        /* \"#utility.yul\":266:278   */\n      revert\n        /* \"#utility.yul\":228:230   */\n    tag_68:\n        /* \"#utility.yul\":319:320   */\n      0x00\n        /* \"#utility.yul\":344:397   */\n      tag_69\n        /* \"#utility.yul\":389:396   */\n      dup5\n        /* \"#utility.yul\":380:386   */\n      dup3\n        /* \"#utility.yul\":369:378   */\n      dup6\n        /* \"#utility.yul\":365:387   */\n      add\n        /* \"#utility.yul\":344:397   */\n      tag_63\n      jump\t// in\n    tag_69:\n        /* \"#utility.yul\":334:397   */\n      swap2\n      pop\n        /* \"#utility.yul\":290:407   */\n      pop\n        /* \"#utility.yul\":218:414   */\n      swap3\n      swap2\n      pop\n      pop\n      jump\t// out\n        /* \"#utility.yul\":420:538   */\n    tag_70:\n        /* \"#utility.yul\":507:531   */\n      tag_72\n        /* \"#utility.yul\":525:530   */\n      dup2\n        /* \"#utility.yul\":507:531   */\n      tag_73\n      jump\t// in\n    tag_72:\n        /* \"#utility.yul\":502:505   */\n      dup3\n        /* \"#utility.yul\":495:532   */\n      mstore\n        /* \"#utility.yul\":485:538   */\n      pop\n      pop\n      jump\t// out\n        /* \"#utility.yul\":544:653   */\n    tag_74:\n        /* \"#utility.yul\":625:646   */\n      tag_76\n        /* \"#utility.yul\":640:645   */\n      dup2\n        /* \"#utility.yul\":625:646   */\n      tag_77\n      jump\t// in\n    tag_76:\n        /* \"#utility.yul\":620:623   */\n      dup3\n        /* \"#utility.yul\":613:647   */\n      mstore\n        /* \"#utility.yul\":603:653   */\n      pop\n      pop\n      jump\t// out\n        /* \"#utility.yul\":659:977   */\n    tag_78:\n      0x00\n        /* \"#utility.yul\":822:889   */\n      tag_80\n        /* \"#utility.yul\":886:888   */\n      0x14\n        /* \"#utility.yul\":881:884   */\n      dup4\n        /* \"#utility.yul\":822:889   */\n      tag_81\n      jump\t// in\n    tag_80:\n        /* \"#utility.yul\":815:889   */\n      swap2\n      pop\n        /* \"#utility.yul\":919:941   */\n      0x5061757361626c653a206e6f7420706175736564000000000000000000000000\n        /* \"#utility.yul\":915:916   */\n      0x00\n        /* \"#utility.yul\":910:913   */\n      dup4\n        /* \"#utility.yul\":906:917   */\n      add\n        /* \"#utility.yul\":899:942   */\n      mstore\n        /* \"#utility.yul\":968:970   */\n      0x20\n        /* \"#utility.yul\":963:966   */\n      dup3\n        /* \"#utility.yul\":959:971   */\n      add\n        /* \"#utility.yul\":952:971   */\n      swap1\n      pop\n        /* \"#utility.yul\":805:977   */\n      swap2\n      swap1\n      pop\n      jump\t// out\n        /* \"#utility.yul\":983:1297   */\n    tag_82:\n      0x00\n        /* \"#utility.yul\":1146:1213   */\n      tag_84\n        /* \"#utility.yul\":1210:1212   */\n      0x10\n        /* \"#utility.yul\":1205:1208   */\n      dup4\n        /* \"#utility.yul\":1146:1213   */\n      tag_81\n      jump\t// in\n    tag_84:\n        /* \"#utility.yul\":1139:1213   */\n      swap2\n      pop\n        /* \"#utility.yul\":1243:1261   */\n      0x5061757361626c653a2070617573656400000000000000000000000000000000\n        /* \"#utility.yul\":1239:1240   */\n      0x00\n        /* \"#utility.yul\":1234:1237   */\n      dup4\n        /* \"#utility.yul\":1230:1241   */\n      add\n        /* \"#utility.yul\":1223:1262   */\n      mstore\n        /* \"#utility.yul\":1288:1290   */\n      0x20\n        /* \"#utility.yul\":1283:1286   */\n      dup3\n        /* \"#utility.yul\":1279:1291   */\n      add\n        /* \"#utility.yul\":1272:1291   */\n      swap1\n      pop\n        /* \"#utility.yul\":1129:1297   */\n      swap2\n      swap1\n      pop\n      jump\t// out\n        /* \"#utility.yul\":1303:1630   */\n    tag_85:\n      0x00\n        /* \"#utility.yul\":1466:1533   */\n      tag_87\n        /* \"#utility.yul\":1530:1532   */\n      0x1d\n        /* \"#utility.yul\":1525:1528   */\n      dup4\n        /* \"#utility.yul\":1466:1533   */\n      tag_81\n      jump\t// in\n    tag_87:\n        /* \"#utility.yul\":1459:1533   */\n      swap2\n      pop\n        /* \"#utility.yul\":1563:1594   */\n      0x4f776e61626c653a2061646472657373206973206e6f742076616c6964000000\n        /* \"#utility.yul\":1559:1560   */\n      0x00\n        /* \"#utility.yul\":1554:1557   */\n      dup4\n        /* \"#utility.yul\":1550:1561   */\n      add\n        /* \"#utility.yul\":1543:1595   */\n      mstore\n        /* \"#utility.yul\":1621:1623   */\n      0x20\n        /* \"#utility.yul\":1616:1619   */\n      dup3\n        /* \"#utility.yul\":1612:1624   */\n      add\n        /* \"#utility.yul\":1605:1624   */\n      swap1\n      pop\n        /* \"#utility.yul\":1449:1630   */\n      swap2\n      swap1\n      pop\n      jump\t// out\n        /* \"#utility.yul\":1636:1966   */\n    tag_88:\n      0x00\n        /* \"#utility.yul\":1799:1866   */\n      tag_90\n        /* \"#utility.yul\":1863:1865   */\n      0x20\n        /* \"#utility.yul\":1858:1861   */\n      dup4\n        /* \"#utility.yul\":1799:1866   */\n      tag_81\n      jump\t// in\n    tag_90:\n        /* \"#utility.yul\":1792:1866   */\n      swap2\n      pop\n        /* \"#utility.yul\":1896:1930   */\n      0x4f776e61626c653a2063616c6c6572206973206e6f7420746865206f776e6572\n        /* \"#utility.yul\":1892:1893   */\n      0x00\n        /* \"#utility.yul\":1887:1890   */\n      dup4\n        /* \"#utility.yul\":1883:1894   */\n      add\n        /* \"#utility.yul\":1876:1931   */\n      mstore\n        /* \"#utility.yul\":1957:1959   */\n      0x20\n        /* \"#utility.yul\":1952:1955   */\n      dup3\n        /* \"#utility.yul\":1948:1960   */\n      add\n        /* \"#utility.yul\":1941:1960   */\n      swap1\n      pop\n        /* \"#utility.yul\":1782:1966   */\n      swap2\n      swap1\n      pop\n      jump\t// out\n        /* \"#utility.yul\":1972:2194   */\n    tag_23:\n      0x00\n        /* \"#utility.yul\":2103:2105   */\n      0x20\n        /* \"#utility.yul\":2092:2101   */\n      dup3\n        /* \"#utility.yul\":2088:2106   */\n      add\n        /* \"#utility.yul\":2080:2106   */\n      swap1\n      pop\n        /* \"#utility.yul\":2116:2187   */\n      tag_92\n        /* \"#utility.yul\":2184:2185   */\n      0x00\n        /* \"#utility.yul\":2173:2182   */\n      dup4\n        /* \"#utility.yul\":2169:2186   */\n      add\n        /* \"#utility.yul\":2160:2166   */\n      dup5\n        /* \"#utility.yul\":2116:2187   */\n      tag_70\n      jump\t// in\n    tag_92:\n        /* \"#utility.yul\":2070:2194   */\n      swap3\n      swap2\n      pop\n      pop\n      jump\t// out\n        /* \"#utility.yul\":2200:2532   */\n    tag_61:\n      0x00\n        /* \"#utility.yul\":2359:2361   */\n      0x40\n        /* \"#utility.yul\":2348:2357   */\n      dup3\n        /* \"#utility.yul\":2344:2362   */\n      add\n        /* \"#utility.yul\":2336:2362   */\n      swap1\n      pop\n        /* \"#utility.yul\":2372:2443   */\n      tag_94\n        /* \"#utility.yul\":2440:2441   */\n      0x00\n        /* \"#utility.yul\":2429:2438   */\n      dup4\n        /* \"#utility.yul\":2425:2442   */\n      add\n        /* \"#utility.yul\":2416:2422   */\n      dup6\n        /* \"#utility.yul\":2372:2443   */\n      tag_70\n      jump\t// in\n    tag_94:\n        /* \"#utility.yul\":2453:2525   */\n      tag_95\n        /* \"#utility.yul\":2521:2523   */\n      0x20\n        /* \"#utility.yul\":2510:2519   */\n      dup4\n        /* \"#utility.yul\":2506:2524   */\n      add\n        /* \"#utility.yul\":2497:2503   */\n      dup5\n        /* \"#utility.yul\":2453:2525   */\n      tag_70\n      jump\t// in\n    tag_95:\n        /* \"#utility.yul\":2326:2532   */\n      swap4\n      swap3\n      pop\n      pop\n      pop\n      jump\t// out\n        /* \"#utility.yul\":2538:2748   */\n    tag_14:\n      0x00\n        /* \"#utility.yul\":2663:2665   */\n      0x20\n        /* \"#utility.yul\":2652:2661   */\n      dup3\n        /* \"#utility.yul\":2648:2666   */\n      add\n        /* \"#utility.yul\":2640:2666   */\n      swap1\n      pop\n        /* \"#utility.yul\":2676:2741   */\n      tag_97\n        /* \"#utility.yul\":2738:2739   */\n      0x00\n        /* \"#utility.yul\":2727:2736   */\n      dup4\n        /* \"#utility.yul\":2723:2740   */\n      add\n        /* \"#utility.yul\":2714:2720   */\n      dup5\n        /* \"#utility.yul\":2676:2741   */\n      tag_74\n      jump\t// in\n    tag_97:\n        /* \"#utility.yul\":2630:2748   */\n      swap3\n      swap2\n      pop\n      pop\n      jump\t// out\n        /* \"#utility.yul\":2754:3173   */\n    tag_36:\n      0x00\n        /* \"#utility.yul\":2958:2960   */\n      0x20\n        /* \"#utility.yul\":2947:2956   */\n      dup3\n        /* \"#utility.yul\":2943:2961   */\n      add\n        /* \"#utility.yul\":2935:2961   */\n      swap1\n      pop\n        /* \"#utility.yul\":3007:3016   */\n      dup2\n        /* \"#utility.yul\":3001:3005   */\n      dup2\n        /* \"#utility.yul\":2997:3017   */\n      sub\n        /* \"#utility.yul\":2993:2994   */\n      0x00\n        /* \"#utility.yul\":2982:2991   */\n      dup4\n        /* \"#utility.yul\":2978:2995   */\n      add\n        /* \"#utility.yul\":2971:3018   */\n      mstore\n        /* \"#utility.yul\":3035:3166   */\n      tag_99\n        /* \"#utility.yul\":3161:3165   */\n      dup2\n        /* \"#utility.yul\":3035:3166   */\n      tag_78\n      jump\t// in\n    tag_99:\n        /* \"#utility.yul\":3027:3166   */\n      swap1\n      pop\n        /* \"#utility.yul\":2925:3173   */\n      swap2\n      swap1\n      pop\n      jump\t// out\n        /* \"#utility.yul\":3179:3598   */\n    tag_47:\n      0x00\n        /* \"#utility.yul\":3383:3385   */\n      0x20\n        /* \"#utility.yul\":3372:3381   */\n      dup3\n        /* \"#utility.yul\":3368:3386   */\n      add\n        /* \"#utility.yul\":3360:3386   */\n      swap1\n      pop\n        /* \"#utility.yul\":3432:3441   */\n      dup2\n        /* \"#utility.yul\":3426:3430   */\n      dup2\n        /* \"#utility.yul\":3422:3442   */\n      sub\n        /* \"#utility.yul\":3418:3419   */\n      0x00\n        /* \"#utility.yul\":3407:3416   */\n      dup4\n        /* \"#utility.yul\":3403:3420   */\n      add\n        /* \"#utility.yul\":3396:3443   */\n      mstore\n        /* \"#utility.yul\":3460:3591   */\n      tag_101\n        /* \"#utility.yul\":3586:3590   */\n      dup2\n        /* \"#utility.yul\":3460:3591   */\n      tag_82\n      jump\t// in\n    tag_101:\n        /* \"#utility.yul\":3452:3591   */\n      swap1\n      pop\n        /* \"#utility.yul\":3350:3598   */\n      swap2\n      swap1\n      pop\n      jump\t// out\n        /* \"#utility.yul\":3604:4023   */\n    tag_59:\n      0x00\n        /* \"#utility.yul\":3808:3810   */\n      0x20\n        /* \"#utility.yul\":3797:3806   */\n      dup3\n        /* \"#utility.yul\":3793:3811   */\n      add\n        /* \"#utility.yul\":3785:3811   */\n      swap1\n      pop\n        /* \"#utility.yul\":3857:3866   */\n      dup2\n        /* \"#utility.yul\":3851:3855   */\n      dup2\n        /* \"#utility.yul\":3847:3867   */\n      sub\n        /* \"#utility.yul\":3843:3844   */\n      0x00\n        /* \"#utility.yul\":3832:3841   */\n      dup4\n        /* \"#utility.yul\":3828:3845   */\n      add\n        /* \"#utility.yul\":3821:3868   */\n      mstore\n        /* \"#utility.yul\":3885:4016   */\n      tag_103\n        /* \"#utility.yul\":4011:4015   */\n      dup2\n        /* \"#utility.yul\":3885:4016   */\n      tag_85\n      jump\t// in\n    tag_103:\n        /* \"#utility.yul\":3877:4016   */\n      swap1\n      pop\n        /* \"#utility.yul\":3775:4023   */\n      swap2\n      swap1\n      pop\n      jump\t// out\n        /* \"#utility.yul\":4029:4448   */\n    tag_32:\n      0x00\n        /* \"#utility.yul\":4233:4235   */\n      0x20\n        /* \"#utility.yul\":4222:4231   */\n      dup3\n        /* \"#utility.yul\":4218:4236   */\n      add\n        /* \"#utility.yul\":4210:4236   */\n      swap1\n      pop\n        /* \"#utility.yul\":4282:4291   */\n      dup2\n        /* \"#utility.yul\":4276:4280   */\n      dup2\n        /* \"#utility.yul\":4272:4292   */\n      sub\n        /* \"#utility.yul\":4268:4269   */\n      0x00\n        /* \"#utility.yul\":4257:4266   */\n      dup4\n        /* \"#utility.yul\":4253:4270   */\n      add\n        /* \"#utility.yul\":4246:4293   */\n      mstore\n        /* \"#utility.yul\":4310:4441   */\n      tag_105\n        /* \"#utility.yul\":4436:4440   */\n      dup2\n        /* \"#utility.yul\":4310:4441   */\n      tag_88\n      jump\t// in\n    tag_105:\n        /* \"#utility.yul\":4302:4441   */\n      swap1\n      pop\n        /* \"#utility.yul\":4200:4448   */\n      swap2\n      swap1\n      pop\n      jump\t// out\n        /* \"#utility.yul\":4454:4623   */\n    tag_81:\n      0x00\n        /* \"#utility.yul\":4572:4578   */\n      dup3\n        /* \"#utility.yul\":4567:4570   */\n      dup3\n        /* \"#utility.yul\":4560:4579   */\n      mstore\n        /* \"#utility.yul\":4612:4616   */\n      0x20\n        /* \"#utility.yul\":4607:4610   */\n      dup3\n        /* \"#utility.yul\":4603:4617   */\n      add\n        /* \"#utility.yul\":4588:4617   */\n      swap1\n      pop\n        /* \"#utility.yul\":4550:4623   */\n      swap3\n      swap2\n      pop\n      pop\n      jump\t// out\n        /* \"#utility.yul\":4629:4725   */\n    tag_73:\n      0x00\n        /* \"#utility.yul\":4695:4719   */\n      tag_108\n        /* \"#utility.yul\":4713:4718   */\n      dup3\n        /* \"#utility.yul\":4695:4719   */\n      tag_109\n      jump\t// in\n    tag_108:\n        /* \"#utility.yul\":4684:4719   */\n      swap1\n      pop\n        /* \"#utility.yul\":4674:4725   */\n      swap2\n      swap1\n      pop\n      jump\t// out\n        /* \"#utility.yul\":4731:4821   */\n    tag_77:\n      0x00\n        /* \"#utility.yul\":4808:4813   */\n      dup2\n        /* \"#utility.yul\":4801:4814   */\n      iszero\n        /* \"#utility.yul\":4794:4815   */\n      iszero\n        /* \"#utility.yul\":4783:4815   */\n      swap1\n      pop\n        /* \"#utility.yul\":4773:4821   */\n      swap2\n      swap1\n      pop\n      jump\t// out\n        /* \"#utility.yul\":4827:4953   */\n    tag_109:\n      0x00\n        /* \"#utility.yul\":4904:4946   */\n      0xffffffffffffffffffffffffffffffffffffffff\n        /* \"#utility.yul\":4897:4902   */\n      dup3\n        /* \"#utility.yul\":4893:4947   */\n      and\n        /* \"#utility.yul\":4882:4947   */\n      swap1\n      pop\n        /* \"#utility.yul\":4872:4953   */\n      swap2\n      swap1\n      pop\n      jump\t// out\n        /* \"#utility.yul\":4959:5081   */\n    tag_66:\n        /* \"#utility.yul\":5032:5056   */\n      tag_113\n        /* \"#utility.yul\":5050:5055   */\n      dup2\n        /* \"#utility.yul\":5032:5056   */\n      tag_73\n      jump\t// in\n    tag_113:\n        /* \"#utility.yul\":5025:5030   */\n      dup2\n        /* \"#utility.yul\":5022:5057   */\n      eq\n        /* \"#utility.yul\":5012:5014   */\n      tag_114\n      jumpi\n        /* \"#utility.yul\":5071:5072   */\n      0x00\n        /* \"#utility.yul\":5068:5069   */\n      dup1\n        /* \"#utility.yul\":5061:5073   */\n      revert\n        /* \"#utility.yul\":5012:5014   */\n    tag_114:\n        /* \"#utility.yul\":5002:5081   */\n      pop\n      jump\t// out\n\n    auxdata: 0xa26469706673582212205db8c5d18696529d8448bc82eb509961390d3b29a14ffa5c58edebd8120a61b364736f6c63430008000033\n}\n",
				"bytecode": {
					"linkReferences": {},
					"object": "608060405234801561001057600080fd5b50336000806101000a81548173ffffffffffffffffffffffffffffffffffffffff021916908373ffffffffffffffffffffffffffffffffffffffff160217905550610765806100606000396000f3fe608060405234801561001057600080fd5b50600436106100625760003560e01c80633f4ba83a146100675780635c975abb146100715780638456cb591461008f5780638f32d59b14610099578063ce606ee0146100b7578063f2fde38b146100d5575b600080fd5b61006f6100f1565b005b6100796101da565b604051610086919061062e565b60405180910390f35b6100976101f0565b005b6100a16102db565b6040516100ae919061062e565b60405180910390f35b6100bf610332565b6040516100cc91906105ea565b60405180910390f35b6100ef60048036038101906100ea91906104a3565b61035b565b005b6100f96102db565b610138576040517f08c379a000000000000000000000000000000000000000000000000000000000815260040161012f906106a9565b60405180910390fd5b600060149054906101000a900460ff16610187576040517f08c379a000000000000000000000000000000000000000000000000000000000815260040161017e90610649565b60405180910390fd5b60008060146101000a81548160ff0219169083151502179055507f5db9ee0a495bf2e6ff9c91a7834c1ba4fdd244a5e8aa4e537bd38aeae4b073aa336040516101d091906105ea565b60405180910390a1565b60008060149054906101000a900460ff16905090565b6101f86102db565b610237576040517f08c379a000000000000000000000000000000000000000000000000000000000815260040161022e906106a9565b60405180910390fd5b600060149054906101000a900460ff1615610287576040517f08c379a000000000000000000000000000000000000000000000000000000000815260040161027e90610669565b60405180910390fd5b6001600060146101000a81548160ff0219169083151502179055507f62e78cea01bee320cd4e420270b5ea74000d11b0c9f74754ebdbfc544b05a258336040516102d191906105ea565b60405180910390a1565b60008060009054906101000a900473ffffffffffffffffffffffffffffffffffffffff1673ffffffffffffffffffffffffffffffffffffffff163373ffffffffffffffffffffffffffffffffffffffff1614905090565b60008060009054906101000a900473ffffffffffffffffffffffffffffffffffffffff16905090565b6103636102db565b6103a2576040517f08c379a0000000000000000000000000000000000000000000000000000000008152600401610399906106a9565b60405180910390fd5b600073ffffffffffffffffffffffffffffffffffffffff168173ffffffffffffffffffffffffffffffffffffffff161415610412576040517f08c379a000000000000000000000000000000000000000000000000000000000815260040161040990610689565b60405180910390fd5b806000806101000a81548173ffffffffffffffffffffffffffffffffffffffff021916908373ffffffffffffffffffffffffffffffffffffffff1602179055507f70aea8d848e8a90fb7661b227dc522eb6395c3dac71b63cb59edd5c9899b23643382604051610483929190610605565b60405180910390a150565b60008135905061049d81610718565b92915050565b6000602082840312156104b557600080fd5b60006104c38482850161048e565b91505092915050565b6104d5816106da565b82525050565b6104e4816106ec565b82525050565b60006104f76014836106c9565b91507f5061757361626c653a206e6f74207061757365640000000000000000000000006000830152602082019050919050565b60006105376010836106c9565b91507f5061757361626c653a20706175736564000000000000000000000000000000006000830152602082019050919050565b6000610577601d836106c9565b91507f4f776e61626c653a2061646472657373206973206e6f742076616c69640000006000830152602082019050919050565b60006105b76020836106c9565b91507f4f776e61626c653a2063616c6c6572206973206e6f7420746865206f776e65726000830152602082019050919050565b60006020820190506105ff60008301846104cc565b92915050565b600060408201905061061a60008301856104cc565b61062760208301846104cc565b9392505050565b600060208201905061064360008301846104db565b92915050565b60006020820190508181036000830152610662816104ea565b9050919050565b600060208201905081810360008301526106828161052a565b9050919050565b600060208201905081810360008301526106a28161056a565b9050919050565b600060208201905081810360008301526106c2816105aa565b9050919050565b600082825260208201905092915050565b60006106e5826106f8565b9050919050565b60008115159050919050565b600073ffffffffffffffffffffffffffffffffffffffff82169050919050565b610721816106da565b811461072c57600080fd5b5056fea26469706673582212205db8c5d18696529d8448bc82eb509961390d3b29a14ffa5c58edebd8120a61b364736f6c63430008000033",
					"opcodes": "PUSH1 0x80 PUSH1 0x40 MSTORE CALLVALUE DUP1 ISZERO PUSH2 0x10 JUMPI PUSH1 0x0 DUP1 REVERT JUMPDEST POP CALLER PUSH1 0x0 DUP1 PUSH2 0x100 EXP DUP2 SLOAD DUP2 PUSH20 0xFFFFFFFFFFFFFFFFFFFFFFFFFFFFFFFFFFFFFFFF MUL NOT AND SWAP1 DUP4 PUSH20 0xFFFFFFFFFFFFFFFFFFFFFFFFFFFFFFFFFFFFFFFF AND MUL OR SWAP1 SSTORE POP PUSH2 0x765 DUP1 PUSH2 0x60 PUSH1 0x0 CODECOPY PUSH1 0x0 RETURN INVALID PUSH1 0x80 PUSH1 0x40 MSTORE CALLVALUE DUP1 ISZERO PUSH2 0x10 JUMPI PUSH1 0x0 DUP1 REVERT JUMPDEST POP PUSH1 0x4 CALLDATASIZE LT PUSH2 0x62 JUMPI PUSH1 0x0 CALLDATALOAD PUSH1 0xE0 SHR DUP1 PUSH4 0x3F4BA83A EQ PUSH2 0x67 JUMPI DUP1 PUSH4 0x5C975ABB EQ PUSH2 0x71 JUMPI DUP1 PUSH4 0x8456CB59 EQ PUSH2 0x8F JUMPI DUP1 PUSH4 0x8F32D59B EQ PUSH2 0x99 JUMPI DUP1 PUSH4 0xCE606EE0 EQ PUSH2 0xB7 JUMPI DUP1 PUSH4 0xF2FDE38B EQ PUSH2 0xD5 JUMPI JUMPDEST PUSH1 0x0 DUP1 REVERT JUMPDEST PUSH2 0x6F PUSH2 0xF1 JUMP JUMPDEST STOP JUMPDEST PUSH2 0x79 PUSH2 0x1DA JUMP JUMPDEST PUSH1 0x40 MLOAD PUSH2 0x86 SWAP2 SWAP1 PUSH2 0x62E JUMP JUMPDEST PUSH1 0x40 MLOAD DUP1 SWAP2 SUB SWAP1 RETURN JUMPDEST PUSH2 0x97 PUSH2 0x1F0 JUMP JUMPDEST STOP JUMPDEST PUSH2 0xA1 PUSH2 0x2DB JUMP JUMPDEST PUSH1 0x40 MLOAD PUSH2 0xAE SWAP2 SWAP1 PUSH2 0x62E JUMP JUMPDEST PUSH1 0x40 MLOAD DUP1 SWAP2 SUB SWAP1 RETURN JUMPDEST PUSH2 0xBF PUSH2 0x332 JUMP JUMPDEST PUSH1 0x40 MLOAD PUSH2 0xCC SWAP2 SWAP1 PUSH2 0x5EA JUMP JUMPDEST PUSH1 0x40 MLOAD DUP1 SWAP2 SUB SWAP1 RETURN JUMPDEST PUSH2 0xEF PUSH1 0x4 DUP1 CALLDATASIZE SUB DUP2 ADD SWAP1 PUSH2 0xEA SWAP2 SWAP1 PUSH2 0x4A3 JUMP JUMPDEST PUSH2 0x35B JUMP JUMPDEST STOP JUMPDEST PUSH2 0xF9 PUSH2 0x2DB JUMP JUMPDEST PUSH2 0x138 JUMPI PUSH1 0x40 MLOAD PUSH32 0x8C379A000000000000000000000000000000000000000000000000000000000 DUP2 MSTORE PUSH1 0x4 ADD PUSH2 0x12F SWAP1 PUSH2 0x6A9 JUMP JUMPDEST PUSH1 0x40 MLOAD DUP1 SWAP2 SUB SWAP1 REVERT JUMPDEST PUSH1 0x0 PUSH1 0x14 SWAP1 SLOAD SWAP1 PUSH2 0x100 EXP SWAP1 DIV PUSH1 0xFF AND PUSH2 0x187 JUMPI PUSH1 0x40 MLOAD PUSH32 0x8C379A000000000000000000000000000000000000000000000000000000000 DUP2 MSTORE PUSH1 0x4 ADD PUSH2 0x17E SWAP1 PUSH2 0x649 JUMP JUMPDEST PUSH1 0x40 MLOAD DUP1 SWAP2 SUB SWAP1 REVERT JUMPDEST PUSH1 0x0 DUP1 PUSH1 0x14 PUSH2 0x100 EXP DUP2 SLOAD DUP2 PUSH1 0xFF MUL NOT AND SWAP1 DUP4 ISZERO ISZERO MUL OR SWAP1 SSTORE POP PUSH32 0x5DB9EE0A495BF2E6FF9C91A7834C1BA4FDD244A5E8AA4E537BD38AEAE4B073AA CALLER PUSH1 0x40 MLOAD PUSH2 0x1D0 SWAP2 SWAP1 PUSH2 0x5EA JUMP JUMPDEST PUSH1 0x40 MLOAD DUP1 SWAP2 SUB SWAP1 LOG1 JUMP JUMPDEST PUSH1 0x0 DUP1 PUSH1 0x14 SWAP1 SLOAD SWAP1 PUSH2 0x100 EXP SWAP1 DIV PUSH1 0xFF AND SWAP1 POP SWAP1 JUMP JUMPDEST PUSH2 0x1F8 PUSH2 0x2DB JUMP JUMPDEST PUSH2 0x237 JUMPI PUSH1 0x40 MLOAD PUSH32 0x8C379A000000000000000000000000000000000000000000000000000000000 DUP2 MSTORE PUSH1 0x4 ADD PUSH2 0x22E SWAP1 PUSH2 0x6A9 JUMP JUMPDEST PUSH1 0x40 MLOAD DUP1 SWAP2 SUB SWAP1 REVERT JUMPDEST PUSH1 0x0 PUSH1 0x14 SWAP1 SLOAD SWAP1 PUSH2 0x100 EXP SWAP1 DIV PUSH1 0xFF AND ISZERO PUSH2 0x287 JUMPI PUSH1 0x40 MLOAD PUSH32 0x8C379A000000000000000000000000000000000000000000000000000000000 DUP2 MSTORE PUSH1 0x4 ADD PUSH2 0x27E SWAP1 PUSH2 0x669 JUMP JUMPDEST PUSH1 0x40 MLOAD DUP1 SWAP2 SUB SWAP1 REVERT JUMPDEST PUSH1 0x1 PUSH1 0x0 PUSH1 0x14 PUSH2 0x100 EXP DUP2 SLOAD DUP2 PUSH1 0xFF MUL NOT AND SWAP1 DUP4 ISZERO ISZERO MUL OR SWAP1 SSTORE POP PUSH32 0x62E78CEA01BEE320CD4E420270B5EA74000D11B0C9F74754EBDBFC544B05A258 CALLER PUSH1 0x40 MLOAD PUSH2 0x2D1 SWAP2 SWAP1 PUSH2 0x5EA JUMP JUMPDEST PUSH1 0x40 MLOAD DUP1 SWAP2 SUB SWAP1 LOG1 JUMP JUMPDEST PUSH1 0x0 DUP1 PUSH1 0x0 SWAP1 SLOAD SWAP1 PUSH2 0x100 EXP SWAP1 DIV PUSH20 0xFFFFFFFFFFFFFFFFFFFFFFFFFFFFFFFFFFFFFFFF AND PUSH20 0xFFFFFFFFFFFFFFFFFFFFFFFFFFFFFFFFFFFFFFFF AND CALLER PUSH20 0xFFFFFFFFFFFFFFFFFFFFFFFFFFFFFFFFFFFFFFFF AND EQ SWAP1 POP SWAP1 JUMP JUMPDEST PUSH1 0x0 DUP1 PUSH1 0x0 SWAP1 SLOAD SWAP1 PUSH2 0x100 EXP SWAP1 DIV PUSH20 0xFFFFFFFFFFFFFFFFFFFFFFFFFFFFFFFFFFFFFFFF AND SWAP1 POP SWAP1 JUMP JUMPDEST PUSH2 0x363 PUSH2 0x2DB JUMP JUMPDEST PUSH2 0x3A2 JUMPI PUSH1 0x40 MLOAD PUSH32 0x8C379A000000000000000000000000000000000000000000000000000000000 DUP2 MSTORE PUSH1 0x4 ADD PUSH2 0x399 SWAP1 PUSH2 0x6A9 JUMP JUMPDEST PUSH1 0x40 MLOAD DUP1 SWAP2 SUB SWAP1 REVERT JUMPDEST PUSH1 0x0 PUSH20 0xFFFFFFFFFFFFFFFFFFFFFFFFFFFFFFFFFFFFFFFF AND DUP2 PUSH20 0xFFFFFFFFFFFFFFFFFFFFFFFFFFFFFFFFFFFFFFFF AND EQ ISZERO PUSH2 0x412 JUMPI PUSH1 0x40 MLOAD PUSH32 0x8C379A000000000000000000000000000000000000000000000000000000000 DUP2 MSTORE PUSH1 0x4 ADD PUSH2 0x409 SWAP1 PUSH2 0x689 JUMP JUMPDEST PUSH1 0x40 MLOAD DUP1 SWAP2 SUB SWAP1 REVERT JUMPDEST DUP1 PUSH1 0x0 DUP1 PUSH2 0x100 EXP DUP2 SLOAD DUP2 PUSH20 0xFFFFFFFFFFFFFFFFFFFFFFFFFFFFFFFFFFFFFFFF MUL NOT AND SWAP1 DUP4 PUSH20 0xFFFFFFFFFFFFFFFFFFFFFFFFFFFFFFFFFFFFFFFF AND MUL OR SWAP1 SSTORE POP PUSH32 0x70AEA8D848E8A90FB7661B227DC522EB6395C3DAC71B63CB59EDD5C9899B2364 CALLER DUP3 PUSH1 0x40 MLOAD PUSH2 0x483 SWAP3 SWAP2 SWAP1 PUSH2 0x605 JUMP JUMPDEST PUSH1 0x40 MLOAD DUP1 SWAP2 SUB SWAP1 LOG1 POP JUMP JUMPDEST PUSH1 0x0 DUP2 CALLDATALOAD SWAP1 POP PUSH2 0x49D DUP2 PUSH2 0x718 JUMP JUMPDEST SWAP3 SWAP2 POP POP JUMP JUMPDEST PUSH1 0x0 PUSH1 0x20 DUP3 DUP5 SUB SLT ISZERO PUSH2 0x4B5 JUMPI PUSH1 0x0 DUP1 REVERT JUMPDEST PUSH1 0x0 PUSH2 0x4C3 DUP5 DUP3 DUP6 ADD PUSH2 0x48E JUMP JUMPDEST SWAP2 POP POP SWAP3 SWAP2 POP POP JUMP JUMPDEST PUSH2 0x4D5 DUP2 PUSH2 0x6DA JUMP JUMPDEST DUP3 MSTORE POP POP JUMP JUMPDEST PUSH2 0x4E4 DUP2 PUSH2 0x6EC JUMP JUMPDEST DUP3 MSTORE POP POP JUMP JUMPDEST PUSH1 0x0 PUSH2 0x4F7 PUSH1 0x14 DUP4 PUSH2 0x6C9 JUMP JUMPDEST SWAP2 POP PUSH32 0x5061757361626C653A206E6F7420706175736564000000000000000000000000 PUSH1 0x0 DUP4 ADD MSTORE PUSH1 0x20 DUP3 ADD SWAP1 POP SWAP2 SWAP1 POP JUMP JUMPDEST PUSH1 0x0 PUSH2 0x537 PUSH1 0x10 DUP4 PUSH2 0x6C9 JUMP JUMPDEST SWAP2 POP PUSH32 0x5061757361626C653A2070617573656400000000000000000000000000000000 PUSH1 0x0 DUP4 ADD MSTORE PUSH1 0x20 DUP3 ADD SWAP1 POP SWAP2 SWAP1 POP JUMP JUMPDEST PUSH1 0x0 PUSH2 0x577 PUSH1 0x1D DUP4 PUSH2 0x6C9 JUMP JUMPDEST SWAP2 POP PUSH32 0x4F776E61626C653A2061646472657373206973206E6F742076616C6964000000 PUSH1 0x0 DUP4 ADD MSTORE PUSH1 0x20 DUP3 ADD SWAP1 POP SWAP2 SWAP1 POP JUMP JUMPDEST PUSH1 0x0 PUSH2 0x5B7 PUSH1 0x20 DUP4 PUSH2 0x6C9 JUMP JUMPDEST SWAP2 POP PUSH32 0x4F776E61626C653A2063616C6C6572206973206E6F7420746865206F776E6572 PUSH1 0x0 DUP4 ADD MSTORE PUSH1 0x20 DUP3 ADD SWAP1 POP SWAP2 SWAP1 POP JUMP JUMPDEST PUSH1 0x0 PUSH1 0x20 DUP3 ADD SWAP1 POP PUSH2 0x5FF PUSH1 0x0 DUP4 ADD DUP5 PUSH2 0x4CC JUMP JUMPDEST SWAP3 SWAP2 POP POP JUMP JUMPDEST PUSH1 0x0 PUSH1 0x40 DUP3 ADD SWAP1 POP PUSH2 0x61A PUSH1 0x0 DUP4 ADD DUP6 PUSH2 0x4CC JUMP JUMPDEST PUSH2 0x627 PUSH1 0x20 DUP4 ADD DUP5 PUSH2 0x4CC JUMP JUMPDEST SWAP4 SWAP3 POP POP POP JUMP JUMPDEST PUSH1 0x0 PUSH1 0x20 DUP3 ADD SWAP1 POP PUSH2 0x643 PUSH1 0x0 DUP4 ADD DUP5 PUSH2 0x4DB JUMP JUMPDEST SWAP3 SWAP2 POP POP JUMP JUMPDEST PUSH1 0x0 PUSH1 0x20 DUP3 ADD SWAP1 POP DUP2 DUP2 SUB PUSH1 0x0 DUP4 ADD MSTORE PUSH2 0x662 DUP2 PUSH2 0x4EA JUMP JUMPDEST SWAP1 POP SWAP2 SWAP1 POP JUMP JUMPDEST PUSH1 0x0 PUSH1 0x20 DUP3 ADD SWAP1 POP DUP2 DUP2 SUB PUSH1 0x0 DUP4 ADD MSTORE PUSH2 0x682 DUP2 PUSH2 0x52A JUMP JUMPDEST SWAP1 POP SWAP2 SWAP1 POP JUMP JUMPDEST PUSH1 0x0 PUSH1 0x20 DUP3 ADD SWAP1 POP DUP2 DUP2 SUB PUSH1 0x0 DUP4 ADD MSTORE PUSH2 0x6A2 DUP2 PUSH2 0x56A JUMP JUMPDEST SWAP1 POP SWAP2 SWAP1 POP JUMP JUMPDEST PUSH1 0x0 PUSH1 0x20 DUP3 ADD SWAP1 POP DUP2 DUP2 SUB PUSH1 0x0 DUP4 ADD MSTORE PUSH2 0x6C2 DUP2 PUSH2 0x5AA JUMP JUMPDEST SWAP1 POP SWAP2 SWAP1 POP JUMP JUMPDEST PUSH1 0x0 DUP3 DUP3 MSTORE PUSH1 0x20 DUP3 ADD SWAP1 POP SWAP3 SWAP2 POP POP JUMP JUMPDEST PUSH1 0x0 PUSH2 0x6E5 DUP3 PUSH2 0x6F8 JUMP JUMPDEST SWAP1 POP SWAP2 SWAP1 POP JUMP JUMPDEST PUSH1 0x0 DUP2 ISZERO ISZERO SWAP1 POP SWAP2 SWAP1 POP JUMP JUMPDEST PUSH1 0x0 PUSH20 0xFFFFFFFFFFFFFFFFFFFFFFFFFFFFFFFFFFFFFFFF DUP3 AND SWAP1 POP SWAP2 SWAP1 POP JUMP JUMPDEST PUSH2 0x721 DUP2 PUSH2 0x6DA JUMP JUMPDEST DUP2 EQ PUSH2 0x72C JUMPI PUSH1 0x0 DUP1 REVERT JUMPDEST POP JUMP INVALID LOG2 PUSH5 0x6970667358 0x22 SLT KECCAK256 0x5D 0xB8 0xC5 0xD1 DUP7 SWAP7 MSTORE SWAP14 DUP5 0x48 0xBC DUP3 0xEB POP SWAP10 PUSH2 0x390D EXTCODESIZE 0x29 LOG1 0x4F STATICCALL 0x5C PC 0xED 0xEB 0xD8 SLT EXP PUSH2 0xB364 PUSH20 0x6F6C634300080000330000000000000000000000 "
				},
				"gasEstimates": {
					"creation": {
						"codeDepositCost": "378600",
						"executionCost": "21284",
						"totalCost": "399884"
					},
					"external": {
						"contractOwner()": "1288",
						"isOwner()": "1240",
						"pause()": "24133",
						"paused()": "1229",
						"transferOwnership(address)": "infinite",
						"unpause()": "24086"
					}
				},
				"methodIdentifiers": {
					"contractOwner()": "ce606ee0",
					"isOwner()": "8f32d59b",
					"pause()": "8456cb59",
					"paused()": "5c975abb",
					"transferOwnership(address)": "f2fde38b",
					"unpause()": "3f4ba83a"
				}
			},
			"storageLayout": {
				"storage": [
					{
						"astId": 773,
						"contract": "lifecycle/Pausable.sol:Pausable",
						"label": "owner",
						"offset": 0,
						"slot": "0",
						"type": "t_address"
					},
					{
						"astId": 699,
						"contract": "lifecycle/Pausable.sol:Pausable",
						"label": "_paused",
						"offset": 20,
						"slot": "0",
						"type": "t_bool"
					}
				],
				"types": {
					"t_address": {
						"encoding": "inplace",
						"label": "address",
						"numberOfBytes": "20"
					},
					"t_bool": {
						"encoding": "inplace",
						"label": "bool",
						"numberOfBytes": "1"
					}
				}
			},
			"userdoc": {
				"kind": "user",
				"methods": {},
				"version": 1
			}
		}
	}
}