{
	"ERC20.sol": {
		"ERC20": {
			"abi": [
				{
					"inputs": [
						{
							"internalType": "string",
							"name": "_name",
							"type": "string"
						},
						{
							"internalType": "string",
							"name": "_symbol",
							"type": "string"
						},
						{
							"internalType": "uint8",
							"name": "_decimals",
							"type": "uint8"
						},
						{
							"internalType": "uint256",
							"name": "_totalSupply",
							"type": "uint256"
						}
					],
					"stateMutability": "nonpayable",
					"type": "constructor"
				},
				{
					"anonymous": false,
					"inputs": [
						{
							"indexed": true,
							"internalType": "address",
							"name": "owner",
							"type": "address"
						},
						{
							"indexed": true,
							"internalType": "address",
							"name": "spender",
							"type": "address"
						},
						{
							"indexed": false,
							"internalType": "uint256",
							"name": "value",
							"type": "uint256"
						}
					],
					"name": "Approval",
					"type": "event"
				},
				{
					"anonymous": false,
					"inputs": [
						{
							"indexed": false,
							"internalType": "address",
							"name": "oldOwner",
							"type": "address"
						},
						{
							"indexed": false,
							"internalType": "address",
							"name": "newOwner",
							"type": "address"
						}
					],
					"name": "NewOwner",
					"type": "event"
				},
				{
					"anonymous": false,
					"inputs": [
						{
							"indexed": false,
							"internalType": "address",
							"name": "account",
							"type": "address"
						}
					],
					"name": "Paused",
					"type": "event"
				},
				{
					"anonymous": false,
					"inputs": [
						{
							"indexed": true,
							"internalType": "address",
							"name": "from",
							"type": "address"
						},
						{
							"indexed": true,
							"internalType": "address",
							"name": "to",
							"type": "address"
						},
						{
							"indexed": false,
							"internalType": "uint256",
							"name": "value",
							"type": "uint256"
						}
					],
					"name": "Transfer",
					"type": "event"
				},
				{
					"anonymous": false,
					"inputs": [
						{
							"indexed": false,
							"internalType": "address",
							"name": "account",
							"type": "address"
						}
					],
					"name": "Unpaused",
					"type": "event"
				},
				{
					"inputs": [
						{
							"internalType": "address",
							"name": "_owner",
							"type": "address"
						},
						{
							"internalType": "address",
							"name": "_spender",
							"type": "address"
						}
					],
					"name": "allowance",
					"outputs": [
						{
							"internalType": "uint256",
							"name": "",
							"type": "uint256"
						}
					],
					"stateMutability": "view",
					"type": "function"
				},
				{
					"inputs": [
						{
							"internalType": "address",
							"name": "_spender",
							"type": "address"
						},
						{
							"internalType": "uint256",
							"name": "_value",
							"type": "uint256"
						}
					],
					"name": "approve",
					"outputs": [
						{
							"internalType": "bool",
							"name": "",
							"type": "bool"
						}
					],
					"stateMutability": "nonpayable",
					"type": "function"
				},
				{
					"inputs": [
						{
							"internalType": "address",
							"name": "_owner",
							"type": "address"
						}
					],
					"name": "balanceOf",
					"outputs": [
						{
							"internalType": "uint256",
							"name": "balance",
							"type": "uint256"
						}
					],
					"stateMutability": "view",
					"type": "function"
				},
				{
					"inputs": [
						{
							"internalType": "uint256",
							"name": "_amount",
							"type": "uint256"
						}
					],
					"name": "burn",
					"outputs": [
						{
							"internalType": "bool",
							"name": "",
							"type": "bool"
						}
					],
					"stateMutability": "nonpayable",
					"type": "function"
				},
				{
					"inputs": [
						{
							"internalType": "address",
							"name": "_from",
							"type": "address"
						},
						{
							"internalType": "uint256",
							"name": "_amount",
							"type": "uint256"
						}
					],
					"name": "burnFrom",
					"outputs": [
						{
							"internalType": "bool",
							"name": "",
							"type": "bool"
						}
					],
					"stateMutability": "nonpayable",
					"type": "function"
				},
				{
					"inputs": [],
					"name": "contractOwner",
					"outputs": [
						{
							"internalType": "address",
							"name": "",
							"type": "address"
						}
					],
					"stateMutability": "view",
					"type": "function"
				},
				{
					"inputs": [],
					"name": "decimals",
					"outputs": [
						{
							"internalType": "uint8",
							"name": "",
							"type": "uint8"
						}
					],
					"stateMutability": "view",
					"type": "function"
				},
				{
					"inputs": [
						{
							"internalType": "address",
							"name": "_spender",
							"type": "address"
						},
						{
							"internalType": "uint256",
							"name": "_subtractedValue",
							"type": "uint256"
						}
					],
					"name": "decreaseApproval",
					"outputs": [
						{
							"internalType": "bool",
							"name": "",
							"type": "bool"
						}
					],
					"stateMutability": "nonpayable",
					"type": "function"
				},
				{
					"inputs": [
						{
							"internalType": "address",
							"name": "_spender",
							"type": "address"
						},
						{
							"internalType": "uint256",
							"name": "_addedValue",
							"type": "uint256"
						}
					],
					"name": "increaseApproval",
					"outputs": [
						{
							"internalType": "bool",
							"name": "",
							"type": "bool"
						}
					],
					"stateMutability": "nonpayable",
					"type": "function"
				},
				{
					"inputs": [],
					"name": "isOwner",
					"outputs": [
						{
							"internalType": "bool",
							"name": "",
							"type": "bool"
						}
					],
					"stateMutability": "view",
					"type": "function"
				},
				{
					"inputs": [
						{
							"internalType": "address",
							"name": "_to",
							"type": "address"
						},
						{
							"internalType": "uint256",
							"name": "_amount",
							"type": "uint256"
						}
					],
					"name": "mintTo",
					"outputs": [
						{
							"internalType": "bool",
							"name": "",
							"type": "bool"
						}
					],
					"stateMutability": "nonpayable",
					"type": "function"
				},
				{
					"inputs": [],
					"name": "name",
					"outputs": [
						{
							"internalType": "string",
							"name": "",
							"type": "string"
						}
					],
					"stateMutability": "view",
					"type": "function"
				},
				{
					"inputs": [],
					"name": "pause",
					"outputs": [],
					"stateMutability": "nonpayable",
					"type": "function"
				},
				{
					"inputs": [],
					"name": "paused",
					"outputs": [
						{
							"internalType": "bool",
							"name": "",
							"type": "bool"
						}
					],
					"stateMutability": "view",
					"type": "function"
				},
				{
					"inputs": [],
					"name": "symbol",
					"outputs": [
						{
							"internalType": "string",
							"name": "",
							"type": "string"
						}
					],
					"stateMutability": "view",
					"type": "function"
				},
				{
					"inputs": [],
					"name": "totalSupply",
					"outputs": [
						{
							"internalType": "uint256",
							"name": "",
							"type": "uint256"
						}
					],
					"stateMutability": "view",
					"type": "function"
				},
				{
					"inputs": [
						{
							"internalType": "address",
							"name": "_to",
							"type": "address"
						},
						{
							"internalType": "uint256",
							"name": "_value",
							"type": "uint256"
						}
					],
					"name": "transfer",
					"outputs": [
						{
							"internalType": "bool",
							"name": "",
							"type": "bool"
						}
					],
					"stateMutability": "nonpayable",
					"type": "function"
				},
				{
					"inputs": [
						{
							"internalType": "address",
							"name": "_from",
							"type": "address"
						},
						{
							"internalType": "address",
							"name": "_to",
							"type": "address"
						},
						{
							"internalType": "uint256",
							"name": "_value",
							"type": "uint256"
						}
					],
					"name": "transferFrom",
					"outputs": [
						{
							"internalType": "bool",
							"name": "",
							"type": "bool"
						}
					],
					"stateMutability": "nonpayable",
					"type": "function"
				},
				{
					"inputs": [
						{
							"internalType": "address",
							"name": "_newOwner",
							"type": "address"
						}
					],
					"name": "transferOwnership",
					"outputs": [],
					"stateMutability": "nonpayable",
					"type": "function"
				},
				{
					"inputs": [],
					"name": "unpause",
					"outputs": [],
					"stateMutability": "nonpayable",
					"type": "function"
				}
			],
			"devdoc": {
				"kind": "dev",
				"methods": {},
				"version": 1
			},
			"evm": {
				"assembly": "    /* \"ERC20.sol\":226:5039  contract ERC20 is ReentrancyGuard, IERC20, Ownable, Pausable {... */\n  mstore(0x40, 0x80)\n    /* \"ERC20.sol\":692:996  constructor (... */\n  callvalue\n  dup1\n  iszero\n  tag_1\n  jumpi\n  0x00\n  dup1\n  revert\ntag_1:\n  pop\n  mload(0x40)\n  sub(codesize, bytecodeSize)\n  dup1\n  bytecodeSize\n  dup4\n  codecopy\n  dup2\n  dup2\n  add\n  0x40\n  mstore\n  dup2\n  add\n  swap1\n  tag_2\n  swap2\n  swap1\n  tag_3\n  jump\t// in\ntag_2:\n    /* \"@openzeppelin/contracts/security/ReentrancyGuard.sol\":1701:1702  1 */\n  0x01\n    /* \"@openzeppelin/contracts/security/ReentrancyGuard.sol\":1806:1813  _status */\n  0x00\n    /* \"@openzeppelin/contracts/security/ReentrancyGuard.sol\":1806:1828  _status = _NOT_ENTERED */\n  dup2\n  swap1\n  sstore\n  pop\n    /* \"ownership/Ownable.sol\":187:197  msg.sender */\n  caller\n    /* \"ownership/Ownable.sol\":179:184  owner */\n  0x01\n  0x00\n    /* \"ownership/Ownable.sol\":179:197  owner = msg.sender */\n  0x0100\n  exp\n  dup2\n  sload\n  dup2\n  0xffffffffffffffffffffffffffffffffffffffff\n  mul\n  not\n  and\n  swap1\n  dup4\n  0xffffffffffffffffffffffffffffffffffffffff\n  and\n  mul\n  or\n  swap1\n  sstore\n  pop\n    /* \"ERC20.sol\":848:855  _symbol */\n  dup3\n    /* \"ERC20.sol\":839:845  symbol */\n  0x03\n    /* \"ERC20.sol\":839:855  symbol = _symbol */\n  swap1\n  dup1\n  mload\n  swap1\n  0x20\n  add\n  swap1\n  tag_10\n  swap3\n  swap2\n  swap1\n  tag_11\n  jump\t// in\ntag_10:\n  pop\n    /* \"ERC20.sol\":872:877  _name */\n  dup4\n    /* \"ERC20.sol\":865:869  name */\n  0x02\n    /* \"ERC20.sol\":865:877  name = _name */\n  swap1\n  dup1\n  mload\n  swap1\n  0x20\n  add\n  swap1\n  tag_12\n  swap3\n  swap2\n  swap1\n  tag_11\n  jump\t// in\ntag_12:\n  pop\n    /* \"ERC20.sol\":898:907  _decimals */\n  dup2\n    /* \"ERC20.sol\":887:895  decimals */\n  0x04\n  0x00\n    /* \"ERC20.sol\":887:907  decimals = _decimals */\n  0x0100\n  exp\n  dup2\n  sload\n  dup2\n  0xff\n  mul\n  not\n  and\n  swap1\n  dup4\n  0xff\n  and\n  mul\n  or\n  swap1\n  sstore\n  pop\n    /* \"ERC20.sol\":931:943  _totalSupply */\n  dup1\n    /* \"ERC20.sol\":917:928  totalSupply */\n  0x05\n    /* \"ERC20.sol\":917:943  totalSupply = _totalSupply */\n  dup2\n  swap1\n  sstore\n  pop\n    /* \"ERC20.sol\":977:989  _totalSupply */\n  dup1\n    /* \"ERC20.sol\":953:962  _balances */\n  0x06\n    /* \"ERC20.sol\":953:974  _balances[msg.sender] */\n  0x00\n    /* \"ERC20.sol\":963:973  msg.sender */\n  caller\n    /* \"ERC20.sol\":953:974  _balances[msg.sender] */\n  0xffffffffffffffffffffffffffffffffffffffff\n  and\n  0xffffffffffffffffffffffffffffffffffffffff\n  and\n  dup2\n  mstore\n  0x20\n  add\n  swap1\n  dup2\n  mstore\n  0x20\n  add\n  0x00\n  keccak256\n    /* \"ERC20.sol\":953:989  _balances[msg.sender] = _totalSupply */\n  dup2\n  swap1\n  sstore\n  pop\n    /* \"ERC20.sol\":692:996  constructor (... */\n  pop\n  pop\n  pop\n  pop\n    /* \"ERC20.sol\":226:5039  contract ERC20 is ReentrancyGuard, IERC20, Ownable, Pausable {... */\n  jump(tag_13)\ntag_11:\n  dup3\n  dup1\n  sload\n  tag_14\n  swap1\n  tag_15\n  jump\t// in\ntag_14:\n  swap1\n  0x00\n  mstore\n  keccak256(0x00, 0x20)\n  swap1\n  0x1f\n  add\n  0x20\n  swap1\n  div\n  dup2\n  add\n  swap3\n  dup3\n  tag_17\n  jumpi\n  0x00\n  dup6\n  sstore\n  jump(tag_16)\ntag_17:\n  dup3\n  0x1f\n  lt\n  tag_18\n  jumpi\n  dup1\n  mload\n  not(0xff)\n  and\n  dup4\n  dup1\n  add\n  or\n  dup6\n  sstore\n  jump(tag_16)\ntag_18:\n  dup3\n  dup1\n  add\n  0x01\n  add\n  dup6\n  sstore\n  dup3\n  iszero\n  tag_16\n  jumpi\n  swap2\n  dup3\n  add\ntag_19:\n  dup3\n  dup2\n  gt\n  iszero\n  tag_20\n  jumpi\n  dup3\n  mload\n  dup3\n  sstore\n  swap2\n  0x20\n  add\n  swap2\n  swap1\n  0x01\n  add\n  swap1\n  jump(tag_19)\ntag_20:\ntag_16:\n  pop\n  swap1\n  pop\n  tag_21\n  swap2\n  swap1\n  tag_22\n  jump\t// in\ntag_21:\n  pop\n  swap1\n  jump\t// out\ntag_22:\ntag_23:\n  dup1\n  dup3\n  gt\n  iszero\n  tag_24\n  jumpi\n  0x00\n  dup2\n  0x00\n  swap1\n  sstore\n  pop\n  0x01\n  add\n  jump(tag_23)\ntag_24:\n  pop\n  swap1\n  jump\t// out\n    /* \"#utility.yul\":7:360   */\ntag_26:\n  0x00\n    /* \"#utility.yul\":121:186   */\n  tag_28\n    /* \"#utility.yul\":136:185   */\n  tag_29\n    /* \"#utility.yul\":178:184   */\n  dup5\n    /* \"#utility.yul\":136:185   */\n  tag_30\n  jump\t// in\ntag_29:\n    /* \"#utility.yul\":121:186   */\n  tag_31\n  jump\t// in\ntag_28:\n    /* \"#utility.yul\":112:186   */\n  swap1\n  pop\n    /* \"#utility.yul\":209:215   */\n  dup3\n    /* \"#utility.yul\":202:207   */\n  dup2\n    /* \"#utility.yul\":195:216   */\n  mstore\n    /* \"#utility.yul\":247:251   */\n  0x20\n    /* \"#utility.yul\":240:245   */\n  dup2\n    /* \"#utility.yul\":236:252   */\n  add\n    /* \"#utility.yul\":285:288   */\n  dup5\n    /* \"#utility.yul\":276:282   */\n  dup5\n    /* \"#utility.yul\":271:274   */\n  dup5\n    /* \"#utility.yul\":267:283   */\n  add\n    /* \"#utility.yul\":264:289   */\n  gt\n    /* \"#utility.yul\":261:263   */\n  iszero\n  tag_32\n  jumpi\n    /* \"#utility.yul\":302:303   */\n  0x00\n    /* \"#utility.yul\":299:300   */\n  dup1\n    /* \"#utility.yul\":292:304   */\n  revert\n    /* \"#utility.yul\":261:263   */\ntag_32:\n    /* \"#utility.yul\":315:354   */\n  tag_33\n    /* \"#utility.yul\":347:353   */\n  dup5\n    /* \"#utility.yul\":342:345   */\n  dup3\n    /* \"#utility.yul\":337:340   */\n  dup6\n    /* \"#utility.yul\":315:354   */\n  tag_34\n  jump\t// in\ntag_33:\n    /* \"#utility.yul\":102:360   */\n  pop\n  swap4\n  swap3\n  pop\n  pop\n  pop\n  jump\t// out\n    /* \"#utility.yul\":380:668   */\ntag_35:\n  0x00\n    /* \"#utility.yul\":496:499   */\n  dup3\n    /* \"#utility.yul\":489:493   */\n  0x1f\n    /* \"#utility.yul\":481:487   */\n  dup4\n    /* \"#utility.yul\":477:494   */\n  add\n    /* \"#utility.yul\":473:500   */\n  slt\n    /* \"#utility.yul\":463:465   */\n  tag_37\n  jumpi\n    /* \"#utility.yul\":514:515   */\n  0x00\n    /* \"#utility.yul\":511:512   */\n  dup1\n    /* \"#utility.yul\":504:516   */\n  revert\n    /* \"#utility.yul\":463:465   */\ntag_37:\n    /* \"#utility.yul\":547:553   */\n  dup2\n    /* \"#utility.yul\":541:554   */\n  mload\n    /* \"#utility.yul\":572:662   */\n  tag_38\n    /* \"#utility.yul\":658:661   */\n  dup5\n    /* \"#utility.yul\":650:656   */\n  dup3\n    /* \"#utility.yul\":643:647   */\n  0x20\n    /* \"#utility.yul\":635:641   */\n  dup7\n    /* \"#utility.yul\":631:648   */\n  add\n    /* \"#utility.yul\":572:662   */\n  tag_26\n  jump\t// in\ntag_38:\n    /* \"#utility.yul\":563:662   */\n  swap2\n  pop\n    /* \"#utility.yul\":453:668   */\n  pop\n  swap3\n  swap2\n  pop\n  pop\n  jump\t// out\n    /* \"#utility.yul\":674:817   */\ntag_39:\n  0x00\n    /* \"#utility.yul\":762:768   */\n  dup2\n    /* \"#utility.yul\":756:769   */\n  mload\n    /* \"#utility.yul\":747:769   */\n  swap1\n  pop\n    /* \"#utility.yul\":778:811   */\n  tag_41\n    /* \"#utility.yul\":805:810   */\n  dup2\n    /* \"#utility.yul\":778:811   */\n  tag_42\n  jump\t// in\ntag_41:\n    /* \"#utility.yul\":737:817   */\n  swap3\n  swap2\n  pop\n  pop\n  jump\t// out\n    /* \"#utility.yul\":823:962   */\ntag_43:\n  0x00\n    /* \"#utility.yul\":909:915   */\n  dup2\n    /* \"#utility.yul\":903:916   */\n  mload\n    /* \"#utility.yul\":894:916   */\n  swap1\n  pop\n    /* \"#utility.yul\":925:956   */\n  tag_45\n    /* \"#utility.yul\":950:955   */\n  dup2\n    /* \"#utility.yul\":925:956   */\n  tag_46\n  jump\t// in\ntag_45:\n    /* \"#utility.yul\":884:962   */\n  swap3\n  swap2\n  pop\n  pop\n  jump\t// out\n    /* \"#utility.yul\":968:1929   */\ntag_3:\n  0x00\n  dup1\n  0x00\n  dup1\n    /* \"#utility.yul\":1156:1159   */\n  0x80\n    /* \"#utility.yul\":1144:1153   */\n  dup6\n    /* \"#utility.yul\":1135:1142   */\n  dup8\n    /* \"#utility.yul\":1131:1154   */\n  sub\n    /* \"#utility.yul\":1127:1160   */\n  slt\n    /* \"#utility.yul\":1124:1126   */\n  iszero\n  tag_48\n  jumpi\n    /* \"#utility.yul\":1173:1174   */\n  0x00\n    /* \"#utility.yul\":1170:1171   */\n  dup1\n    /* \"#utility.yul\":1163:1175   */\n  revert\n    /* \"#utility.yul\":1124:1126   */\ntag_48:\n    /* \"#utility.yul\":1237:1238   */\n  0x00\n    /* \"#utility.yul\":1226:1235   */\n  dup6\n    /* \"#utility.yul\":1222:1239   */\n  add\n    /* \"#utility.yul\":1216:1240   */\n  mload\n    /* \"#utility.yul\":1267:1285   */\n  0xffffffffffffffff\n    /* \"#utility.yul\":1259:1265   */\n  dup2\n    /* \"#utility.yul\":1256:1286   */\n  gt\n    /* \"#utility.yul\":1253:1255   */\n  iszero\n  tag_49\n  jumpi\n    /* \"#utility.yul\":1299:1300   */\n  0x00\n    /* \"#utility.yul\":1296:1297   */\n  dup1\n    /* \"#utility.yul\":1289:1301   */\n  revert\n    /* \"#utility.yul\":1253:1255   */\ntag_49:\n    /* \"#utility.yul\":1327:1401   */\n  tag_50\n    /* \"#utility.yul\":1393:1400   */\n  dup8\n    /* \"#utility.yul\":1384:1390   */\n  dup3\n    /* \"#utility.yul\":1373:1382   */\n  dup9\n    /* \"#utility.yul\":1369:1391   */\n  add\n    /* \"#utility.yul\":1327:1401   */\n  tag_35\n  jump\t// in\ntag_50:\n    /* \"#utility.yul\":1317:1401   */\n  swap5\n  pop\n    /* \"#utility.yul\":1187:1411   */\n  pop\n    /* \"#utility.yul\":1471:1473   */\n  0x20\n    /* \"#utility.yul\":1460:1469   */\n  dup6\n    /* \"#utility.yul\":1456:1474   */\n  add\n    /* \"#utility.yul\":1450:1475   */\n  mload\n    /* \"#utility.yul\":1502:1520   */\n  0xffffffffffffffff\n    /* \"#utility.yul\":1494:1500   */\n  dup2\n    /* \"#utility.yul\":1491:1521   */\n  gt\n    /* \"#utility.yul\":1488:1490   */\n  iszero\n  tag_51\n  jumpi\n    /* \"#utility.yul\":1534:1535   */\n  0x00\n    /* \"#utility.yul\":1531:1532   */\n  dup1\n    /* \"#utility.yul\":1524:1536   */\n  revert\n    /* \"#utility.yul\":1488:1490   */\ntag_51:\n    /* \"#utility.yul\":1562:1636   */\n  tag_52\n    /* \"#utility.yul\":1628:1635   */\n  dup8\n    /* \"#utility.yul\":1619:1625   */\n  dup3\n    /* \"#utility.yul\":1608:1617   */\n  dup9\n    /* \"#utility.yul\":1604:1626   */\n  add\n    /* \"#utility.yul\":1562:1636   */\n  tag_35\n  jump\t// in\ntag_52:\n    /* \"#utility.yul\":1552:1636   */\n  swap4\n  pop\n    /* \"#utility.yul\":1421:1646   */\n  pop\n    /* \"#utility.yul\":1685:1687   */\n  0x40\n    /* \"#utility.yul\":1711:1773   */\n  tag_53\n    /* \"#utility.yul\":1765:1772   */\n  dup8\n    /* \"#utility.yul\":1756:1762   */\n  dup3\n    /* \"#utility.yul\":1745:1754   */\n  dup9\n    /* \"#utility.yul\":1741:1763   */\n  add\n    /* \"#utility.yul\":1711:1773   */\n  tag_43\n  jump\t// in\ntag_53:\n    /* \"#utility.yul\":1701:1773   */\n  swap3\n  pop\n    /* \"#utility.yul\":1656:1783   */\n  pop\n    /* \"#utility.yul\":1822:1824   */\n  0x60\n    /* \"#utility.yul\":1848:1912   */\n  tag_54\n    /* \"#utility.yul\":1904:1911   */\n  dup8\n    /* \"#utility.yul\":1895:1901   */\n  dup3\n    /* \"#utility.yul\":1884:1893   */\n  dup9\n    /* \"#utility.yul\":1880:1902   */\n  add\n    /* \"#utility.yul\":1848:1912   */\n  tag_39\n  jump\t// in\ntag_54:\n    /* \"#utility.yul\":1838:1912   */\n  swap2\n  pop\n    /* \"#utility.yul\":1793:1922   */\n  pop\n    /* \"#utility.yul\":1114:1929   */\n  swap3\n  swap6\n  swap2\n  swap5\n  pop\n  swap3\n  pop\n  jump\t// out\n    /* \"#utility.yul\":1935:2218   */\ntag_31:\n  0x00\n    /* \"#utility.yul\":2001:2003   */\n  0x40\n    /* \"#utility.yul\":1995:2004   */\n  mload\n    /* \"#utility.yul\":1985:2004   */\n  swap1\n  pop\n    /* \"#utility.yul\":2043:2047   */\n  dup2\n    /* \"#utility.yul\":2035:2041   */\n  dup2\n    /* \"#utility.yul\":2031:2048   */\n  add\n    /* \"#utility.yul\":2150:2156   */\n  dup2\n    /* \"#utility.yul\":2138:2148   */\n  dup2\n    /* \"#utility.yul\":2135:2157   */\n  lt\n    /* \"#utility.yul\":2114:2132   */\n  0xffffffffffffffff\n    /* \"#utility.yul\":2102:2112   */\n  dup3\n    /* \"#utility.yul\":2099:2133   */\n  gt\n    /* \"#utility.yul\":2096:2158   */\n  or\n    /* \"#utility.yul\":2093:2095   */\n  iszero\n  tag_56\n  jumpi\n    /* \"#utility.yul\":2161:2179   */\n  tag_57\n  tag_58\n  jump\t// in\ntag_57:\n    /* \"#utility.yul\":2093:2095   */\ntag_56:\n    /* \"#utility.yul\":2201:2211   */\n  dup1\n    /* \"#utility.yul\":2197:2199   */\n  0x40\n    /* \"#utility.yul\":2190:2212   */\n  mstore\n    /* \"#utility.yul\":1975:2218   */\n  pop\n  swap2\n  swap1\n  pop\n  jump\t// out\n    /* \"#utility.yul\":2224:2556   */\ntag_30:\n  0x00\n    /* \"#utility.yul\":2376:2394   */\n  0xffffffffffffffff\n    /* \"#utility.yul\":2368:2374   */\n  dup3\n    /* \"#utility.yul\":2365:2395   */\n  gt\n    /* \"#utility.yul\":2362:2364   */\n  iszero\n  tag_60\n  jumpi\n    /* \"#utility.yul\":2398:2416   */\n  tag_61\n  tag_58\n  jump\t// in\ntag_61:\n    /* \"#utility.yul\":2362:2364   */\ntag_60:\n    /* \"#utility.yul\":2483:2487   */\n  0x1f\n    /* \"#utility.yul\":2479:2488   */\n  not\n    /* \"#utility.yul\":2472:2476   */\n  0x1f\n    /* \"#utility.yul\":2464:2470   */\n  dup4\n    /* \"#utility.yul\":2460:2477   */\n  add\n    /* \"#utility.yul\":2456:2489   */\n  and\n    /* \"#utility.yul\":2448:2489   */\n  swap1\n  pop\n    /* \"#utility.yul\":2544:2548   */\n  0x20\n    /* \"#utility.yul\":2538:2542   */\n  dup2\n    /* \"#utility.yul\":2534:2549   */\n  add\n    /* \"#utility.yul\":2526:2549   */\n  swap1\n  pop\n    /* \"#utility.yul\":2291:2556   */\n  swap2\n  swap1\n  pop\n  jump\t// out\n    /* \"#utility.yul\":2562:2639   */\ntag_62:\n  0x00\n    /* \"#utility.yul\":2628:2633   */\n  dup2\n    /* \"#utility.yul\":2617:2633   */\n  swap1\n  pop\n    /* \"#utility.yul\":2607:2639   */\n  swap2\n  swap1\n  pop\n  jump\t// out\n    /* \"#utility.yul\":2645:2731   */\ntag_64:\n  0x00\n    /* \"#utility.yul\":2720:2724   */\n  0xff\n    /* \"#utility.yul\":2713:2718   */\n  dup3\n    /* \"#utility.yul\":2709:2725   */\n  and\n    /* \"#utility.yul\":2698:2725   */\n  swap1\n  pop\n    /* \"#utility.yul\":2688:2731   */\n  swap2\n  swap1\n  pop\n  jump\t// out\n    /* \"#utility.yul\":2737:3044   */\ntag_34:\n    /* \"#utility.yul\":2805:2806   */\n  0x00\n    /* \"#utility.yul\":2815:2928   */\ntag_67:\n    /* \"#utility.yul\":2829:2835   */\n  dup4\n    /* \"#utility.yul\":2826:2827   */\n  dup2\n    /* \"#utility.yul\":2823:2836   */\n  lt\n    /* \"#utility.yul\":2815:2928   */\n  iszero\n  tag_69\n  jumpi\n    /* \"#utility.yul\":2914:2915   */\n  dup1\n    /* \"#utility.yul\":2909:2912   */\n  dup3\n    /* \"#utility.yul\":2905:2916   */\n  add\n    /* \"#utility.yul\":2899:2917   */\n  mload\n    /* \"#utility.yul\":2895:2896   */\n  dup2\n    /* \"#utility.yul\":2890:2893   */\n  dup5\n    /* \"#utility.yul\":2886:2897   */\n  add\n    /* \"#utility.yul\":2879:2918   */\n  mstore\n    /* \"#utility.yul\":2851:2853   */\n  0x20\n    /* \"#utility.yul\":2848:2849   */\n  dup2\n    /* \"#utility.yul\":2844:2854   */\n  add\n    /* \"#utility.yul\":2839:2854   */\n  swap1\n  pop\n    /* \"#utility.yul\":2815:2928   */\n  jump(tag_67)\ntag_69:\n    /* \"#utility.yul\":2946:2952   */\n  dup4\n    /* \"#utility.yul\":2943:2944   */\n  dup2\n    /* \"#utility.yul\":2940:2953   */\n  gt\n    /* \"#utility.yul\":2937:2939   */\n  iszero\n  tag_70\n  jumpi\n    /* \"#utility.yul\":3026:3027   */\n  0x00\n    /* \"#utility.yul\":3017:3023   */\n  dup5\n    /* \"#utility.yul\":3012:3015   */\n  dup5\n    /* \"#utility.yul\":3008:3024   */\n  add\n    /* \"#utility.yul\":3001:3028   */\n  mstore\n    /* \"#utility.yul\":2937:2939   */\ntag_70:\n    /* \"#utility.yul\":2786:3044   */\n  pop\n  pop\n  pop\n  pop\n  jump\t// out\n    /* \"#utility.yul\":3050:3370   */\ntag_15:\n  0x00\n    /* \"#utility.yul\":3131:3132   */\n  0x02\n    /* \"#utility.yul\":3125:3129   */\n  dup3\n    /* \"#utility.yul\":3121:3133   */\n  div\n    /* \"#utility.yul\":3111:3133   */\n  swap1\n  pop\n    /* \"#utility.yul\":3178:3179   */\n  0x01\n    /* \"#utility.yul\":3172:3176   */\n  dup3\n    /* \"#utility.yul\":3168:3180   */\n  and\n    /* \"#utility.yul\":3199:3217   */\n  dup1\n    /* \"#utility.yul\":3189:3191   */\n  tag_72\n  jumpi\n    /* \"#utility.yul\":3255:3259   */\n  0x7f\n    /* \"#utility.yul\":3247:3253   */\n  dup3\n    /* \"#utility.yul\":3243:3260   */\n  and\n    /* \"#utility.yul\":3233:3260   */\n  swap2\n  pop\n    /* \"#utility.yul\":3189:3191   */\ntag_72:\n    /* \"#utility.yul\":3317:3319   */\n  0x20\n    /* \"#utility.yul\":3309:3315   */\n  dup3\n    /* \"#utility.yul\":3306:3320   */\n  lt\n    /* \"#utility.yul\":3286:3304   */\n  dup2\n    /* \"#utility.yul\":3283:3321   */\n  eq\n    /* \"#utility.yul\":3280:3282   */\n  iszero\n  tag_73\n  jumpi\n    /* \"#utility.yul\":3336:3354   */\n  tag_74\n  tag_75\n  jump\t// in\ntag_74:\n    /* \"#utility.yul\":3280:3282   */\ntag_73:\n    /* \"#utility.yul\":3101:3370   */\n  pop\n  swap2\n  swap1\n  pop\n  jump\t// out\n    /* \"#utility.yul\":3376:3556   */\ntag_75:\n    /* \"#utility.yul\":3424:3501   */\n  0x4e487b7100000000000000000000000000000000000000000000000000000000\n    /* \"#utility.yul\":3421:3422   */\n  0x00\n    /* \"#utility.yul\":3414:3502   */\n  mstore\n    /* \"#utility.yul\":3521:3525   */\n  0x22\n    /* \"#utility.yul\":3518:3519   */\n  0x04\n    /* \"#utility.yul\":3511:3526   */\n  mstore\n    /* \"#utility.yul\":3545:3549   */\n  0x24\n    /* \"#utility.yul\":3542:3543   */\n  0x00\n    /* \"#utility.yul\":3535:3550   */\n  revert\n    /* \"#utility.yul\":3562:3742   */\ntag_58:\n    /* \"#utility.yul\":3610:3687   */\n  0x4e487b7100000000000000000000000000000000000000000000000000000000\n    /* \"#utility.yul\":3607:3608   */\n  0x00\n    /* \"#utility.yul\":3600:3688   */\n  mstore\n    /* \"#utility.yul\":3707:3711   */\n  0x41\n    /* \"#utility.yul\":3704:3705   */\n  0x04\n    /* \"#utility.yul\":3697:3712   */\n  mstore\n    /* \"#utility.yul\":3731:3735   */\n  0x24\n    /* \"#utility.yul\":3728:3729   */\n  0x00\n    /* \"#utility.yul\":3721:3736   */\n  revert\n    /* \"#utility.yul\":3748:3870   */\ntag_42:\n    /* \"#utility.yul\":3821:3845   */\n  tag_79\n    /* \"#utility.yul\":3839:3844   */\n  dup2\n    /* \"#utility.yul\":3821:3845   */\n  tag_62\n  jump\t// in\ntag_79:\n    /* \"#utility.yul\":3814:3819   */\n  dup2\n    /* \"#utility.yul\":3811:3846   */\n  eq\n    /* \"#utility.yul\":3801:3803   */\n  tag_80\n  jumpi\n    /* \"#utility.yul\":3860:3861   */\n  0x00\n    /* \"#utility.yul\":3857:3858   */\n  dup1\n    /* \"#utility.yul\":3850:3862   */\n  revert\n    /* \"#utility.yul\":3801:3803   */\ntag_80:\n    /* \"#utility.yul\":3791:3870   */\n  pop\n  jump\t// out\n    /* \"#utility.yul\":3876:3994   */\ntag_46:\n    /* \"#utility.yul\":3947:3969   */\n  tag_82\n    /* \"#utility.yul\":3963:3968   */\n  dup2\n    /* \"#utility.yul\":3947:3969   */\n  tag_64\n  jump\t// in\ntag_82:\n    /* \"#utility.yul\":3940:3945   */\n  dup2\n    /* \"#utility.yul\":3937:3970   */\n  eq\n    /* \"#utility.yul\":3927:3929   */\n  tag_83\n  jumpi\n    /* \"#utility.yul\":3984:3985   */\n  0x00\n    /* \"#utility.yul\":3981:3982   */\n  dup1\n    /* \"#utility.yul\":3974:3986   */\n  revert\n    /* \"#utility.yul\":3927:3929   */\ntag_83:\n    /* \"#utility.yul\":3917:3994   */\n  pop\n  jump\t// out\n    /* \"ERC20.sol\":226:5039  contract ERC20 is ReentrancyGuard, IERC20, Ownable, Pausable {... */\ntag_13:\n  dataSize(sub_0)\n  dup1\n  dataOffset(sub_0)\n  0x00\n  codecopy\n  0x00\n  return\nstop\n\nsub_0: assembly {\n        /* \"ERC20.sol\":226:5039  contract ERC20 is ReentrancyGuard, IERC20, Ownable, Pausable {... */\n      mstore(0x40, 0x80)\n      callvalue\n      dup1\n      iszero\n      tag_1\n      jumpi\n      0x00\n      dup1\n      revert\n    tag_1:\n      pop\n      jumpi(tag_2, lt(calldatasize, 0x04))\n      shr(0xe0, calldataload(0x00))\n      dup1\n      0x70a08231\n      gt\n      tag_23\n      jumpi\n      dup1\n      0xa9059cbb\n      gt\n      tag_24\n      jumpi\n      dup1\n      0xa9059cbb\n      eq\n      tag_18\n      jumpi\n      dup1\n      0xce606ee0\n      eq\n      tag_19\n      jumpi\n      dup1\n      0xd73dd623\n      eq\n      tag_20\n      jumpi\n      dup1\n      0xdd62ed3e\n      eq\n      tag_21\n      jumpi\n      dup1\n      0xf2fde38b\n      eq\n      tag_22\n      jumpi\n      jump(tag_2)\n    tag_24:\n      dup1\n      0x70a08231\n      eq\n      tag_13\n      jumpi\n      dup1\n      0x79cc6790\n      eq\n      tag_14\n      jumpi\n      dup1\n      0x8456cb59\n      eq\n      tag_15\n      jumpi\n      dup1\n      0x8f32d59b\n      eq\n      tag_16\n      jumpi\n      dup1\n      0x95d89b41\n      eq\n      tag_17\n      jumpi\n      jump(tag_2)\n    tag_23:\n      dup1\n      0x3f4ba83a\n      gt\n      tag_25\n      jumpi\n      dup1\n      0x3f4ba83a\n      eq\n      tag_8\n      jumpi\n      dup1\n      0x42966c68\n      eq\n      tag_9\n      jumpi\n      dup1\n      0x449a52f8\n      eq\n      tag_10\n      jumpi\n      dup1\n      0x5c975abb\n      eq\n      tag_11\n      jumpi\n      dup1\n      0x66188463\n      eq\n      tag_12\n      jumpi\n      jump(tag_2)\n    tag_25:\n      dup1\n      0x06fdde03\n      eq\n      tag_3\n      jumpi\n      dup1\n      0x095ea7b3\n      eq\n      tag_4\n      jumpi\n      dup1\n      0x18160ddd\n      eq\n      tag_5\n      jumpi\n      dup1\n      0x23b872dd\n      eq\n      tag_6\n      jumpi\n      dup1\n      0x313ce567\n      eq\n      tag_7\n      jumpi\n    tag_2:\n      0x00\n      dup1\n      revert\n        /* \"ERC20.sol\":294:312  string public name */\n    tag_3:\n      tag_26\n      tag_27\n      jump\t// in\n    tag_26:\n      mload(0x40)\n      tag_28\n      swap2\n      swap1\n      tag_29\n      jump\t// in\n    tag_28:\n      mload(0x40)\n      dup1\n      swap2\n      sub\n      swap1\n      return\n        /* \"ERC20.sol\":1628:1894  function approve(... */\n    tag_4:\n      tag_30\n      0x04\n      dup1\n      calldatasize\n      sub\n      dup2\n      add\n      swap1\n      tag_31\n      swap2\n      swap1\n      tag_32\n      jump\t// in\n    tag_31:\n      tag_33\n      jump\t// in\n    tag_30:\n      mload(0x40)\n      tag_34\n      swap2\n      swap1\n      tag_35\n      jump\t// in\n    tag_34:\n      mload(0x40)\n      dup1\n      swap2\n      sub\n      swap1\n      return\n        /* \"ERC20.sol\":371:397  uint256 public totalSupply */\n    tag_5:\n      tag_36\n      tag_37\n      jump\t// in\n    tag_36:\n      mload(0x40)\n      tag_38\n      swap2\n      swap1\n      tag_39\n      jump\t// in\n    tag_38:\n      mload(0x40)\n      dup1\n      swap2\n      sub\n      swap1\n      return\n        /* \"ERC20.sol\":1899:2631  function transferFrom(... */\n    tag_6:\n      tag_40\n      0x04\n      dup1\n      calldatasize\n      sub\n      dup2\n      add\n      swap1\n      tag_41\n      swap2\n      swap1\n      tag_42\n      jump\t// in\n    tag_41:\n      tag_43\n      jump\t// in\n    tag_40:\n      mload(0x40)\n      tag_44\n      swap2\n      swap1\n      tag_35\n      jump\t// in\n    tag_44:\n      mload(0x40)\n      dup1\n      swap2\n      sub\n      swap1\n      return\n        /* \"ERC20.sol\":344:365  uint8 public decimals */\n    tag_7:\n      tag_45\n      tag_46\n      jump\t// in\n    tag_45:\n      mload(0x40)\n      tag_47\n      swap2\n      swap1\n      tag_48\n      jump\t// in\n    tag_47:\n      mload(0x40)\n      dup1\n      swap2\n      sub\n      swap1\n      return\n        /* \"lifecycle/Pausable.sol\":624:740  function unpause() external onlyOwner whenPaused {... */\n    tag_8:\n      tag_49\n      tag_50\n      jump\t// in\n    tag_49:\n      stop\n        /* \"ERC20.sol\":4045:4407  function burn(... */\n    tag_9:\n      tag_51\n      0x04\n      dup1\n      calldatasize\n      sub\n      dup2\n      add\n      swap1\n      tag_52\n      swap2\n      swap1\n      tag_53\n      jump\t// in\n    tag_52:\n      tag_54\n      jump\t// in\n    tag_51:\n      mload(0x40)\n      tag_55\n      swap2\n      swap1\n      tag_35\n      jump\t// in\n    tag_55:\n      mload(0x40)\n      dup1\n      swap2\n      sub\n      swap1\n      return\n        /* \"ERC20.sol\":3677:4039  function mintTo(... */\n    tag_10:\n      tag_56\n      0x04\n      dup1\n      calldatasize\n      sub\n      dup2\n      add\n      swap1\n      tag_57\n      swap2\n      swap1\n      tag_32\n      jump\t// in\n    tag_57:\n      tag_58\n      jump\t// in\n    tag_56:\n      mload(0x40)\n      tag_59\n      swap2\n      swap1\n      tag_35\n      jump\t// in\n    tag_59:\n      mload(0x40)\n      dup1\n      swap2\n      sub\n      swap1\n      return\n        /* \"lifecycle/Pausable.sol\":420:498  function paused() external view returns (bool) {... */\n    tag_11:\n      tag_60\n      tag_61\n      jump\t// in\n    tag_60:\n      mload(0x40)\n      tag_62\n      swap2\n      swap1\n      tag_35\n      jump\t// in\n    tag_62:\n      mload(0x40)\n      dup1\n      swap2\n      sub\n      swap1\n      return\n        /* \"ERC20.sol\":3158:3671  function decreaseApproval(... */\n    tag_12:\n      tag_63\n      0x04\n      dup1\n      calldatasize\n      sub\n      dup2\n      add\n      swap1\n      tag_64\n      swap2\n      swap1\n      tag_32\n      jump\t// in\n    tag_64:\n      tag_65\n      jump\t// in\n    tag_63:\n      mload(0x40)\n      tag_66\n      swap2\n      swap1\n      tag_35\n      jump\t// in\n    tag_66:\n      mload(0x40)\n      dup1\n      swap2\n      sub\n      swap1\n      return\n        /* \"ERC20.sol\":1484:1622  function balanceOf(... */\n    tag_13:\n      tag_67\n      0x04\n      dup1\n      calldatasize\n      sub\n      dup2\n      add\n      swap1\n      tag_68\n      swap2\n      swap1\n      tag_69\n      jump\t// in\n    tag_68:\n      tag_70\n      jump\t// in\n    tag_67:\n      mload(0x40)\n      tag_71\n      swap2\n      swap1\n      tag_39\n      jump\t// in\n    tag_71:\n      mload(0x40)\n      dup1\n      swap2\n      sub\n      swap1\n      return\n        /* \"ERC20.sol\":4413:5036  function burnFrom(... */\n    tag_14:\n      tag_72\n      0x04\n      dup1\n      calldatasize\n      sub\n      dup2\n      add\n      swap1\n      tag_73\n      swap2\n      swap1\n      tag_32\n      jump\t// in\n    tag_73:\n      tag_74\n      jump\t// in\n    tag_72:\n      mload(0x40)\n      tag_75\n      swap2\n      swap1\n      tag_35\n      jump\t// in\n    tag_75:\n      mload(0x40)\n      dup1\n      swap2\n      sub\n      swap1\n      return\n        /* \"lifecycle/Pausable.sol\":504:618  function pause() external onlyOwner whenNotPaused {... */\n    tag_15:\n      tag_76\n      tag_77\n      jump\t// in\n    tag_76:\n      stop\n        /* \"ownership/Ownable.sol\":387:470  function isOwner() public view returns (bool) {... */\n    tag_16:\n      tag_78\n      tag_79\n      jump\t// in\n    tag_78:\n      mload(0x40)\n      tag_80\n      swap2\n      swap1\n      tag_35\n      jump\t// in\n    tag_80:\n      mload(0x40)\n      dup1\n      swap2\n      sub\n      swap1\n      return\n        /* \"ERC20.sol\":318:338  string public symbol */\n    tag_17:\n      tag_81\n      tag_82\n      jump\t// in\n    tag_81:\n      mload(0x40)\n      tag_83\n      swap2\n      swap1\n      tag_29\n      jump\t// in\n    tag_83:\n      mload(0x40)\n      dup1\n      swap2\n      sub\n      swap1\n      return\n        /* \"ERC20.sol\":1002:1479  function transfer(... */\n    tag_18:\n      tag_84\n      0x04\n      dup1\n      calldatasize\n      sub\n      dup2\n      add\n      swap1\n      tag_85\n      swap2\n      swap1\n      tag_32\n      jump\t// in\n    tag_85:\n      tag_86\n      jump\t// in\n    tag_84:\n      mload(0x40)\n      tag_87\n      swap2\n      swap1\n      tag_35\n      jump\t// in\n    tag_87:\n      mload(0x40)\n      dup1\n      swap2\n      sub\n      swap1\n      return\n        /* \"ownership/Ownable.sol\":303:383  function contractOwner() external view returns (address) {... */\n    tag_19:\n      tag_88\n      tag_89\n      jump\t// in\n    tag_88:\n      mload(0x40)\n      tag_90\n      swap2\n      swap1\n      tag_91\n      jump\t// in\n    tag_90:\n      mload(0x40)\n      dup1\n      swap2\n      sub\n      swap1\n      return\n        /* \"ERC20.sol\":2824:3152  function increaseApproval(... */\n    tag_20:\n      tag_92\n      0x04\n      dup1\n      calldatasize\n      sub\n      dup2\n      add\n      swap1\n      tag_93\n      swap2\n      swap1\n      tag_32\n      jump\t// in\n    tag_93:\n      tag_94\n      jump\t// in\n    tag_92:\n      mload(0x40)\n      tag_95\n      swap2\n      swap1\n      tag_35\n      jump\t// in\n    tag_95:\n      mload(0x40)\n      dup1\n      swap2\n      sub\n      swap1\n      return\n        /* \"ERC20.sol\":2637:2818  function allowance(... */\n    tag_21:\n      tag_96\n      0x04\n      dup1\n      calldatasize\n      sub\n      dup2\n      add\n      swap1\n      tag_97\n      swap2\n      swap1\n      tag_98\n      jump\t// in\n    tag_97:\n      tag_99\n      jump\t// in\n    tag_96:\n      mload(0x40)\n      tag_100\n      swap2\n      swap1\n      tag_39\n      jump\t// in\n    tag_100:\n      mload(0x40)\n      dup1\n      swap2\n      sub\n      swap1\n      return\n        /* \"ownership/Ownable.sol\":474:680  function transferOwnership(address _newOwner) external onlyOwner {... */\n    tag_22:\n      tag_101\n      0x04\n      dup1\n      calldatasize\n      sub\n      dup2\n      add\n      swap1\n      tag_102\n      swap2\n      swap1\n      tag_69\n      jump\t// in\n    tag_102:\n      tag_103\n      jump\t// in\n    tag_101:\n      stop\n        /* \"ERC20.sol\":294:312  string public name */\n    tag_27:\n      0x02\n      dup1\n      sload\n      tag_104\n      swap1\n      tag_105\n      jump\t// in\n    tag_104:\n      dup1\n      0x1f\n      add\n      0x20\n      dup1\n      swap2\n      div\n      mul\n      0x20\n      add\n      mload(0x40)\n      swap1\n      dup2\n      add\n      0x40\n      mstore\n      dup1\n      swap3\n      swap2\n      swap1\n      dup2\n      dup2\n      mstore\n      0x20\n      add\n      dup3\n      dup1\n      sload\n      tag_106\n      swap1\n      tag_105\n      jump\t// in\n    tag_106:\n      dup1\n      iszero\n      tag_107\n      jumpi\n      dup1\n      0x1f\n      lt\n      tag_108\n      jumpi\n      0x0100\n      dup1\n      dup4\n      sload\n      div\n      mul\n      dup4\n      mstore\n      swap2\n      0x20\n      add\n      swap2\n      jump(tag_107)\n    tag_108:\n      dup3\n      add\n      swap2\n      swap1\n      0x00\n      mstore\n      keccak256(0x00, 0x20)\n      swap1\n    tag_109:\n      dup2\n      sload\n      dup2\n      mstore\n      swap1\n      0x01\n      add\n      swap1\n      0x20\n      add\n      dup1\n      dup4\n      gt\n      tag_109\n      jumpi\n      dup3\n      swap1\n      sub\n      0x1f\n      and\n      dup3\n      add\n      swap2\n    tag_107:\n      pop\n      pop\n      pop\n      pop\n      pop\n      dup2\n      jump\t// out\n        /* \"ERC20.sol\":1628:1894  function approve(... */\n    tag_33:\n        /* \"ERC20.sol\":1741:1745  bool */\n      0x00\n        /* \"lifecycle/Pausable.sol\":272:279  _paused */\n      0x01\n      0x14\n      swap1\n      sload\n      swap1\n      0x0100\n      exp\n      swap1\n      div\n      0xff\n      and\n        /* \"lifecycle/Pausable.sol\":271:279  !_paused */\n      iszero\n        /* \"lifecycle/Pausable.sol\":263:300  require(!_paused, \"Pausable: paused\") */\n      tag_111\n      jumpi\n      mload(0x40)\n      0x08c379a000000000000000000000000000000000000000000000000000000000\n      dup2\n      mstore\n      0x04\n      add\n      tag_112\n      swap1\n      tag_113\n      jump\t// in\n    tag_112:\n      mload(0x40)\n      dup1\n      swap2\n      sub\n      swap1\n      revert\n    tag_111:\n        /* \"ERC20.sol\":1790:1796  _value */\n      dup2\n        /* \"ERC20.sol\":1757:1765  _allowed */\n      0x07\n        /* \"ERC20.sol\":1757:1777  _allowed[msg.sender] */\n      0x00\n        /* \"ERC20.sol\":1766:1776  msg.sender */\n      caller\n        /* \"ERC20.sol\":1757:1777  _allowed[msg.sender] */\n      0xffffffffffffffffffffffffffffffffffffffff\n      and\n      0xffffffffffffffffffffffffffffffffffffffff\n      and\n      dup2\n      mstore\n      0x20\n      add\n      swap1\n      dup2\n      mstore\n      0x20\n      add\n      0x00\n      keccak256\n        /* \"ERC20.sol\":1757:1787  _allowed[msg.sender][_spender] */\n      0x00\n        /* \"ERC20.sol\":1778:1786  _spender */\n      dup6\n        /* \"ERC20.sol\":1757:1787  _allowed[msg.sender][_spender] */\n      0xffffffffffffffffffffffffffffffffffffffff\n      and\n      0xffffffffffffffffffffffffffffffffffffffff\n      and\n      dup2\n      mstore\n      0x20\n      add\n      swap1\n      dup2\n      mstore\n      0x20\n      add\n      0x00\n      keccak256\n        /* \"ERC20.sol\":1757:1796  _allowed[msg.sender][_spender] = _value */\n      dup2\n      swap1\n      sstore\n      pop\n        /* \"ERC20.sol\":1841:1849  _spender */\n      dup3\n        /* \"ERC20.sol\":1820:1858  Approval(msg.sender, _spender, _value) */\n      0xffffffffffffffffffffffffffffffffffffffff\n      and\n        /* \"ERC20.sol\":1829:1839  msg.sender */\n      caller\n        /* \"ERC20.sol\":1820:1858  Approval(msg.sender, _spender, _value) */\n      0xffffffffffffffffffffffffffffffffffffffff\n      and\n      0x8c5be1e5ebec7d5bd14f71427d1e84f3dd0314c0f7b2291e5b200ac8c7c3b925\n        /* \"ERC20.sol\":1851:1857  _value */\n      dup5\n        /* \"ERC20.sol\":1820:1858  Approval(msg.sender, _spender, _value) */\n      mload(0x40)\n      tag_115\n      swap2\n      swap1\n      tag_39\n      jump\t// in\n    tag_115:\n      mload(0x40)\n      dup1\n      swap2\n      sub\n      swap1\n      log3\n        /* \"ERC20.sol\":1884:1888  true */\n      0x01\n        /* \"ERC20.sol\":1877:1888  return true */\n      swap1\n      pop\n        /* \"ERC20.sol\":1628:1894  function approve(... */\n      swap3\n      swap2\n      pop\n      pop\n      jump\t// out\n        /* \"ERC20.sol\":371:397  uint256 public totalSupply */\n    tag_37:\n      sload(0x05)\n      dup2\n      jump\t// out\n        /* \"ERC20.sol\":1899:2631  function transferFrom(... */\n    tag_43:\n        /* \"ERC20.sol\":2038:2042  bool */\n      0x00\n        /* \"lifecycle/Pausable.sol\":272:279  _paused */\n      0x01\n      0x14\n      swap1\n      sload\n      swap1\n      0x0100\n      exp\n      swap1\n      div\n      0xff\n      and\n        /* \"lifecycle/Pausable.sol\":271:279  !_paused */\n      iszero\n        /* \"lifecycle/Pausable.sol\":263:300  require(!_paused, \"Pausable: paused\") */\n      tag_117\n      jumpi\n      mload(0x40)\n      0x08c379a000000000000000000000000000000000000000000000000000000000\n      dup2\n      mstore\n      0x04\n      add\n      tag_118\n      swap1\n      tag_113\n      jump\t// in\n    tag_118:\n      mload(0x40)\n      dup1\n      swap2\n      sub\n      swap1\n      revert\n    tag_117:\n        /* \"ERC20.sol\":2079:2080  0 */\n      0x00\n        /* \"ERC20.sol\":2062:2081  _from != address(0) */\n      0xffffffffffffffffffffffffffffffffffffffff\n      and\n        /* \"ERC20.sol\":2062:2067  _from */\n      dup5\n        /* \"ERC20.sol\":2062:2081  _from != address(0) */\n      0xffffffffffffffffffffffffffffffffffffffff\n      and\n      eq\n      iszero\n        /* \"ERC20.sol\":2054:2118  require(_from != address(0), 'ERC20: from address is not valid') */\n      tag_120\n      jumpi\n      mload(0x40)\n      0x08c379a000000000000000000000000000000000000000000000000000000000\n      dup2\n      mstore\n      0x04\n      add\n      tag_121\n      swap1\n      tag_122\n      jump\t// in\n    tag_121:\n      mload(0x40)\n      dup1\n      swap2\n      sub\n      swap1\n      revert\n    tag_120:\n        /* \"ERC20.sol\":2151:2152  0 */\n      0x00\n        /* \"ERC20.sol\":2136:2153  _to != address(0) */\n      0xffffffffffffffffffffffffffffffffffffffff\n      and\n        /* \"ERC20.sol\":2136:2139  _to */\n      dup4\n        /* \"ERC20.sol\":2136:2153  _to != address(0) */\n      0xffffffffffffffffffffffffffffffffffffffff\n      and\n      eq\n      iszero\n        /* \"ERC20.sol\":2128:2188  require(_to != address(0), 'ERC20: to address is not valid') */\n      tag_123\n      jumpi\n      mload(0x40)\n      0x08c379a000000000000000000000000000000000000000000000000000000000\n      dup2\n      mstore\n      0x04\n      add\n      tag_124\n      swap1\n      tag_125\n      jump\t// in\n    tag_124:\n      mload(0x40)\n      dup1\n      swap2\n      sub\n      swap1\n      revert\n    tag_123:\n        /* \"ERC20.sol\":2216:2225  _balances */\n      0x06\n        /* \"ERC20.sol\":2216:2232  _balances[_from] */\n      0x00\n        /* \"ERC20.sol\":2226:2231  _from */\n      dup6\n        /* \"ERC20.sol\":2216:2232  _balances[_from] */\n      0xffffffffffffffffffffffffffffffffffffffff\n      and\n      0xffffffffffffffffffffffffffffffffffffffff\n      and\n      dup2\n      mstore\n      0x20\n      add\n      swap1\n      dup2\n      mstore\n      0x20\n      add\n      0x00\n      keccak256\n      sload\n        /* \"ERC20.sol\":2206:2212  _value */\n      dup3\n        /* \"ERC20.sol\":2206:2232  _value <= _balances[_from] */\n      gt\n      iszero\n        /* \"ERC20.sol\":2198:2264  require(_value <= _balances[_from], 'ERC20: insufficient balance') */\n      tag_126\n      jumpi\n      mload(0x40)\n      0x08c379a000000000000000000000000000000000000000000000000000000000\n      dup2\n      mstore\n      0x04\n      add\n      tag_127\n      swap1\n      tag_128\n      jump\t// in\n    tag_127:\n      mload(0x40)\n      dup1\n      swap2\n      sub\n      swap1\n      revert\n    tag_126:\n        /* \"ERC20.sol\":2292:2300  _allowed */\n      0x07\n        /* \"ERC20.sol\":2292:2307  _allowed[_from] */\n      0x00\n        /* \"ERC20.sol\":2301:2306  _from */\n      dup6\n        /* \"ERC20.sol\":2292:2307  _allowed[_from] */\n      0xffffffffffffffffffffffffffffffffffffffff\n      and\n      0xffffffffffffffffffffffffffffffffffffffff\n      and\n      dup2\n      mstore\n      0x20\n      add\n      swap1\n      dup2\n      mstore\n      0x20\n      add\n      0x00\n      keccak256\n        /* \"ERC20.sol\":2292:2319  _allowed[_from][msg.sender] */\n      0x00\n        /* \"ERC20.sol\":2308:2318  msg.sender */\n      caller\n        /* \"ERC20.sol\":2292:2319  _allowed[_from][msg.sender] */\n      0xffffffffffffffffffffffffffffffffffffffff\n      and\n      0xffffffffffffffffffffffffffffffffffffffff\n      and\n      dup2\n      mstore\n      0x20\n      add\n      swap1\n      dup2\n      mstore\n      0x20\n      add\n      0x00\n      keccak256\n      sload\n        /* \"ERC20.sol\":2282:2288  _value */\n      dup3\n        /* \"ERC20.sol\":2282:2319  _value <= _allowed[_from][msg.sender] */\n      gt\n      iszero\n        /* \"ERC20.sol\":2274:2362  require(_value <= _allowed[_from][msg.sender], 'ERC20: transfer from value not allowed') */\n      tag_129\n      jumpi\n      mload(0x40)\n      0x08c379a000000000000000000000000000000000000000000000000000000000\n      dup2\n      mstore\n      0x04\n      add\n      tag_130\n      swap1\n      tag_131\n      jump\t// in\n    tag_130:\n      mload(0x40)\n      dup1\n      swap2\n      sub\n      swap1\n      revert\n    tag_129:\n        /* \"ERC20.sol\":2433:2439  _value */\n      dup2\n        /* \"ERC20.sol\":2403:2411  _allowed */\n      0x07\n        /* \"ERC20.sol\":2403:2418  _allowed[_from] */\n      0x00\n        /* \"ERC20.sol\":2412:2417  _from */\n      dup7\n        /* \"ERC20.sol\":2403:2418  _allowed[_from] */\n      0xffffffffffffffffffffffffffffffffffffffff\n      and\n      0xffffffffffffffffffffffffffffffffffffffff\n      and\n      dup2\n      mstore\n      0x20\n      add\n      swap1\n      dup2\n      mstore\n      0x20\n      add\n      0x00\n      keccak256\n        /* \"ERC20.sol\":2403:2430  _allowed[_from][msg.sender] */\n      0x00\n        /* \"ERC20.sol\":2419:2429  msg.sender */\n      caller\n        /* \"ERC20.sol\":2403:2430  _allowed[_from][msg.sender] */\n      0xffffffffffffffffffffffffffffffffffffffff\n      and\n      0xffffffffffffffffffffffffffffffffffffffff\n      and\n      dup2\n      mstore\n      0x20\n      add\n      swap1\n      dup2\n      mstore\n      0x20\n      add\n      0x00\n      keccak256\n      sload\n        /* \"ERC20.sol\":2403:2439  _allowed[_from][msg.sender] - _value */\n      tag_132\n      swap2\n      swap1\n      tag_133\n      jump\t// in\n    tag_132:\n        /* \"ERC20.sol\":2373:2381  _allowed */\n      0x07\n        /* \"ERC20.sol\":2373:2388  _allowed[_from] */\n      0x00\n        /* \"ERC20.sol\":2382:2387  _from */\n      dup7\n        /* \"ERC20.sol\":2373:2388  _allowed[_from] */\n      0xffffffffffffffffffffffffffffffffffffffff\n      and\n      0xffffffffffffffffffffffffffffffffffffffff\n      and\n      dup2\n      mstore\n      0x20\n      add\n      swap1\n      dup2\n      mstore\n      0x20\n      add\n      0x00\n      keccak256\n        /* \"ERC20.sol\":2373:2400  _allowed[_from][msg.sender] */\n      0x00\n        /* \"ERC20.sol\":2389:2399  msg.sender */\n      caller\n        /* \"ERC20.sol\":2373:2400  _allowed[_from][msg.sender] */\n      0xffffffffffffffffffffffffffffffffffffffff\n      and\n      0xffffffffffffffffffffffffffffffffffffffff\n      and\n      dup2\n      mstore\n      0x20\n      add\n      swap1\n      dup2\n      mstore\n      0x20\n      add\n      0x00\n      keccak256\n        /* \"ERC20.sol\":2373:2439  _allowed[_from][msg.sender] = _allowed[_from][msg.sender] - _value */\n      dup2\n      swap1\n      sstore\n      pop\n        /* \"ERC20.sol\":2487:2493  _value */\n      dup2\n        /* \"ERC20.sol\":2468:2477  _balances */\n      0x06\n        /* \"ERC20.sol\":2468:2484  _balances[_from] */\n      0x00\n        /* \"ERC20.sol\":2478:2483  _from */\n      dup7\n        /* \"ERC20.sol\":2468:2484  _balances[_from] */\n      0xffffffffffffffffffffffffffffffffffffffff\n      and\n      0xffffffffffffffffffffffffffffffffffffffff\n      and\n      dup2\n      mstore\n      0x20\n      add\n      swap1\n      dup2\n      mstore\n      0x20\n      add\n      0x00\n      keccak256\n      sload\n        /* \"ERC20.sol\":2468:2493  _balances[_from] - _value */\n      tag_134\n      swap2\n      swap1\n      tag_133\n      jump\t// in\n    tag_134:\n        /* \"ERC20.sol\":2449:2458  _balances */\n      0x06\n        /* \"ERC20.sol\":2449:2465  _balances[_from] */\n      0x00\n        /* \"ERC20.sol\":2459:2464  _from */\n      dup7\n        /* \"ERC20.sol\":2449:2465  _balances[_from] */\n      0xffffffffffffffffffffffffffffffffffffffff\n      and\n      0xffffffffffffffffffffffffffffffffffffffff\n      and\n      dup2\n      mstore\n      0x20\n      add\n      swap1\n      dup2\n      mstore\n      0x20\n      add\n      0x00\n      keccak256\n        /* \"ERC20.sol\":2449:2493  _balances[_from] = _balances[_from] - _value */\n      dup2\n      swap1\n      sstore\n      pop\n        /* \"ERC20.sol\":2537:2543  _value */\n      dup2\n        /* \"ERC20.sol\":2520:2529  _balances */\n      0x06\n        /* \"ERC20.sol\":2520:2534  _balances[_to] */\n      0x00\n        /* \"ERC20.sol\":2530:2533  _to */\n      dup6\n        /* \"ERC20.sol\":2520:2534  _balances[_to] */\n      0xffffffffffffffffffffffffffffffffffffffff\n      and\n      0xffffffffffffffffffffffffffffffffffffffff\n      and\n      dup2\n      mstore\n      0x20\n      add\n      swap1\n      dup2\n      mstore\n      0x20\n      add\n      0x00\n      keccak256\n      sload\n        /* \"ERC20.sol\":2520:2543  _balances[_to] + _value */\n      tag_135\n      swap2\n      swap1\n      tag_136\n      jump\t// in\n    tag_135:\n        /* \"ERC20.sol\":2503:2512  _balances */\n      0x06\n        /* \"ERC20.sol\":2503:2517  _balances[_to] */\n      0x00\n        /* \"ERC20.sol\":2513:2516  _to */\n      dup6\n        /* \"ERC20.sol\":2503:2517  _balances[_to] */\n      0xffffffffffffffffffffffffffffffffffffffff\n      and\n      0xffffffffffffffffffffffffffffffffffffffff\n      and\n      dup2\n      mstore\n      0x20\n      add\n      swap1\n      dup2\n      mstore\n      0x20\n      add\n      0x00\n      keccak256\n        /* \"ERC20.sol\":2503:2543  _balances[_to] = _balances[_to] + _value */\n      dup2\n      swap1\n      sstore\n      pop\n        /* \"ERC20.sol\":2583:2586  _to */\n      dup3\n        /* \"ERC20.sol\":2567:2595  Transfer(_from, _to, _value) */\n      0xffffffffffffffffffffffffffffffffffffffff\n      and\n        /* \"ERC20.sol\":2576:2581  _from */\n      dup5\n        /* \"ERC20.sol\":2567:2595  Transfer(_from, _to, _value) */\n      0xffffffffffffffffffffffffffffffffffffffff\n      and\n      0xddf252ad1be2c89b69c2b068fc378daa952ba7f163c4a11628f55a4df523b3ef\n        /* \"ERC20.sol\":2588:2594  _value */\n      dup5\n        /* \"ERC20.sol\":2567:2595  Transfer(_from, _to, _value) */\n      mload(0x40)\n      tag_137\n      swap2\n      swap1\n      tag_39\n      jump\t// in\n    tag_137:\n      mload(0x40)\n      dup1\n      swap2\n      sub\n      swap1\n      log3\n        /* \"ERC20.sol\":2621:2625  true */\n      0x01\n        /* \"ERC20.sol\":2614:2625  return true */\n      swap1\n      pop\n        /* \"ERC20.sol\":1899:2631  function transferFrom(... */\n      swap4\n      swap3\n      pop\n      pop\n      pop\n      jump\t// out\n        /* \"ERC20.sol\":344:365  uint8 public decimals */\n    tag_46:\n      0x04\n      0x00\n      swap1\n      sload\n      swap1\n      0x0100\n      exp\n      swap1\n      div\n      0xff\n      and\n      dup2\n      jump\t// out\n        /* \"lifecycle/Pausable.sol\":624:740  function unpause() external onlyOwner whenPaused {... */\n    tag_50:\n        /* \"ownership/Ownable.sol\":241:250  isOwner() */\n      tag_139\n        /* \"ownership/Ownable.sol\":241:248  isOwner */\n      tag_79\n        /* \"ownership/Ownable.sol\":241:250  isOwner() */\n      jump\t// in\n    tag_139:\n        /* \"ownership/Ownable.sol\":233:287  require(isOwner(), \"Ownable: caller is not the owner\") */\n      tag_140\n      jumpi\n      mload(0x40)\n      0x08c379a000000000000000000000000000000000000000000000000000000000\n      dup2\n      mstore\n      0x04\n      add\n      tag_141\n      swap1\n      tag_142\n      jump\t// in\n    tag_141:\n      mload(0x40)\n      dup1\n      swap2\n      sub\n      swap1\n      revert\n    tag_140:\n        /* \"lifecycle/Pausable.sol\":364:371  _paused */\n      0x01\n      0x14\n      swap1\n      sload\n      swap1\n      0x0100\n      exp\n      swap1\n      div\n      0xff\n      and\n        /* \"lifecycle/Pausable.sol\":356:396  require(_paused, \"Pausable: not paused\") */\n      tag_144\n      jumpi\n      mload(0x40)\n      0x08c379a000000000000000000000000000000000000000000000000000000000\n      dup2\n      mstore\n      0x04\n      add\n      tag_145\n      swap1\n      tag_146\n      jump\t// in\n    tag_145:\n      mload(0x40)\n      dup1\n      swap2\n      sub\n      swap1\n      revert\n    tag_144:\n        /* \"lifecycle/Pausable.sol\":693:698  false */\n      0x00\n        /* \"lifecycle/Pausable.sol\":683:690  _paused */\n      0x01\n      0x14\n        /* \"lifecycle/Pausable.sol\":683:698  _paused = false */\n      0x0100\n      exp\n      dup2\n      sload\n      dup2\n      0xff\n      mul\n      not\n      and\n      swap1\n      dup4\n      iszero\n      iszero\n      mul\n      or\n      swap1\n      sstore\n      pop\n        /* \"lifecycle/Pausable.sol\":713:733  Unpaused(msg.sender) */\n      0x5db9ee0a495bf2e6ff9c91a7834c1ba4fdd244a5e8aa4e537bd38aeae4b073aa\n        /* \"lifecycle/Pausable.sol\":722:732  msg.sender */\n      caller\n        /* \"lifecycle/Pausable.sol\":713:733  Unpaused(msg.sender) */\n      mload(0x40)\n      tag_148\n      swap2\n      swap1\n      tag_91\n      jump\t// in\n    tag_148:\n      mload(0x40)\n      dup1\n      swap2\n      sub\n      swap1\n      log1\n        /* \"lifecycle/Pausable.sol\":624:740  function unpause() external onlyOwner whenPaused {... */\n      jump\t// out\n        /* \"ERC20.sol\":4045:4407  function burn(... */\n    tag_54:\n        /* \"ERC20.sol\":4122:4126  bool */\n      0x00\n        /* \"lifecycle/Pausable.sol\":272:279  _paused */\n      0x01\n      0x14\n      swap1\n      sload\n      swap1\n      0x0100\n      exp\n      swap1\n      div\n      0xff\n      and\n        /* \"lifecycle/Pausable.sol\":271:279  !_paused */\n      iszero\n        /* \"lifecycle/Pausable.sol\":263:300  require(!_paused, \"Pausable: paused\") */\n      tag_150\n      jumpi\n      mload(0x40)\n      0x08c379a000000000000000000000000000000000000000000000000000000000\n      dup2\n      mstore\n      0x04\n      add\n      tag_151\n      swap1\n      tag_113\n      jump\t// in\n    tag_151:\n      mload(0x40)\n      dup1\n      swap2\n      sub\n      swap1\n      revert\n    tag_150:\n        /* \"ERC20.sol\":4171:4178  _amount */\n      dup2\n        /* \"ERC20.sol\":4146:4155  _balances */\n      0x06\n        /* \"ERC20.sol\":4146:4167  _balances[msg.sender] */\n      0x00\n        /* \"ERC20.sol\":4156:4166  msg.sender */\n      caller\n        /* \"ERC20.sol\":4146:4167  _balances[msg.sender] */\n      0xffffffffffffffffffffffffffffffffffffffff\n      and\n      0xffffffffffffffffffffffffffffffffffffffff\n      and\n      dup2\n      mstore\n      0x20\n      add\n      swap1\n      dup2\n      mstore\n      0x20\n      add\n      0x00\n      keccak256\n      sload\n        /* \"ERC20.sol\":4146:4178  _balances[msg.sender] >= _amount */\n      lt\n      iszero\n        /* \"ERC20.sol\":4138:4210  require(_balances[msg.sender] >= _amount, 'ERC20: insufficient balance') */\n      tag_153\n      jumpi\n      mload(0x40)\n      0x08c379a000000000000000000000000000000000000000000000000000000000\n      dup2\n      mstore\n      0x04\n      add\n      tag_154\n      swap1\n      tag_128\n      jump\t// in\n    tag_154:\n      mload(0x40)\n      dup1\n      swap2\n      sub\n      swap1\n      revert\n    tag_153:\n        /* \"ERC20.sol\":4269:4276  _amount */\n      dup2\n        /* \"ERC20.sol\":4245:4254  _balances */\n      0x06\n        /* \"ERC20.sol\":4245:4266  _balances[msg.sender] */\n      0x00\n        /* \"ERC20.sol\":4255:4265  msg.sender */\n      caller\n        /* \"ERC20.sol\":4245:4266  _balances[msg.sender] */\n      0xffffffffffffffffffffffffffffffffffffffff\n      and\n      0xffffffffffffffffffffffffffffffffffffffff\n      and\n      dup2\n      mstore\n      0x20\n      add\n      swap1\n      dup2\n      mstore\n      0x20\n      add\n      0x00\n      keccak256\n      sload\n        /* \"ERC20.sol\":4245:4276  _balances[msg.sender] - _amount */\n      tag_155\n      swap2\n      swap1\n      tag_133\n      jump\t// in\n    tag_155:\n        /* \"ERC20.sol\":4221:4230  _balances */\n      0x06\n        /* \"ERC20.sol\":4221:4242  _balances[msg.sender] */\n      0x00\n        /* \"ERC20.sol\":4231:4241  msg.sender */\n      caller\n        /* \"ERC20.sol\":4221:4242  _balances[msg.sender] */\n      0xffffffffffffffffffffffffffffffffffffffff\n      and\n      0xffffffffffffffffffffffffffffffffffffffff\n      and\n      dup2\n      mstore\n      0x20\n      add\n      swap1\n      dup2\n      mstore\n      0x20\n      add\n      0x00\n      keccak256\n        /* \"ERC20.sol\":4221:4276  _balances[msg.sender] = _balances[msg.sender] - _amount */\n      dup2\n      swap1\n      sstore\n      pop\n        /* \"ERC20.sol\":4314:4321  _amount */\n      dup2\n        /* \"ERC20.sol\":4300:4311  totalSupply */\n      sload(0x05)\n        /* \"ERC20.sol\":4300:4321  totalSupply - _amount */\n      tag_156\n      swap2\n      swap1\n      tag_133\n      jump\t// in\n    tag_156:\n        /* \"ERC20.sol\":4286:4297  totalSupply */\n      0x05\n        /* \"ERC20.sol\":4286:4321  totalSupply = totalSupply - _amount */\n      dup2\n      swap1\n      sstore\n      pop\n        /* \"ERC20.sol\":4366:4367  0 */\n      0x00\n        /* \"ERC20.sol\":4337:4378  Transfer(msg.sender, address(0), _amount) */\n      0xffffffffffffffffffffffffffffffffffffffff\n      and\n        /* \"ERC20.sol\":4346:4356  msg.sender */\n      caller\n        /* \"ERC20.sol\":4337:4378  Transfer(msg.sender, address(0), _amount) */\n      0xffffffffffffffffffffffffffffffffffffffff\n      and\n      0xddf252ad1be2c89b69c2b068fc378daa952ba7f163c4a11628f55a4df523b3ef\n        /* \"ERC20.sol\":4370:4377  _amount */\n      dup5\n        /* \"ERC20.sol\":4337:4378  Transfer(msg.sender, address(0), _amount) */\n      mload(0x40)\n      tag_157\n      swap2\n      swap1\n      tag_39\n      jump\t// in\n    tag_157:\n      mload(0x40)\n      dup1\n      swap2\n      sub\n      swap1\n      log3\n        /* \"ERC20.sol\":4396:4400  true */\n      0x01\n        /* \"ERC20.sol\":4389:4400  return true */\n      swap1\n      pop\n        /* \"ERC20.sol\":4045:4407  function burn(... */\n      swap2\n      swap1\n      pop\n      jump\t// out\n        /* \"ERC20.sol\":3677:4039  function mintTo(... */\n    tag_58:\n        /* \"ERC20.sol\":3787:3791  bool */\n      0x00\n        /* \"lifecycle/Pausable.sol\":272:279  _paused */\n      0x01\n      0x14\n      swap1\n      sload\n      swap1\n      0x0100\n      exp\n      swap1\n      div\n      0xff\n      and\n        /* \"lifecycle/Pausable.sol\":271:279  !_paused */\n      iszero\n        /* \"lifecycle/Pausable.sol\":263:300  require(!_paused, \"Pausable: paused\") */\n      tag_159\n      jumpi\n      mload(0x40)\n      0x08c379a000000000000000000000000000000000000000000000000000000000\n      dup2\n      mstore\n      0x04\n      add\n      tag_160\n      swap1\n      tag_113\n      jump\t// in\n    tag_160:\n      mload(0x40)\n      dup1\n      swap2\n      sub\n      swap1\n      revert\n    tag_159:\n        /* \"ownership/Ownable.sol\":241:250  isOwner() */\n      tag_162\n        /* \"ownership/Ownable.sol\":241:248  isOwner */\n      tag_79\n        /* \"ownership/Ownable.sol\":241:250  isOwner() */\n      jump\t// in\n    tag_162:\n        /* \"ownership/Ownable.sol\":233:287  require(isOwner(), \"Ownable: caller is not the owner\") */\n      tag_163\n      jumpi\n      mload(0x40)\n      0x08c379a000000000000000000000000000000000000000000000000000000000\n      dup2\n      mstore\n      0x04\n      add\n      tag_164\n      swap1\n      tag_142\n      jump\t// in\n    tag_164:\n      mload(0x40)\n      dup1\n      swap2\n      sub\n      swap1\n      revert\n    tag_163:\n        /* \"ERC20.sol\":3826:3827  0 */\n      0x00\n        /* \"ERC20.sol\":3811:3828  _to != address(0) */\n      0xffffffffffffffffffffffffffffffffffffffff\n      and\n        /* \"ERC20.sol\":3811:3814  _to */\n      dup4\n        /* \"ERC20.sol\":3811:3828  _to != address(0) */\n      0xffffffffffffffffffffffffffffffffffffffff\n      and\n      eq\n      iszero\n        /* \"ERC20.sol\":3803:3863  require(_to != address(0), 'ERC20: to address is not valid') */\n      tag_166\n      jumpi\n      mload(0x40)\n      0x08c379a000000000000000000000000000000000000000000000000000000000\n      dup2\n      mstore\n      0x04\n      add\n      tag_167\n      swap1\n      tag_125\n      jump\t// in\n    tag_167:\n      mload(0x40)\n      dup1\n      swap2\n      sub\n      swap1\n      revert\n    tag_166:\n        /* \"ERC20.sol\":3908:3915  _amount */\n      dup2\n        /* \"ERC20.sol\":3891:3900  _balances */\n      0x06\n        /* \"ERC20.sol\":3891:3905  _balances[_to] */\n      0x00\n        /* \"ERC20.sol\":3901:3904  _to */\n      dup6\n        /* \"ERC20.sol\":3891:3905  _balances[_to] */\n      0xffffffffffffffffffffffffffffffffffffffff\n      and\n      0xffffffffffffffffffffffffffffffffffffffff\n      and\n      dup2\n      mstore\n      0x20\n      add\n      swap1\n      dup2\n      mstore\n      0x20\n      add\n      0x00\n      keccak256\n      sload\n        /* \"ERC20.sol\":3891:3915  _balances[_to] + _amount */\n      tag_168\n      swap2\n      swap1\n      tag_136\n      jump\t// in\n    tag_168:\n        /* \"ERC20.sol\":3874:3883  _balances */\n      0x06\n        /* \"ERC20.sol\":3874:3888  _balances[_to] */\n      0x00\n        /* \"ERC20.sol\":3884:3887  _to */\n      dup6\n        /* \"ERC20.sol\":3874:3888  _balances[_to] */\n      0xffffffffffffffffffffffffffffffffffffffff\n      and\n      0xffffffffffffffffffffffffffffffffffffffff\n      and\n      dup2\n      mstore\n      0x20\n      add\n      swap1\n      dup2\n      mstore\n      0x20\n      add\n      0x00\n      keccak256\n        /* \"ERC20.sol\":3874:3915  _balances[_to] = _balances[_to] + _amount */\n      dup2\n      swap1\n      sstore\n      pop\n        /* \"ERC20.sol\":3953:3960  _amount */\n      dup2\n        /* \"ERC20.sol\":3939:3950  totalSupply */\n      sload(0x05)\n        /* \"ERC20.sol\":3939:3960  totalSupply + _amount */\n      tag_169\n      swap2\n      swap1\n      tag_136\n      jump\t// in\n    tag_169:\n        /* \"ERC20.sol\":3925:3936  totalSupply */\n      0x05\n        /* \"ERC20.sol\":3925:3960  totalSupply = totalSupply + _amount */\n      dup2\n      swap1\n      sstore\n      pop\n        /* \"ERC20.sol\":3997:4000  _to */\n      dup3\n        /* \"ERC20.sol\":3976:4010  Transfer(address(0), _to, _amount) */\n      0xffffffffffffffffffffffffffffffffffffffff\n      and\n        /* \"ERC20.sol\":3993:3994  0 */\n      0x00\n        /* \"ERC20.sol\":3976:4010  Transfer(address(0), _to, _amount) */\n      0xffffffffffffffffffffffffffffffffffffffff\n      and\n      0xddf252ad1be2c89b69c2b068fc378daa952ba7f163c4a11628f55a4df523b3ef\n        /* \"ERC20.sol\":4002:4009  _amount */\n      dup5\n        /* \"ERC20.sol\":3976:4010  Transfer(address(0), _to, _amount) */\n      mload(0x40)\n      tag_170\n      swap2\n      swap1\n      tag_39\n      jump\t// in\n    tag_170:\n      mload(0x40)\n      dup1\n      swap2\n      sub\n      swap1\n      log3\n        /* \"ERC20.sol\":4028:4032  true */\n      0x01\n        /* \"ERC20.sol\":4021:4032  return true */\n      swap1\n      pop\n        /* \"ERC20.sol\":3677:4039  function mintTo(... */\n      swap3\n      swap2\n      pop\n      pop\n      jump\t// out\n        /* \"lifecycle/Pausable.sol\":420:498  function paused() external view returns (bool) {... */\n    tag_61:\n        /* \"lifecycle/Pausable.sol\":461:465  bool */\n      0x00\n        /* \"lifecycle/Pausable.sol\":484:491  _paused */\n      0x01\n      0x14\n      swap1\n      sload\n      swap1\n      0x0100\n      exp\n      swap1\n      div\n      0xff\n      and\n        /* \"lifecycle/Pausable.sol\":477:491  return _paused */\n      swap1\n      pop\n        /* \"lifecycle/Pausable.sol\":420:498  function paused() external view returns (bool) {... */\n      swap1\n      jump\t// out\n        /* \"ERC20.sol\":3158:3671  function decreaseApproval(... */\n    tag_65:\n        /* \"ERC20.sol\":3283:3287  bool */\n      0x00\n        /* \"lifecycle/Pausable.sol\":272:279  _paused */\n      0x01\n      0x14\n      swap1\n      sload\n      swap1\n      0x0100\n      exp\n      swap1\n      div\n      0xff\n      and\n        /* \"lifecycle/Pausable.sol\":271:279  !_paused */\n      iszero\n        /* \"lifecycle/Pausable.sol\":263:300  require(!_paused, \"Pausable: paused\") */\n      tag_173\n      jumpi\n      mload(0x40)\n      0x08c379a000000000000000000000000000000000000000000000000000000000\n      dup2\n      mstore\n      0x04\n      add\n      tag_174\n      swap1\n      tag_113\n      jump\t// in\n    tag_174:\n      mload(0x40)\n      dup1\n      swap2\n      sub\n      swap1\n      revert\n    tag_173:\n        /* \"ERC20.sol\":3299:3315  uint256 oldValue */\n      0x00\n        /* \"ERC20.sol\":3318:3326  _allowed */\n      0x07\n        /* \"ERC20.sol\":3318:3338  _allowed[msg.sender] */\n      0x00\n        /* \"ERC20.sol\":3327:3337  msg.sender */\n      caller\n        /* \"ERC20.sol\":3318:3338  _allowed[msg.sender] */\n      0xffffffffffffffffffffffffffffffffffffffff\n      and\n      0xffffffffffffffffffffffffffffffffffffffff\n      and\n      dup2\n      mstore\n      0x20\n      add\n      swap1\n      dup2\n      mstore\n      0x20\n      add\n      0x00\n      keccak256\n        /* \"ERC20.sol\":3318:3348  _allowed[msg.sender][_spender] */\n      0x00\n        /* \"ERC20.sol\":3339:3347  _spender */\n      dup6\n        /* \"ERC20.sol\":3318:3348  _allowed[msg.sender][_spender] */\n      0xffffffffffffffffffffffffffffffffffffffff\n      and\n      0xffffffffffffffffffffffffffffffffffffffff\n      and\n      dup2\n      mstore\n      0x20\n      add\n      swap1\n      dup2\n      mstore\n      0x20\n      add\n      0x00\n      keccak256\n      sload\n        /* \"ERC20.sol\":3299:3348  uint256 oldValue = _allowed[msg.sender][_spender] */\n      swap1\n      pop\n        /* \"ERC20.sol\":3390:3398  oldValue */\n      dup1\n        /* \"ERC20.sol\":3371:3387  _subtractedValue */\n      dup4\n        /* \"ERC20.sol\":3371:3398  _subtractedValue > oldValue */\n      gt\n        /* \"ERC20.sol\":3367:3550  if (_subtractedValue > oldValue) {... */\n      iszero\n      tag_176\n      jumpi\n        /* \"ERC20.sol\":3447:3448  0 */\n      0x00\n        /* \"ERC20.sol\":3414:3422  _allowed */\n      0x07\n        /* \"ERC20.sol\":3414:3434  _allowed[msg.sender] */\n      0x00\n        /* \"ERC20.sol\":3423:3433  msg.sender */\n      caller\n        /* \"ERC20.sol\":3414:3434  _allowed[msg.sender] */\n      0xffffffffffffffffffffffffffffffffffffffff\n      and\n      0xffffffffffffffffffffffffffffffffffffffff\n      and\n      dup2\n      mstore\n      0x20\n      add\n      swap1\n      dup2\n      mstore\n      0x20\n      add\n      0x00\n      keccak256\n        /* \"ERC20.sol\":3414:3444  _allowed[msg.sender][_spender] */\n      0x00\n        /* \"ERC20.sol\":3435:3443  _spender */\n      dup7\n        /* \"ERC20.sol\":3414:3444  _allowed[msg.sender][_spender] */\n      0xffffffffffffffffffffffffffffffffffffffff\n      and\n      0xffffffffffffffffffffffffffffffffffffffff\n      and\n      dup2\n      mstore\n      0x20\n      add\n      swap1\n      dup2\n      mstore\n      0x20\n      add\n      0x00\n      keccak256\n        /* \"ERC20.sol\":3414:3448  _allowed[msg.sender][_spender] = 0 */\n      dup2\n      swap1\n      sstore\n      pop\n        /* \"ERC20.sol\":3367:3550  if (_subtractedValue > oldValue) {... */\n      jump(tag_177)\n    tag_176:\n        /* \"ERC20.sol\":3523:3539  _subtractedValue */\n      dup3\n        /* \"ERC20.sol\":3512:3520  oldValue */\n      dup2\n        /* \"ERC20.sol\":3512:3539  oldValue - _subtractedValue */\n      tag_178\n      swap2\n      swap1\n      tag_133\n      jump\t// in\n    tag_178:\n        /* \"ERC20.sol\":3479:3487  _allowed */\n      0x07\n        /* \"ERC20.sol\":3479:3499  _allowed[msg.sender] */\n      0x00\n        /* \"ERC20.sol\":3488:3498  msg.sender */\n      caller\n        /* \"ERC20.sol\":3479:3499  _allowed[msg.sender] */\n      0xffffffffffffffffffffffffffffffffffffffff\n      and\n      0xffffffffffffffffffffffffffffffffffffffff\n      and\n      dup2\n      mstore\n      0x20\n      add\n      swap1\n      dup2\n      mstore\n      0x20\n      add\n      0x00\n      keccak256\n        /* \"ERC20.sol\":3479:3509  _allowed[msg.sender][_spender] */\n      0x00\n        /* \"ERC20.sol\":3500:3508  _spender */\n      dup7\n        /* \"ERC20.sol\":3479:3509  _allowed[msg.sender][_spender] */\n      0xffffffffffffffffffffffffffffffffffffffff\n      and\n      0xffffffffffffffffffffffffffffffffffffffff\n      and\n      dup2\n      mstore\n      0x20\n      add\n      swap1\n      dup2\n      mstore\n      0x20\n      add\n      0x00\n      keccak256\n        /* \"ERC20.sol\":3479:3539  _allowed[msg.sender][_spender] = oldValue - _subtractedValue */\n      dup2\n      swap1\n      sstore\n      pop\n        /* \"ERC20.sol\":3367:3550  if (_subtractedValue > oldValue) {... */\n    tag_177:\n        /* \"ERC20.sol\":3594:3602  _spender */\n      dup4\n        /* \"ERC20.sol\":3573:3635  Approval(msg.sender, _spender, _allowed[msg.sender][_spender]) */\n      0xffffffffffffffffffffffffffffffffffffffff\n      and\n        /* \"ERC20.sol\":3582:3592  msg.sender */\n      caller\n        /* \"ERC20.sol\":3573:3635  Approval(msg.sender, _spender, _allowed[msg.sender][_spender]) */\n      0xffffffffffffffffffffffffffffffffffffffff\n      and\n      0x8c5be1e5ebec7d5bd14f71427d1e84f3dd0314c0f7b2291e5b200ac8c7c3b925\n        /* \"ERC20.sol\":3604:3612  _allowed */\n      0x07\n        /* \"ERC20.sol\":3604:3624  _allowed[msg.sender] */\n      0x00\n        /* \"ERC20.sol\":3613:3623  msg.sender */\n      caller\n        /* \"ERC20.sol\":3604:3624  _allowed[msg.sender] */\n      0xffffffffffffffffffffffffffffffffffffffff\n      and\n      0xffffffffffffffffffffffffffffffffffffffff\n      and\n      dup2\n      mstore\n      0x20\n      add\n      swap1\n      dup2\n      mstore\n      0x20\n      add\n      0x00\n      keccak256\n        /* \"ERC20.sol\":3604:3634  _allowed[msg.sender][_spender] */\n      0x00\n        /* \"ERC20.sol\":3625:3633  _spender */\n      dup9\n        /* \"ERC20.sol\":3604:3634  _allowed[msg.sender][_spender] */\n      0xffffffffffffffffffffffffffffffffffffffff\n      and\n      0xffffffffffffffffffffffffffffffffffffffff\n      and\n      dup2\n      mstore\n      0x20\n      add\n      swap1\n      dup2\n      mstore\n      0x20\n      add\n      0x00\n      keccak256\n      sload\n        /* \"ERC20.sol\":3573:3635  Approval(msg.sender, _spender, _allowed[msg.sender][_spender]) */\n      mload(0x40)\n      tag_179\n      swap2\n      swap1\n      tag_39\n      jump\t// in\n    tag_179:\n      mload(0x40)\n      dup1\n      swap2\n      sub\n      swap1\n      log3\n        /* \"ERC20.sol\":3661:3665  true */\n      0x01\n        /* \"ERC20.sol\":3654:3665  return true */\n      swap2\n      pop\n      pop\n        /* \"ERC20.sol\":3158:3671  function decreaseApproval(... */\n      swap3\n      swap2\n      pop\n      pop\n      jump\t// out\n        /* \"ERC20.sol\":1484:1622  function balanceOf(... */\n    tag_70:\n        /* \"ERC20.sol\":1564:1579  uint256 balance */\n      0x00\n        /* \"ERC20.sol\":1598:1607  _balances */\n      0x06\n        /* \"ERC20.sol\":1598:1615  _balances[_owner] */\n      0x00\n        /* \"ERC20.sol\":1608:1614  _owner */\n      dup4\n        /* \"ERC20.sol\":1598:1615  _balances[_owner] */\n      0xffffffffffffffffffffffffffffffffffffffff\n      and\n      0xffffffffffffffffffffffffffffffffffffffff\n      and\n      dup2\n      mstore\n      0x20\n      add\n      swap1\n      dup2\n      mstore\n      0x20\n      add\n      0x00\n      keccak256\n      sload\n        /* \"ERC20.sol\":1591:1615  return _balances[_owner] */\n      swap1\n      pop\n        /* \"ERC20.sol\":1484:1622  function balanceOf(... */\n      swap2\n      swap1\n      pop\n      jump\t// out\n        /* \"ERC20.sol\":4413:5036  function burnFrom(... */\n    tag_74:\n        /* \"ERC20.sol\":4517:4521  bool */\n      0x00\n        /* \"lifecycle/Pausable.sol\":272:279  _paused */\n      0x01\n      0x14\n      swap1\n      sload\n      swap1\n      0x0100\n      exp\n      swap1\n      div\n      0xff\n      and\n        /* \"lifecycle/Pausable.sol\":271:279  !_paused */\n      iszero\n        /* \"lifecycle/Pausable.sol\":263:300  require(!_paused, \"Pausable: paused\") */\n      tag_182\n      jumpi\n      mload(0x40)\n      0x08c379a000000000000000000000000000000000000000000000000000000000\n      dup2\n      mstore\n      0x04\n      add\n      tag_183\n      swap1\n      tag_113\n      jump\t// in\n    tag_183:\n      mload(0x40)\n      dup1\n      swap2\n      sub\n      swap1\n      revert\n    tag_182:\n        /* \"ERC20.sol\":4558:4559  0 */\n      0x00\n        /* \"ERC20.sol\":4541:4560  _from != address(0) */\n      0xffffffffffffffffffffffffffffffffffffffff\n      and\n        /* \"ERC20.sol\":4541:4546  _from */\n      dup4\n        /* \"ERC20.sol\":4541:4560  _from != address(0) */\n      0xffffffffffffffffffffffffffffffffffffffff\n      and\n      eq\n      iszero\n        /* \"ERC20.sol\":4533:4597  require(_from != address(0), 'ERC20: from address is not valid') */\n      tag_185\n      jumpi\n      mload(0x40)\n      0x08c379a000000000000000000000000000000000000000000000000000000000\n      dup2\n      mstore\n      0x04\n      add\n      tag_186\n      swap1\n      tag_122\n      jump\t// in\n    tag_186:\n      mload(0x40)\n      dup1\n      swap2\n      sub\n      swap1\n      revert\n    tag_185:\n        /* \"ERC20.sol\":4635:4642  _amount */\n      dup2\n        /* \"ERC20.sol\":4615:4624  _balances */\n      0x06\n        /* \"ERC20.sol\":4615:4631  _balances[_from] */\n      0x00\n        /* \"ERC20.sol\":4625:4630  _from */\n      dup6\n        /* \"ERC20.sol\":4615:4631  _balances[_from] */\n      0xffffffffffffffffffffffffffffffffffffffff\n      and\n      0xffffffffffffffffffffffffffffffffffffffff\n      and\n      dup2\n      mstore\n      0x20\n      add\n      swap1\n      dup2\n      mstore\n      0x20\n      add\n      0x00\n      keccak256\n      sload\n        /* \"ERC20.sol\":4615:4642  _balances[_from] >= _amount */\n      lt\n      iszero\n        /* \"ERC20.sol\":4607:4674  require(_balances[_from] >= _amount, 'ERC20: insufficient balance') */\n      tag_187\n      jumpi\n      mload(0x40)\n      0x08c379a000000000000000000000000000000000000000000000000000000000\n      dup2\n      mstore\n      0x04\n      add\n      tag_188\n      swap1\n      tag_128\n      jump\t// in\n    tag_188:\n      mload(0x40)\n      dup1\n      swap2\n      sub\n      swap1\n      revert\n    tag_187:\n        /* \"ERC20.sol\":4703:4711  _allowed */\n      0x07\n        /* \"ERC20.sol\":4703:4718  _allowed[_from] */\n      0x00\n        /* \"ERC20.sol\":4712:4717  _from */\n      dup5\n        /* \"ERC20.sol\":4703:4718  _allowed[_from] */\n      0xffffffffffffffffffffffffffffffffffffffff\n      and\n      0xffffffffffffffffffffffffffffffffffffffff\n      and\n      dup2\n      mstore\n      0x20\n      add\n      swap1\n      dup2\n      mstore\n      0x20\n      add\n      0x00\n      keccak256\n        /* \"ERC20.sol\":4703:4730  _allowed[_from][msg.sender] */\n      0x00\n        /* \"ERC20.sol\":4719:4729  msg.sender */\n      caller\n        /* \"ERC20.sol\":4703:4730  _allowed[_from][msg.sender] */\n      0xffffffffffffffffffffffffffffffffffffffff\n      and\n      0xffffffffffffffffffffffffffffffffffffffff\n      and\n      dup2\n      mstore\n      0x20\n      add\n      swap1\n      dup2\n      mstore\n      0x20\n      add\n      0x00\n      keccak256\n      sload\n        /* \"ERC20.sol\":4692:4699  _amount */\n      dup3\n        /* \"ERC20.sol\":4692:4730  _amount <= _allowed[_from][msg.sender] */\n      gt\n      iszero\n        /* \"ERC20.sol\":4684:4769  require(_amount <= _allowed[_from][msg.sender], 'ERC20: burn from value not allowed') */\n      tag_189\n      jumpi\n      mload(0x40)\n      0x08c379a000000000000000000000000000000000000000000000000000000000\n      dup2\n      mstore\n      0x04\n      add\n      tag_190\n      swap1\n      tag_191\n      jump\t// in\n    tag_190:\n      mload(0x40)\n      dup1\n      swap2\n      sub\n      swap1\n      revert\n    tag_189:\n        /* \"ERC20.sol\":4848:4855  _amount */\n      dup2\n        /* \"ERC20.sol\":4818:4826  _allowed */\n      0x07\n        /* \"ERC20.sol\":4818:4833  _allowed[_from] */\n      0x00\n        /* \"ERC20.sol\":4827:4832  _from */\n      dup6\n        /* \"ERC20.sol\":4818:4833  _allowed[_from] */\n      0xffffffffffffffffffffffffffffffffffffffff\n      and\n      0xffffffffffffffffffffffffffffffffffffffff\n      and\n      dup2\n      mstore\n      0x20\n      add\n      swap1\n      dup2\n      mstore\n      0x20\n      add\n      0x00\n      keccak256\n        /* \"ERC20.sol\":4818:4845  _allowed[_from][msg.sender] */\n      0x00\n        /* \"ERC20.sol\":4834:4844  msg.sender */\n      caller\n        /* \"ERC20.sol\":4818:4845  _allowed[_from][msg.sender] */\n      0xffffffffffffffffffffffffffffffffffffffff\n      and\n      0xffffffffffffffffffffffffffffffffffffffff\n      and\n      dup2\n      mstore\n      0x20\n      add\n      swap1\n      dup2\n      mstore\n      0x20\n      add\n      0x00\n      keccak256\n      sload\n        /* \"ERC20.sol\":4818:4855  _allowed[_from][msg.sender] - _amount */\n      tag_192\n      swap2\n      swap1\n      tag_133\n      jump\t// in\n    tag_192:\n        /* \"ERC20.sol\":4788:4796  _allowed */\n      0x07\n        /* \"ERC20.sol\":4788:4803  _allowed[_from] */\n      0x00\n        /* \"ERC20.sol\":4797:4802  _from */\n      dup6\n        /* \"ERC20.sol\":4788:4803  _allowed[_from] */\n      0xffffffffffffffffffffffffffffffffffffffff\n      and\n      0xffffffffffffffffffffffffffffffffffffffff\n      and\n      dup2\n      mstore\n      0x20\n      add\n      swap1\n      dup2\n      mstore\n      0x20\n      add\n      0x00\n      keccak256\n        /* \"ERC20.sol\":4788:4815  _allowed[_from][msg.sender] */\n      0x00\n        /* \"ERC20.sol\":4804:4814  msg.sender */\n      caller\n        /* \"ERC20.sol\":4788:4815  _allowed[_from][msg.sender] */\n      0xffffffffffffffffffffffffffffffffffffffff\n      and\n      0xffffffffffffffffffffffffffffffffffffffff\n      and\n      dup2\n      mstore\n      0x20\n      add\n      swap1\n      dup2\n      mstore\n      0x20\n      add\n      0x00\n      keccak256\n        /* \"ERC20.sol\":4788:4855  _allowed[_from][msg.sender] = _allowed[_from][msg.sender] - _amount */\n      dup2\n      swap1\n      sstore\n      pop\n        /* \"ERC20.sol\":4903:4910  _amount */\n      dup2\n        /* \"ERC20.sol\":4884:4893  _balances */\n      0x06\n        /* \"ERC20.sol\":4884:4900  _balances[_from] */\n      0x00\n        /* \"ERC20.sol\":4894:4899  _from */\n      dup6\n        /* \"ERC20.sol\":4884:4900  _balances[_from] */\n      0xffffffffffffffffffffffffffffffffffffffff\n      and\n      0xffffffffffffffffffffffffffffffffffffffff\n      and\n      dup2\n      mstore\n      0x20\n      add\n      swap1\n      dup2\n      mstore\n      0x20\n      add\n      0x00\n      keccak256\n      sload\n        /* \"ERC20.sol\":4884:4910  _balances[_from] - _amount */\n      tag_193\n      swap2\n      swap1\n      tag_133\n      jump\t// in\n    tag_193:\n        /* \"ERC20.sol\":4865:4874  _balances */\n      0x06\n        /* \"ERC20.sol\":4865:4881  _balances[_from] */\n      0x00\n        /* \"ERC20.sol\":4875:4880  _from */\n      dup6\n        /* \"ERC20.sol\":4865:4881  _balances[_from] */\n      0xffffffffffffffffffffffffffffffffffffffff\n      and\n      0xffffffffffffffffffffffffffffffffffffffff\n      and\n      dup2\n      mstore\n      0x20\n      add\n      swap1\n      dup2\n      mstore\n      0x20\n      add\n      0x00\n      keccak256\n        /* \"ERC20.sol\":4865:4910  _balances[_from] = _balances[_from] - _amount */\n      dup2\n      swap1\n      sstore\n      pop\n        /* \"ERC20.sol\":4948:4955  _amount */\n      dup2\n        /* \"ERC20.sol\":4934:4945  totalSupply */\n      sload(0x05)\n        /* \"ERC20.sol\":4934:4955  totalSupply - _amount */\n      tag_194\n      swap2\n      swap1\n      tag_133\n      jump\t// in\n    tag_194:\n        /* \"ERC20.sol\":4920:4931  totalSupply */\n      0x05\n        /* \"ERC20.sol\":4920:4955  totalSupply = totalSupply - _amount */\n      dup2\n      swap1\n      sstore\n      pop\n        /* \"ERC20.sol\":4995:4996  0 */\n      0x00\n        /* \"ERC20.sol\":4971:5007  Transfer(_from, address(0), _amount) */\n      0xffffffffffffffffffffffffffffffffffffffff\n      and\n        /* \"ERC20.sol\":4980:4985  _from */\n      dup4\n        /* \"ERC20.sol\":4971:5007  Transfer(_from, address(0), _amount) */\n      0xffffffffffffffffffffffffffffffffffffffff\n      and\n      0xddf252ad1be2c89b69c2b068fc378daa952ba7f163c4a11628f55a4df523b3ef\n        /* \"ERC20.sol\":4999:5006  _amount */\n      dup5\n        /* \"ERC20.sol\":4971:5007  Transfer(_from, address(0), _amount) */\n      mload(0x40)\n      tag_195\n      swap2\n      swap1\n      tag_39\n      jump\t// in\n    tag_195:\n      mload(0x40)\n      dup1\n      swap2\n      sub\n      swap1\n      log3\n        /* \"ERC20.sol\":5025:5029  true */\n      0x01\n        /* \"ERC20.sol\":5018:5029  return true */\n      swap1\n      pop\n        /* \"ERC20.sol\":4413:5036  function burnFrom(... */\n      swap3\n      swap2\n      pop\n      pop\n      jump\t// out\n        /* \"lifecycle/Pausable.sol\":504:618  function pause() external onlyOwner whenNotPaused {... */\n    tag_77:\n        /* \"ownership/Ownable.sol\":241:250  isOwner() */\n      tag_197\n        /* \"ownership/Ownable.sol\":241:248  isOwner */\n      tag_79\n        /* \"ownership/Ownable.sol\":241:250  isOwner() */\n      jump\t// in\n    tag_197:\n        /* \"ownership/Ownable.sol\":233:287  require(isOwner(), \"Ownable: caller is not the owner\") */\n      tag_198\n      jumpi\n      mload(0x40)\n      0x08c379a000000000000000000000000000000000000000000000000000000000\n      dup2\n      mstore\n      0x04\n      add\n      tag_199\n      swap1\n      tag_142\n      jump\t// in\n    tag_199:\n      mload(0x40)\n      dup1\n      swap2\n      sub\n      swap1\n      revert\n    tag_198:\n        /* \"lifecycle/Pausable.sol\":272:279  _paused */\n      0x01\n      0x14\n      swap1\n      sload\n      swap1\n      0x0100\n      exp\n      swap1\n      div\n      0xff\n      and\n        /* \"lifecycle/Pausable.sol\":271:279  !_paused */\n      iszero\n        /* \"lifecycle/Pausable.sol\":263:300  require(!_paused, \"Pausable: paused\") */\n      tag_201\n      jumpi\n      mload(0x40)\n      0x08c379a000000000000000000000000000000000000000000000000000000000\n      dup2\n      mstore\n      0x04\n      add\n      tag_202\n      swap1\n      tag_113\n      jump\t// in\n    tag_202:\n      mload(0x40)\n      dup1\n      swap2\n      sub\n      swap1\n      revert\n    tag_201:\n        /* \"lifecycle/Pausable.sol\":574:578  true */\n      0x01\n        /* \"lifecycle/Pausable.sol\":564:571  _paused */\n      dup1\n      0x14\n        /* \"lifecycle/Pausable.sol\":564:578  _paused = true */\n      0x0100\n      exp\n      dup2\n      sload\n      dup2\n      0xff\n      mul\n      not\n      and\n      swap1\n      dup4\n      iszero\n      iszero\n      mul\n      or\n      swap1\n      sstore\n      pop\n        /* \"lifecycle/Pausable.sol\":593:611  Paused(msg.sender) */\n      0x62e78cea01bee320cd4e420270b5ea74000d11b0c9f74754ebdbfc544b05a258\n        /* \"lifecycle/Pausable.sol\":600:610  msg.sender */\n      caller\n        /* \"lifecycle/Pausable.sol\":593:611  Paused(msg.sender) */\n      mload(0x40)\n      tag_204\n      swap2\n      swap1\n      tag_91\n      jump\t// in\n    tag_204:\n      mload(0x40)\n      dup1\n      swap2\n      sub\n      swap1\n      log1\n        /* \"lifecycle/Pausable.sol\":504:618  function pause() external onlyOwner whenNotPaused {... */\n      jump\t// out\n        /* \"ownership/Ownable.sol\":387:470  function isOwner() public view returns (bool) {... */\n    tag_79:\n        /* \"ownership/Ownable.sol\":427:431  bool */\n      0x00\n        /* \"ownership/Ownable.sol\":460:465  owner */\n      0x01\n      0x00\n      swap1\n      sload\n      swap1\n      0x0100\n      exp\n      swap1\n      div\n      0xffffffffffffffffffffffffffffffffffffffff\n      and\n        /* \"ownership/Ownable.sol\":446:465  msg.sender == owner */\n      0xffffffffffffffffffffffffffffffffffffffff\n      and\n        /* \"ownership/Ownable.sol\":446:456  msg.sender */\n      caller\n        /* \"ownership/Ownable.sol\":446:465  msg.sender == owner */\n      0xffffffffffffffffffffffffffffffffffffffff\n      and\n      eq\n        /* \"ownership/Ownable.sol\":439:465  return msg.sender == owner */\n      swap1\n      pop\n        /* \"ownership/Ownable.sol\":387:470  function isOwner() public view returns (bool) {... */\n      swap1\n      jump\t// out\n        /* \"ERC20.sol\":318:338  string public symbol */\n    tag_82:\n      0x03\n      dup1\n      sload\n      tag_206\n      swap1\n      tag_105\n      jump\t// in\n    tag_206:\n      dup1\n      0x1f\n      add\n      0x20\n      dup1\n      swap2\n      div\n      mul\n      0x20\n      add\n      mload(0x40)\n      swap1\n      dup2\n      add\n      0x40\n      mstore\n      dup1\n      swap3\n      swap2\n      swap1\n      dup2\n      dup2\n      mstore\n      0x20\n      add\n      dup3\n      dup1\n      sload\n      tag_207\n      swap1\n      tag_105\n      jump\t// in\n    tag_207:\n      dup1\n      iszero\n      tag_208\n      jumpi\n      dup1\n      0x1f\n      lt\n      tag_209\n      jumpi\n      0x0100\n      dup1\n      dup4\n      sload\n      div\n      mul\n      dup4\n      mstore\n      swap2\n      0x20\n      add\n      swap2\n      jump(tag_208)\n    tag_209:\n      dup3\n      add\n      swap2\n      swap1\n      0x00\n      mstore\n      keccak256(0x00, 0x20)\n      swap1\n    tag_210:\n      dup2\n      sload\n      dup2\n      mstore\n      swap1\n      0x01\n      add\n      swap1\n      0x20\n      add\n      dup1\n      dup4\n      gt\n      tag_210\n      jumpi\n      dup3\n      swap1\n      sub\n      0x1f\n      and\n      dup3\n      add\n      swap2\n    tag_208:\n      pop\n      pop\n      pop\n      pop\n      pop\n      dup2\n      jump\t// out\n        /* \"ERC20.sol\":1002:1479  function transfer(... */\n    tag_86:\n        /* \"ERC20.sol\":1113:1117  bool */\n      0x00\n        /* \"lifecycle/Pausable.sol\":272:279  _paused */\n      0x01\n      0x14\n      swap1\n      sload\n      swap1\n      0x0100\n      exp\n      swap1\n      div\n      0xff\n      and\n        /* \"lifecycle/Pausable.sol\":271:279  !_paused */\n      iszero\n        /* \"lifecycle/Pausable.sol\":263:300  require(!_paused, \"Pausable: paused\") */\n      tag_212\n      jumpi\n      mload(0x40)\n      0x08c379a000000000000000000000000000000000000000000000000000000000\n      dup2\n      mstore\n      0x04\n      add\n      tag_213\n      swap1\n      tag_113\n      jump\t// in\n    tag_213:\n      mload(0x40)\n      dup1\n      swap2\n      sub\n      swap1\n      revert\n    tag_212:\n        /* \"ERC20.sol\":1152:1153  0 */\n      0x00\n        /* \"ERC20.sol\":1137:1154  _to != address(0) */\n      0xffffffffffffffffffffffffffffffffffffffff\n      and\n        /* \"ERC20.sol\":1137:1140  _to */\n      dup4\n        /* \"ERC20.sol\":1137:1154  _to != address(0) */\n      0xffffffffffffffffffffffffffffffffffffffff\n      and\n      eq\n      iszero\n        /* \"ERC20.sol\":1129:1189  require(_to != address(0), 'ERC20: to address is not valid') */\n      tag_215\n      jumpi\n      mload(0x40)\n      0x08c379a000000000000000000000000000000000000000000000000000000000\n      dup2\n      mstore\n      0x04\n      add\n      tag_216\n      swap1\n      tag_125\n      jump\t// in\n    tag_216:\n      mload(0x40)\n      dup1\n      swap2\n      sub\n      swap1\n      revert\n    tag_215:\n        /* \"ERC20.sol\":1217:1226  _balances */\n      0x06\n        /* \"ERC20.sol\":1217:1238  _balances[msg.sender] */\n      0x00\n        /* \"ERC20.sol\":1227:1237  msg.sender */\n      caller\n        /* \"ERC20.sol\":1217:1238  _balances[msg.sender] */\n      0xffffffffffffffffffffffffffffffffffffffff\n      and\n      0xffffffffffffffffffffffffffffffffffffffff\n      and\n      dup2\n      mstore\n      0x20\n      add\n      swap1\n      dup2\n      mstore\n      0x20\n      add\n      0x00\n      keccak256\n      sload\n        /* \"ERC20.sol\":1207:1213  _value */\n      dup3\n        /* \"ERC20.sol\":1207:1238  _value <= _balances[msg.sender] */\n      gt\n      iszero\n        /* \"ERC20.sol\":1199:1270  require(_value <= _balances[msg.sender], 'ERC20: insufficient balance') */\n      tag_217\n      jumpi\n      mload(0x40)\n      0x08c379a000000000000000000000000000000000000000000000000000000000\n      dup2\n      mstore\n      0x04\n      add\n      tag_218\n      swap1\n      tag_128\n      jump\t// in\n    tag_218:\n      mload(0x40)\n      dup1\n      swap2\n      sub\n      swap1\n      revert\n    tag_217:\n        /* \"ERC20.sol\":1329:1335  _value */\n      dup2\n        /* \"ERC20.sol\":1305:1314  _balances */\n      0x06\n        /* \"ERC20.sol\":1305:1326  _balances[msg.sender] */\n      0x00\n        /* \"ERC20.sol\":1315:1325  msg.sender */\n      caller\n        /* \"ERC20.sol\":1305:1326  _balances[msg.sender] */\n      0xffffffffffffffffffffffffffffffffffffffff\n      and\n      0xffffffffffffffffffffffffffffffffffffffff\n      and\n      dup2\n      mstore\n      0x20\n      add\n      swap1\n      dup2\n      mstore\n      0x20\n      add\n      0x00\n      keccak256\n      sload\n        /* \"ERC20.sol\":1305:1335  _balances[msg.sender] - _value */\n      tag_219\n      swap2\n      swap1\n      tag_133\n      jump\t// in\n    tag_219:\n        /* \"ERC20.sol\":1281:1290  _balances */\n      0x06\n        /* \"ERC20.sol\":1281:1302  _balances[msg.sender] */\n      0x00\n        /* \"ERC20.sol\":1291:1301  msg.sender */\n      caller\n        /* \"ERC20.sol\":1281:1302  _balances[msg.sender] */\n      0xffffffffffffffffffffffffffffffffffffffff\n      and\n      0xffffffffffffffffffffffffffffffffffffffff\n      and\n      dup2\n      mstore\n      0x20\n      add\n      swap1\n      dup2\n      mstore\n      0x20\n      add\n      0x00\n      keccak256\n        /* \"ERC20.sol\":1281:1335  _balances[msg.sender] = _balances[msg.sender] - _value */\n      dup2\n      swap1\n      sstore\n      pop\n        /* \"ERC20.sol\":1379:1385  _value */\n      dup2\n        /* \"ERC20.sol\":1362:1371  _balances */\n      0x06\n        /* \"ERC20.sol\":1362:1376  _balances[_to] */\n      0x00\n        /* \"ERC20.sol\":1372:1375  _to */\n      dup6\n        /* \"ERC20.sol\":1362:1376  _balances[_to] */\n      0xffffffffffffffffffffffffffffffffffffffff\n      and\n      0xffffffffffffffffffffffffffffffffffffffff\n      and\n      dup2\n      mstore\n      0x20\n      add\n      swap1\n      dup2\n      mstore\n      0x20\n      add\n      0x00\n      keccak256\n      sload\n        /* \"ERC20.sol\":1362:1385  _balances[_to] + _value */\n      tag_220\n      swap2\n      swap1\n      tag_136\n      jump\t// in\n    tag_220:\n        /* \"ERC20.sol\":1345:1354  _balances */\n      0x06\n        /* \"ERC20.sol\":1345:1359  _balances[_to] */\n      0x00\n        /* \"ERC20.sol\":1355:1358  _to */\n      dup6\n        /* \"ERC20.sol\":1345:1359  _balances[_to] */\n      0xffffffffffffffffffffffffffffffffffffffff\n      and\n      0xffffffffffffffffffffffffffffffffffffffff\n      and\n      dup2\n      mstore\n      0x20\n      add\n      swap1\n      dup2\n      mstore\n      0x20\n      add\n      0x00\n      keccak256\n        /* \"ERC20.sol\":1345:1385  _balances[_to] = _balances[_to] + _value */\n      dup2\n      swap1\n      sstore\n      pop\n        /* \"ERC20.sol\":1430:1433  _to */\n      dup3\n        /* \"ERC20.sol\":1409:1442  Transfer(msg.sender, _to, _value) */\n      0xffffffffffffffffffffffffffffffffffffffff\n      and\n        /* \"ERC20.sol\":1418:1428  msg.sender */\n      caller\n        /* \"ERC20.sol\":1409:1442  Transfer(msg.sender, _to, _value) */\n      0xffffffffffffffffffffffffffffffffffffffff\n      and\n      0xddf252ad1be2c89b69c2b068fc378daa952ba7f163c4a11628f55a4df523b3ef\n        /* \"ERC20.sol\":1435:1441  _value */\n      dup5\n        /* \"ERC20.sol\":1409:1442  Transfer(msg.sender, _to, _value) */\n      mload(0x40)\n      tag_221\n      swap2\n      swap1\n      tag_39\n      jump\t// in\n    tag_221:\n      mload(0x40)\n      dup1\n      swap2\n      sub\n      swap1\n      log3\n        /* \"ERC20.sol\":1468:1472  true */\n      0x01\n        /* \"ERC20.sol\":1461:1472  return true */\n      swap1\n      pop\n        /* \"ERC20.sol\":1002:1479  function transfer(... */\n      swap3\n      swap2\n      pop\n      pop\n      jump\t// out\n        /* \"ownership/Ownable.sol\":303:383  function contractOwner() external view returns (address) {... */\n    tag_89:\n        /* \"ownership/Ownable.sol\":351:358  address */\n      0x00\n        /* \"ownership/Ownable.sol\":373:378  owner */\n      0x01\n      0x00\n      swap1\n      sload\n      swap1\n      0x0100\n      exp\n      swap1\n      div\n      0xffffffffffffffffffffffffffffffffffffffff\n      and\n        /* \"ownership/Ownable.sol\":366:378  return owner */\n      swap1\n      pop\n        /* \"ownership/Ownable.sol\":303:383  function contractOwner() external view returns (address) {... */\n      swap1\n      jump\t// out\n        /* \"ERC20.sol\":2824:3152  function increaseApproval(... */\n    tag_94:\n        /* \"ERC20.sol\":2944:2948  bool */\n      0x00\n        /* \"lifecycle/Pausable.sol\":272:279  _paused */\n      0x01\n      0x14\n      swap1\n      sload\n      swap1\n      0x0100\n      exp\n      swap1\n      div\n      0xff\n      and\n        /* \"lifecycle/Pausable.sol\":271:279  !_paused */\n      iszero\n        /* \"lifecycle/Pausable.sol\":263:300  require(!_paused, \"Pausable: paused\") */\n      tag_224\n      jumpi\n      mload(0x40)\n      0x08c379a000000000000000000000000000000000000000000000000000000000\n      dup2\n      mstore\n      0x04\n      add\n      tag_225\n      swap1\n      tag_113\n      jump\t// in\n    tag_225:\n      mload(0x40)\n      dup1\n      swap2\n      sub\n      swap1\n      revert\n    tag_224:\n        /* \"ERC20.sol\":3026:3037  _addedValue */\n      dup2\n        /* \"ERC20.sol\":2993:3001  _allowed */\n      0x07\n        /* \"ERC20.sol\":2993:3013  _allowed[msg.sender] */\n      0x00\n        /* \"ERC20.sol\":3002:3012  msg.sender */\n      caller\n        /* \"ERC20.sol\":2993:3013  _allowed[msg.sender] */\n      0xffffffffffffffffffffffffffffffffffffffff\n      and\n      0xffffffffffffffffffffffffffffffffffffffff\n      and\n      dup2\n      mstore\n      0x20\n      add\n      swap1\n      dup2\n      mstore\n      0x20\n      add\n      0x00\n      keccak256\n        /* \"ERC20.sol\":2993:3023  _allowed[msg.sender][_spender] */\n      0x00\n        /* \"ERC20.sol\":3014:3022  _spender */\n      dup6\n        /* \"ERC20.sol\":2993:3023  _allowed[msg.sender][_spender] */\n      0xffffffffffffffffffffffffffffffffffffffff\n      and\n      0xffffffffffffffffffffffffffffffffffffffff\n      and\n      dup2\n      mstore\n      0x20\n      add\n      swap1\n      dup2\n      mstore\n      0x20\n      add\n      0x00\n      keccak256\n      sload\n        /* \"ERC20.sol\":2993:3037  _allowed[msg.sender][_spender] + _addedValue */\n      tag_227\n      swap2\n      swap1\n      tag_136\n      jump\t// in\n    tag_227:\n        /* \"ERC20.sol\":2960:2968  _allowed */\n      0x07\n        /* \"ERC20.sol\":2960:2980  _allowed[msg.sender] */\n      0x00\n        /* \"ERC20.sol\":2969:2979  msg.sender */\n      caller\n        /* \"ERC20.sol\":2960:2980  _allowed[msg.sender] */\n      0xffffffffffffffffffffffffffffffffffffffff\n      and\n      0xffffffffffffffffffffffffffffffffffffffff\n      and\n      dup2\n      mstore\n      0x20\n      add\n      swap1\n      dup2\n      mstore\n      0x20\n      add\n      0x00\n      keccak256\n        /* \"ERC20.sol\":2960:2990  _allowed[msg.sender][_spender] */\n      0x00\n        /* \"ERC20.sol\":2981:2989  _spender */\n      dup6\n        /* \"ERC20.sol\":2960:2990  _allowed[msg.sender][_spender] */\n      0xffffffffffffffffffffffffffffffffffffffff\n      and\n      0xffffffffffffffffffffffffffffffffffffffff\n      and\n      dup2\n      mstore\n      0x20\n      add\n      swap1\n      dup2\n      mstore\n      0x20\n      add\n      0x00\n      keccak256\n        /* \"ERC20.sol\":2960:3037  _allowed[msg.sender][_spender] = _allowed[msg.sender][_spender] + _addedValue */\n      dup2\n      swap1\n      sstore\n      pop\n        /* \"ERC20.sol\":3074:3082  _spender */\n      dup3\n        /* \"ERC20.sol\":3053:3115  Approval(msg.sender, _spender, _allowed[msg.sender][_spender]) */\n      0xffffffffffffffffffffffffffffffffffffffff\n      and\n        /* \"ERC20.sol\":3062:3072  msg.sender */\n      caller\n        /* \"ERC20.sol\":3053:3115  Approval(msg.sender, _spender, _allowed[msg.sender][_spender]) */\n      0xffffffffffffffffffffffffffffffffffffffff\n      and\n      0x8c5be1e5ebec7d5bd14f71427d1e84f3dd0314c0f7b2291e5b200ac8c7c3b925\n        /* \"ERC20.sol\":3084:3092  _allowed */\n      0x07\n        /* \"ERC20.sol\":3084:3104  _allowed[msg.sender] */\n      0x00\n        /* \"ERC20.sol\":3093:3103  msg.sender */\n      caller\n        /* \"ERC20.sol\":3084:3104  _allowed[msg.sender] */\n      0xffffffffffffffffffffffffffffffffffffffff\n      and\n      0xffffffffffffffffffffffffffffffffffffffff\n      and\n      dup2\n      mstore\n      0x20\n      add\n      swap1\n      dup2\n      mstore\n      0x20\n      add\n      0x00\n      keccak256\n        /* \"ERC20.sol\":3084:3114  _allowed[msg.sender][_spender] */\n      0x00\n        /* \"ERC20.sol\":3105:3113  _spender */\n      dup8\n        /* \"ERC20.sol\":3084:3114  _allowed[msg.sender][_spender] */\n      0xffffffffffffffffffffffffffffffffffffffff\n      and\n      0xffffffffffffffffffffffffffffffffffffffff\n      and\n      dup2\n      mstore\n      0x20\n      add\n      swap1\n      dup2\n      mstore\n      0x20\n      add\n      0x00\n      keccak256\n      sload\n        /* \"ERC20.sol\":3053:3115  Approval(msg.sender, _spender, _allowed[msg.sender][_spender]) */\n      mload(0x40)\n      tag_228\n      swap2\n      swap1\n      tag_39\n      jump\t// in\n    tag_228:\n      mload(0x40)\n      dup1\n      swap2\n      sub\n      swap1\n      log3\n        /* \"ERC20.sol\":3141:3145  true */\n      0x01\n        /* \"ERC20.sol\":3134:3145  return true */\n      swap1\n      pop\n        /* \"ERC20.sol\":2824:3152  function increaseApproval(... */\n      swap3\n      swap2\n      pop\n      pop\n      jump\t// out\n        /* \"ERC20.sol\":2637:2818  function allowance(... */\n    tag_99:\n        /* \"ERC20.sol\":2759:2766  uint256 */\n      0x00\n        /* \"lifecycle/Pausable.sol\":272:279  _paused */\n      0x01\n      0x14\n      swap1\n      sload\n      swap1\n      0x0100\n      exp\n      swap1\n      div\n      0xff\n      and\n        /* \"lifecycle/Pausable.sol\":271:279  !_paused */\n      iszero\n        /* \"lifecycle/Pausable.sol\":263:300  require(!_paused, \"Pausable: paused\") */\n      tag_230\n      jumpi\n      mload(0x40)\n      0x08c379a000000000000000000000000000000000000000000000000000000000\n      dup2\n      mstore\n      0x04\n      add\n      tag_231\n      swap1\n      tag_113\n      jump\t// in\n    tag_231:\n      mload(0x40)\n      dup1\n      swap2\n      sub\n      swap1\n      revert\n    tag_230:\n        /* \"ERC20.sol\":2785:2793  _allowed */\n      0x07\n        /* \"ERC20.sol\":2785:2801  _allowed[_owner] */\n      0x00\n        /* \"ERC20.sol\":2794:2800  _owner */\n      dup5\n        /* \"ERC20.sol\":2785:2801  _allowed[_owner] */\n      0xffffffffffffffffffffffffffffffffffffffff\n      and\n      0xffffffffffffffffffffffffffffffffffffffff\n      and\n      dup2\n      mstore\n      0x20\n      add\n      swap1\n      dup2\n      mstore\n      0x20\n      add\n      0x00\n      keccak256\n        /* \"ERC20.sol\":2785:2811  _allowed[_owner][_spender] */\n      0x00\n        /* \"ERC20.sol\":2802:2810  _spender */\n      dup4\n        /* \"ERC20.sol\":2785:2811  _allowed[_owner][_spender] */\n      0xffffffffffffffffffffffffffffffffffffffff\n      and\n      0xffffffffffffffffffffffffffffffffffffffff\n      and\n      dup2\n      mstore\n      0x20\n      add\n      swap1\n      dup2\n      mstore\n      0x20\n      add\n      0x00\n      keccak256\n      sload\n        /* \"ERC20.sol\":2778:2811  return _allowed[_owner][_spender] */\n      swap1\n      pop\n        /* \"ERC20.sol\":2637:2818  function allowance(... */\n      swap3\n      swap2\n      pop\n      pop\n      jump\t// out\n        /* \"ownership/Ownable.sol\":474:680  function transferOwnership(address _newOwner) external onlyOwner {... */\n    tag_103:\n        /* \"ownership/Ownable.sol\":241:250  isOwner() */\n      tag_234\n        /* \"ownership/Ownable.sol\":241:248  isOwner */\n      tag_79\n        /* \"ownership/Ownable.sol\":241:250  isOwner() */\n      jump\t// in\n    tag_234:\n        /* \"ownership/Ownable.sol\":233:287  require(isOwner(), \"Ownable: caller is not the owner\") */\n      tag_235\n      jumpi\n      mload(0x40)\n      0x08c379a000000000000000000000000000000000000000000000000000000000\n      dup2\n      mstore\n      0x04\n      add\n      tag_236\n      swap1\n      tag_142\n      jump\t// in\n    tag_236:\n      mload(0x40)\n      dup1\n      swap2\n      sub\n      swap1\n      revert\n    tag_235:\n        /* \"ownership/Ownable.sol\":574:575  0 */\n      0x00\n        /* \"ownership/Ownable.sol\":553:576  _newOwner != address(0) */\n      0xffffffffffffffffffffffffffffffffffffffff\n      and\n        /* \"ownership/Ownable.sol\":553:562  _newOwner */\n      dup2\n        /* \"ownership/Ownable.sol\":553:576  _newOwner != address(0) */\n      0xffffffffffffffffffffffffffffffffffffffff\n      and\n      eq\n      iszero\n        /* \"ownership/Ownable.sol\":545:610  require(_newOwner != address(0), 'Ownable: address is not valid') */\n      tag_238\n      jumpi\n      mload(0x40)\n      0x08c379a000000000000000000000000000000000000000000000000000000000\n      dup2\n      mstore\n      0x04\n      add\n      tag_239\n      swap1\n      tag_240\n      jump\t// in\n    tag_239:\n      mload(0x40)\n      dup1\n      swap2\n      sub\n      swap1\n      revert\n    tag_238:\n        /* \"ownership/Ownable.sol\":624:633  _newOwner */\n      dup1\n        /* \"ownership/Ownable.sol\":616:621  owner */\n      0x01\n      0x00\n        /* \"ownership/Ownable.sol\":616:633  owner = _newOwner */\n      0x0100\n      exp\n      dup2\n      sload\n      dup2\n      0xffffffffffffffffffffffffffffffffffffffff\n      mul\n      not\n      and\n      swap1\n      dup4\n      0xffffffffffffffffffffffffffffffffffffffff\n      and\n      mul\n      or\n      swap1\n      sstore\n      pop\n        /* \"ownership/Ownable.sol\":644:675  NewOwner(msg.sender, _newOwner) */\n      0x70aea8d848e8a90fb7661b227dc522eb6395c3dac71b63cb59edd5c9899b2364\n        /* \"ownership/Ownable.sol\":653:663  msg.sender */\n      caller\n        /* \"ownership/Ownable.sol\":665:674  _newOwner */\n      dup3\n        /* \"ownership/Ownable.sol\":644:675  NewOwner(msg.sender, _newOwner) */\n      mload(0x40)\n      tag_241\n      swap3\n      swap2\n      swap1\n      tag_242\n      jump\t// in\n    tag_241:\n      mload(0x40)\n      dup1\n      swap2\n      sub\n      swap1\n      log1\n        /* \"ownership/Ownable.sol\":474:680  function transferOwnership(address _newOwner) external onlyOwner {... */\n      pop\n      jump\t// out\n        /* \"#utility.yul\":7:146   */\n    tag_244:\n      0x00\n        /* \"#utility.yul\":91:97   */\n      dup2\n        /* \"#utility.yul\":78:98   */\n      calldataload\n        /* \"#utility.yul\":69:98   */\n      swap1\n      pop\n        /* \"#utility.yul\":107:140   */\n      tag_246\n        /* \"#utility.yul\":134:139   */\n      dup2\n        /* \"#utility.yul\":107:140   */\n      tag_247\n      jump\t// in\n    tag_246:\n        /* \"#utility.yul\":59:146   */\n      swap3\n      swap2\n      pop\n      pop\n      jump\t// out\n        /* \"#utility.yul\":152:291   */\n    tag_248:\n      0x00\n        /* \"#utility.yul\":236:242   */\n      dup2\n        /* \"#utility.yul\":223:243   */\n      calldataload\n        /* \"#utility.yul\":214:243   */\n      swap1\n      pop\n        /* \"#utility.yul\":252:285   */\n      tag_250\n        /* \"#utility.yul\":279:284   */\n      dup2\n        /* \"#utility.yul\":252:285   */\n      tag_251\n      jump\t// in\n    tag_250:\n        /* \"#utility.yul\":204:291   */\n      swap3\n      swap2\n      pop\n      pop\n      jump\t// out\n        /* \"#utility.yul\":297:559   */\n    tag_69:\n      0x00\n        /* \"#utility.yul\":405:407   */\n      0x20\n        /* \"#utility.yul\":393:402   */\n      dup3\n        /* \"#utility.yul\":384:391   */\n      dup5\n        /* \"#utility.yul\":380:403   */\n      sub\n        /* \"#utility.yul\":376:408   */\n      slt\n        /* \"#utility.yul\":373:375   */\n      iszero\n      tag_253\n      jumpi\n        /* \"#utility.yul\":421:422   */\n      0x00\n        /* \"#utility.yul\":418:419   */\n      dup1\n        /* \"#utility.yul\":411:423   */\n      revert\n        /* \"#utility.yul\":373:375   */\n    tag_253:\n        /* \"#utility.yul\":464:465   */\n      0x00\n        /* \"#utility.yul\":489:542   */\n      tag_254\n        /* \"#utility.yul\":534:541   */\n      dup5\n        /* \"#utility.yul\":525:531   */\n      dup3\n        /* \"#utility.yul\":514:523   */\n      dup6\n        /* \"#utility.yul\":510:532   */\n      add\n        /* \"#utility.yul\":489:542   */\n      tag_244\n      jump\t// in\n    tag_254:\n        /* \"#utility.yul\":479:542   */\n      swap2\n      pop\n        /* \"#utility.yul\":435:552   */\n      pop\n        /* \"#utility.yul\":363:559   */\n      swap3\n      swap2\n      pop\n      pop\n      jump\t// out\n        /* \"#utility.yul\":565:972   */\n    tag_98:\n      0x00\n      dup1\n        /* \"#utility.yul\":690:692   */\n      0x40\n        /* \"#utility.yul\":678:687   */\n      dup4\n        /* \"#utility.yul\":669:676   */\n      dup6\n        /* \"#utility.yul\":665:688   */\n      sub\n        /* \"#utility.yul\":661:693   */\n      slt\n        /* \"#utility.yul\":658:660   */\n      iszero\n      tag_256\n      jumpi\n        /* \"#utility.yul\":706:707   */\n      0x00\n        /* \"#utility.yul\":703:704   */\n      dup1\n        /* \"#utility.yul\":696:708   */\n      revert\n        /* \"#utility.yul\":658:660   */\n    tag_256:\n        /* \"#utility.yul\":749:750   */\n      0x00\n        /* \"#utility.yul\":774:827   */\n      tag_257\n        /* \"#utility.yul\":819:826   */\n      dup6\n        /* \"#utility.yul\":810:816   */\n      dup3\n        /* \"#utility.yul\":799:808   */\n      dup7\n        /* \"#utility.yul\":795:817   */\n      add\n        /* \"#utility.yul\":774:827   */\n      tag_244\n      jump\t// in\n    tag_257:\n        /* \"#utility.yul\":764:827   */\n      swap3\n      pop\n        /* \"#utility.yul\":720:837   */\n      pop\n        /* \"#utility.yul\":876:878   */\n      0x20\n        /* \"#utility.yul\":902:955   */\n      tag_258\n        /* \"#utility.yul\":947:954   */\n      dup6\n        /* \"#utility.yul\":938:944   */\n      dup3\n        /* \"#utility.yul\":927:936   */\n      dup7\n        /* \"#utility.yul\":923:945   */\n      add\n        /* \"#utility.yul\":902:955   */\n      tag_244\n      jump\t// in\n    tag_258:\n        /* \"#utility.yul\":892:955   */\n      swap2\n      pop\n        /* \"#utility.yul\":847:965   */\n      pop\n        /* \"#utility.yul\":648:972   */\n      swap3\n      pop\n      swap3\n      swap1\n      pop\n      jump\t// out\n        /* \"#utility.yul\":978:1530   */\n    tag_42:\n      0x00\n      dup1\n      0x00\n        /* \"#utility.yul\":1120:1122   */\n      0x60\n        /* \"#utility.yul\":1108:1117   */\n      dup5\n        /* \"#utility.yul\":1099:1106   */\n      dup7\n        /* \"#utility.yul\":1095:1118   */\n      sub\n        /* \"#utility.yul\":1091:1123   */\n      slt\n        /* \"#utility.yul\":1088:1090   */\n      iszero\n      tag_260\n      jumpi\n        /* \"#utility.yul\":1136:1137   */\n      0x00\n        /* \"#utility.yul\":1133:1134   */\n      dup1\n        /* \"#utility.yul\":1126:1138   */\n      revert\n        /* \"#utility.yul\":1088:1090   */\n    tag_260:\n        /* \"#utility.yul\":1179:1180   */\n      0x00\n        /* \"#utility.yul\":1204:1257   */\n      tag_261\n        /* \"#utility.yul\":1249:1256   */\n      dup7\n        /* \"#utility.yul\":1240:1246   */\n      dup3\n        /* \"#utility.yul\":1229:1238   */\n      dup8\n        /* \"#utility.yul\":1225:1247   */\n      add\n        /* \"#utility.yul\":1204:1257   */\n      tag_244\n      jump\t// in\n    tag_261:\n        /* \"#utility.yul\":1194:1257   */\n      swap4\n      pop\n        /* \"#utility.yul\":1150:1267   */\n      pop\n        /* \"#utility.yul\":1306:1308   */\n      0x20\n        /* \"#utility.yul\":1332:1385   */\n      tag_262\n        /* \"#utility.yul\":1377:1384   */\n      dup7\n        /* \"#utility.yul\":1368:1374   */\n      dup3\n        /* \"#utility.yul\":1357:1366   */\n      dup8\n        /* \"#utility.yul\":1353:1375   */\n      add\n        /* \"#utility.yul\":1332:1385   */\n      tag_244\n      jump\t// in\n    tag_262:\n        /* \"#utility.yul\":1322:1385   */\n      swap3\n      pop\n        /* \"#utility.yul\":1277:1395   */\n      pop\n        /* \"#utility.yul\":1434:1436   */\n      0x40\n        /* \"#utility.yul\":1460:1513   */\n      tag_263\n        /* \"#utility.yul\":1505:1512   */\n      dup7\n        /* \"#utility.yul\":1496:1502   */\n      dup3\n        /* \"#utility.yul\":1485:1494   */\n      dup8\n        /* \"#utility.yul\":1481:1503   */\n      add\n        /* \"#utility.yul\":1460:1513   */\n      tag_248\n      jump\t// in\n    tag_263:\n        /* \"#utility.yul\":1450:1513   */\n      swap2\n      pop\n        /* \"#utility.yul\":1405:1523   */\n      pop\n        /* \"#utility.yul\":1078:1530   */\n      swap3\n      pop\n      swap3\n      pop\n      swap3\n      jump\t// out\n        /* \"#utility.yul\":1536:1943   */\n    tag_32:\n      0x00\n      dup1\n        /* \"#utility.yul\":1661:1663   */\n      0x40\n        /* \"#utility.yul\":1649:1658   */\n      dup4\n        /* \"#utility.yul\":1640:1647   */\n      dup6\n        /* \"#utility.yul\":1636:1659   */\n      sub\n        /* \"#utility.yul\":1632:1664   */\n      slt\n        /* \"#utility.yul\":1629:1631   */\n      iszero\n      tag_265\n      jumpi\n        /* \"#utility.yul\":1677:1678   */\n      0x00\n        /* \"#utility.yul\":1674:1675   */\n      dup1\n        /* \"#utility.yul\":1667:1679   */\n      revert\n        /* \"#utility.yul\":1629:1631   */\n    tag_265:\n        /* \"#utility.yul\":1720:1721   */\n      0x00\n        /* \"#utility.yul\":1745:1798   */\n      tag_266\n        /* \"#utility.yul\":1790:1797   */\n      dup6\n        /* \"#utility.yul\":1781:1787   */\n      dup3\n        /* \"#utility.yul\":1770:1779   */\n      dup7\n        /* \"#utility.yul\":1766:1788   */\n      add\n        /* \"#utility.yul\":1745:1798   */\n      tag_244\n      jump\t// in\n    tag_266:\n        /* \"#utility.yul\":1735:1798   */\n      swap3\n      pop\n        /* \"#utility.yul\":1691:1808   */\n      pop\n        /* \"#utility.yul\":1847:1849   */\n      0x20\n        /* \"#utility.yul\":1873:1926   */\n      tag_267\n        /* \"#utility.yul\":1918:1925   */\n      dup6\n        /* \"#utility.yul\":1909:1915   */\n      dup3\n        /* \"#utility.yul\":1898:1907   */\n      dup7\n        /* \"#utility.yul\":1894:1916   */\n      add\n        /* \"#utility.yul\":1873:1926   */\n      tag_248\n      jump\t// in\n    tag_267:\n        /* \"#utility.yul\":1863:1926   */\n      swap2\n      pop\n        /* \"#utility.yul\":1818:1936   */\n      pop\n        /* \"#utility.yul\":1619:1943   */\n      swap3\n      pop\n      swap3\n      swap1\n      pop\n      jump\t// out\n        /* \"#utility.yul\":1949:2211   */\n    tag_53:\n      0x00\n        /* \"#utility.yul\":2057:2059   */\n      0x20\n        /* \"#utility.yul\":2045:2054   */\n      dup3\n        /* \"#utility.yul\":2036:2043   */\n      dup5\n        /* \"#utility.yul\":2032:2055   */\n      sub\n        /* \"#utility.yul\":2028:2060   */\n      slt\n        /* \"#utility.yul\":2025:2027   */\n      iszero\n      tag_269\n      jumpi\n        /* \"#utility.yul\":2073:2074   */\n      0x00\n        /* \"#utility.yul\":2070:2071   */\n      dup1\n        /* \"#utility.yul\":2063:2075   */\n      revert\n        /* \"#utility.yul\":2025:2027   */\n    tag_269:\n        /* \"#utility.yul\":2116:2117   */\n      0x00\n        /* \"#utility.yul\":2141:2194   */\n      tag_270\n        /* \"#utility.yul\":2186:2193   */\n      dup5\n        /* \"#utility.yul\":2177:2183   */\n      dup3\n        /* \"#utility.yul\":2166:2175   */\n      dup6\n        /* \"#utility.yul\":2162:2184   */\n      add\n        /* \"#utility.yul\":2141:2194   */\n      tag_248\n      jump\t// in\n    tag_270:\n        /* \"#utility.yul\":2131:2194   */\n      swap2\n      pop\n        /* \"#utility.yul\":2087:2204   */\n      pop\n        /* \"#utility.yul\":2015:2211   */\n      swap3\n      swap2\n      pop\n      pop\n      jump\t// out\n        /* \"#utility.yul\":2217:2335   */\n    tag_271:\n        /* \"#utility.yul\":2304:2328   */\n      tag_273\n        /* \"#utility.yul\":2322:2327   */\n      dup2\n        /* \"#utility.yul\":2304:2328   */\n      tag_274\n      jump\t// in\n    tag_273:\n        /* \"#utility.yul\":2299:2302   */\n      dup3\n        /* \"#utility.yul\":2292:2329   */\n      mstore\n        /* \"#utility.yul\":2282:2335   */\n      pop\n      pop\n      jump\t// out\n        /* \"#utility.yul\":2341:2450   */\n    tag_275:\n        /* \"#utility.yul\":2422:2443   */\n      tag_277\n        /* \"#utility.yul\":2437:2442   */\n      dup2\n        /* \"#utility.yul\":2422:2443   */\n      tag_278\n      jump\t// in\n    tag_277:\n        /* \"#utility.yul\":2417:2420   */\n      dup3\n        /* \"#utility.yul\":2410:2444   */\n      mstore\n        /* \"#utility.yul\":2400:2450   */\n      pop\n      pop\n      jump\t// out\n        /* \"#utility.yul\":2456:2820   */\n    tag_279:\n      0x00\n        /* \"#utility.yul\":2572:2611   */\n      tag_281\n        /* \"#utility.yul\":2605:2610   */\n      dup3\n        /* \"#utility.yul\":2572:2611   */\n      tag_282\n      jump\t// in\n    tag_281:\n        /* \"#utility.yul\":2627:2698   */\n      tag_283\n        /* \"#utility.yul\":2691:2697   */\n      dup2\n        /* \"#utility.yul\":2686:2689   */\n      dup6\n        /* \"#utility.yul\":2627:2698   */\n      tag_284\n      jump\t// in\n    tag_283:\n        /* \"#utility.yul\":2620:2698   */\n      swap4\n      pop\n        /* \"#utility.yul\":2707:2759   */\n      tag_285\n        /* \"#utility.yul\":2752:2758   */\n      dup2\n        /* \"#utility.yul\":2747:2750   */\n      dup6\n        /* \"#utility.yul\":2740:2744   */\n      0x20\n        /* \"#utility.yul\":2733:2738   */\n      dup7\n        /* \"#utility.yul\":2729:2745   */\n      add\n        /* \"#utility.yul\":2707:2759   */\n      tag_286\n      jump\t// in\n    tag_285:\n        /* \"#utility.yul\":2784:2813   */\n      tag_287\n        /* \"#utility.yul\":2806:2812   */\n      dup2\n        /* \"#utility.yul\":2784:2813   */\n      tag_288\n      jump\t// in\n    tag_287:\n        /* \"#utility.yul\":2779:2782   */\n      dup5\n        /* \"#utility.yul\":2775:2814   */\n      add\n        /* \"#utility.yul\":2768:2814   */\n      swap2\n      pop\n        /* \"#utility.yul\":2548:2820   */\n      pop\n      swap3\n      swap2\n      pop\n      pop\n      jump\t// out\n        /* \"#utility.yul\":2826:3144   */\n    tag_289:\n      0x00\n        /* \"#utility.yul\":2989:3056   */\n      tag_291\n        /* \"#utility.yul\":3053:3055   */\n      0x14\n        /* \"#utility.yul\":3048:3051   */\n      dup4\n        /* \"#utility.yul\":2989:3056   */\n      tag_284\n      jump\t// in\n    tag_291:\n        /* \"#utility.yul\":2982:3056   */\n      swap2\n      pop\n        /* \"#utility.yul\":3086:3108   */\n      0x5061757361626c653a206e6f7420706175736564000000000000000000000000\n        /* \"#utility.yul\":3082:3083   */\n      0x00\n        /* \"#utility.yul\":3077:3080   */\n      dup4\n        /* \"#utility.yul\":3073:3084   */\n      add\n        /* \"#utility.yul\":3066:3109   */\n      mstore\n        /* \"#utility.yul\":3135:3137   */\n      0x20\n        /* \"#utility.yul\":3130:3133   */\n      dup3\n        /* \"#utility.yul\":3126:3138   */\n      add\n        /* \"#utility.yul\":3119:3138   */\n      swap1\n      pop\n        /* \"#utility.yul\":2972:3144   */\n      swap2\n      swap1\n      pop\n      jump\t// out\n        /* \"#utility.yul\":3150:3480   */\n    tag_292:\n      0x00\n        /* \"#utility.yul\":3313:3380   */\n      tag_294\n        /* \"#utility.yul\":3377:3379   */\n      0x20\n        /* \"#utility.yul\":3372:3375   */\n      dup4\n        /* \"#utility.yul\":3313:3380   */\n      tag_284\n      jump\t// in\n    tag_294:\n        /* \"#utility.yul\":3306:3380   */\n      swap2\n      pop\n        /* \"#utility.yul\":3410:3444   */\n      0x45524332303a2066726f6d2061646472657373206973206e6f742076616c6964\n        /* \"#utility.yul\":3406:3407   */\n      0x00\n        /* \"#utility.yul\":3401:3404   */\n      dup4\n        /* \"#utility.yul\":3397:3408   */\n      add\n        /* \"#utility.yul\":3390:3445   */\n      mstore\n        /* \"#utility.yul\":3471:3473   */\n      0x20\n        /* \"#utility.yul\":3466:3469   */\n      dup3\n        /* \"#utility.yul\":3462:3474   */\n      add\n        /* \"#utility.yul\":3455:3474   */\n      swap1\n      pop\n        /* \"#utility.yul\":3296:3480   */\n      swap2\n      swap1\n      pop\n      jump\t// out\n        /* \"#utility.yul\":3486:3811   */\n    tag_295:\n      0x00\n        /* \"#utility.yul\":3649:3716   */\n      tag_297\n        /* \"#utility.yul\":3713:3715   */\n      0x1b\n        /* \"#utility.yul\":3708:3711   */\n      dup4\n        /* \"#utility.yul\":3649:3716   */\n      tag_284\n      jump\t// in\n    tag_297:\n        /* \"#utility.yul\":3642:3716   */\n      swap2\n      pop\n        /* \"#utility.yul\":3746:3775   */\n      0x45524332303a20696e73756666696369656e742062616c616e63650000000000\n        /* \"#utility.yul\":3742:3743   */\n      0x00\n        /* \"#utility.yul\":3737:3740   */\n      dup4\n        /* \"#utility.yul\":3733:3744   */\n      add\n        /* \"#utility.yul\":3726:3776   */\n      mstore\n        /* \"#utility.yul\":3802:3804   */\n      0x20\n        /* \"#utility.yul\":3797:3800   */\n      dup3\n        /* \"#utility.yul\":3793:3805   */\n      add\n        /* \"#utility.yul\":3786:3805   */\n      swap1\n      pop\n        /* \"#utility.yul\":3632:3811   */\n      swap2\n      swap1\n      pop\n      jump\t// out\n        /* \"#utility.yul\":3817:4145   */\n    tag_298:\n      0x00\n        /* \"#utility.yul\":3980:4047   */\n      tag_300\n        /* \"#utility.yul\":4044:4046   */\n      0x1e\n        /* \"#utility.yul\":4039:4042   */\n      dup4\n        /* \"#utility.yul\":3980:4047   */\n      tag_284\n      jump\t// in\n    tag_300:\n        /* \"#utility.yul\":3973:4047   */\n      swap2\n      pop\n        /* \"#utility.yul\":4077:4109   */\n      0x45524332303a20746f2061646472657373206973206e6f742076616c69640000\n        /* \"#utility.yul\":4073:4074   */\n      0x00\n        /* \"#utility.yul\":4068:4071   */\n      dup4\n        /* \"#utility.yul\":4064:4075   */\n      add\n        /* \"#utility.yul\":4057:4110   */\n      mstore\n        /* \"#utility.yul\":4136:4138   */\n      0x20\n        /* \"#utility.yul\":4131:4134   */\n      dup3\n        /* \"#utility.yul\":4127:4139   */\n      add\n        /* \"#utility.yul\":4120:4139   */\n      swap1\n      pop\n        /* \"#utility.yul\":3963:4145   */\n      swap2\n      swap1\n      pop\n      jump\t// out\n        /* \"#utility.yul\":4151:4465   */\n    tag_301:\n      0x00\n        /* \"#utility.yul\":4314:4381   */\n      tag_303\n        /* \"#utility.yul\":4378:4380   */\n      0x10\n        /* \"#utility.yul\":4373:4376   */\n      dup4\n        /* \"#utility.yul\":4314:4381   */\n      tag_284\n      jump\t// in\n    tag_303:\n        /* \"#utility.yul\":4307:4381   */\n      swap2\n      pop\n        /* \"#utility.yul\":4411:4429   */\n      0x5061757361626c653a2070617573656400000000000000000000000000000000\n        /* \"#utility.yul\":4407:4408   */\n      0x00\n        /* \"#utility.yul\":4402:4405   */\n      dup4\n        /* \"#utility.yul\":4398:4409   */\n      add\n        /* \"#utility.yul\":4391:4430   */\n      mstore\n        /* \"#utility.yul\":4456:4458   */\n      0x20\n        /* \"#utility.yul\":4451:4454   */\n      dup3\n        /* \"#utility.yul\":4447:4459   */\n      add\n        /* \"#utility.yul\":4440:4459   */\n      swap1\n      pop\n        /* \"#utility.yul\":4297:4465   */\n      swap2\n      swap1\n      pop\n      jump\t// out\n        /* \"#utility.yul\":4471:4841   */\n    tag_304:\n      0x00\n        /* \"#utility.yul\":4634:4701   */\n      tag_306\n        /* \"#utility.yul\":4698:4700   */\n      0x26\n        /* \"#utility.yul\":4693:4696   */\n      dup4\n        /* \"#utility.yul\":4634:4701   */\n      tag_284\n      jump\t// in\n    tag_306:\n        /* \"#utility.yul\":4627:4701   */\n      swap2\n      pop\n        /* \"#utility.yul\":4731:4765   */\n      0x45524332303a207472616e736665722066726f6d2076616c7565206e6f742061\n        /* \"#utility.yul\":4727:4728   */\n      0x00\n        /* \"#utility.yul\":4722:4725   */\n      dup4\n        /* \"#utility.yul\":4718:4729   */\n      add\n        /* \"#utility.yul\":4711:4766   */\n      mstore\n        /* \"#utility.yul\":4797:4805   */\n      0x6c6c6f7765640000000000000000000000000000000000000000000000000000\n        /* \"#utility.yul\":4792:4794   */\n      0x20\n        /* \"#utility.yul\":4787:4790   */\n      dup4\n        /* \"#utility.yul\":4783:4795   */\n      add\n        /* \"#utility.yul\":4776:4806   */\n      mstore\n        /* \"#utility.yul\":4832:4834   */\n      0x40\n        /* \"#utility.yul\":4827:4830   */\n      dup3\n        /* \"#utility.yul\":4823:4835   */\n      add\n        /* \"#utility.yul\":4816:4835   */\n      swap1\n      pop\n        /* \"#utility.yul\":4617:4841   */\n      swap2\n      swap1\n      pop\n      jump\t// out\n        /* \"#utility.yul\":4847:5213   */\n    tag_307:\n      0x00\n        /* \"#utility.yul\":5010:5077   */\n      tag_309\n        /* \"#utility.yul\":5074:5076   */\n      0x22\n        /* \"#utility.yul\":5069:5072   */\n      dup4\n        /* \"#utility.yul\":5010:5077   */\n      tag_284\n      jump\t// in\n    tag_309:\n        /* \"#utility.yul\":5003:5077   */\n      swap2\n      pop\n        /* \"#utility.yul\":5107:5141   */\n      0x45524332303a206275726e2066726f6d2076616c7565206e6f7420616c6c6f77\n        /* \"#utility.yul\":5103:5104   */\n      0x00\n        /* \"#utility.yul\":5098:5101   */\n      dup4\n        /* \"#utility.yul\":5094:5105   */\n      add\n        /* \"#utility.yul\":5087:5142   */\n      mstore\n        /* \"#utility.yul\":5173:5177   */\n      0x6564000000000000000000000000000000000000000000000000000000000000\n        /* \"#utility.yul\":5168:5170   */\n      0x20\n        /* \"#utility.yul\":5163:5166   */\n      dup4\n        /* \"#utility.yul\":5159:5171   */\n      add\n        /* \"#utility.yul\":5152:5178   */\n      mstore\n        /* \"#utility.yul\":5204:5206   */\n      0x40\n        /* \"#utility.yul\":5199:5202   */\n      dup3\n        /* \"#utility.yul\":5195:5207   */\n      add\n        /* \"#utility.yul\":5188:5207   */\n      swap1\n      pop\n        /* \"#utility.yul\":4993:5213   */\n      swap2\n      swap1\n      pop\n      jump\t// out\n        /* \"#utility.yul\":5219:5546   */\n    tag_310:\n      0x00\n        /* \"#utility.yul\":5382:5449   */\n      tag_312\n        /* \"#utility.yul\":5446:5448   */\n      0x1d\n        /* \"#utility.yul\":5441:5444   */\n      dup4\n        /* \"#utility.yul\":5382:5449   */\n      tag_284\n      jump\t// in\n    tag_312:\n        /* \"#utility.yul\":5375:5449   */\n      swap2\n      pop\n        /* \"#utility.yul\":5479:5510   */\n      0x4f776e61626c653a2061646472657373206973206e6f742076616c6964000000\n        /* \"#utility.yul\":5475:5476   */\n      0x00\n        /* \"#utility.yul\":5470:5473   */\n      dup4\n        /* \"#utility.yul\":5466:5477   */\n      add\n        /* \"#utility.yul\":5459:5511   */\n      mstore\n        /* \"#utility.yul\":5537:5539   */\n      0x20\n        /* \"#utility.yul\":5532:5535   */\n      dup3\n        /* \"#utility.yul\":5528:5540   */\n      add\n        /* \"#utility.yul\":5521:5540   */\n      swap1\n      pop\n        /* \"#utility.yul\":5365:5546   */\n      swap2\n      swap1\n      pop\n      jump\t// out\n        /* \"#utility.yul\":5552:5882   */\n    tag_313:\n      0x00\n        /* \"#utility.yul\":5715:5782   */\n      tag_315\n        /* \"#utility.yul\":5779:5781   */\n      0x20\n        /* \"#utility.yul\":5774:5777   */\n      dup4\n        /* \"#utility.yul\":5715:5782   */\n      tag_284\n      jump\t// in\n    tag_315:\n        /* \"#utility.yul\":5708:5782   */\n      swap2\n      pop\n        /* \"#utility.yul\":5812:5846   */\n      0x4f776e61626c653a2063616c6c6572206973206e6f7420746865206f776e6572\n        /* \"#utility.yul\":5808:5809   */\n      0x00\n        /* \"#utility.yul\":5803:5806   */\n      dup4\n        /* \"#utility.yul\":5799:5810   */\n      add\n        /* \"#utility.yul\":5792:5847   */\n      mstore\n        /* \"#utility.yul\":5873:5875   */\n      0x20\n        /* \"#utility.yul\":5868:5871   */\n      dup3\n        /* \"#utility.yul\":5864:5876   */\n      add\n        /* \"#utility.yul\":5857:5876   */\n      swap1\n      pop\n        /* \"#utility.yul\":5698:5882   */\n      swap2\n      swap1\n      pop\n      jump\t// out\n        /* \"#utility.yul\":5888:6006   */\n    tag_316:\n        /* \"#utility.yul\":5975:5999   */\n      tag_318\n        /* \"#utility.yul\":5993:5998   */\n      dup2\n        /* \"#utility.yul\":5975:5999   */\n      tag_319\n      jump\t// in\n    tag_318:\n        /* \"#utility.yul\":5970:5973   */\n      dup3\n        /* \"#utility.yul\":5963:6000   */\n      mstore\n        /* \"#utility.yul\":5953:6006   */\n      pop\n      pop\n      jump\t// out\n        /* \"#utility.yul\":6012:6124   */\n    tag_320:\n        /* \"#utility.yul\":6095:6117   */\n      tag_322\n        /* \"#utility.yul\":6111:6116   */\n      dup2\n        /* \"#utility.yul\":6095:6117   */\n      tag_323\n      jump\t// in\n    tag_322:\n        /* \"#utility.yul\":6090:6093   */\n      dup3\n        /* \"#utility.yul\":6083:6118   */\n      mstore\n        /* \"#utility.yul\":6073:6124   */\n      pop\n      pop\n      jump\t// out\n        /* \"#utility.yul\":6130:6352   */\n    tag_91:\n      0x00\n        /* \"#utility.yul\":6261:6263   */\n      0x20\n        /* \"#utility.yul\":6250:6259   */\n      dup3\n        /* \"#utility.yul\":6246:6264   */\n      add\n        /* \"#utility.yul\":6238:6264   */\n      swap1\n      pop\n        /* \"#utility.yul\":6274:6345   */\n      tag_325\n        /* \"#utility.yul\":6342:6343   */\n      0x00\n        /* \"#utility.yul\":6331:6340   */\n      dup4\n        /* \"#utility.yul\":6327:6344   */\n      add\n        /* \"#utility.yul\":6318:6324   */\n      dup5\n        /* \"#utility.yul\":6274:6345   */\n      tag_271\n      jump\t// in\n    tag_325:\n        /* \"#utility.yul\":6228:6352   */\n      swap3\n      swap2\n      pop\n      pop\n      jump\t// out\n        /* \"#utility.yul\":6358:6690   */\n    tag_242:\n      0x00\n        /* \"#utility.yul\":6517:6519   */\n      0x40\n        /* \"#utility.yul\":6506:6515   */\n      dup3\n        /* \"#utility.yul\":6502:6520   */\n      add\n        /* \"#utility.yul\":6494:6520   */\n      swap1\n      pop\n        /* \"#utility.yul\":6530:6601   */\n      tag_327\n        /* \"#utility.yul\":6598:6599   */\n      0x00\n        /* \"#utility.yul\":6587:6596   */\n      dup4\n        /* \"#utility.yul\":6583:6600   */\n      add\n        /* \"#utility.yul\":6574:6580   */\n      dup6\n        /* \"#utility.yul\":6530:6601   */\n      tag_271\n      jump\t// in\n    tag_327:\n        /* \"#utility.yul\":6611:6683   */\n      tag_328\n        /* \"#utility.yul\":6679:6681   */\n      0x20\n        /* \"#utility.yul\":6668:6677   */\n      dup4\n        /* \"#utility.yul\":6664:6682   */\n      add\n        /* \"#utility.yul\":6655:6661   */\n      dup5\n        /* \"#utility.yul\":6611:6683   */\n      tag_271\n      jump\t// in\n    tag_328:\n        /* \"#utility.yul\":6484:6690   */\n      swap4\n      swap3\n      pop\n      pop\n      pop\n      jump\t// out\n        /* \"#utility.yul\":6696:6906   */\n    tag_35:\n      0x00\n        /* \"#utility.yul\":6821:6823   */\n      0x20\n        /* \"#utility.yul\":6810:6819   */\n      dup3\n        /* \"#utility.yul\":6806:6824   */\n      add\n        /* \"#utility.yul\":6798:6824   */\n      swap1\n      pop\n        /* \"#utility.yul\":6834:6899   */\n      tag_330\n        /* \"#utility.yul\":6896:6897   */\n      0x00\n        /* \"#utility.yul\":6885:6894   */\n      dup4\n        /* \"#utility.yul\":6881:6898   */\n      add\n        /* \"#utility.yul\":6872:6878   */\n      dup5\n        /* \"#utility.yul\":6834:6899   */\n      tag_275\n      jump\t// in\n    tag_330:\n        /* \"#utility.yul\":6788:6906   */\n      swap3\n      swap2\n      pop\n      pop\n      jump\t// out\n        /* \"#utility.yul\":6912:7225   */\n    tag_29:\n      0x00\n        /* \"#utility.yul\":7063:7065   */\n      0x20\n        /* \"#utility.yul\":7052:7061   */\n      dup3\n        /* \"#utility.yul\":7048:7066   */\n      add\n        /* \"#utility.yul\":7040:7066   */\n      swap1\n      pop\n        /* \"#utility.yul\":7112:7121   */\n      dup2\n        /* \"#utility.yul\":7106:7110   */\n      dup2\n        /* \"#utility.yul\":7102:7122   */\n      sub\n        /* \"#utility.yul\":7098:7099   */\n      0x00\n        /* \"#utility.yul\":7087:7096   */\n      dup4\n        /* \"#utility.yul\":7083:7100   */\n      add\n        /* \"#utility.yul\":7076:7123   */\n      mstore\n        /* \"#utility.yul\":7140:7218   */\n      tag_332\n        /* \"#utility.yul\":7213:7217   */\n      dup2\n        /* \"#utility.yul\":7204:7210   */\n      dup5\n        /* \"#utility.yul\":7140:7218   */\n      tag_279\n      jump\t// in\n    tag_332:\n        /* \"#utility.yul\":7132:7218   */\n      swap1\n      pop\n        /* \"#utility.yul\":7030:7225   */\n      swap3\n      swap2\n      pop\n      pop\n      jump\t// out\n        /* \"#utility.yul\":7231:7650   */\n    tag_146:\n      0x00\n        /* \"#utility.yul\":7435:7437   */\n      0x20\n        /* \"#utility.yul\":7424:7433   */\n      dup3\n        /* \"#utility.yul\":7420:7438   */\n      add\n        /* \"#utility.yul\":7412:7438   */\n      swap1\n      pop\n        /* \"#utility.yul\":7484:7493   */\n      dup2\n        /* \"#utility.yul\":7478:7482   */\n      dup2\n        /* \"#utility.yul\":7474:7494   */\n      sub\n        /* \"#utility.yul\":7470:7471   */\n      0x00\n        /* \"#utility.yul\":7459:7468   */\n      dup4\n        /* \"#utility.yul\":7455:7472   */\n      add\n        /* \"#utility.yul\":7448:7495   */\n      mstore\n        /* \"#utility.yul\":7512:7643   */\n      tag_334\n        /* \"#utility.yul\":7638:7642   */\n      dup2\n        /* \"#utility.yul\":7512:7643   */\n      tag_289\n      jump\t// in\n    tag_334:\n        /* \"#utility.yul\":7504:7643   */\n      swap1\n      pop\n        /* \"#utility.yul\":7402:7650   */\n      swap2\n      swap1\n      pop\n      jump\t// out\n        /* \"#utility.yul\":7656:8075   */\n    tag_122:\n      0x00\n        /* \"#utility.yul\":7860:7862   */\n      0x20\n        /* \"#utility.yul\":7849:7858   */\n      dup3\n        /* \"#utility.yul\":7845:7863   */\n      add\n        /* \"#utility.yul\":7837:7863   */\n      swap1\n      pop\n        /* \"#utility.yul\":7909:7918   */\n      dup2\n        /* \"#utility.yul\":7903:7907   */\n      dup2\n        /* \"#utility.yul\":7899:7919   */\n      sub\n        /* \"#utility.yul\":7895:7896   */\n      0x00\n        /* \"#utility.yul\":7884:7893   */\n      dup4\n        /* \"#utility.yul\":7880:7897   */\n      add\n        /* \"#utility.yul\":7873:7920   */\n      mstore\n        /* \"#utility.yul\":7937:8068   */\n      tag_336\n        /* \"#utility.yul\":8063:8067   */\n      dup2\n        /* \"#utility.yul\":7937:8068   */\n      tag_292\n      jump\t// in\n    tag_336:\n        /* \"#utility.yul\":7929:8068   */\n      swap1\n      pop\n        /* \"#utility.yul\":7827:8075   */\n      swap2\n      swap1\n      pop\n      jump\t// out\n        /* \"#utility.yul\":8081:8500   */\n    tag_128:\n      0x00\n        /* \"#utility.yul\":8285:8287   */\n      0x20\n        /* \"#utility.yul\":8274:8283   */\n      dup3\n        /* \"#utility.yul\":8270:8288   */\n      add\n        /* \"#utility.yul\":8262:8288   */\n      swap1\n      pop\n        /* \"#utility.yul\":8334:8343   */\n      dup2\n        /* \"#utility.yul\":8328:8332   */\n      dup2\n        /* \"#utility.yul\":8324:8344   */\n      sub\n        /* \"#utility.yul\":8320:8321   */\n      0x00\n        /* \"#utility.yul\":8309:8318   */\n      dup4\n        /* \"#utility.yul\":8305:8322   */\n      add\n        /* \"#utility.yul\":8298:8345   */\n      mstore\n        /* \"#utility.yul\":8362:8493   */\n      tag_338\n        /* \"#utility.yul\":8488:8492   */\n      dup2\n        /* \"#utility.yul\":8362:8493   */\n      tag_295\n      jump\t// in\n    tag_338:\n        /* \"#utility.yul\":8354:8493   */\n      swap1\n      pop\n        /* \"#utility.yul\":8252:8500   */\n      swap2\n      swap1\n      pop\n      jump\t// out\n        /* \"#utility.yul\":8506:8925   */\n    tag_125:\n      0x00\n        /* \"#utility.yul\":8710:8712   */\n      0x20\n        /* \"#utility.yul\":8699:8708   */\n      dup3\n        /* \"#utility.yul\":8695:8713   */\n      add\n        /* \"#utility.yul\":8687:8713   */\n      swap1\n      pop\n        /* \"#utility.yul\":8759:8768   */\n      dup2\n        /* \"#utility.yul\":8753:8757   */\n      dup2\n        /* \"#utility.yul\":8749:8769   */\n      sub\n        /* \"#utility.yul\":8745:8746   */\n      0x00\n        /* \"#utility.yul\":8734:8743   */\n      dup4\n        /* \"#utility.yul\":8730:8747   */\n      add\n        /* \"#utility.yul\":8723:8770   */\n      mstore\n        /* \"#utility.yul\":8787:8918   */\n      tag_340\n        /* \"#utility.yul\":8913:8917   */\n      dup2\n        /* \"#utility.yul\":8787:8918   */\n      tag_298\n      jump\t// in\n    tag_340:\n        /* \"#utility.yul\":8779:8918   */\n      swap1\n      pop\n        /* \"#utility.yul\":8677:8925   */\n      swap2\n      swap1\n      pop\n      jump\t// out\n        /* \"#utility.yul\":8931:9350   */\n    tag_113:\n      0x00\n        /* \"#utility.yul\":9135:9137   */\n      0x20\n        /* \"#utility.yul\":9124:9133   */\n      dup3\n        /* \"#utility.yul\":9120:9138   */\n      add\n        /* \"#utility.yul\":9112:9138   */\n      swap1\n      pop\n        /* \"#utility.yul\":9184:9193   */\n      dup2\n        /* \"#utility.yul\":9178:9182   */\n      dup2\n        /* \"#utility.yul\":9174:9194   */\n      sub\n        /* \"#utility.yul\":9170:9171   */\n      0x00\n        /* \"#utility.yul\":9159:9168   */\n      dup4\n        /* \"#utility.yul\":9155:9172   */\n      add\n        /* \"#utility.yul\":9148:9195   */\n      mstore\n        /* \"#utility.yul\":9212:9343   */\n      tag_342\n        /* \"#utility.yul\":9338:9342   */\n      dup2\n        /* \"#utility.yul\":9212:9343   */\n      tag_301\n      jump\t// in\n    tag_342:\n        /* \"#utility.yul\":9204:9343   */\n      swap1\n      pop\n        /* \"#utility.yul\":9102:9350   */\n      swap2\n      swap1\n      pop\n      jump\t// out\n        /* \"#utility.yul\":9356:9775   */\n    tag_131:\n      0x00\n        /* \"#utility.yul\":9560:9562   */\n      0x20\n        /* \"#utility.yul\":9549:9558   */\n      dup3\n        /* \"#utility.yul\":9545:9563   */\n      add\n        /* \"#utility.yul\":9537:9563   */\n      swap1\n      pop\n        /* \"#utility.yul\":9609:9618   */\n      dup2\n        /* \"#utility.yul\":9603:9607   */\n      dup2\n        /* \"#utility.yul\":9599:9619   */\n      sub\n        /* \"#utility.yul\":9595:9596   */\n      0x00\n        /* \"#utility.yul\":9584:9593   */\n      dup4\n        /* \"#utility.yul\":9580:9597   */\n      add\n        /* \"#utility.yul\":9573:9620   */\n      mstore\n        /* \"#utility.yul\":9637:9768   */\n      tag_344\n        /* \"#utility.yul\":9763:9767   */\n      dup2\n        /* \"#utility.yul\":9637:9768   */\n      tag_304\n      jump\t// in\n    tag_344:\n        /* \"#utility.yul\":9629:9768   */\n      swap1\n      pop\n        /* \"#utility.yul\":9527:9775   */\n      swap2\n      swap1\n      pop\n      jump\t// out\n        /* \"#utility.yul\":9781:10200   */\n    tag_191:\n      0x00\n        /* \"#utility.yul\":9985:9987   */\n      0x20\n        /* \"#utility.yul\":9974:9983   */\n      dup3\n        /* \"#utility.yul\":9970:9988   */\n      add\n        /* \"#utility.yul\":9962:9988   */\n      swap1\n      pop\n        /* \"#utility.yul\":10034:10043   */\n      dup2\n        /* \"#utility.yul\":10028:10032   */\n      dup2\n        /* \"#utility.yul\":10024:10044   */\n      sub\n        /* \"#utility.yul\":10020:10021   */\n      0x00\n        /* \"#utility.yul\":10009:10018   */\n      dup4\n        /* \"#utility.yul\":10005:10022   */\n      add\n        /* \"#utility.yul\":9998:10045   */\n      mstore\n        /* \"#utility.yul\":10062:10193   */\n      tag_346\n        /* \"#utility.yul\":10188:10192   */\n      dup2\n        /* \"#utility.yul\":10062:10193   */\n      tag_307\n      jump\t// in\n    tag_346:\n        /* \"#utility.yul\":10054:10193   */\n      swap1\n      pop\n        /* \"#utility.yul\":9952:10200   */\n      swap2\n      swap1\n      pop\n      jump\t// out\n        /* \"#utility.yul\":10206:10625   */\n    tag_240:\n      0x00\n        /* \"#utility.yul\":10410:10412   */\n      0x20\n        /* \"#utility.yul\":10399:10408   */\n      dup3\n        /* \"#utility.yul\":10395:10413   */\n      add\n        /* \"#utility.yul\":10387:10413   */\n      swap1\n      pop\n        /* \"#utility.yul\":10459:10468   */\n      dup2\n        /* \"#utility.yul\":10453:10457   */\n      dup2\n        /* \"#utility.yul\":10449:10469   */\n      sub\n        /* \"#utility.yul\":10445:10446   */\n      0x00\n        /* \"#utility.yul\":10434:10443   */\n      dup4\n        /* \"#utility.yul\":10430:10447   */\n      add\n        /* \"#utility.yul\":10423:10470   */\n      mstore\n        /* \"#utility.yul\":10487:10618   */\n      tag_348\n        /* \"#utility.yul\":10613:10617   */\n      dup2\n        /* \"#utility.yul\":10487:10618   */\n      tag_310\n      jump\t// in\n    tag_348:\n        /* \"#utility.yul\":10479:10618   */\n      swap1\n      pop\n        /* \"#utility.yul\":10377:10625   */\n      swap2\n      swap1\n      pop\n      jump\t// out\n        /* \"#utility.yul\":10631:11050   */\n    tag_142:\n      0x00\n        /* \"#utility.yul\":10835:10837   */\n      0x20\n        /* \"#utility.yul\":10824:10833   */\n      dup3\n        /* \"#utility.yul\":10820:10838   */\n      add\n        /* \"#utility.yul\":10812:10838   */\n      swap1\n      pop\n        /* \"#utility.yul\":10884:10893   */\n      dup2\n        /* \"#utility.yul\":10878:10882   */\n      dup2\n        /* \"#utility.yul\":10874:10894   */\n      sub\n        /* \"#utility.yul\":10870:10871   */\n      0x00\n        /* \"#utility.yul\":10859:10868   */\n      dup4\n        /* \"#utility.yul\":10855:10872   */\n      add\n        /* \"#utility.yul\":10848:10895   */\n      mstore\n        /* \"#utility.yul\":10912:11043   */\n      tag_350\n        /* \"#utility.yul\":11038:11042   */\n      dup2\n        /* \"#utility.yul\":10912:11043   */\n      tag_313\n      jump\t// in\n    tag_350:\n        /* \"#utility.yul\":10904:11043   */\n      swap1\n      pop\n        /* \"#utility.yul\":10802:11050   */\n      swap2\n      swap1\n      pop\n      jump\t// out\n        /* \"#utility.yul\":11056:11278   */\n    tag_39:\n      0x00\n        /* \"#utility.yul\":11187:11189   */\n      0x20\n        /* \"#utility.yul\":11176:11185   */\n      dup3\n        /* \"#utility.yul\":11172:11190   */\n      add\n        /* \"#utility.yul\":11164:11190   */\n      swap1\n      pop\n        /* \"#utility.yul\":11200:11271   */\n      tag_352\n        /* \"#utility.yul\":11268:11269   */\n      0x00\n        /* \"#utility.yul\":11257:11266   */\n      dup4\n        /* \"#utility.yul\":11253:11270   */\n      add\n        /* \"#utility.yul\":11244:11250   */\n      dup5\n        /* \"#utility.yul\":11200:11271   */\n      tag_316\n      jump\t// in\n    tag_352:\n        /* \"#utility.yul\":11154:11278   */\n      swap3\n      swap2\n      pop\n      pop\n      jump\t// out\n        /* \"#utility.yul\":11284:11498   */\n    tag_48:\n      0x00\n        /* \"#utility.yul\":11411:11413   */\n      0x20\n        /* \"#utility.yul\":11400:11409   */\n      dup3\n        /* \"#utility.yul\":11396:11414   */\n      add\n        /* \"#utility.yul\":11388:11414   */\n      swap1\n      pop\n        /* \"#utility.yul\":11424:11491   */\n      tag_354\n        /* \"#utility.yul\":11488:11489   */\n      0x00\n        /* \"#utility.yul\":11477:11486   */\n      dup4\n        /* \"#utility.yul\":11473:11490   */\n      add\n        /* \"#utility.yul\":11464:11470   */\n      dup5\n        /* \"#utility.yul\":11424:11491   */\n      tag_320\n      jump\t// in\n    tag_354:\n        /* \"#utility.yul\":11378:11498   */\n      swap3\n      swap2\n      pop\n      pop\n      jump\t// out\n        /* \"#utility.yul\":11504:11603   */\n    tag_282:\n      0x00\n        /* \"#utility.yul\":11590:11595   */\n      dup2\n        /* \"#utility.yul\":11584:11596   */\n      mload\n        /* \"#utility.yul\":11574:11596   */\n      swap1\n      pop\n        /* \"#utility.yul\":11563:11603   */\n      swap2\n      swap1\n      pop\n      jump\t// out\n        /* \"#utility.yul\":11609:11778   */\n    tag_284:\n      0x00\n        /* \"#utility.yul\":11727:11733   */\n      dup3\n        /* \"#utility.yul\":11722:11725   */\n      dup3\n        /* \"#utility.yul\":11715:11734   */\n      mstore\n        /* \"#utility.yul\":11767:11771   */\n      0x20\n        /* \"#utility.yul\":11762:11765   */\n      dup3\n        /* \"#utility.yul\":11758:11772   */\n      add\n        /* \"#utility.yul\":11743:11772   */\n      swap1\n      pop\n        /* \"#utility.yul\":11705:11778   */\n      swap3\n      swap2\n      pop\n      pop\n      jump\t// out\n        /* \"#utility.yul\":11784:12089   */\n    tag_136:\n      0x00\n        /* \"#utility.yul\":11843:11863   */\n      tag_358\n        /* \"#utility.yul\":11861:11862   */\n      dup3\n        /* \"#utility.yul\":11843:11863   */\n      tag_319\n      jump\t// in\n    tag_358:\n        /* \"#utility.yul\":11838:11863   */\n      swap2\n      pop\n        /* \"#utility.yul\":11877:11897   */\n      tag_359\n        /* \"#utility.yul\":11895:11896   */\n      dup4\n        /* \"#utility.yul\":11877:11897   */\n      tag_319\n      jump\t// in\n    tag_359:\n        /* \"#utility.yul\":11872:11897   */\n      swap3\n      pop\n        /* \"#utility.yul\":12031:12032   */\n      dup3\n        /* \"#utility.yul\":11963:12029   */\n      0xffffffffffffffffffffffffffffffffffffffffffffffffffffffffffffffff\n        /* \"#utility.yul\":11959:12033   */\n      sub\n        /* \"#utility.yul\":11956:11957   */\n      dup3\n        /* \"#utility.yul\":11953:12034   */\n      gt\n        /* \"#utility.yul\":11950:11952   */\n      iszero\n      tag_360\n      jumpi\n        /* \"#utility.yul\":12037:12055   */\n      tag_361\n      tag_362\n      jump\t// in\n    tag_361:\n        /* \"#utility.yul\":11950:11952   */\n    tag_360:\n        /* \"#utility.yul\":12081:12082   */\n      dup3\n        /* \"#utility.yul\":12078:12079   */\n      dup3\n        /* \"#utility.yul\":12074:12083   */\n      add\n        /* \"#utility.yul\":12067:12083   */\n      swap1\n      pop\n        /* \"#utility.yul\":11828:12089   */\n      swap3\n      swap2\n      pop\n      pop\n      jump\t// out\n        /* \"#utility.yul\":12095:12286   */\n    tag_133:\n      0x00\n        /* \"#utility.yul\":12155:12175   */\n      tag_364\n        /* \"#utility.yul\":12173:12174   */\n      dup3\n        /* \"#utility.yul\":12155:12175   */\n      tag_319\n      jump\t// in\n    tag_364:\n        /* \"#utility.yul\":12150:12175   */\n      swap2\n      pop\n        /* \"#utility.yul\":12189:12209   */\n      tag_365\n        /* \"#utility.yul\":12207:12208   */\n      dup4\n        /* \"#utility.yul\":12189:12209   */\n      tag_319\n      jump\t// in\n    tag_365:\n        /* \"#utility.yul\":12184:12209   */\n      swap3\n      pop\n        /* \"#utility.yul\":12228:12229   */\n      dup3\n        /* \"#utility.yul\":12225:12226   */\n      dup3\n        /* \"#utility.yul\":12222:12230   */\n      lt\n        /* \"#utility.yul\":12219:12221   */\n      iszero\n      tag_366\n      jumpi\n        /* \"#utility.yul\":12233:12251   */\n      tag_367\n      tag_362\n      jump\t// in\n    tag_367:\n        /* \"#utility.yul\":12219:12221   */\n    tag_366:\n        /* \"#utility.yul\":12278:12279   */\n      dup3\n        /* \"#utility.yul\":12275:12276   */\n      dup3\n        /* \"#utility.yul\":12271:12280   */\n      sub\n        /* \"#utility.yul\":12263:12280   */\n      swap1\n      pop\n        /* \"#utility.yul\":12140:12286   */\n      swap3\n      swap2\n      pop\n      pop\n      jump\t// out\n        /* \"#utility.yul\":12292:12388   */\n    tag_274:\n      0x00\n        /* \"#utility.yul\":12358:12382   */\n      tag_369\n        /* \"#utility.yul\":12376:12381   */\n      dup3\n        /* \"#utility.yul\":12358:12382   */\n      tag_370\n      jump\t// in\n    tag_369:\n        /* \"#utility.yul\":12347:12382   */\n      swap1\n      pop\n        /* \"#utility.yul\":12337:12388   */\n      swap2\n      swap1\n      pop\n      jump\t// out\n        /* \"#utility.yul\":12394:12484   */\n    tag_278:\n      0x00\n        /* \"#utility.yul\":12471:12476   */\n      dup2\n        /* \"#utility.yul\":12464:12477   */\n      iszero\n        /* \"#utility.yul\":12457:12478   */\n      iszero\n        /* \"#utility.yul\":12446:12478   */\n      swap1\n      pop\n        /* \"#utility.yul\":12436:12484   */\n      swap2\n      swap1\n      pop\n      jump\t// out\n        /* \"#utility.yul\":12490:12616   */\n    tag_370:\n      0x00\n        /* \"#utility.yul\":12567:12609   */\n      0xffffffffffffffffffffffffffffffffffffffff\n        /* \"#utility.yul\":12560:12565   */\n      dup3\n        /* \"#utility.yul\":12556:12610   */\n      and\n        /* \"#utility.yul\":12545:12610   */\n      swap1\n      pop\n        /* \"#utility.yul\":12535:12616   */\n      swap2\n      swap1\n      pop\n      jump\t// out\n        /* \"#utility.yul\":12622:12699   */\n    tag_319:\n      0x00\n        /* \"#utility.yul\":12688:12693   */\n      dup2\n        /* \"#utility.yul\":12677:12693   */\n      swap1\n      pop\n        /* \"#utility.yul\":12667:12699   */\n      swap2\n      swap1\n      pop\n      jump\t// out\n        /* \"#utility.yul\":12705:12791   */\n    tag_323:\n      0x00\n        /* \"#utility.yul\":12780:12784   */\n      0xff\n        /* \"#utility.yul\":12773:12778   */\n      dup3\n        /* \"#utility.yul\":12769:12785   */\n      and\n        /* \"#utility.yul\":12758:12785   */\n      swap1\n      pop\n        /* \"#utility.yul\":12748:12791   */\n      swap2\n      swap1\n      pop\n      jump\t// out\n        /* \"#utility.yul\":12797:13104   */\n    tag_286:\n        /* \"#utility.yul\":12865:12866   */\n      0x00\n        /* \"#utility.yul\":12875:12988   */\n    tag_376:\n        /* \"#utility.yul\":12889:12895   */\n      dup4\n        /* \"#utility.yul\":12886:12887   */\n      dup2\n        /* \"#utility.yul\":12883:12896   */\n      lt\n        /* \"#utility.yul\":12875:12988   */\n      iszero\n      tag_378\n      jumpi\n        /* \"#utility.yul\":12974:12975   */\n      dup1\n        /* \"#utility.yul\":12969:12972   */\n      dup3\n        /* \"#utility.yul\":12965:12976   */\n      add\n        /* \"#utility.yul\":12959:12977   */\n      mload\n        /* \"#utility.yul\":12955:12956   */\n      dup2\n        /* \"#utility.yul\":12950:12953   */\n      dup5\n        /* \"#utility.yul\":12946:12957   */\n      add\n        /* \"#utility.yul\":12939:12978   */\n      mstore\n        /* \"#utility.yul\":12911:12913   */\n      0x20\n        /* \"#utility.yul\":12908:12909   */\n      dup2\n        /* \"#utility.yul\":12904:12914   */\n      add\n        /* \"#utility.yul\":12899:12914   */\n      swap1\n      pop\n        /* \"#utility.yul\":12875:12988   */\n      jump(tag_376)\n    tag_378:\n        /* \"#utility.yul\":13006:13012   */\n      dup4\n        /* \"#utility.yul\":13003:13004   */\n      dup2\n        /* \"#utility.yul\":13000:13013   */\n      gt\n        /* \"#utility.yul\":12997:12999   */\n      iszero\n      tag_379\n      jumpi\n        /* \"#utility.yul\":13086:13087   */\n      0x00\n        /* \"#utility.yul\":13077:13083   */\n      dup5\n        /* \"#utility.yul\":13072:13075   */\n      dup5\n        /* \"#utility.yul\":13068:13084   */\n      add\n        /* \"#utility.yul\":13061:13088   */\n      mstore\n        /* \"#utility.yul\":12997:12999   */\n    tag_379:\n        /* \"#utility.yul\":12846:13104   */\n      pop\n      pop\n      pop\n      pop\n      jump\t// out\n        /* \"#utility.yul\":13110:13430   */\n    tag_105:\n      0x00\n        /* \"#utility.yul\":13191:13192   */\n      0x02\n        /* \"#utility.yul\":13185:13189   */\n      dup3\n        /* \"#utility.yul\":13181:13193   */\n      div\n        /* \"#utility.yul\":13171:13193   */\n      swap1\n      pop\n        /* \"#utility.yul\":13238:13239   */\n      0x01\n        /* \"#utility.yul\":13232:13236   */\n      dup3\n        /* \"#utility.yul\":13228:13240   */\n      and\n        /* \"#utility.yul\":13259:13277   */\n      dup1\n        /* \"#utility.yul\":13249:13251   */\n      tag_381\n      jumpi\n        /* \"#utility.yul\":13315:13319   */\n      0x7f\n        /* \"#utility.yul\":13307:13313   */\n      dup3\n        /* \"#utility.yul\":13303:13320   */\n      and\n        /* \"#utility.yul\":13293:13320   */\n      swap2\n      pop\n        /* \"#utility.yul\":13249:13251   */\n    tag_381:\n        /* \"#utility.yul\":13377:13379   */\n      0x20\n        /* \"#utility.yul\":13369:13375   */\n      dup3\n        /* \"#utility.yul\":13366:13380   */\n      lt\n        /* \"#utility.yul\":13346:13364   */\n      dup2\n        /* \"#utility.yul\":13343:13381   */\n      eq\n        /* \"#utility.yul\":13340:13342   */\n      iszero\n      tag_382\n      jumpi\n        /* \"#utility.yul\":13396:13414   */\n      tag_383\n      tag_384\n      jump\t// in\n    tag_383:\n        /* \"#utility.yul\":13340:13342   */\n    tag_382:\n        /* \"#utility.yul\":13161:13430   */\n      pop\n      swap2\n      swap1\n      pop\n      jump\t// out\n        /* \"#utility.yul\":13436:13616   */\n    tag_362:\n        /* \"#utility.yul\":13484:13561   */\n      0x4e487b7100000000000000000000000000000000000000000000000000000000\n        /* \"#utility.yul\":13481:13482   */\n      0x00\n        /* \"#utility.yul\":13474:13562   */\n      mstore\n        /* \"#utility.yul\":13581:13585   */\n      0x11\n        /* \"#utility.yul\":13578:13579   */\n      0x04\n        /* \"#utility.yul\":13571:13586   */\n      mstore\n        /* \"#utility.yul\":13605:13609   */\n      0x24\n        /* \"#utility.yul\":13602:13603   */\n      0x00\n        /* \"#utility.yul\":13595:13610   */\n      revert\n        /* \"#utility.yul\":13622:13802   */\n    tag_384:\n        /* \"#utility.yul\":13670:13747   */\n      0x4e487b7100000000000000000000000000000000000000000000000000000000\n        /* \"#utility.yul\":13667:13668   */\n      0x00\n        /* \"#utility.yul\":13660:13748   */\n      mstore\n        /* \"#utility.yul\":13767:13771   */\n      0x22\n        /* \"#utility.yul\":13764:13765   */\n      0x04\n        /* \"#utility.yul\":13757:13772   */\n      mstore\n        /* \"#utility.yul\":13791:13795   */\n      0x24\n        /* \"#utility.yul\":13788:13789   */\n      0x00\n        /* \"#utility.yul\":13781:13796   */\n      revert\n        /* \"#utility.yul\":13808:13910   */\n    tag_288:\n      0x00\n        /* \"#utility.yul\":13900:13902   */\n      0x1f\n        /* \"#utility.yul\":13896:13903   */\n      not\n        /* \"#utility.yul\":13891:13893   */\n      0x1f\n        /* \"#utility.yul\":13884:13889   */\n      dup4\n        /* \"#utility.yul\":13880:13894   */\n      add\n        /* \"#utility.yul\":13876:13904   */\n      and\n        /* \"#utility.yul\":13866:13904   */\n      swap1\n      pop\n        /* \"#utility.yul\":13856:13910   */\n      swap2\n      swap1\n      pop\n      jump\t// out\n        /* \"#utility.yul\":13916:14038   */\n    tag_247:\n        /* \"#utility.yul\":13989:14013   */\n      tag_389\n        /* \"#utility.yul\":14007:14012   */\n      dup2\n        /* \"#utility.yul\":13989:14013   */\n      tag_274\n      jump\t// in\n    tag_389:\n        /* \"#utility.yul\":13982:13987   */\n      dup2\n        /* \"#utility.yul\":13979:14014   */\n      eq\n        /* \"#utility.yul\":13969:13971   */\n      tag_390\n      jumpi\n        /* \"#utility.yul\":14028:14029   */\n      0x00\n        /* \"#utility.yul\":14025:14026   */\n      dup1\n        /* \"#utility.yul\":14018:14030   */\n      revert\n        /* \"#utility.yul\":13969:13971   */\n    tag_390:\n        /* \"#utility.yul\":13959:14038   */\n      pop\n      jump\t// out\n        /* \"#utility.yul\":14044:14166   */\n    tag_251:\n        /* \"#utility.yul\":14117:14141   */\n      tag_392\n        /* \"#utility.yul\":14135:14140   */\n      dup2\n        /* \"#utility.yul\":14117:14141   */\n      tag_319\n      jump\t// in\n    tag_392:\n        /* \"#utility.yul\":14110:14115   */\n      dup2\n        /* \"#utility.yul\":14107:14142   */\n      eq\n        /* \"#utility.yul\":14097:14099   */\n      tag_393\n      jumpi\n        /* \"#utility.yul\":14156:14157   */\n      0x00\n        /* \"#utility.yul\":14153:14154   */\n      dup1\n        /* \"#utility.yul\":14146:14158   */\n      revert\n        /* \"#utility.yul\":14097:14099   */\n    tag_393:\n        /* \"#utility.yul\":14087:14166   */\n      pop\n      jump\t// out\n\n    auxdata: 0xa264697066735822122031ade412aa23fc67acc7ed9e23cb23d4b0ecd9254060e183b210ed74cfa311cf64736f6c63430008000033\n}\n",
				"bytecode": {
					"linkReferences": {},
					"object": "60806040523480156200001157600080fd5b5060405162002d4838038062002d48833981810160405281019062000037919062000272565b600160008190555033600160006101000a81548173ffffffffffffffffffffffffffffffffffffffff021916908373ffffffffffffffffffffffffffffffffffffffff16021790555082600390805190602001906200009892919062000122565b508360029080519060200190620000b192919062000122565b5081600460006101000a81548160ff021916908360ff1602179055508060058190555080600660003373ffffffffffffffffffffffffffffffffffffffff1673ffffffffffffffffffffffffffffffffffffffff16815260200190815260200160002081905550505050506200048c565b8280546200013090620003c4565b90600052602060002090601f016020900481019282620001545760008555620001a0565b82601f106200016f57805160ff1916838001178555620001a0565b82800160010185558215620001a0579182015b828111156200019f57825182559160200191906001019062000182565b5b509050620001af9190620001b3565b5090565b5b80821115620001ce576000816000905550600101620001b4565b5090565b6000620001e9620001e38462000344565b62000310565b9050828152602081018484840111156200020257600080fd5b6200020f8482856200038e565b509392505050565b600082601f8301126200022957600080fd5b81516200023b848260208601620001d2565b91505092915050565b600081519050620002558162000458565b92915050565b6000815190506200026c8162000472565b92915050565b600080600080608085870312156200028957600080fd5b600085015167ffffffffffffffff811115620002a457600080fd5b620002b28782880162000217565b945050602085015167ffffffffffffffff811115620002d057600080fd5b620002de8782880162000217565b9350506040620002f1878288016200025b565b9250506060620003048782880162000244565b91505092959194509250565b6000604051905081810181811067ffffffffffffffff821117156200033a576200033962000429565b5b8060405250919050565b600067ffffffffffffffff82111562000362576200036162000429565b5b601f19601f8301169050602081019050919050565b6000819050919050565b600060ff82169050919050565b60005b83811015620003ae57808201518184015260208101905062000391565b83811115620003be576000848401525b50505050565b60006002820490506001821680620003dd57607f821691505b60208210811415620003f457620003f3620003fa565b5b50919050565b7f4e487b7100000000000000000000000000000000000000000000000000000000600052602260045260246000fd5b7f4e487b7100000000000000000000000000000000000000000000000000000000600052604160045260246000fd5b620004638162000377565b81146200046f57600080fd5b50565b6200047d8162000381565b81146200048957600080fd5b50565b6128ac806200049c6000396000f3fe608060405234801561001057600080fd5b506004361061012c5760003560e01c806370a08231116100ad578063a9059cbb11610071578063a9059cbb14610349578063ce606ee014610379578063d73dd62314610397578063dd62ed3e146103c7578063f2fde38b146103f75761012c565b806370a08231146102a357806379cc6790146102d35780638456cb59146103035780638f32d59b1461030d57806395d89b411461032b5761012c565b80633f4ba83a116100f45780633f4ba83a146101eb57806342966c68146101f5578063449a52f8146102255780635c975abb1461025557806366188463146102735761012c565b806306fdde0314610131578063095ea7b31461014f57806318160ddd1461017f57806323b872dd1461019d578063313ce567146101cd575b600080fd5b610139610413565b6040516101469190612501565b60405180910390f35b6101696004803603810190610164919061213c565b6104a1565b60405161017691906124e6565b60405180910390f35b6101876105e3565b6040516101949190612643565b60405180910390f35b6101b760048036038101906101b291906120ed565b6105e9565b6040516101c491906124e6565b60405180910390f35b6101d5610af0565b6040516101e2919061265e565b60405180910390f35b6101f3610b03565b005b61020f600480360381019061020a9190612178565b610bed565b60405161021c91906124e6565b60405180910390f35b61023f600480360381019061023a919061213c565b610dd2565b60405161024c91906124e6565b60405180910390f35b61025d610fed565b60405161026a91906124e6565b60405180910390f35b61028d6004803603810190610288919061213c565b611004565b60405161029a91906124e6565b60405180910390f35b6102bd60048036038101906102b89190612088565b6112df565b6040516102ca9190612643565b60405180910390f35b6102ed60048036038101906102e8919061213c565b611328565b6040516102fa91906124e6565b60405180910390f35b61030b611745565b005b61031561182f565b60405161032291906124e6565b60405180910390f35b610333611887565b6040516103409190612501565b60405180910390f35b610363600480360381019061035e919061213c565b611915565b60405161037091906124e6565b60405180910390f35b610381611be4565b60405161038e91906124a2565b60405180910390f35b6103b160048036038101906103ac919061213c565b611c0e565b6040516103be91906124e6565b60405180910390f35b6103e160048036038101906103dc91906120b1565b611e53565b6040516103ee9190612643565b60405180910390f35b610411600480360381019061040c9190612088565b611f2a565b005b60028054610420906127a7565b80601f016020809104026020016040519081016040528092919081815260200182805461044c906127a7565b80156104995780601f1061046e57610100808354040283529160200191610499565b820191906000526020600020905b81548152906001019060200180831161047c57829003601f168201915b505050505081565b6000600160149054906101000a900460ff16156104f3576040517f08c379a00000000000000000000000000000000000000000000000000000000081526004016104ea906125a3565b60405180910390fd5b81600760003373ffffffffffffffffffffffffffffffffffffffff1673ffffffffffffffffffffffffffffffffffffffff16815260200190815260200160002060008573ffffffffffffffffffffffffffffffffffffffff1673ffffffffffffffffffffffffffffffffffffffff168152602001908152602001600020819055508273ffffffffffffffffffffffffffffffffffffffff163373ffffffffffffffffffffffffffffffffffffffff167f8c5be1e5ebec7d5bd14f71427d1e84f3dd0314c0f7b2291e5b200ac8c7c3b925846040516105d19190612643565b60405180910390a36001905092915050565b60055481565b6000600160149054906101000a900460ff161561063b576040517f08c379a0000000000000000000000000000000000000000000000000000000008152600401610632906125a3565b60405180910390fd5b600073ffffffffffffffffffffffffffffffffffffffff168473ffffffffffffffffffffffffffffffffffffffff1614156106ab576040517f08c379a00000000000000000000000000000000000000000000000000000000081526004016106a290612543565b60405180910390fd5b600073ffffffffffffffffffffffffffffffffffffffff168373ffffffffffffffffffffffffffffffffffffffff16141561071b576040517f08c379a000000000000000000000000000000000000000000000000000000000815260040161071290612583565b60405180910390fd5b600660008573ffffffffffffffffffffffffffffffffffffffff1673ffffffffffffffffffffffffffffffffffffffff1681526020019081526020016000205482111561079d576040517f08c379a000000000000000000000000000000000000000000000000000000000815260040161079490612563565b60405180910390fd5b600760008573ffffffffffffffffffffffffffffffffffffffff1673ffffffffffffffffffffffffffffffffffffffff16815260200190815260200160002060003373ffffffffffffffffffffffffffffffffffffffff1673ffffffffffffffffffffffffffffffffffffffff1681526020019081526020016000205482111561085c576040517f08c379a0000000000000000000000000000000000000000000000000000000008152600401610853906125c3565b60405180910390fd5b81600760008673ffffffffffffffffffffffffffffffffffffffff1673ffffffffffffffffffffffffffffffffffffffff16815260200190815260200160002060003373ffffffffffffffffffffffffffffffffffffffff1673ffffffffffffffffffffffffffffffffffffffff168152602001908152602001600020546108e491906126eb565b600760008673ffffffffffffffffffffffffffffffffffffffff1673ffffffffffffffffffffffffffffffffffffffff16815260200190815260200160002060003373ffffffffffffffffffffffffffffffffffffffff1673ffffffffffffffffffffffffffffffffffffffff1681526020019081526020016000208190555081600660008673ffffffffffffffffffffffffffffffffffffffff1673ffffffffffffffffffffffffffffffffffffffff168152602001908152602001600020546109af91906126eb565b600660008673ffffffffffffffffffffffffffffffffffffffff1673ffffffffffffffffffffffffffffffffffffffff1681526020019081526020016000208190555081600660008573ffffffffffffffffffffffffffffffffffffffff1673ffffffffffffffffffffffffffffffffffffffff16815260200190815260200160002054610a3d9190612695565b600660008573ffffffffffffffffffffffffffffffffffffffff1673ffffffffffffffffffffffffffffffffffffffff168152602001908152602001600020819055508273ffffffffffffffffffffffffffffffffffffffff168473ffffffffffffffffffffffffffffffffffffffff167fddf252ad1be2c89b69c2b068fc378daa952ba7f163c4a11628f55a4df523b3ef84604051610add9190612643565b60405180910390a3600190509392505050565b600460009054906101000a900460ff1681565b610b0b61182f565b610b4a576040517f08c379a0000000000000000000000000000000000000000000000000000000008152600401610b4190612623565b60405180910390fd5b600160149054906101000a900460ff16610b99576040517f08c379a0000000000000000000000000000000000000000000000000000000008152600401610b9090612523565b60405180910390fd5b6000600160146101000a81548160ff0219169083151502179055507f5db9ee0a495bf2e6ff9c91a7834c1ba4fdd244a5e8aa4e537bd38aeae4b073aa33604051610be391906124a2565b60405180910390a1565b6000600160149054906101000a900460ff1615610c3f576040517f08c379a0000000000000000000000000000000000000000000000000000000008152600401610c36906125a3565b60405180910390fd5b81600660003373ffffffffffffffffffffffffffffffffffffffff1673ffffffffffffffffffffffffffffffffffffffff168152602001908152602001600020541015610cc1576040517f08c379a0000000000000000000000000000000000000000000000000000000008152600401610cb890612563565b60405180910390fd5b81600660003373ffffffffffffffffffffffffffffffffffffffff1673ffffffffffffffffffffffffffffffffffffffff16815260200190815260200160002054610d0c91906126eb565b600660003373ffffffffffffffffffffffffffffffffffffffff1673ffffffffffffffffffffffffffffffffffffffff1681526020019081526020016000208190555081600554610d5d91906126eb565b600581905550600073ffffffffffffffffffffffffffffffffffffffff163373ffffffffffffffffffffffffffffffffffffffff167fddf252ad1be2c89b69c2b068fc378daa952ba7f163c4a11628f55a4df523b3ef84604051610dc19190612643565b60405180910390a360019050919050565b6000600160149054906101000a900460ff1615610e24576040517f08c379a0000000000000000000000000000000000000000000000000000000008152600401610e1b906125a3565b60405180910390fd5b610e2c61182f565b610e6b576040517f08c379a0000000000000000000000000000000000000000000000000000000008152600401610e6290612623565b60405180910390fd5b600073ffffffffffffffffffffffffffffffffffffffff168373ffffffffffffffffffffffffffffffffffffffff161415610edb576040517f08c379a0000000000000000000000000000000000000000000000000000000008152600401610ed290612583565b60405180910390fd5b81600660008573ffffffffffffffffffffffffffffffffffffffff1673ffffffffffffffffffffffffffffffffffffffff16815260200190815260200160002054610f269190612695565b600660008573ffffffffffffffffffffffffffffffffffffffff1673ffffffffffffffffffffffffffffffffffffffff1681526020019081526020016000208190555081600554610f779190612695565b6005819055508273ffffffffffffffffffffffffffffffffffffffff16600073ffffffffffffffffffffffffffffffffffffffff167fddf252ad1be2c89b69c2b068fc378daa952ba7f163c4a11628f55a4df523b3ef84604051610fdb9190612643565b60405180910390a36001905092915050565b6000600160149054906101000a900460ff16905090565b6000600160149054906101000a900460ff1615611056576040517f08c379a000000000000000000000000000000000000000000000000000000000815260040161104d906125a3565b60405180910390fd5b6000600760003373ffffffffffffffffffffffffffffffffffffffff1673ffffffffffffffffffffffffffffffffffffffff16815260200190815260200160002060008573ffffffffffffffffffffffffffffffffffffffff1673ffffffffffffffffffffffffffffffffffffffff16815260200190815260200160002054905080831115611166576000600760003373ffffffffffffffffffffffffffffffffffffffff1673ffffffffffffffffffffffffffffffffffffffff16815260200190815260200160002060008673ffffffffffffffffffffffffffffffffffffffff1673ffffffffffffffffffffffffffffffffffffffff168152602001908152602001600020819055506111f3565b828161117291906126eb565b600760003373ffffffffffffffffffffffffffffffffffffffff1673ffffffffffffffffffffffffffffffffffffffff16815260200190815260200160002060008673ffffffffffffffffffffffffffffffffffffffff1673ffffffffffffffffffffffffffffffffffffffff168152602001908152602001600020819055505b8373ffffffffffffffffffffffffffffffffffffffff163373ffffffffffffffffffffffffffffffffffffffff167f8c5be1e5ebec7d5bd14f71427d1e84f3dd0314c0f7b2291e5b200ac8c7c3b925600760003373ffffffffffffffffffffffffffffffffffffffff1673ffffffffffffffffffffffffffffffffffffffff16815260200190815260200160002060008873ffffffffffffffffffffffffffffffffffffffff1673ffffffffffffffffffffffffffffffffffffffff168152602001908152602001600020546040516112cc9190612643565b60405180910390a3600191505092915050565b6000600660008373ffffffffffffffffffffffffffffffffffffffff1673ffffffffffffffffffffffffffffffffffffffff168152602001908152602001600020549050919050565b6000600160149054906101000a900460ff161561137a576040517f08c379a0000000000000000000000000000000000000000000000000000000008152600401611371906125a3565b60405180910390fd5b600073ffffffffffffffffffffffffffffffffffffffff168373ffffffffffffffffffffffffffffffffffffffff1614156113ea576040517f08c379a00000000000000000000000000000000000000000000000000000000081526004016113e190612543565b60405180910390fd5b81600660008573ffffffffffffffffffffffffffffffffffffffff1673ffffffffffffffffffffffffffffffffffffffff16815260200190815260200160002054101561146c576040517f08c379a000000000000000000000000000000000000000000000000000000000815260040161146390612563565b60405180910390fd5b600760008473ffffffffffffffffffffffffffffffffffffffff1673ffffffffffffffffffffffffffffffffffffffff16815260200190815260200160002060003373ffffffffffffffffffffffffffffffffffffffff1673ffffffffffffffffffffffffffffffffffffffff1681526020019081526020016000205482111561152b576040517f08c379a0000000000000000000000000000000000000000000000000000000008152600401611522906125e3565b60405180910390fd5b81600760008573ffffffffffffffffffffffffffffffffffffffff1673ffffffffffffffffffffffffffffffffffffffff16815260200190815260200160002060003373ffffffffffffffffffffffffffffffffffffffff1673ffffffffffffffffffffffffffffffffffffffff168152602001908152602001600020546115b391906126eb565b600760008573ffffffffffffffffffffffffffffffffffffffff1673ffffffffffffffffffffffffffffffffffffffff16815260200190815260200160002060003373ffffffffffffffffffffffffffffffffffffffff1673ffffffffffffffffffffffffffffffffffffffff1681526020019081526020016000208190555081600660008573ffffffffffffffffffffffffffffffffffffffff1673ffffffffffffffffffffffffffffffffffffffff1681526020019081526020016000205461167e91906126eb565b600660008573ffffffffffffffffffffffffffffffffffffffff1673ffffffffffffffffffffffffffffffffffffffff16815260200190815260200160002081905550816005546116cf91906126eb565b600581905550600073ffffffffffffffffffffffffffffffffffffffff168373ffffffffffffffffffffffffffffffffffffffff167fddf252ad1be2c89b69c2b068fc378daa952ba7f163c4a11628f55a4df523b3ef846040516117339190612643565b60405180910390a36001905092915050565b61174d61182f565b61178c576040517f08c379a000000000000000000000000000000000000000000000000000000000815260040161178390612623565b60405180910390fd5b600160149054906101000a900460ff16156117dc576040517f08c379a00000000000000000000000000000000000000000000000000000000081526004016117d3906125a3565b60405180910390fd5b60018060146101000a81548160ff0219169083151502179055507f62e78cea01bee320cd4e420270b5ea74000d11b0c9f74754ebdbfc544b05a2583360405161182591906124a2565b60405180910390a1565b6000600160009054906101000a900473ffffffffffffffffffffffffffffffffffffffff1673ffffffffffffffffffffffffffffffffffffffff163373ffffffffffffffffffffffffffffffffffffffff1614905090565b60038054611894906127a7565b80601f01602080910402602001604051908101604052809291908181526020018280546118c0906127a7565b801561190d5780601f106118e25761010080835404028352916020019161190d565b820191906000526020600020905b8154815290600101906020018083116118f057829003601f168201915b505050505081565b6000600160149054906101000a900460ff1615611967576040517f08c379a000000000000000000000000000000000000000000000000000000000815260040161195e906125a3565b60405180910390fd5b600073ffffffffffffffffffffffffffffffffffffffff168373ffffffffffffffffffffffffffffffffffffffff1614156119d7576040517f08c379a00000000000000000000000000000000000000000000000000000000081526004016119ce90612583565b60405180910390fd5b600660003373ffffffffffffffffffffffffffffffffffffffff1673ffffffffffffffffffffffffffffffffffffffff16815260200190815260200160002054821115611a59576040517f08c379a0000000000000000000000000000000000000000000000000000000008152600401611a5090612563565b60405180910390fd5b81600660003373ffffffffffffffffffffffffffffffffffffffff1673ffffffffffffffffffffffffffffffffffffffff16815260200190815260200160002054611aa491906126eb565b600660003373ffffffffffffffffffffffffffffffffffffffff1673ffffffffffffffffffffffffffffffffffffffff1681526020019081526020016000208190555081600660008573ffffffffffffffffffffffffffffffffffffffff1673ffffffffffffffffffffffffffffffffffffffff16815260200190815260200160002054611b329190612695565b600660008573ffffffffffffffffffffffffffffffffffffffff1673ffffffffffffffffffffffffffffffffffffffff168152602001908152602001600020819055508273ffffffffffffffffffffffffffffffffffffffff163373ffffffffffffffffffffffffffffffffffffffff167fddf252ad1be2c89b69c2b068fc378daa952ba7f163c4a11628f55a4df523b3ef84604051611bd29190612643565b60405180910390a36001905092915050565b6000600160009054906101000a900473ffffffffffffffffffffffffffffffffffffffff16905090565b6000600160149054906101000a900460ff1615611c60576040517f08c379a0000000000000000000000000000000000000000000000000000000008152600401611c57906125a3565b60405180910390fd5b81600760003373ffffffffffffffffffffffffffffffffffffffff1673ffffffffffffffffffffffffffffffffffffffff16815260200190815260200160002060008573ffffffffffffffffffffffffffffffffffffffff1673ffffffffffffffffffffffffffffffffffffffff16815260200190815260200160002054611ce89190612695565b600760003373ffffffffffffffffffffffffffffffffffffffff1673ffffffffffffffffffffffffffffffffffffffff16815260200190815260200160002060008573ffffffffffffffffffffffffffffffffffffffff1673ffffffffffffffffffffffffffffffffffffffff168152602001908152602001600020819055508273ffffffffffffffffffffffffffffffffffffffff163373ffffffffffffffffffffffffffffffffffffffff167f8c5be1e5ebec7d5bd14f71427d1e84f3dd0314c0f7b2291e5b200ac8c7c3b925600760003373ffffffffffffffffffffffffffffffffffffffff1673ffffffffffffffffffffffffffffffffffffffff16815260200190815260200160002060008773ffffffffffffffffffffffffffffffffffffffff1673ffffffffffffffffffffffffffffffffffffffff16815260200190815260200160002054604051611e419190612643565b60405180910390a36001905092915050565b6000600160149054906101000a900460ff1615611ea5576040517f08c379a0000000000000000000000000000000000000000000000000000000008152600401611e9c906125a3565b60405180910390fd5b600760008473ffffffffffffffffffffffffffffffffffffffff1673ffffffffffffffffffffffffffffffffffffffff16815260200190815260200160002060008373ffffffffffffffffffffffffffffffffffffffff1673ffffffffffffffffffffffffffffffffffffffff16815260200190815260200160002054905092915050565b611f3261182f565b611f71576040517f08c379a0000000000000000000000000000000000000000000000000000000008152600401611f6890612623565b60405180910390fd5b600073ffffffffffffffffffffffffffffffffffffffff168173ffffffffffffffffffffffffffffffffffffffff161415611fe1576040517f08c379a0000000000000000000000000000000000000000000000000000000008152600401611fd890612603565b60405180910390fd5b80600160006101000a81548173ffffffffffffffffffffffffffffffffffffffff021916908373ffffffffffffffffffffffffffffffffffffffff1602179055507f70aea8d848e8a90fb7661b227dc522eb6395c3dac71b63cb59edd5c9899b236433826040516120539291906124bd565b60405180910390a150565b60008135905061206d81612848565b92915050565b6000813590506120828161285f565b92915050565b60006020828403121561209a57600080fd5b60006120a88482850161205e565b91505092915050565b600080604083850312156120c457600080fd5b60006120d28582860161205e565b92505060206120e38582860161205e565b9150509250929050565b60008060006060848603121561210257600080fd5b60006121108682870161205e565b93505060206121218682870161205e565b925050604061213286828701612073565b9150509250925092565b6000806040838503121561214f57600080fd5b600061215d8582860161205e565b925050602061216e85828601612073565b9150509250929050565b60006020828403121561218a57600080fd5b600061219884828501612073565b91505092915050565b6121aa8161271f565b82525050565b6121b981612731565b82525050565b60006121ca82612679565b6121d48185612684565b93506121e4818560208601612774565b6121ed81612837565b840191505092915050565b6000612205601483612684565b91507f5061757361626c653a206e6f74207061757365640000000000000000000000006000830152602082019050919050565b6000612245602083612684565b91507f45524332303a2066726f6d2061646472657373206973206e6f742076616c69646000830152602082019050919050565b6000612285601b83612684565b91507f45524332303a20696e73756666696369656e742062616c616e636500000000006000830152602082019050919050565b60006122c5601e83612684565b91507f45524332303a20746f2061646472657373206973206e6f742076616c696400006000830152602082019050919050565b6000612305601083612684565b91507f5061757361626c653a20706175736564000000000000000000000000000000006000830152602082019050919050565b6000612345602683612684565b91507f45524332303a207472616e736665722066726f6d2076616c7565206e6f74206160008301527f6c6c6f77656400000000000000000000000000000000000000000000000000006020830152604082019050919050565b60006123ab602283612684565b91507f45524332303a206275726e2066726f6d2076616c7565206e6f7420616c6c6f7760008301527f65640000000000000000000000000000000000000000000000000000000000006020830152604082019050919050565b6000612411601d83612684565b91507f4f776e61626c653a2061646472657373206973206e6f742076616c69640000006000830152602082019050919050565b6000612451602083612684565b91507f4f776e61626c653a2063616c6c6572206973206e6f7420746865206f776e65726000830152602082019050919050565b61248d8161275d565b82525050565b61249c81612767565b82525050565b60006020820190506124b760008301846121a1565b92915050565b60006040820190506124d260008301856121a1565b6124df60208301846121a1565b9392505050565b60006020820190506124fb60008301846121b0565b92915050565b6000602082019050818103600083015261251b81846121bf565b905092915050565b6000602082019050818103600083015261253c816121f8565b9050919050565b6000602082019050818103600083015261255c81612238565b9050919050565b6000602082019050818103600083015261257c81612278565b9050919050565b6000602082019050818103600083015261259c816122b8565b9050919050565b600060208201905081810360008301526125bc816122f8565b9050919050565b600060208201905081810360008301526125dc81612338565b9050919050565b600060208201905081810360008301526125fc8161239e565b9050919050565b6000602082019050818103600083015261261c81612404565b9050919050565b6000602082019050818103600083015261263c81612444565b9050919050565b60006020820190506126586000830184612484565b92915050565b60006020820190506126736000830184612493565b92915050565b600081519050919050565b600082825260208201905092915050565b60006126a08261275d565b91506126ab8361275d565b9250827fffffffffffffffffffffffffffffffffffffffffffffffffffffffffffffffff038211156126e0576126df6127d9565b5b828201905092915050565b60006126f68261275d565b91506127018361275d565b925082821015612714576127136127d9565b5b828203905092915050565b600061272a8261273d565b9050919050565b60008115159050919050565b600073ffffffffffffffffffffffffffffffffffffffff82169050919050565b6000819050919050565b600060ff82169050919050565b60005b83811015612792578082015181840152602081019050612777565b838111156127a1576000848401525b50505050565b600060028204905060018216806127bf57607f821691505b602082108114156127d3576127d2612808565b5b50919050565b7f4e487b7100000000000000000000000000000000000000000000000000000000600052601160045260246000fd5b7f4e487b7100000000000000000000000000000000000000000000000000000000600052602260045260246000fd5b6000601f19601f8301169050919050565b6128518161271f565b811461285c57600080fd5b50565b6128688161275d565b811461287357600080fd5b5056fea264697066735822122031ade412aa23fc67acc7ed9e23cb23d4b0ecd9254060e183b210ed74cfa311cf64736f6c63430008000033",
					"opcodes": "PUSH1 0x80 PUSH1 0x40 MSTORE CALLVALUE DUP1 ISZERO PUSH3 0x11 JUMPI PUSH1 0x0 DUP1 REVERT JUMPDEST POP PUSH1 0x40 MLOAD PUSH3 0x2D48 CODESIZE SUB DUP1 PUSH3 0x2D48 DUP4 CODECOPY DUP2 DUP2 ADD PUSH1 0x40 MSTORE DUP2 ADD SWAP1 PUSH3 0x37 SWAP2 SWAP1 PUSH3 0x272 JUMP JUMPDEST PUSH1 0x1 PUSH1 0x0 DUP2 SWAP1 SSTORE POP CALLER PUSH1 0x1 PUSH1 0x0 PUSH2 0x100 EXP DUP2 SLOAD DUP2 PUSH20 0xFFFFFFFFFFFFFFFFFFFFFFFFFFFFFFFFFFFFFFFF MUL NOT AND SWAP1 DUP4 PUSH20 0xFFFFFFFFFFFFFFFFFFFFFFFFFFFFFFFFFFFFFFFF AND MUL OR SWAP1 SSTORE POP DUP3 PUSH1 0x3 SWAP1 DUP1 MLOAD SWAP1 PUSH1 0x20 ADD SWAP1 PUSH3 0x98 SWAP3 SWAP2 SWAP1 PUSH3 0x122 JUMP JUMPDEST POP DUP4 PUSH1 0x2 SWAP1 DUP1 MLOAD SWAP1 PUSH1 0x20 ADD SWAP1 PUSH3 0xB1 SWAP3 SWAP2 SWAP1 PUSH3 0x122 JUMP JUMPDEST POP DUP2 PUSH1 0x4 PUSH1 0x0 PUSH2 0x100 EXP DUP2 SLOAD DUP2 PUSH1 0xFF MUL NOT AND SWAP1 DUP4 PUSH1 0xFF AND MUL OR SWAP1 SSTORE POP DUP1 PUSH1 0x5 DUP2 SWAP1 SSTORE POP DUP1 PUSH1 0x6 PUSH1 0x0 CALLER PUSH20 0xFFFFFFFFFFFFFFFFFFFFFFFFFFFFFFFFFFFFFFFF AND PUSH20 0xFFFFFFFFFFFFFFFFFFFFFFFFFFFFFFFFFFFFFFFF AND DUP2 MSTORE PUSH1 0x20 ADD SWAP1 DUP2 MSTORE PUSH1 0x20 ADD PUSH1 0x0 KECCAK256 DUP2 SWAP1 SSTORE POP POP POP POP POP PUSH3 0x48C JUMP JUMPDEST DUP3 DUP1 SLOAD PUSH3 0x130 SWAP1 PUSH3 0x3C4 JUMP JUMPDEST SWAP1 PUSH1 0x0 MSTORE PUSH1 0x20 PUSH1 0x0 KECCAK256 SWAP1 PUSH1 0x1F ADD PUSH1 0x20 SWAP1 DIV DUP2 ADD SWAP3 DUP3 PUSH3 0x154 JUMPI PUSH1 0x0 DUP6 SSTORE PUSH3 0x1A0 JUMP JUMPDEST DUP3 PUSH1 0x1F LT PUSH3 0x16F JUMPI DUP1 MLOAD PUSH1 0xFF NOT AND DUP4 DUP1 ADD OR DUP6 SSTORE PUSH3 0x1A0 JUMP JUMPDEST DUP3 DUP1 ADD PUSH1 0x1 ADD DUP6 SSTORE DUP3 ISZERO PUSH3 0x1A0 JUMPI SWAP2 DUP3 ADD JUMPDEST DUP3 DUP2 GT ISZERO PUSH3 0x19F JUMPI DUP3 MLOAD DUP3 SSTORE SWAP2 PUSH1 0x20 ADD SWAP2 SWAP1 PUSH1 0x1 ADD SWAP1 PUSH3 0x182 JUMP JUMPDEST JUMPDEST POP SWAP1 POP PUSH3 0x1AF SWAP2 SWAP1 PUSH3 0x1B3 JUMP JUMPDEST POP SWAP1 JUMP JUMPDEST JUMPDEST DUP1 DUP3 GT ISZERO PUSH3 0x1CE JUMPI PUSH1 0x0 DUP2 PUSH1 0x0 SWAP1 SSTORE POP PUSH1 0x1 ADD PUSH3 0x1B4 JUMP JUMPDEST POP SWAP1 JUMP JUMPDEST PUSH1 0x0 PUSH3 0x1E9 PUSH3 0x1E3 DUP5 PUSH3 0x344 JUMP JUMPDEST PUSH3 0x310 JUMP JUMPDEST SWAP1 POP DUP3 DUP2 MSTORE PUSH1 0x20 DUP2 ADD DUP5 DUP5 DUP5 ADD GT ISZERO PUSH3 0x202 JUMPI PUSH1 0x0 DUP1 REVERT JUMPDEST PUSH3 0x20F DUP5 DUP3 DUP6 PUSH3 0x38E JUMP JUMPDEST POP SWAP4 SWAP3 POP POP POP JUMP JUMPDEST PUSH1 0x0 DUP3 PUSH1 0x1F DUP4 ADD SLT PUSH3 0x229 JUMPI PUSH1 0x0 DUP1 REVERT JUMPDEST DUP2 MLOAD PUSH3 0x23B DUP5 DUP3 PUSH1 0x20 DUP7 ADD PUSH3 0x1D2 JUMP JUMPDEST SWAP2 POP POP SWAP3 SWAP2 POP POP JUMP JUMPDEST PUSH1 0x0 DUP2 MLOAD SWAP1 POP PUSH3 0x255 DUP2 PUSH3 0x458 JUMP JUMPDEST SWAP3 SWAP2 POP POP JUMP JUMPDEST PUSH1 0x0 DUP2 MLOAD SWAP1 POP PUSH3 0x26C DUP2 PUSH3 0x472 JUMP JUMPDEST SWAP3 SWAP2 POP POP JUMP JUMPDEST PUSH1 0x0 DUP1 PUSH1 0x0 DUP1 PUSH1 0x80 DUP6 DUP8 SUB SLT ISZERO PUSH3 0x289 JUMPI PUSH1 0x0 DUP1 REVERT JUMPDEST PUSH1 0x0 DUP6 ADD MLOAD PUSH8 0xFFFFFFFFFFFFFFFF DUP2 GT ISZERO PUSH3 0x2A4 JUMPI PUSH1 0x0 DUP1 REVERT JUMPDEST PUSH3 0x2B2 DUP8 DUP3 DUP9 ADD PUSH3 0x217 JUMP JUMPDEST SWAP5 POP POP PUSH1 0x20 DUP6 ADD MLOAD PUSH8 0xFFFFFFFFFFFFFFFF DUP2 GT ISZERO PUSH3 0x2D0 JUMPI PUSH1 0x0 DUP1 REVERT JUMPDEST PUSH3 0x2DE DUP8 DUP3 DUP9 ADD PUSH3 0x217 JUMP JUMPDEST SWAP4 POP POP PUSH1 0x40 PUSH3 0x2F1 DUP8 DUP3 DUP9 ADD PUSH3 0x25B JUMP JUMPDEST SWAP3 POP POP PUSH1 0x60 PUSH3 0x304 DUP8 DUP3 DUP9 ADD PUSH3 0x244 JUMP JUMPDEST SWAP2 POP POP SWAP3 SWAP6 SWAP2 SWAP5 POP SWAP3 POP JUMP JUMPDEST PUSH1 0x0 PUSH1 0x40 MLOAD SWAP1 POP DUP2 DUP2 ADD DUP2 DUP2 LT PUSH8 0xFFFFFFFFFFFFFFFF DUP3 GT OR ISZERO PUSH3 0x33A JUMPI PUSH3 0x339 PUSH3 0x429 JUMP JUMPDEST JUMPDEST DUP1 PUSH1 0x40 MSTORE POP SWAP2 SWAP1 POP JUMP JUMPDEST PUSH1 0x0 PUSH8 0xFFFFFFFFFFFFFFFF DUP3 GT ISZERO PUSH3 0x362 JUMPI PUSH3 0x361 PUSH3 0x429 JUMP JUMPDEST JUMPDEST PUSH1 0x1F NOT PUSH1 0x1F DUP4 ADD AND SWAP1 POP PUSH1 0x20 DUP2 ADD SWAP1 POP SWAP2 SWAP1 POP JUMP JUMPDEST PUSH1 0x0 DUP2 SWAP1 POP SWAP2 SWAP1 POP JUMP JUMPDEST PUSH1 0x0 PUSH1 0xFF DUP3 AND SWAP1 POP SWAP2 SWAP1 POP JUMP JUMPDEST PUSH1 0x0 JUMPDEST DUP4 DUP2 LT ISZERO PUSH3 0x3AE JUMPI DUP1 DUP3 ADD MLOAD DUP2 DUP5 ADD MSTORE PUSH1 0x20 DUP2 ADD SWAP1 POP PUSH3 0x391 JUMP JUMPDEST DUP4 DUP2 GT ISZERO PUSH3 0x3BE JUMPI PUSH1 0x0 DUP5 DUP5 ADD MSTORE JUMPDEST POP POP POP POP JUMP JUMPDEST PUSH1 0x0 PUSH1 0x2 DUP3 DIV SWAP1 POP PUSH1 0x1 DUP3 AND DUP1 PUSH3 0x3DD JUMPI PUSH1 0x7F DUP3 AND SWAP2 POP JUMPDEST PUSH1 0x20 DUP3 LT DUP2 EQ ISZERO PUSH3 0x3F4 JUMPI PUSH3 0x3F3 PUSH3 0x3FA JUMP JUMPDEST JUMPDEST POP SWAP2 SWAP1 POP JUMP JUMPDEST PUSH32 0x4E487B7100000000000000000000000000000000000000000000000000000000 PUSH1 0x0 MSTORE PUSH1 0x22 PUSH1 0x4 MSTORE PUSH1 0x24 PUSH1 0x0 REVERT JUMPDEST PUSH32 0x4E487B7100000000000000000000000000000000000000000000000000000000 PUSH1 0x0 MSTORE PUSH1 0x41 PUSH1 0x4 MSTORE PUSH1 0x24 PUSH1 0x0 REVERT JUMPDEST PUSH3 0x463 DUP2 PUSH3 0x377 JUMP JUMPDEST DUP2 EQ PUSH3 0x46F JUMPI PUSH1 0x0 DUP1 REVERT JUMPDEST POP JUMP JUMPDEST PUSH3 0x47D DUP2 PUSH3 0x381 JUMP JUMPDEST DUP2 EQ PUSH3 0x489 JUMPI PUSH1 0x0 DUP1 REVERT JUMPDEST POP JUMP JUMPDEST PUSH2 0x28AC DUP1 PUSH3 0x49C PUSH1 0x0 CODECOPY PUSH1 0x0 RETURN INVALID PUSH1 0x80 PUSH1 0x40 MSTORE CALLVALUE DUP1 ISZERO PUSH2 0x10 JUMPI PUSH1 0x0 DUP1 REVERT JUMPDEST POP PUSH1 0x4 CALLDATASIZE LT PUSH2 0x12C JUMPI PUSH1 0x0 CALLDATALOAD PUSH1 0xE0 SHR DUP1 PUSH4 0x70A08231 GT PUSH2 0xAD JUMPI DUP1 PUSH4 0xA9059CBB GT PUSH2 0x71 JUMPI DUP1 PUSH4 0xA9059CBB EQ PUSH2 0x349 JUMPI DUP1 PUSH4 0xCE606EE0 EQ PUSH2 0x379 JUMPI DUP1 PUSH4 0xD73DD623 EQ PUSH2 0x397 JUMPI DUP1 PUSH4 0xDD62ED3E EQ PUSH2 0x3C7 JUMPI DUP1 PUSH4 0xF2FDE38B EQ PUSH2 0x3F7 JUMPI PUSH2 0x12C JUMP JUMPDEST DUP1 PUSH4 0x70A08231 EQ PUSH2 0x2A3 JUMPI DUP1 PUSH4 0x79CC6790 EQ PUSH2 0x2D3 JUMPI DUP1 PUSH4 0x8456CB59 EQ PUSH2 0x303 JUMPI DUP1 PUSH4 0x8F32D59B EQ PUSH2 0x30D JUMPI DUP1 PUSH4 0x95D89B41 EQ PUSH2 0x32B JUMPI PUSH2 0x12C JUMP JUMPDEST DUP1 PUSH4 0x3F4BA83A GT PUSH2 0xF4 JUMPI DUP1 PUSH4 0x3F4BA83A EQ PUSH2 0x1EB JUMPI DUP1 PUSH4 0x42966C68 EQ PUSH2 0x1F5 JUMPI DUP1 PUSH4 0x449A52F8 EQ PUSH2 0x225 JUMPI DUP1 PUSH4 0x5C975ABB EQ PUSH2 0x255 JUMPI DUP1 PUSH4 0x66188463 EQ PUSH2 0x273 JUMPI PUSH2 0x12C JUMP JUMPDEST DUP1 PUSH4 0x6FDDE03 EQ PUSH2 0x131 JUMPI DUP1 PUSH4 0x95EA7B3 EQ PUSH2 0x14F JUMPI DUP1 PUSH4 0x18160DDD EQ PUSH2 0x17F JUMPI DUP1 PUSH4 0x23B872DD EQ PUSH2 0x19D JUMPI DUP1 PUSH4 0x313CE567 EQ PUSH2 0x1CD JUMPI JUMPDEST PUSH1 0x0 DUP1 REVERT JUMPDEST PUSH2 0x139 PUSH2 0x413 JUMP JUMPDEST PUSH1 0x40 MLOAD PUSH2 0x146 SWAP2 SWAP1 PUSH2 0x2501 JUMP JUMPDEST PUSH1 0x40 MLOAD DUP1 SWAP2 SUB SWAP1 RETURN JUMPDEST PUSH2 0x169 PUSH1 0x4 DUP1 CALLDATASIZE SUB DUP2 ADD SWAP1 PUSH2 0x164 SWAP2 SWAP1 PUSH2 0x213C JUMP JUMPDEST PUSH2 0x4A1 JUMP JUMPDEST PUSH1 0x40 MLOAD PUSH2 0x176 SWAP2 SWAP1 PUSH2 0x24E6 JUMP JUMPDEST PUSH1 0x40 MLOAD DUP1 SWAP2 SUB SWAP1 RETURN JUMPDEST PUSH2 0x187 PUSH2 0x5E3 JUMP JUMPDEST PUSH1 0x40 MLOAD PUSH2 0x194 SWAP2 SWAP1 PUSH2 0x2643 JUMP JUMPDEST PUSH1 0x40 MLOAD DUP1 SWAP2 SUB SWAP1 RETURN JUMPDEST PUSH2 0x1B7 PUSH1 0x4 DUP1 CALLDATASIZE SUB DUP2 ADD SWAP1 PUSH2 0x1B2 SWAP2 SWAP1 PUSH2 0x20ED JUMP JUMPDEST PUSH2 0x5E9 JUMP JUMPDEST PUSH1 0x40 MLOAD PUSH2 0x1C4 SWAP2 SWAP1 PUSH2 0x24E6 JUMP JUMPDEST PUSH1 0x40 MLOAD DUP1 SWAP2 SUB SWAP1 RETURN JUMPDEST PUSH2 0x1D5 PUSH2 0xAF0 JUMP JUMPDEST PUSH1 0x40 MLOAD PUSH2 0x1E2 SWAP2 SWAP1 PUSH2 0x265E JUMP JUMPDEST PUSH1 0x40 MLOAD DUP1 SWAP2 SUB SWAP1 RETURN JUMPDEST PUSH2 0x1F3 PUSH2 0xB03 JUMP JUMPDEST STOP JUMPDEST PUSH2 0x20F PUSH1 0x4 DUP1 CALLDATASIZE SUB DUP2 ADD SWAP1 PUSH2 0x20A SWAP2 SWAP1 PUSH2 0x2178 JUMP JUMPDEST PUSH2 0xBED JUMP JUMPDEST PUSH1 0x40 MLOAD PUSH2 0x21C SWAP2 SWAP1 PUSH2 0x24E6 JUMP JUMPDEST PUSH1 0x40 MLOAD DUP1 SWAP2 SUB SWAP1 RETURN JUMPDEST PUSH2 0x23F PUSH1 0x4 DUP1 CALLDATASIZE SUB DUP2 ADD SWAP1 PUSH2 0x23A SWAP2 SWAP1 PUSH2 0x213C JUMP JUMPDEST PUSH2 0xDD2 JUMP JUMPDEST PUSH1 0x40 MLOAD PUSH2 0x24C SWAP2 SWAP1 PUSH2 0x24E6 JUMP JUMPDEST PUSH1 0x40 MLOAD DUP1 SWAP2 SUB SWAP1 RETURN JUMPDEST PUSH2 0x25D PUSH2 0xFED JUMP JUMPDEST PUSH1 0x40 MLOAD PUSH2 0x26A SWAP2 SWAP1 PUSH2 0x24E6 JUMP JUMPDEST PUSH1 0x40 MLOAD DUP1 SWAP2 SUB SWAP1 RETURN JUMPDEST PUSH2 0x28D PUSH1 0x4 DUP1 CALLDATASIZE SUB DUP2 ADD SWAP1 PUSH2 0x288 SWAP2 SWAP1 PUSH2 0x213C JUMP JUMPDEST PUSH2 0x1004 JUMP JUMPDEST PUSH1 0x40 MLOAD PUSH2 0x29A SWAP2 SWAP1 PUSH2 0x24E6 JUMP JUMPDEST PUSH1 0x40 MLOAD DUP1 SWAP2 SUB SWAP1 RETURN JUMPDEST PUSH2 0x2BD PUSH1 0x4 DUP1 CALLDATASIZE SUB DUP2 ADD SWAP1 PUSH2 0x2B8 SWAP2 SWAP1 PUSH2 0x2088 JUMP JUMPDEST PUSH2 0x12DF JUMP JUMPDEST PUSH1 0x40 MLOAD PUSH2 0x2CA SWAP2 SWAP1 PUSH2 0x2643 JUMP JUMPDEST PUSH1 0x40 MLOAD DUP1 SWAP2 SUB SWAP1 RETURN JUMPDEST PUSH2 0x2ED PUSH1 0x4 DUP1 CALLDATASIZE SUB DUP2 ADD SWAP1 PUSH2 0x2E8 SWAP2 SWAP1 PUSH2 0x213C JUMP JUMPDEST PUSH2 0x1328 JUMP JUMPDEST PUSH1 0x40 MLOAD PUSH2 0x2FA SWAP2 SWAP1 PUSH2 0x24E6 JUMP JUMPDEST PUSH1 0x40 MLOAD DUP1 SWAP2 SUB SWAP1 RETURN JUMPDEST PUSH2 0x30B PUSH2 0x1745 JUMP JUMPDEST STOP JUMPDEST PUSH2 0x315 PUSH2 0x182F JUMP JUMPDEST PUSH1 0x40 MLOAD PUSH2 0x322 SWAP2 SWAP1 PUSH2 0x24E6 JUMP JUMPDEST PUSH1 0x40 MLOAD DUP1 SWAP2 SUB SWAP1 RETURN JUMPDEST PUSH2 0x333 PUSH2 0x1887 JUMP JUMPDEST PUSH1 0x40 MLOAD PUSH2 0x340 SWAP2 SWAP1 PUSH2 0x2501 JUMP JUMPDEST PUSH1 0x40 MLOAD DUP1 SWAP2 SUB SWAP1 RETURN JUMPDEST PUSH2 0x363 PUSH1 0x4 DUP1 CALLDATASIZE SUB DUP2 ADD SWAP1 PUSH2 0x35E SWAP2 SWAP1 PUSH2 0x213C JUMP JUMPDEST PUSH2 0x1915 JUMP JUMPDEST PUSH1 0x40 MLOAD PUSH2 0x370 SWAP2 SWAP1 PUSH2 0x24E6 JUMP JUMPDEST PUSH1 0x40 MLOAD DUP1 SWAP2 SUB SWAP1 RETURN JUMPDEST PUSH2 0x381 PUSH2 0x1BE4 JUMP JUMPDEST PUSH1 0x40 MLOAD PUSH2 0x38E SWAP2 SWAP1 PUSH2 0x24A2 JUMP JUMPDEST PUSH1 0x40 MLOAD DUP1 SWAP2 SUB SWAP1 RETURN JUMPDEST PUSH2 0x3B1 PUSH1 0x4 DUP1 CALLDATASIZE SUB DUP2 ADD SWAP1 PUSH2 0x3AC SWAP2 SWAP1 PUSH2 0x213C JUMP JUMPDEST PUSH2 0x1C0E JUMP JUMPDEST PUSH1 0x40 MLOAD PUSH2 0x3BE SWAP2 SWAP1 PUSH2 0x24E6 JUMP JUMPDEST PUSH1 0x40 MLOAD DUP1 SWAP2 SUB SWAP1 RETURN JUMPDEST PUSH2 0x3E1 PUSH1 0x4 DUP1 CALLDATASIZE SUB DUP2 ADD SWAP1 PUSH2 0x3DC SWAP2 SWAP1 PUSH2 0x20B1 JUMP JUMPDEST PUSH2 0x1E53 JUMP JUMPDEST PUSH1 0x40 MLOAD PUSH2 0x3EE SWAP2 SWAP1 PUSH2 0x2643 JUMP JUMPDEST PUSH1 0x40 MLOAD DUP1 SWAP2 SUB SWAP1 RETURN JUMPDEST PUSH2 0x411 PUSH1 0x4 DUP1 CALLDATASIZE SUB DUP2 ADD SWAP1 PUSH2 0x40C SWAP2 SWAP1 PUSH2 0x2088 JUMP JUMPDEST PUSH2 0x1F2A JUMP JUMPDEST STOP JUMPDEST PUSH1 0x2 DUP1 SLOAD PUSH2 0x420 SWAP1 PUSH2 0x27A7 JUMP JUMPDEST DUP1 PUSH1 0x1F ADD PUSH1 0x20 DUP1 SWAP2 DIV MUL PUSH1 0x20 ADD PUSH1 0x40 MLOAD SWAP1 DUP2 ADD PUSH1 0x40 MSTORE DUP1 SWAP3 SWAP2 SWAP1 DUP2 DUP2 MSTORE PUSH1 0x20 ADD DUP3 DUP1 SLOAD PUSH2 0x44C SWAP1 PUSH2 0x27A7 JUMP JUMPDEST DUP1 ISZERO PUSH2 0x499 JUMPI DUP1 PUSH1 0x1F LT PUSH2 0x46E JUMPI PUSH2 0x100 DUP1 DUP4 SLOAD DIV MUL DUP4 MSTORE SWAP2 PUSH1 0x20 ADD SWAP2 PUSH2 0x499 JUMP JUMPDEST DUP3 ADD SWAP2 SWAP1 PUSH1 0x0 MSTORE PUSH1 0x20 PUSH1 0x0 KECCAK256 SWAP1 JUMPDEST DUP2 SLOAD DUP2 MSTORE SWAP1 PUSH1 0x1 ADD SWAP1 PUSH1 0x20 ADD DUP1 DUP4 GT PUSH2 0x47C JUMPI DUP3 SWAP1 SUB PUSH1 0x1F AND DUP3 ADD SWAP2 JUMPDEST POP POP POP POP POP DUP2 JUMP JUMPDEST PUSH1 0x0 PUSH1 0x1 PUSH1 0x14 SWAP1 SLOAD SWAP1 PUSH2 0x100 EXP SWAP1 DIV PUSH1 0xFF AND ISZERO PUSH2 0x4F3 JUMPI PUSH1 0x40 MLOAD PUSH32 0x8C379A000000000000000000000000000000000000000000000000000000000 DUP2 MSTORE PUSH1 0x4 ADD PUSH2 0x4EA SWAP1 PUSH2 0x25A3 JUMP JUMPDEST PUSH1 0x40 MLOAD DUP1 SWAP2 SUB SWAP1 REVERT JUMPDEST DUP2 PUSH1 0x7 PUSH1 0x0 CALLER PUSH20 0xFFFFFFFFFFFFFFFFFFFFFFFFFFFFFFFFFFFFFFFF AND PUSH20 0xFFFFFFFFFFFFFFFFFFFFFFFFFFFFFFFFFFFFFFFF AND DUP2 MSTORE PUSH1 0x20 ADD SWAP1 DUP2 MSTORE PUSH1 0x20 ADD PUSH1 0x0 KECCAK256 PUSH1 0x0 DUP6 PUSH20 0xFFFFFFFFFFFFFFFFFFFFFFFFFFFFFFFFFFFFFFFF AND PUSH20 0xFFFFFFFFFFFFFFFFFFFFFFFFFFFFFFFFFFFFFFFF AND DUP2 MSTORE PUSH1 0x20 ADD SWAP1 DUP2 MSTORE PUSH1 0x20 ADD PUSH1 0x0 KECCAK256 DUP2 SWAP1 SSTORE POP DUP3 PUSH20 0xFFFFFFFFFFFFFFFFFFFFFFFFFFFFFFFFFFFFFFFF AND CALLER PUSH20 0xFFFFFFFFFFFFFFFFFFFFFFFFFFFFFFFFFFFFFFFF AND PUSH32 0x8C5BE1E5EBEC7D5BD14F71427D1E84F3DD0314C0F7B2291E5B200AC8C7C3B925 DUP5 PUSH1 0x40 MLOAD PUSH2 0x5D1 SWAP2 SWAP1 PUSH2 0x2643 JUMP JUMPDEST PUSH1 0x40 MLOAD DUP1 SWAP2 SUB SWAP1 LOG3 PUSH1 0x1 SWAP1 POP SWAP3 SWAP2 POP POP JUMP JUMPDEST PUSH1 0x5 SLOAD DUP2 JUMP JUMPDEST PUSH1 0x0 PUSH1 0x1 PUSH1 0x14 SWAP1 SLOAD SWAP1 PUSH2 0x100 EXP SWAP1 DIV PUSH1 0xFF AND ISZERO PUSH2 0x63B JUMPI PUSH1 0x40 MLOAD PUSH32 0x8C379A000000000000000000000000000000000000000000000000000000000 DUP2 MSTORE PUSH1 0x4 ADD PUSH2 0x632 SWAP1 PUSH2 0x25A3 JUMP JUMPDEST PUSH1 0x40 MLOAD DUP1 SWAP2 SUB SWAP1 REVERT JUMPDEST PUSH1 0x0 PUSH20 0xFFFFFFFFFFFFFFFFFFFFFFFFFFFFFFFFFFFFFFFF AND DUP5 PUSH20 0xFFFFFFFFFFFFFFFFFFFFFFFFFFFFFFFFFFFFFFFF AND EQ ISZERO PUSH2 0x6AB JUMPI PUSH1 0x40 MLOAD PUSH32 0x8C379A000000000000000000000000000000000000000000000000000000000 DUP2 MSTORE PUSH1 0x4 ADD PUSH2 0x6A2 SWAP1 PUSH2 0x2543 JUMP JUMPDEST PUSH1 0x40 MLOAD DUP1 SWAP2 SUB SWAP1 REVERT JUMPDEST PUSH1 0x0 PUSH20 0xFFFFFFFFFFFFFFFFFFFFFFFFFFFFFFFFFFFFFFFF AND DUP4 PUSH20 0xFFFFFFFFFFFFFFFFFFFFFFFFFFFFFFFFFFFFFFFF AND EQ ISZERO PUSH2 0x71B JUMPI PUSH1 0x40 MLOAD PUSH32 0x8C379A000000000000000000000000000000000000000000000000000000000 DUP2 MSTORE PUSH1 0x4 ADD PUSH2 0x712 SWAP1 PUSH2 0x2583 JUMP JUMPDEST PUSH1 0x40 MLOAD DUP1 SWAP2 SUB SWAP1 REVERT JUMPDEST PUSH1 0x6 PUSH1 0x0 DUP6 PUSH20 0xFFFFFFFFFFFFFFFFFFFFFFFFFFFFFFFFFFFFFFFF AND PUSH20 0xFFFFFFFFFFFFFFFFFFFFFFFFFFFFFFFFFFFFFFFF AND DUP2 MSTORE PUSH1 0x20 ADD SWAP1 DUP2 MSTORE PUSH1 0x20 ADD PUSH1 0x0 KECCAK256 SLOAD DUP3 GT ISZERO PUSH2 0x79D JUMPI PUSH1 0x40 MLOAD PUSH32 0x8C379A000000000000000000000000000000000000000000000000000000000 DUP2 MSTORE PUSH1 0x4 ADD PUSH2 0x794 SWAP1 PUSH2 0x2563 JUMP JUMPDEST PUSH1 0x40 MLOAD DUP1 SWAP2 SUB SWAP1 REVERT JUMPDEST PUSH1 0x7 PUSH1 0x0 DUP6 PUSH20 0xFFFFFFFFFFFFFFFFFFFFFFFFFFFFFFFFFFFFFFFF AND PUSH20 0xFFFFFFFFFFFFFFFFFFFFFFFFFFFFFFFFFFFFFFFF AND DUP2 MSTORE PUSH1 0x20 ADD SWAP1 DUP2 MSTORE PUSH1 0x20 ADD PUSH1 0x0 KECCAK256 PUSH1 0x0 CALLER PUSH20 0xFFFFFFFFFFFFFFFFFFFFFFFFFFFFFFFFFFFFFFFF AND PUSH20 0xFFFFFFFFFFFFFFFFFFFFFFFFFFFFFFFFFFFFFFFF AND DUP2 MSTORE PUSH1 0x20 ADD SWAP1 DUP2 MSTORE PUSH1 0x20 ADD PUSH1 0x0 KECCAK256 SLOAD DUP3 GT ISZERO PUSH2 0x85C JUMPI PUSH1 0x40 MLOAD PUSH32 0x8C379A000000000000000000000000000000000000000000000000000000000 DUP2 MSTORE PUSH1 0x4 ADD PUSH2 0x853 SWAP1 PUSH2 0x25C3 JUMP JUMPDEST PUSH1 0x40 MLOAD DUP1 SWAP2 SUB SWAP1 REVERT JUMPDEST DUP2 PUSH1 0x7 PUSH1 0x0 DUP7 PUSH20 0xFFFFFFFFFFFFFFFFFFFFFFFFFFFFFFFFFFFFFFFF AND PUSH20 0xFFFFFFFFFFFFFFFFFFFFFFFFFFFFFFFFFFFFFFFF AND DUP2 MSTORE PUSH1 0x20 ADD SWAP1 DUP2 MSTORE PUSH1 0x20 ADD PUSH1 0x0 KECCAK256 PUSH1 0x0 CALLER PUSH20 0xFFFFFFFFFFFFFFFFFFFFFFFFFFFFFFFFFFFFFFFF AND PUSH20 0xFFFFFFFFFFFFFFFFFFFFFFFFFFFFFFFFFFFFFFFF AND DUP2 MSTORE PUSH1 0x20 ADD SWAP1 DUP2 MSTORE PUSH1 0x20 ADD PUSH1 0x0 KECCAK256 SLOAD PUSH2 0x8E4 SWAP2 SWAP1 PUSH2 0x26EB JUMP JUMPDEST PUSH1 0x7 PUSH1 0x0 DUP7 PUSH20 0xFFFFFFFFFFFFFFFFFFFFFFFFFFFFFFFFFFFFFFFF AND PUSH20 0xFFFFFFFFFFFFFFFFFFFFFFFFFFFFFFFFFFFFFFFF AND DUP2 MSTORE PUSH1 0x20 ADD SWAP1 DUP2 MSTORE PUSH1 0x20 ADD PUSH1 0x0 KECCAK256 PUSH1 0x0 CALLER PUSH20 0xFFFFFFFFFFFFFFFFFFFFFFFFFFFFFFFFFFFFFFFF AND PUSH20 0xFFFFFFFFFFFFFFFFFFFFFFFFFFFFFFFFFFFFFFFF AND DUP2 MSTORE PUSH1 0x20 ADD SWAP1 DUP2 MSTORE PUSH1 0x20 ADD PUSH1 0x0 KECCAK256 DUP2 SWAP1 SSTORE POP DUP2 PUSH1 0x6 PUSH1 0x0 DUP7 PUSH20 0xFFFFFFFFFFFFFFFFFFFFFFFFFFFFFFFFFFFFFFFF AND PUSH20 0xFFFFFFFFFFFFFFFFFFFFFFFFFFFFFFFFFFFFFFFF AND DUP2 MSTORE PUSH1 0x20 ADD SWAP1 DUP2 MSTORE PUSH1 0x20 ADD PUSH1 0x0 KECCAK256 SLOAD PUSH2 0x9AF SWAP2 SWAP1 PUSH2 0x26EB JUMP JUMPDEST PUSH1 0x6 PUSH1 0x0 DUP7 PUSH20 0xFFFFFFFFFFFFFFFFFFFFFFFFFFFFFFFFFFFFFFFF AND PUSH20 0xFFFFFFFFFFFFFFFFFFFFFFFFFFFFFFFFFFFFFFFF AND DUP2 MSTORE PUSH1 0x20 ADD SWAP1 DUP2 MSTORE PUSH1 0x20 ADD PUSH1 0x0 KECCAK256 DUP2 SWAP1 SSTORE POP DUP2 PUSH1 0x6 PUSH1 0x0 DUP6 PUSH20 0xFFFFFFFFFFFFFFFFFFFFFFFFFFFFFFFFFFFFFFFF AND PUSH20 0xFFFFFFFFFFFFFFFFFFFFFFFFFFFFFFFFFFFFFFFF AND DUP2 MSTORE PUSH1 0x20 ADD SWAP1 DUP2 MSTORE PUSH1 0x20 ADD PUSH1 0x0 KECCAK256 SLOAD PUSH2 0xA3D SWAP2 SWAP1 PUSH2 0x2695 JUMP JUMPDEST PUSH1 0x6 PUSH1 0x0 DUP6 PUSH20 0xFFFFFFFFFFFFFFFFFFFFFFFFFFFFFFFFFFFFFFFF AND PUSH20 0xFFFFFFFFFFFFFFFFFFFFFFFFFFFFFFFFFFFFFFFF AND DUP2 MSTORE PUSH1 0x20 ADD SWAP1 DUP2 MSTORE PUSH1 0x20 ADD PUSH1 0x0 KECCAK256 DUP2 SWAP1 SSTORE POP DUP3 PUSH20 0xFFFFFFFFFFFFFFFFFFFFFFFFFFFFFFFFFFFFFFFF AND DUP5 PUSH20 0xFFFFFFFFFFFFFFFFFFFFFFFFFFFFFFFFFFFFFFFF AND PUSH32 0xDDF252AD1BE2C89B69C2B068FC378DAA952BA7F163C4A11628F55A4DF523B3EF DUP5 PUSH1 0x40 MLOAD PUSH2 0xADD SWAP2 SWAP1 PUSH2 0x2643 JUMP JUMPDEST PUSH1 0x40 MLOAD DUP1 SWAP2 SUB SWAP1 LOG3 PUSH1 0x1 SWAP1 POP SWAP4 SWAP3 POP POP POP JUMP JUMPDEST PUSH1 0x4 PUSH1 0x0 SWAP1 SLOAD SWAP1 PUSH2 0x100 EXP SWAP1 DIV PUSH1 0xFF AND DUP2 JUMP JUMPDEST PUSH2 0xB0B PUSH2 0x182F JUMP JUMPDEST PUSH2 0xB4A JUMPI PUSH1 0x40 MLOAD PUSH32 0x8C379A000000000000000000000000000000000000000000000000000000000 DUP2 MSTORE PUSH1 0x4 ADD PUSH2 0xB41 SWAP1 PUSH2 0x2623 JUMP JUMPDEST PUSH1 0x40 MLOAD DUP1 SWAP2 SUB SWAP1 REVERT JUMPDEST PUSH1 0x1 PUSH1 0x14 SWAP1 SLOAD SWAP1 PUSH2 0x100 EXP SWAP1 DIV PUSH1 0xFF AND PUSH2 0xB99 JUMPI PUSH1 0x40 MLOAD PUSH32 0x8C379A000000000000000000000000000000000000000000000000000000000 DUP2 MSTORE PUSH1 0x4 ADD PUSH2 0xB90 SWAP1 PUSH2 0x2523 JUMP JUMPDEST PUSH1 0x40 MLOAD DUP1 SWAP2 SUB SWAP1 REVERT JUMPDEST PUSH1 0x0 PUSH1 0x1 PUSH1 0x14 PUSH2 0x100 EXP DUP2 SLOAD DUP2 PUSH1 0xFF MUL NOT AND SWAP1 DUP4 ISZERO ISZERO MUL OR SWAP1 SSTORE POP PUSH32 0x5DB9EE0A495BF2E6FF9C91A7834C1BA4FDD244A5E8AA4E537BD38AEAE4B073AA CALLER PUSH1 0x40 MLOAD PUSH2 0xBE3 SWAP2 SWAP1 PUSH2 0x24A2 JUMP JUMPDEST PUSH1 0x40 MLOAD DUP1 SWAP2 SUB SWAP1 LOG1 JUMP JUMPDEST PUSH1 0x0 PUSH1 0x1 PUSH1 0x14 SWAP1 SLOAD SWAP1 PUSH2 0x100 EXP SWAP1 DIV PUSH1 0xFF AND ISZERO PUSH2 0xC3F JUMPI PUSH1 0x40 MLOAD PUSH32 0x8C379A000000000000000000000000000000000000000000000000000000000 DUP2 MSTORE PUSH1 0x4 ADD PUSH2 0xC36 SWAP1 PUSH2 0x25A3 JUMP JUMPDEST PUSH1 0x40 MLOAD DUP1 SWAP2 SUB SWAP1 REVERT JUMPDEST DUP2 PUSH1 0x6 PUSH1 0x0 CALLER PUSH20 0xFFFFFFFFFFFFFFFFFFFFFFFFFFFFFFFFFFFFFFFF AND PUSH20 0xFFFFFFFFFFFFFFFFFFFFFFFFFFFFFFFFFFFFFFFF AND DUP2 MSTORE PUSH1 0x20 ADD SWAP1 DUP2 MSTORE PUSH1 0x20 ADD PUSH1 0x0 KECCAK256 SLOAD LT ISZERO PUSH2 0xCC1 JUMPI PUSH1 0x40 MLOAD PUSH32 0x8C379A000000000000000000000000000000000000000000000000000000000 DUP2 MSTORE PUSH1 0x4 ADD PUSH2 0xCB8 SWAP1 PUSH2 0x2563 JUMP JUMPDEST PUSH1 0x40 MLOAD DUP1 SWAP2 SUB SWAP1 REVERT JUMPDEST DUP2 PUSH1 0x6 PUSH1 0x0 CALLER PUSH20 0xFFFFFFFFFFFFFFFFFFFFFFFFFFFFFFFFFFFFFFFF AND PUSH20 0xFFFFFFFFFFFFFFFFFFFFFFFFFFFFFFFFFFFFFFFF AND DUP2 MSTORE PUSH1 0x20 ADD SWAP1 DUP2 MSTORE PUSH1 0x20 ADD PUSH1 0x0 KECCAK256 SLOAD PUSH2 0xD0C SWAP2 SWAP1 PUSH2 0x26EB JUMP JUMPDEST PUSH1 0x6 PUSH1 0x0 CALLER PUSH20 0xFFFFFFFFFFFFFFFFFFFFFFFFFFFFFFFFFFFFFFFF AND PUSH20 0xFFFFFFFFFFFFFFFFFFFFFFFFFFFFFFFFFFFFFFFF AND DUP2 MSTORE PUSH1 0x20 ADD SWAP1 DUP2 MSTORE PUSH1 0x20 ADD PUSH1 0x0 KECCAK256 DUP2 SWAP1 SSTORE POP DUP2 PUSH1 0x5 SLOAD PUSH2 0xD5D SWAP2 SWAP1 PUSH2 0x26EB JUMP JUMPDEST PUSH1 0x5 DUP2 SWAP1 SSTORE POP PUSH1 0x0 PUSH20 0xFFFFFFFFFFFFFFFFFFFFFFFFFFFFFFFFFFFFFFFF AND CALLER PUSH20 0xFFFFFFFFFFFFFFFFFFFFFFFFFFFFFFFFFFFFFFFF AND PUSH32 0xDDF252AD1BE2C89B69C2B068FC378DAA952BA7F163C4A11628F55A4DF523B3EF DUP5 PUSH1 0x40 MLOAD PUSH2 0xDC1 SWAP2 SWAP1 PUSH2 0x2643 JUMP JUMPDEST PUSH1 0x40 MLOAD DUP1 SWAP2 SUB SWAP1 LOG3 PUSH1 0x1 SWAP1 POP SWAP2 SWAP1 POP JUMP JUMPDEST PUSH1 0x0 PUSH1 0x1 PUSH1 0x14 SWAP1 SLOAD SWAP1 PUSH2 0x100 EXP SWAP1 DIV PUSH1 0xFF AND ISZERO PUSH2 0xE24 JUMPI PUSH1 0x40 MLOAD PUSH32 0x8C379A000000000000000000000000000000000000000000000000000000000 DUP2 MSTORE PUSH1 0x4 ADD PUSH2 0xE1B SWAP1 PUSH2 0x25A3 JUMP JUMPDEST PUSH1 0x40 MLOAD DUP1 SWAP2 SUB SWAP1 REVERT JUMPDEST PUSH2 0xE2C PUSH2 0x182F JUMP JUMPDEST PUSH2 0xE6B JUMPI PUSH1 0x40 MLOAD PUSH32 0x8C379A000000000000000000000000000000000000000000000000000000000 DUP2 MSTORE PUSH1 0x4 ADD PUSH2 0xE62 SWAP1 PUSH2 0x2623 JUMP JUMPDEST PUSH1 0x40 MLOAD DUP1 SWAP2 SUB SWAP1 REVERT JUMPDEST PUSH1 0x0 PUSH20 0xFFFFFFFFFFFFFFFFFFFFFFFFFFFFFFFFFFFFFFFF AND DUP4 PUSH20 0xFFFFFFFFFFFFFFFFFFFFFFFFFFFFFFFFFFFFFFFF AND EQ ISZERO PUSH2 0xEDB JUMPI PUSH1 0x40 MLOAD PUSH32 0x8C379A000000000000000000000000000000000000000000000000000000000 DUP2 MSTORE PUSH1 0x4 ADD PUSH2 0xED2 SWAP1 PUSH2 0x2583 JUMP JUMPDEST PUSH1 0x40 MLOAD DUP1 SWAP2 SUB SWAP1 REVERT JUMPDEST DUP2 PUSH1 0x6 PUSH1 0x0 DUP6 PUSH20 0xFFFFFFFFFFFFFFFFFFFFFFFFFFFFFFFFFFFFFFFF AND PUSH20 0xFFFFFFFFFFFFFFFFFFFFFFFFFFFFFFFFFFFFFFFF AND DUP2 MSTORE PUSH1 0x20 ADD SWAP1 DUP2 MSTORE PUSH1 0x20 ADD PUSH1 0x0 KECCAK256 SLOAD PUSH2 0xF26 SWAP2 SWAP1 PUSH2 0x2695 JUMP JUMPDEST PUSH1 0x6 PUSH1 0x0 DUP6 PUSH20 0xFFFFFFFFFFFFFFFFFFFFFFFFFFFFFFFFFFFFFFFF AND PUSH20 0xFFFFFFFFFFFFFFFFFFFFFFFFFFFFFFFFFFFFFFFF AND DUP2 MSTORE PUSH1 0x20 ADD SWAP1 DUP2 MSTORE PUSH1 0x20 ADD PUSH1 0x0 KECCAK256 DUP2 SWAP1 SSTORE POP DUP2 PUSH1 0x5 SLOAD PUSH2 0xF77 SWAP2 SWAP1 PUSH2 0x2695 JUMP JUMPDEST PUSH1 0x5 DUP2 SWAP1 SSTORE POP DUP3 PUSH20 0xFFFFFFFFFFFFFFFFFFFFFFFFFFFFFFFFFFFFFFFF AND PUSH1 0x0 PUSH20 0xFFFFFFFFFFFFFFFFFFFFFFFFFFFFFFFFFFFFFFFF AND PUSH32 0xDDF252AD1BE2C89B69C2B068FC378DAA952BA7F163C4A11628F55A4DF523B3EF DUP5 PUSH1 0x40 MLOAD PUSH2 0xFDB SWAP2 SWAP1 PUSH2 0x2643 JUMP JUMPDEST PUSH1 0x40 MLOAD DUP1 SWAP2 SUB SWAP1 LOG3 PUSH1 0x1 SWAP1 POP SWAP3 SWAP2 POP POP JUMP JUMPDEST PUSH1 0x0 PUSH1 0x1 PUSH1 0x14 SWAP1 SLOAD SWAP1 PUSH2 0x100 EXP SWAP1 DIV PUSH1 0xFF AND SWAP1 POP SWAP1 JUMP JUMPDEST PUSH1 0x0 PUSH1 0x1 PUSH1 0x14 SWAP1 SLOAD SWAP1 PUSH2 0x100 EXP SWAP1 DIV PUSH1 0xFF AND ISZERO PUSH2 0x1056 JUMPI PUSH1 0x40 MLOAD PUSH32 0x8C379A000000000000000000000000000000000000000000000000000000000 DUP2 MSTORE PUSH1 0x4 ADD PUSH2 0x104D SWAP1 PUSH2 0x25A3 JUMP JUMPDEST PUSH1 0x40 MLOAD DUP1 SWAP2 SUB SWAP1 REVERT JUMPDEST PUSH1 0x0 PUSH1 0x7 PUSH1 0x0 CALLER PUSH20 0xFFFFFFFFFFFFFFFFFFFFFFFFFFFFFFFFFFFFFFFF AND PUSH20 0xFFFFFFFFFFFFFFFFFFFFFFFFFFFFFFFFFFFFFFFF AND DUP2 MSTORE PUSH1 0x20 ADD SWAP1 DUP2 MSTORE PUSH1 0x20 ADD PUSH1 0x0 KECCAK256 PUSH1 0x0 DUP6 PUSH20 0xFFFFFFFFFFFFFFFFFFFFFFFFFFFFFFFFFFFFFFFF AND PUSH20 0xFFFFFFFFFFFFFFFFFFFFFFFFFFFFFFFFFFFFFFFF AND DUP2 MSTORE PUSH1 0x20 ADD SWAP1 DUP2 MSTORE PUSH1 0x20 ADD PUSH1 0x0 KECCAK256 SLOAD SWAP1 POP DUP1 DUP4 GT ISZERO PUSH2 0x1166 JUMPI PUSH1 0x0 PUSH1 0x7 PUSH1 0x0 CALLER PUSH20 0xFFFFFFFFFFFFFFFFFFFFFFFFFFFFFFFFFFFFFFFF AND PUSH20 0xFFFFFFFFFFFFFFFFFFFFFFFFFFFFFFFFFFFFFFFF AND DUP2 MSTORE PUSH1 0x20 ADD SWAP1 DUP2 MSTORE PUSH1 0x20 ADD PUSH1 0x0 KECCAK256 PUSH1 0x0 DUP7 PUSH20 0xFFFFFFFFFFFFFFFFFFFFFFFFFFFFFFFFFFFFFFFF AND PUSH20 0xFFFFFFFFFFFFFFFFFFFFFFFFFFFFFFFFFFFFFFFF AND DUP2 MSTORE PUSH1 0x20 ADD SWAP1 DUP2 MSTORE PUSH1 0x20 ADD PUSH1 0x0 KECCAK256 DUP2 SWAP1 SSTORE POP PUSH2 0x11F3 JUMP JUMPDEST DUP3 DUP2 PUSH2 0x1172 SWAP2 SWAP1 PUSH2 0x26EB JUMP JUMPDEST PUSH1 0x7 PUSH1 0x0 CALLER PUSH20 0xFFFFFFFFFFFFFFFFFFFFFFFFFFFFFFFFFFFFFFFF AND PUSH20 0xFFFFFFFFFFFFFFFFFFFFFFFFFFFFFFFFFFFFFFFF AND DUP2 MSTORE PUSH1 0x20 ADD SWAP1 DUP2 MSTORE PUSH1 0x20 ADD PUSH1 0x0 KECCAK256 PUSH1 0x0 DUP7 PUSH20 0xFFFFFFFFFFFFFFFFFFFFFFFFFFFFFFFFFFFFFFFF AND PUSH20 0xFFFFFFFFFFFFFFFFFFFFFFFFFFFFFFFFFFFFFFFF AND DUP2 MSTORE PUSH1 0x20 ADD SWAP1 DUP2 MSTORE PUSH1 0x20 ADD PUSH1 0x0 KECCAK256 DUP2 SWAP1 SSTORE POP JUMPDEST DUP4 PUSH20 0xFFFFFFFFFFFFFFFFFFFFFFFFFFFFFFFFFFFFFFFF AND CALLER PUSH20 0xFFFFFFFFFFFFFFFFFFFFFFFFFFFFFFFFFFFFFFFF AND PUSH32 0x8C5BE1E5EBEC7D5BD14F71427D1E84F3DD0314C0F7B2291E5B200AC8C7C3B925 PUSH1 0x7 PUSH1 0x0 CALLER PUSH20 0xFFFFFFFFFFFFFFFFFFFFFFFFFFFFFFFFFFFFFFFF AND PUSH20 0xFFFFFFFFFFFFFFFFFFFFFFFFFFFFFFFFFFFFFFFF AND DUP2 MSTORE PUSH1 0x20 ADD SWAP1 DUP2 MSTORE PUSH1 0x20 ADD PUSH1 0x0 KECCAK256 PUSH1 0x0 DUP9 PUSH20 0xFFFFFFFFFFFFFFFFFFFFFFFFFFFFFFFFFFFFFFFF AND PUSH20 0xFFFFFFFFFFFFFFFFFFFFFFFFFFFFFFFFFFFFFFFF AND DUP2 MSTORE PUSH1 0x20 ADD SWAP1 DUP2 MSTORE PUSH1 0x20 ADD PUSH1 0x0 KECCAK256 SLOAD PUSH1 0x40 MLOAD PUSH2 0x12CC SWAP2 SWAP1 PUSH2 0x2643 JUMP JUMPDEST PUSH1 0x40 MLOAD DUP1 SWAP2 SUB SWAP1 LOG3 PUSH1 0x1 SWAP2 POP POP SWAP3 SWAP2 POP POP JUMP JUMPDEST PUSH1 0x0 PUSH1 0x6 PUSH1 0x0 DUP4 PUSH20 0xFFFFFFFFFFFFFFFFFFFFFFFFFFFFFFFFFFFFFFFF AND PUSH20 0xFFFFFFFFFFFFFFFFFFFFFFFFFFFFFFFFFFFFFFFF AND DUP2 MSTORE PUSH1 0x20 ADD SWAP1 DUP2 MSTORE PUSH1 0x20 ADD PUSH1 0x0 KECCAK256 SLOAD SWAP1 POP SWAP2 SWAP1 POP JUMP JUMPDEST PUSH1 0x0 PUSH1 0x1 PUSH1 0x14 SWAP1 SLOAD SWAP1 PUSH2 0x100 EXP SWAP1 DIV PUSH1 0xFF AND ISZERO PUSH2 0x137A JUMPI PUSH1 0x40 MLOAD PUSH32 0x8C379A000000000000000000000000000000000000000000000000000000000 DUP2 MSTORE PUSH1 0x4 ADD PUSH2 0x1371 SWAP1 PUSH2 0x25A3 JUMP JUMPDEST PUSH1 0x40 MLOAD DUP1 SWAP2 SUB SWAP1 REVERT JUMPDEST PUSH1 0x0 PUSH20 0xFFFFFFFFFFFFFFFFFFFFFFFFFFFFFFFFFFFFFFFF AND DUP4 PUSH20 0xFFFFFFFFFFFFFFFFFFFFFFFFFFFFFFFFFFFFFFFF AND EQ ISZERO PUSH2 0x13EA JUMPI PUSH1 0x40 MLOAD PUSH32 0x8C379A000000000000000000000000000000000000000000000000000000000 DUP2 MSTORE PUSH1 0x4 ADD PUSH2 0x13E1 SWAP1 PUSH2 0x2543 JUMP JUMPDEST PUSH1 0x40 MLOAD DUP1 SWAP2 SUB SWAP1 REVERT JUMPDEST DUP2 PUSH1 0x6 PUSH1 0x0 DUP6 PUSH20 0xFFFFFFFFFFFFFFFFFFFFFFFFFFFFFFFFFFFFFFFF AND PUSH20 0xFFFFFFFFFFFFFFFFFFFFFFFFFFFFFFFFFFFFFFFF AND DUP2 MSTORE PUSH1 0x20 ADD SWAP1 DUP2 MSTORE PUSH1 0x20 ADD PUSH1 0x0 KECCAK256 SLOAD LT ISZERO PUSH2 0x146C JUMPI PUSH1 0x40 MLOAD PUSH32 0x8C379A000000000000000000000000000000000000000000000000000000000 DUP2 MSTORE PUSH1 0x4 ADD PUSH2 0x1463 SWAP1 PUSH2 0x2563 JUMP JUMPDEST PUSH1 0x40 MLOAD DUP1 SWAP2 SUB SWAP1 REVERT JUMPDEST PUSH1 0x7 PUSH1 0x0 DUP5 PUSH20 0xFFFFFFFFFFFFFFFFFFFFFFFFFFFFFFFFFFFFFFFF AND PUSH20 0xFFFFFFFFFFFFFFFFFFFFFFFFFFFFFFFFFFFFFFFF AND DUP2 MSTORE PUSH1 0x20 ADD SWAP1 DUP2 MSTORE PUSH1 0x20 ADD PUSH1 0x0 KECCAK256 PUSH1 0x0 CALLER PUSH20 0xFFFFFFFFFFFFFFFFFFFFFFFFFFFFFFFFFFFFFFFF AND PUSH20 0xFFFFFFFFFFFFFFFFFFFFFFFFFFFFFFFFFFFFFFFF AND DUP2 MSTORE PUSH1 0x20 ADD SWAP1 DUP2 MSTORE PUSH1 0x20 ADD PUSH1 0x0 KECCAK256 SLOAD DUP3 GT ISZERO PUSH2 0x152B JUMPI PUSH1 0x40 MLOAD PUSH32 0x8C379A000000000000000000000000000000000000000000000000000000000 DUP2 MSTORE PUSH1 0x4 ADD PUSH2 0x1522 SWAP1 PUSH2 0x25E3 JUMP JUMPDEST PUSH1 0x40 MLOAD DUP1 SWAP2 SUB SWAP1 REVERT JUMPDEST DUP2 PUSH1 0x7 PUSH1 0x0 DUP6 PUSH20 0xFFFFFFFFFFFFFFFFFFFFFFFFFFFFFFFFFFFFFFFF AND PUSH20 0xFFFFFFFFFFFFFFFFFFFFFFFFFFFFFFFFFFFFFFFF AND DUP2 MSTORE PUSH1 0x20 ADD SWAP1 DUP2 MSTORE PUSH1 0x20 ADD PUSH1 0x0 KECCAK256 PUSH1 0x0 CALLER PUSH20 0xFFFFFFFFFFFFFFFFFFFFFFFFFFFFFFFFFFFFFFFF AND PUSH20 0xFFFFFFFFFFFFFFFFFFFFFFFFFFFFFFFFFFFFFFFF AND DUP2 MSTORE PUSH1 0x20 ADD SWAP1 DUP2 MSTORE PUSH1 0x20 ADD PUSH1 0x0 KECCAK256 SLOAD PUSH2 0x15B3 SWAP2 SWAP1 PUSH2 0x26EB JUMP JUMPDEST PUSH1 0x7 PUSH1 0x0 DUP6 PUSH20 0xFFFFFFFFFFFFFFFFFFFFFFFFFFFFFFFFFFFFFFFF AND PUSH20 0xFFFFFFFFFFFFFFFFFFFFFFFFFFFFFFFFFFFFFFFF AND DUP2 MSTORE PUSH1 0x20 ADD SWAP1 DUP2 MSTORE PUSH1 0x20 ADD PUSH1 0x0 KECCAK256 PUSH1 0x0 CALLER PUSH20 0xFFFFFFFFFFFFFFFFFFFFFFFFFFFFFFFFFFFFFFFF AND PUSH20 0xFFFFFFFFFFFFFFFFFFFFFFFFFFFFFFFFFFFFFFFF AND DUP2 MSTORE PUSH1 0x20 ADD SWAP1 DUP2 MSTORE PUSH1 0x20 ADD PUSH1 0x0 KECCAK256 DUP2 SWAP1 SSTORE POP DUP2 PUSH1 0x6 PUSH1 0x0 DUP6 PUSH20 0xFFFFFFFFFFFFFFFFFFFFFFFFFFFFFFFFFFFFFFFF AND PUSH20 0xFFFFFFFFFFFFFFFFFFFFFFFFFFFFFFFFFFFFFFFF AND DUP2 MSTORE PUSH1 0x20 ADD SWAP1 DUP2 MSTORE PUSH1 0x20 ADD PUSH1 0x0 KECCAK256 SLOAD PUSH2 0x167E SWAP2 SWAP1 PUSH2 0x26EB JUMP JUMPDEST PUSH1 0x6 PUSH1 0x0 DUP6 PUSH20 0xFFFFFFFFFFFFFFFFFFFFFFFFFFFFFFFFFFFFFFFF AND PUSH20 0xFFFFFFFFFFFFFFFFFFFFFFFFFFFFFFFFFFFFFFFF AND DUP2 MSTORE PUSH1 0x20 ADD SWAP1 DUP2 MSTORE PUSH1 0x20 ADD PUSH1 0x0 KECCAK256 DUP2 SWAP1 SSTORE POP DUP2 PUSH1 0x5 SLOAD PUSH2 0x16CF SWAP2 SWAP1 PUSH2 0x26EB JUMP JUMPDEST PUSH1 0x5 DUP2 SWAP1 SSTORE POP PUSH1 0x0 PUSH20 0xFFFFFFFFFFFFFFFFFFFFFFFFFFFFFFFFFFFFFFFF AND DUP4 PUSH20 0xFFFFFFFFFFFFFFFFFFFFFFFFFFFFFFFFFFFFFFFF AND PUSH32 0xDDF252AD1BE2C89B69C2B068FC378DAA952BA7F163C4A11628F55A4DF523B3EF DUP5 PUSH1 0x40 MLOAD PUSH2 0x1733 SWAP2 SWAP1 PUSH2 0x2643 JUMP JUMPDEST PUSH1 0x40 MLOAD DUP1 SWAP2 SUB SWAP1 LOG3 PUSH1 0x1 SWAP1 POP SWAP3 SWAP2 POP POP JUMP JUMPDEST PUSH2 0x174D PUSH2 0x182F JUMP JUMPDEST PUSH2 0x178C JUMPI PUSH1 0x40 MLOAD PUSH32 0x8C379A000000000000000000000000000000000000000000000000000000000 DUP2 MSTORE PUSH1 0x4 ADD PUSH2 0x1783 SWAP1 PUSH2 0x2623 JUMP JUMPDEST PUSH1 0x40 MLOAD DUP1 SWAP2 SUB SWAP1 REVERT JUMPDEST PUSH1 0x1 PUSH1 0x14 SWAP1 SLOAD SWAP1 PUSH2 0x100 EXP SWAP1 DIV PUSH1 0xFF AND ISZERO PUSH2 0x17DC JUMPI PUSH1 0x40 MLOAD PUSH32 0x8C379A000000000000000000000000000000000000000000000000000000000 DUP2 MSTORE PUSH1 0x4 ADD PUSH2 0x17D3 SWAP1 PUSH2 0x25A3 JUMP JUMPDEST PUSH1 0x40 MLOAD DUP1 SWAP2 SUB SWAP1 REVERT JUMPDEST PUSH1 0x1 DUP1 PUSH1 0x14 PUSH2 0x100 EXP DUP2 SLOAD DUP2 PUSH1 0xFF MUL NOT AND SWAP1 DUP4 ISZERO ISZERO MUL OR SWAP1 SSTORE POP PUSH32 0x62E78CEA01BEE320CD4E420270B5EA74000D11B0C9F74754EBDBFC544B05A258 CALLER PUSH1 0x40 MLOAD PUSH2 0x1825 SWAP2 SWAP1 PUSH2 0x24A2 JUMP JUMPDEST PUSH1 0x40 MLOAD DUP1 SWAP2 SUB SWAP1 LOG1 JUMP JUMPDEST PUSH1 0x0 PUSH1 0x1 PUSH1 0x0 SWAP1 SLOAD SWAP1 PUSH2 0x100 EXP SWAP1 DIV PUSH20 0xFFFFFFFFFFFFFFFFFFFFFFFFFFFFFFFFFFFFFFFF AND PUSH20 0xFFFFFFFFFFFFFFFFFFFFFFFFFFFFFFFFFFFFFFFF AND CALLER PUSH20 0xFFFFFFFFFFFFFFFFFFFFFFFFFFFFFFFFFFFFFFFF AND EQ SWAP1 POP SWAP1 JUMP JUMPDEST PUSH1 0x3 DUP1 SLOAD PUSH2 0x1894 SWAP1 PUSH2 0x27A7 JUMP JUMPDEST DUP1 PUSH1 0x1F ADD PUSH1 0x20 DUP1 SWAP2 DIV MUL PUSH1 0x20 ADD PUSH1 0x40 MLOAD SWAP1 DUP2 ADD PUSH1 0x40 MSTORE DUP1 SWAP3 SWAP2 SWAP1 DUP2 DUP2 MSTORE PUSH1 0x20 ADD DUP3 DUP1 SLOAD PUSH2 0x18C0 SWAP1 PUSH2 0x27A7 JUMP JUMPDEST DUP1 ISZERO PUSH2 0x190D JUMPI DUP1 PUSH1 0x1F LT PUSH2 0x18E2 JUMPI PUSH2 0x100 DUP1 DUP4 SLOAD DIV MUL DUP4 MSTORE SWAP2 PUSH1 0x20 ADD SWAP2 PUSH2 0x190D JUMP JUMPDEST DUP3 ADD SWAP2 SWAP1 PUSH1 0x0 MSTORE PUSH1 0x20 PUSH1 0x0 KECCAK256 SWAP1 JUMPDEST DUP2 SLOAD DUP2 MSTORE SWAP1 PUSH1 0x1 ADD SWAP1 PUSH1 0x20 ADD DUP1 DUP4 GT PUSH2 0x18F0 JUMPI DUP3 SWAP1 SUB PUSH1 0x1F AND DUP3 ADD SWAP2 JUMPDEST POP POP POP POP POP DUP2 JUMP JUMPDEST PUSH1 0x0 PUSH1 0x1 PUSH1 0x14 SWAP1 SLOAD SWAP1 PUSH2 0x100 EXP SWAP1 DIV PUSH1 0xFF AND ISZERO PUSH2 0x1967 JUMPI PUSH1 0x40 MLOAD PUSH32 0x8C379A000000000000000000000000000000000000000000000000000000000 DUP2 MSTORE PUSH1 0x4 ADD PUSH2 0x195E SWAP1 PUSH2 0x25A3 JUMP JUMPDEST PUSH1 0x40 MLOAD DUP1 SWAP2 SUB SWAP1 REVERT JUMPDEST PUSH1 0x0 PUSH20 0xFFFFFFFFFFFFFFFFFFFFFFFFFFFFFFFFFFFFFFFF AND DUP4 PUSH20 0xFFFFFFFFFFFFFFFFFFFFFFFFFFFFFFFFFFFFFFFF AND EQ ISZERO PUSH2 0x19D7 JUMPI PUSH1 0x40 MLOAD PUSH32 0x8C379A000000000000000000000000000000000000000000000000000000000 DUP2 MSTORE PUSH1 0x4 ADD PUSH2 0x19CE SWAP1 PUSH2 0x2583 JUMP JUMPDEST PUSH1 0x40 MLOAD DUP1 SWAP2 SUB SWAP1 REVERT JUMPDEST PUSH1 0x6 PUSH1 0x0 CALLER PUSH20 0xFFFFFFFFFFFFFFFFFFFFFFFFFFFFFFFFFFFFFFFF AND PUSH20 0xFFFFFFFFFFFFFFFFFFFFFFFFFFFFFFFFFFFFFFFF AND DUP2 MSTORE PUSH1 0x20 ADD SWAP1 DUP2 MSTORE PUSH1 0x20 ADD PUSH1 0x0 KECCAK256 SLOAD DUP3 GT ISZERO PUSH2 0x1A59 JUMPI PUSH1 0x40 MLOAD PUSH32 0x8C379A000000000000000000000000000000000000000000000000000000000 DUP2 MSTORE PUSH1 0x4 ADD PUSH2 0x1A50 SWAP1 PUSH2 0x2563 JUMP JUMPDEST PUSH1 0x40 MLOAD DUP1 SWAP2 SUB SWAP1 REVERT JUMPDEST DUP2 PUSH1 0x6 PUSH1 0x0 CALLER PUSH20 0xFFFFFFFFFFFFFFFFFFFFFFFFFFFFFFFFFFFFFFFF AND PUSH20 0xFFFFFFFFFFFFFFFFFFFFFFFFFFFFFFFFFFFFFFFF AND DUP2 MSTORE PUSH1 0x20 ADD SWAP1 DUP2 MSTORE PUSH1 0x20 ADD PUSH1 0x0 KECCAK256 SLOAD PUSH2 0x1AA4 SWAP2 SWAP1 PUSH2 0x26EB JUMP JUMPDEST PUSH1 0x6 PUSH1 0x0 CALLER PUSH20 0xFFFFFFFFFFFFFFFFFFFFFFFFFFFFFFFFFFFFFFFF AND PUSH20 0xFFFFFFFFFFFFFFFFFFFFFFFFFFFFFFFFFFFFFFFF AND DUP2 MSTORE PUSH1 0x20 ADD SWAP1 DUP2 MSTORE PUSH1 0x20 ADD PUSH1 0x0 KECCAK256 DUP2 SWAP1 SSTORE POP DUP2 PUSH1 0x6 PUSH1 0x0 DUP6 PUSH20 0xFFFFFFFFFFFFFFFFFFFFFFFFFFFFFFFFFFFFFFFF AND PUSH20 0xFFFFFFFFFFFFFFFFFFFFFFFFFFFFFFFFFFFFFFFF AND DUP2 MSTORE PUSH1 0x20 ADD SWAP1 DUP2 MSTORE PUSH1 0x20 ADD PUSH1 0x0 KECCAK256 SLOAD PUSH2 0x1B32 SWAP2 SWAP1 PUSH2 0x2695 JUMP JUMPDEST PUSH1 0x6 PUSH1 0x0 DUP6 PUSH20 0xFFFFFFFFFFFFFFFFFFFFFFFFFFFFFFFFFFFFFFFF AND PUSH20 0xFFFFFFFFFFFFFFFFFFFFFFFFFFFFFFFFFFFFFFFF AND DUP2 MSTORE PUSH1 0x20 ADD SWAP1 DUP2 MSTORE PUSH1 0x20 ADD PUSH1 0x0 KECCAK256 DUP2 SWAP1 SSTORE POP DUP3 PUSH20 0xFFFFFFFFFFFFFFFFFFFFFFFFFFFFFFFFFFFFFFFF AND CALLER PUSH20 0xFFFFFFFFFFFFFFFFFFFFFFFFFFFFFFFFFFFFFFFF AND PUSH32 0xDDF252AD1BE2C89B69C2B068FC378DAA952BA7F163C4A11628F55A4DF523B3EF DUP5 PUSH1 0x40 MLOAD PUSH2 0x1BD2 SWAP2 SWAP1 PUSH2 0x2643 JUMP JUMPDEST PUSH1 0x40 MLOAD DUP1 SWAP2 SUB SWAP1 LOG3 PUSH1 0x1 SWAP1 POP SWAP3 SWAP2 POP POP JUMP JUMPDEST PUSH1 0x0 PUSH1 0x1 PUSH1 0x0 SWAP1 SLOAD SWAP1 PUSH2 0x100 EXP SWAP1 DIV PUSH20 0xFFFFFFFFFFFFFFFFFFFFFFFFFFFFFFFFFFFFFFFF AND SWAP1 POP SWAP1 JUMP JUMPDEST PUSH1 0x0 PUSH1 0x1 PUSH1 0x14 SWAP1 SLOAD SWAP1 PUSH2 0x100 EXP SWAP1 DIV PUSH1 0xFF AND ISZERO PUSH2 0x1C60 JUMPI PUSH1 0x40 MLOAD PUSH32 0x8C379A000000000000000000000000000000000000000000000000000000000 DUP2 MSTORE PUSH1 0x4 ADD PUSH2 0x1C57 SWAP1 PUSH2 0x25A3 JUMP JUMPDEST PUSH1 0x40 MLOAD DUP1 SWAP2 SUB SWAP1 REVERT JUMPDEST DUP2 PUSH1 0x7 PUSH1 0x0 CALLER PUSH20 0xFFFFFFFFFFFFFFFFFFFFFFFFFFFFFFFFFFFFFFFF AND PUSH20 0xFFFFFFFFFFFFFFFFFFFFFFFFFFFFFFFFFFFFFFFF AND DUP2 MSTORE PUSH1 0x20 ADD SWAP1 DUP2 MSTORE PUSH1 0x20 ADD PUSH1 0x0 KECCAK256 PUSH1 0x0 DUP6 PUSH20 0xFFFFFFFFFFFFFFFFFFFFFFFFFFFFFFFFFFFFFFFF AND PUSH20 0xFFFFFFFFFFFFFFFFFFFFFFFFFFFFFFFFFFFFFFFF AND DUP2 MSTORE PUSH1 0x20 ADD SWAP1 DUP2 MSTORE PUSH1 0x20 ADD PUSH1 0x0 KECCAK256 SLOAD PUSH2 0x1CE8 SWAP2 SWAP1 PUSH2 0x2695 JUMP JUMPDEST PUSH1 0x7 PUSH1 0x0 CALLER PUSH20 0xFFFFFFFFFFFFFFFFFFFFFFFFFFFFFFFFFFFFFFFF AND PUSH20 0xFFFFFFFFFFFFFFFFFFFFFFFFFFFFFFFFFFFFFFFF AND DUP2 MSTORE PUSH1 0x20 ADD SWAP1 DUP2 MSTORE PUSH1 0x20 ADD PUSH1 0x0 KECCAK256 PUSH1 0x0 DUP6 PUSH20 0xFFFFFFFFFFFFFFFFFFFFFFFFFFFFFFFFFFFFFFFF AND PUSH20 0xFFFFFFFFFFFFFFFFFFFFFFFFFFFFFFFFFFFFFFFF AND DUP2 MSTORE PUSH1 0x20 ADD SWAP1 DUP2 MSTORE PUSH1 0x20 ADD PUSH1 0x0 KECCAK256 DUP2 SWAP1 SSTORE POP DUP3 PUSH20 0xFFFFFFFFFFFFFFFFFFFFFFFFFFFFFFFFFFFFFFFF AND CALLER PUSH20 0xFFFFFFFFFFFFFFFFFFFFFFFFFFFFFFFFFFFFFFFF AND PUSH32 0x8C5BE1E5EBEC7D5BD14F71427D1E84F3DD0314C0F7B2291E5B200AC8C7C3B925 PUSH1 0x7 PUSH1 0x0 CALLER PUSH20 0xFFFFFFFFFFFFFFFFFFFFFFFFFFFFFFFFFFFFFFFF AND PUSH20 0xFFFFFFFFFFFFFFFFFFFFFFFFFFFFFFFFFFFFFFFF AND DUP2 MSTORE PUSH1 0x20 ADD SWAP1 DUP2 MSTORE PUSH1 0x20 ADD PUSH1 0x0 KECCAK256 PUSH1 0x0 DUP8 PUSH20 0xFFFFFFFFFFFFFFFFFFFFFFFFFFFFFFFFFFFFFFFF AND PUSH20 0xFFFFFFFFFFFFFFFFFFFFFFFFFFFFFFFFFFFFFFFF AND DUP2 MSTORE PUSH1 0x20 ADD SWAP1 DUP2 MSTORE PUSH1 0x20 ADD PUSH1 0x0 KECCAK256 SLOAD PUSH1 0x40 MLOAD PUSH2 0x1E41 SWAP2 SWAP1 PUSH2 0x2643 JUMP JUMPDEST PUSH1 0x40 MLOAD DUP1 SWAP2 SUB SWAP1 LOG3 PUSH1 0x1 SWAP1 POP SWAP3 SWAP2 POP POP JUMP JUMPDEST PUSH1 0x0 PUSH1 0x1 PUSH1 0x14 SWAP1 SLOAD SWAP1 PUSH2 0x100 EXP SWAP1 DIV PUSH1 0xFF AND ISZERO PUSH2 0x1EA5 JUMPI PUSH1 0x40 MLOAD PUSH32 0x8C379A000000000000000000000000000000000000000000000000000000000 DUP2 MSTORE PUSH1 0x4 ADD PUSH2 0x1E9C SWAP1 PUSH2 0x25A3 JUMP JUMPDEST PUSH1 0x40 MLOAD DUP1 SWAP2 SUB SWAP1 REVERT JUMPDEST PUSH1 0x7 PUSH1 0x0 DUP5 PUSH20 0xFFFFFFFFFFFFFFFFFFFFFFFFFFFFFFFFFFFFFFFF AND PUSH20 0xFFFFFFFFFFFFFFFFFFFFFFFFFFFFFFFFFFFFFFFF AND DUP2 MSTORE PUSH1 0x20 ADD SWAP1 DUP2 MSTORE PUSH1 0x20 ADD PUSH1 0x0 KECCAK256 PUSH1 0x0 DUP4 PUSH20 0xFFFFFFFFFFFFFFFFFFFFFFFFFFFFFFFFFFFFFFFF AND PUSH20 0xFFFFFFFFFFFFFFFFFFFFFFFFFFFFFFFFFFFFFFFF AND DUP2 MSTORE PUSH1 0x20 ADD SWAP1 DUP2 MSTORE PUSH1 0x20 ADD PUSH1 0x0 KECCAK256 SLOAD SWAP1 POP SWAP3 SWAP2 POP POP JUMP JUMPDEST PUSH2 0x1F32 PUSH2 0x182F JUMP JUMPDEST PUSH2 0x1F71 JUMPI PUSH1 0x40 MLOAD PUSH32 0x8C379A000000000000000000000000000000000000000000000000000000000 DUP2 MSTORE PUSH1 0x4 ADD PUSH2 0x1F68 SWAP1 PUSH2 0x2623 JUMP JUMPDEST PUSH1 0x40 MLOAD DUP1 SWAP2 SUB SWAP1 REVERT JUMPDEST PUSH1 0x0 PUSH20 0xFFFFFFFFFFFFFFFFFFFFFFFFFFFFFFFFFFFFFFFF AND DUP2 PUSH20 0xFFFFFFFFFFFFFFFFFFFFFFFFFFFFFFFFFFFFFFFF AND EQ ISZERO PUSH2 0x1FE1 JUMPI PUSH1 0x40 MLOAD PUSH32 0x8C379A000000000000000000000000000000000000000000000000000000000 DUP2 MSTORE PUSH1 0x4 ADD PUSH2 0x1FD8 SWAP1 PUSH2 0x2603 JUMP JUMPDEST PUSH1 0x40 MLOAD DUP1 SWAP2 SUB SWAP1 REVERT JUMPDEST DUP1 PUSH1 0x1 PUSH1 0x0 PUSH2 0x100 EXP DUP2 SLOAD DUP2 PUSH20 0xFFFFFFFFFFFFFFFFFFFFFFFFFFFFFFFFFFFFFFFF MUL NOT AND SWAP1 DUP4 PUSH20 0xFFFFFFFFFFFFFFFFFFFFFFFFFFFFFFFFFFFFFFFF AND MUL OR SWAP1 SSTORE POP PUSH32 0x70AEA8D848E8A90FB7661B227DC522EB6395C3DAC71B63CB59EDD5C9899B2364 CALLER DUP3 PUSH1 0x40 MLOAD PUSH2 0x2053 SWAP3 SWAP2 SWAP1 PUSH2 0x24BD JUMP JUMPDEST PUSH1 0x40 MLOAD DUP1 SWAP2 SUB SWAP1 LOG1 POP JUMP JUMPDEST PUSH1 0x0 DUP2 CALLDATALOAD SWAP1 POP PUSH2 0x206D DUP2 PUSH2 0x2848 JUMP JUMPDEST SWAP3 SWAP2 POP POP JUMP JUMPDEST PUSH1 0x0 DUP2 CALLDATALOAD SWAP1 POP PUSH2 0x2082 DUP2 PUSH2 0x285F JUMP JUMPDEST SWAP3 SWAP2 POP POP JUMP JUMPDEST PUSH1 0x0 PUSH1 0x20 DUP3 DUP5 SUB SLT ISZERO PUSH2 0x209A JUMPI PUSH1 0x0 DUP1 REVERT JUMPDEST PUSH1 0x0 PUSH2 0x20A8 DUP5 DUP3 DUP6 ADD PUSH2 0x205E JUMP JUMPDEST SWAP2 POP POP SWAP3 SWAP2 POP POP JUMP JUMPDEST PUSH1 0x0 DUP1 PUSH1 0x40 DUP4 DUP6 SUB SLT ISZERO PUSH2 0x20C4 JUMPI PUSH1 0x0 DUP1 REVERT JUMPDEST PUSH1 0x0 PUSH2 0x20D2 DUP6 DUP3 DUP7 ADD PUSH2 0x205E JUMP JUMPDEST SWAP3 POP POP PUSH1 0x20 PUSH2 0x20E3 DUP6 DUP3 DUP7 ADD PUSH2 0x205E JUMP JUMPDEST SWAP2 POP POP SWAP3 POP SWAP3 SWAP1 POP JUMP JUMPDEST PUSH1 0x0 DUP1 PUSH1 0x0 PUSH1 0x60 DUP5 DUP7 SUB SLT ISZERO PUSH2 0x2102 JUMPI PUSH1 0x0 DUP1 REVERT JUMPDEST PUSH1 0x0 PUSH2 0x2110 DUP7 DUP3 DUP8 ADD PUSH2 0x205E JUMP JUMPDEST SWAP4 POP POP PUSH1 0x20 PUSH2 0x2121 DUP7 DUP3 DUP8 ADD PUSH2 0x205E JUMP JUMPDEST SWAP3 POP POP PUSH1 0x40 PUSH2 0x2132 DUP7 DUP3 DUP8 ADD PUSH2 0x2073 JUMP JUMPDEST SWAP2 POP POP SWAP3 POP SWAP3 POP SWAP3 JUMP JUMPDEST PUSH1 0x0 DUP1 PUSH1 0x40 DUP4 DUP6 SUB SLT ISZERO PUSH2 0x214F JUMPI PUSH1 0x0 DUP1 REVERT JUMPDEST PUSH1 0x0 PUSH2 0x215D DUP6 DUP3 DUP7 ADD PUSH2 0x205E JUMP JUMPDEST SWAP3 POP POP PUSH1 0x20 PUSH2 0x216E DUP6 DUP3 DUP7 ADD PUSH2 0x2073 JUMP JUMPDEST SWAP2 POP POP SWAP3 POP SWAP3 SWAP1 POP JUMP JUMPDEST PUSH1 0x0 PUSH1 0x20 DUP3 DUP5 SUB SLT ISZERO PUSH2 0x218A JUMPI PUSH1 0x0 DUP1 REVERT JUMPDEST PUSH1 0x0 PUSH2 0x2198 DUP5 DUP3 DUP6 ADD PUSH2 0x2073 JUMP JUMPDEST SWAP2 POP POP SWAP3 SWAP2 POP POP JUMP JUMPDEST PUSH2 0x21AA DUP2 PUSH2 0x271F JUMP JUMPDEST DUP3 MSTORE POP POP JUMP JUMPDEST PUSH2 0x21B9 DUP2 PUSH2 0x2731 JUMP JUMPDEST DUP3 MSTORE POP POP JUMP JUMPDEST PUSH1 0x0 PUSH2 0x21CA DUP3 PUSH2 0x2679 JUMP JUMPDEST PUSH2 0x21D4 DUP2 DUP6 PUSH2 0x2684 JUMP JUMPDEST SWAP4 POP PUSH2 0x21E4 DUP2 DUP6 PUSH1 0x20 DUP7 ADD PUSH2 0x2774 JUMP JUMPDEST PUSH2 0x21ED DUP2 PUSH2 0x2837 JUMP JUMPDEST DUP5 ADD SWAP2 POP POP SWAP3 SWAP2 POP POP JUMP JUMPDEST PUSH1 0x0 PUSH2 0x2205 PUSH1 0x14 DUP4 PUSH2 0x2684 JUMP JUMPDEST SWAP2 POP PUSH32 0x5061757361626C653A206E6F7420706175736564000000000000000000000000 PUSH1 0x0 DUP4 ADD MSTORE PUSH1 0x20 DUP3 ADD SWAP1 POP SWAP2 SWAP1 POP JUMP JUMPDEST PUSH1 0x0 PUSH2 0x2245 PUSH1 0x20 DUP4 PUSH2 0x2684 JUMP JUMPDEST SWAP2 POP PUSH32 0x45524332303A2066726F6D2061646472657373206973206E6F742076616C6964 PUSH1 0x0 DUP4 ADD MSTORE PUSH1 0x20 DUP3 ADD SWAP1 POP SWAP2 SWAP1 POP JUMP JUMPDEST PUSH1 0x0 PUSH2 0x2285 PUSH1 0x1B DUP4 PUSH2 0x2684 JUMP JUMPDEST SWAP2 POP PUSH32 0x45524332303A20696E73756666696369656E742062616C616E63650000000000 PUSH1 0x0 DUP4 ADD MSTORE PUSH1 0x20 DUP3 ADD SWAP1 POP SWAP2 SWAP1 POP JUMP JUMPDEST PUSH1 0x0 PUSH2 0x22C5 PUSH1 0x1E DUP4 PUSH2 0x2684 JUMP JUMPDEST SWAP2 POP PUSH32 0x45524332303A20746F2061646472657373206973206E6F742076616C69640000 PUSH1 0x0 DUP4 ADD MSTORE PUSH1 0x20 DUP3 ADD SWAP1 POP SWAP2 SWAP1 POP JUMP JUMPDEST PUSH1 0x0 PUSH2 0x2305 PUSH1 0x10 DUP4 PUSH2 0x2684 JUMP JUMPDEST SWAP2 POP PUSH32 0x5061757361626C653A2070617573656400000000000000000000000000000000 PUSH1 0x0 DUP4 ADD MSTORE PUSH1 0x20 DUP3 ADD SWAP1 POP SWAP2 SWAP1 POP JUMP JUMPDEST PUSH1 0x0 PUSH2 0x2345 PUSH1 0x26 DUP4 PUSH2 0x2684 JUMP JUMPDEST SWAP2 POP PUSH32 0x45524332303A207472616E736665722066726F6D2076616C7565206E6F742061 PUSH1 0x0 DUP4 ADD MSTORE PUSH32 0x6C6C6F7765640000000000000000000000000000000000000000000000000000 PUSH1 0x20 DUP4 ADD MSTORE PUSH1 0x40 DUP3 ADD SWAP1 POP SWAP2 SWAP1 POP JUMP JUMPDEST PUSH1 0x0 PUSH2 0x23AB PUSH1 0x22 DUP4 PUSH2 0x2684 JUMP JUMPDEST SWAP2 POP PUSH32 0x45524332303A206275726E2066726F6D2076616C7565206E6F7420616C6C6F77 PUSH1 0x0 DUP4 ADD MSTORE PUSH32 0x6564000000000000000000000000000000000000000000000000000000000000 PUSH1 0x20 DUP4 ADD MSTORE PUSH1 0x40 DUP3 ADD SWAP1 POP SWAP2 SWAP1 POP JUMP JUMPDEST PUSH1 0x0 PUSH2 0x2411 PUSH1 0x1D DUP4 PUSH2 0x2684 JUMP JUMPDEST SWAP2 POP PUSH32 0x4F776E61626C653A2061646472657373206973206E6F742076616C6964000000 PUSH1 0x0 DUP4 ADD MSTORE PUSH1 0x20 DUP3 ADD SWAP1 POP SWAP2 SWAP1 POP JUMP JUMPDEST PUSH1 0x0 PUSH2 0x2451 PUSH1 0x20 DUP4 PUSH2 0x2684 JUMP JUMPDEST SWAP2 POP PUSH32 0x4F776E61626C653A2063616C6C6572206973206E6F7420746865206F776E6572 PUSH1 0x0 DUP4 ADD MSTORE PUSH1 0x20 DUP3 ADD SWAP1 POP SWAP2 SWAP1 POP JUMP JUMPDEST PUSH2 0x248D DUP2 PUSH2 0x275D JUMP JUMPDEST DUP3 MSTORE POP POP JUMP JUMPDEST PUSH2 0x249C DUP2 PUSH2 0x2767 JUMP JUMPDEST DUP3 MSTORE POP POP JUMP JUMPDEST PUSH1 0x0 PUSH1 0x20 DUP3 ADD SWAP1 POP PUSH2 0x24B7 PUSH1 0x0 DUP4 ADD DUP5 PUSH2 0x21A1 JUMP JUMPDEST SWAP3 SWAP2 POP POP JUMP JUMPDEST PUSH1 0x0 PUSH1 0x40 DUP3 ADD SWAP1 POP PUSH2 0x24D2 PUSH1 0x0 DUP4 ADD DUP6 PUSH2 0x21A1 JUMP JUMPDEST PUSH2 0x24DF PUSH1 0x20 DUP4 ADD DUP5 PUSH2 0x21A1 JUMP JUMPDEST SWAP4 SWAP3 POP POP POP JUMP JUMPDEST PUSH1 0x0 PUSH1 0x20 DUP3 ADD SWAP1 POP PUSH2 0x24FB PUSH1 0x0 DUP4 ADD DUP5 PUSH2 0x21B0 JUMP JUMPDEST SWAP3 SWAP2 POP POP JUMP JUMPDEST PUSH1 0x0 PUSH1 0x20 DUP3 ADD SWAP1 POP DUP2 DUP2 SUB PUSH1 0x0 DUP4 ADD MSTORE PUSH2 0x251B DUP2 DUP5 PUSH2 0x21BF JUMP JUMPDEST SWAP1 POP SWAP3 SWAP2 POP POP JUMP JUMPDEST PUSH1 0x0 PUSH1 0x20 DUP3 ADD SWAP1 POP DUP2 DUP2 SUB PUSH1 0x0 DUP4 ADD MSTORE PUSH2 0x253C DUP2 PUSH2 0x21F8 JUMP JUMPDEST SWAP1 POP SWAP2 SWAP1 POP JUMP JUMPDEST PUSH1 0x0 PUSH1 0x20 DUP3 ADD SWAP1 POP DUP2 DUP2 SUB PUSH1 0x0 DUP4 ADD MSTORE PUSH2 0x255C DUP2 PUSH2 0x2238 JUMP JUMPDEST SWAP1 POP SWAP2 SWAP1 POP JUMP JUMPDEST PUSH1 0x0 PUSH1 0x20 DUP3 ADD SWAP1 POP DUP2 DUP2 SUB PUSH1 0x0 DUP4 ADD MSTORE PUSH2 0x257C DUP2 PUSH2 0x2278 JUMP JUMPDEST SWAP1 POP SWAP2 SWAP1 POP JUMP JUMPDEST PUSH1 0x0 PUSH1 0x20 DUP3 ADD SWAP1 POP DUP2 DUP2 SUB PUSH1 0x0 DUP4 ADD MSTORE PUSH2 0x259C DUP2 PUSH2 0x22B8 JUMP JUMPDEST SWAP1 POP SWAP2 SWAP1 POP JUMP JUMPDEST PUSH1 0x0 PUSH1 0x20 DUP3 ADD SWAP1 POP DUP2 DUP2 SUB PUSH1 0x0 DUP4 ADD MSTORE PUSH2 0x25BC DUP2 PUSH2 0x22F8 JUMP JUMPDEST SWAP1 POP SWAP2 SWAP1 POP JUMP JUMPDEST PUSH1 0x0 PUSH1 0x20 DUP3 ADD SWAP1 POP DUP2 DUP2 SUB PUSH1 0x0 DUP4 ADD MSTORE PUSH2 0x25DC DUP2 PUSH2 0x2338 JUMP JUMPDEST SWAP1 POP SWAP2 SWAP1 POP JUMP JUMPDEST PUSH1 0x0 PUSH1 0x20 DUP3 ADD SWAP1 POP DUP2 DUP2 SUB PUSH1 0x0 DUP4 ADD MSTORE PUSH2 0x25FC DUP2 PUSH2 0x239E JUMP JUMPDEST SWAP1 POP SWAP2 SWAP1 POP JUMP JUMPDEST PUSH1 0x0 PUSH1 0x20 DUP3 ADD SWAP1 POP DUP2 DUP2 SUB PUSH1 0x0 DUP4 ADD MSTORE PUSH2 0x261C DUP2 PUSH2 0x2404 JUMP JUMPDEST SWAP1 POP SWAP2 SWAP1 POP JUMP JUMPDEST PUSH1 0x0 PUSH1 0x20 DUP3 ADD SWAP1 POP DUP2 DUP2 SUB PUSH1 0x0 DUP4 ADD MSTORE PUSH2 0x263C DUP2 PUSH2 0x2444 JUMP JUMPDEST SWAP1 POP SWAP2 SWAP1 POP JUMP JUMPDEST PUSH1 0x0 PUSH1 0x20 DUP3 ADD SWAP1 POP PUSH2 0x2658 PUSH1 0x0 DUP4 ADD DUP5 PUSH2 0x2484 JUMP JUMPDEST SWAP3 SWAP2 POP POP JUMP JUMPDEST PUSH1 0x0 PUSH1 0x20 DUP3 ADD SWAP1 POP PUSH2 0x2673 PUSH1 0x0 DUP4 ADD DUP5 PUSH2 0x2493 JUMP JUMPDEST SWAP3 SWAP2 POP POP JUMP JUMPDEST PUSH1 0x0 DUP2 MLOAD SWAP1 POP SWAP2 SWAP1 POP JUMP JUMPDEST PUSH1 0x0 DUP3 DUP3 MSTORE PUSH1 0x20 DUP3 ADD SWAP1 POP SWAP3 SWAP2 POP POP JUMP JUMPDEST PUSH1 0x0 PUSH2 0x26A0 DUP3 PUSH2 0x275D JUMP JUMPDEST SWAP2 POP PUSH2 0x26AB DUP4 PUSH2 0x275D JUMP JUMPDEST SWAP3 POP DUP3 PUSH32 0xFFFFFFFFFFFFFFFFFFFFFFFFFFFFFFFFFFFFFFFFFFFFFFFFFFFFFFFFFFFFFFFF SUB DUP3 GT ISZERO PUSH2 0x26E0 JUMPI PUSH2 0x26DF PUSH2 0x27D9 JUMP JUMPDEST JUMPDEST DUP3 DUP3 ADD SWAP1 POP SWAP3 SWAP2 POP POP JUMP JUMPDEST PUSH1 0x0 PUSH2 0x26F6 DUP3 PUSH2 0x275D JUMP JUMPDEST SWAP2 POP PUSH2 0x2701 DUP4 PUSH2 0x275D JUMP JUMPDEST SWAP3 POP DUP3 DUP3 LT ISZERO PUSH2 0x2714 JUMPI PUSH2 0x2713 PUSH2 0x27D9 JUMP JUMPDEST JUMPDEST DUP3 DUP3 SUB SWAP1 POP SWAP3 SWAP2 POP POP JUMP JUMPDEST PUSH1 0x0 PUSH2 0x272A DUP3 PUSH2 0x273D JUMP JUMPDEST SWAP1 POP SWAP2 SWAP1 POP JUMP JUMPDEST PUSH1 0x0 DUP2 ISZERO ISZERO SWAP1 POP SWAP2 SWAP1 POP JUMP JUMPDEST PUSH1 0x0 PUSH20 0xFFFFFFFFFFFFFFFFFFFFFFFFFFFFFFFFFFFFFFFF DUP3 AND SWAP1 POP SWAP2 SWAP1 POP JUMP JUMPDEST PUSH1 0x0 DUP2 SWAP1 POP SWAP2 SWAP1 POP JUMP JUMPDEST PUSH1 0x0 PUSH1 0xFF DUP3 AND SWAP1 POP SWAP2 SWAP1 POP JUMP JUMPDEST PUSH1 0x0 JUMPDEST DUP4 DUP2 LT ISZERO PUSH2 0x2792 JUMPI DUP1 DUP3 ADD MLOAD DUP2 DUP5 ADD MSTORE PUSH1 0x20 DUP2 ADD SWAP1 POP PUSH2 0x2777 JUMP JUMPDEST DUP4 DUP2 GT ISZERO PUSH2 0x27A1 JUMPI PUSH1 0x0 DUP5 DUP5 ADD MSTORE JUMPDEST POP POP POP POP JUMP JUMPDEST PUSH1 0x0 PUSH1 0x2 DUP3 DIV SWAP1 POP PUSH1 0x1 DUP3 AND DUP1 PUSH2 0x27BF JUMPI PUSH1 0x7F DUP3 AND SWAP2 POP JUMPDEST PUSH1 0x20 DUP3 LT DUP2 EQ ISZERO PUSH2 0x27D3 JUMPI PUSH2 0x27D2 PUSH2 0x2808 JUMP JUMPDEST JUMPDEST POP SWAP2 SWAP1 POP JUMP JUMPDEST PUSH32 0x4E487B7100000000000000000000000000000000000000000000000000000000 PUSH1 0x0 MSTORE PUSH1 0x11 PUSH1 0x4 MSTORE PUSH1 0x24 PUSH1 0x0 REVERT JUMPDEST PUSH32 0x4E487B7100000000000000000000000000000000000000000000000000000000 PUSH1 0x0 MSTORE PUSH1 0x22 PUSH1 0x4 MSTORE PUSH1 0x24 PUSH1 0x0 REVERT JUMPDEST PUSH1 0x0 PUSH1 0x1F NOT PUSH1 0x1F DUP4 ADD AND SWAP1 POP SWAP2 SWAP1 POP JUMP JUMPDEST PUSH2 0x2851 DUP2 PUSH2 0x271F JUMP JUMPDEST DUP2 EQ PUSH2 0x285C JUMPI PUSH1 0x0 DUP1 REVERT JUMPDEST POP JUMP JUMPDEST PUSH2 0x2868 DUP2 PUSH2 0x275D JUMP JUMPDEST DUP2 EQ PUSH2 0x2873 JUMPI PUSH1 0x0 DUP1 REVERT JUMPDEST POP JUMP INVALID LOG2 PUSH5 0x6970667358 0x22 SLT KECCAK256 BALANCE 0xAD 0xE4 SLT 0xAA 0x23 0xFC PUSH8 0xACC7ED9E23CB23D4 0xB0 0xEC 0xD9 0x25 BLOCKHASH PUSH1 0xE1 DUP4 0xB2 LT 0xED PUSH21 0xCFA311CF64736F6C63430008000033000000000000 "
				},
				"gasEstimates": {
					"creation": {
						"codeDepositCost": "2082400",
						"executionCost": "infinite",
						"totalCost": "infinite"
					},
					"external": {
						"allowance(address,address)": "infinite",
						"approve(address,uint256)": "infinite",
						"balanceOf(address)": "1564",
						"burn(uint256)": "infinite",
						"burnFrom(address,uint256)": "infinite",
						"contractOwner()": "1266",
						"decimals()": "1283",
						"decreaseApproval(address,uint256)": "infinite",
						"increaseApproval(address,uint256)": "infinite",
						"isOwner()": "1285",
						"mintTo(address,uint256)": "infinite",
						"name()": "infinite",
						"pause()": "24178",
						"paused()": "1318",
						"symbol()": "infinite",
						"totalSupply()": "1197",
						"transfer(address,uint256)": "infinite",
						"transferFrom(address,address,uint256)": "infinite",
						"transferOwnership(address)": "infinite",
						"unpause()": "24131"
					}
				},
				"methodIdentifiers": {
					"allowance(address,address)": "dd62ed3e",
					"approve(address,uint256)": "095ea7b3",
					"balanceOf(address)": "70a08231",
					"burn(uint256)": "42966c68",
					"burnFrom(address,uint256)": "79cc6790",
					"contractOwner()": "ce606ee0",
					"decimals()": "313ce567",
					"decreaseApproval(address,uint256)": "66188463",
					"increaseApproval(address,uint256)": "d73dd623",
					"isOwner()": "8f32d59b",
					"mintTo(address,uint256)": "449a52f8",
					"name()": "06fdde03",
					"pause()": "8456cb59",
					"paused()": "5c975abb",
					"symbol()": "95d89b41",
					"totalSupply()": "18160ddd",
					"transfer(address,uint256)": "a9059cbb",
					"transferFrom(address,address,uint256)": "23b872dd",
					"transferOwnership(address)": "f2fde38b",
					"unpause()": "3f4ba83a"
				}
			},
			"storageLayout": {
				"storage": [
					{
						"astId": 10,
						"contract": "ERC20.sol:ERC20",
						"label": "_status",
						"offset": 0,
						"slot": "0",
						"type": "t_uint256"
					},
					{
						"astId": 769,
						"contract": "ERC20.sol:ERC20",
						"label": "owner",
						"offset": 0,
						"slot": "1",
						"type": "t_address"
					},
					{
						"astId": 695,
						"contract": "ERC20.sol:ERC20",
						"label": "_paused",
						"offset": 20,
						"slot": "1",
						"type": "t_bool"
					},
					{
						"astId": 55,
						"contract": "ERC20.sol:ERC20",
						"label": "name",
						"offset": 0,
						"slot": "2",
						"type": "t_string_storage"
					},
					{
						"astId": 57,
						"contract": "ERC20.sol:ERC20",
						"label": "symbol",
						"offset": 0,
						"slot": "3",
						"type": "t_string_storage"
					},
					{
						"astId": 59,
						"contract": "ERC20.sol:ERC20",
						"label": "decimals",
						"offset": 0,
						"slot": "4",
						"type": "t_uint8"
					},
					{
						"astId": 61,
						"contract": "ERC20.sol:ERC20",
						"label": "totalSupply",
						"offset": 0,
						"slot": "5",
						"type": "t_uint256"
					},
					{
						"astId": 65,
						"contract": "ERC20.sol:ERC20",
						"label": "_balances",
						"offset": 0,
						"slot": "6",
						"type": "t_mapping(t_address,t_uint256)"
					},
					{
						"astId": 71,
						"contract": "ERC20.sol:ERC20",
						"label": "_allowed",
						"offset": 0,
						"slot": "7",
						"type": "t_mapping(t_address,t_mapping(t_address,t_uint256))"
					}
				],
				"types": {
					"t_address": {
						"encoding": "inplace",
						"label": "address",
						"numberOfBytes": "20"
					},
					"t_bool": {
						"encoding": "inplace",
						"label": "bool",
						"numberOfBytes": "1"
					},
					"t_mapping(t_address,t_mapping(t_address,t_uint256))": {
						"encoding": "mapping",
						"key": "t_address",
						"label": "mapping(address => mapping(address => uint256))",
						"numberOfBytes": "32",
						"value": "t_mapping(t_address,t_uint256)"
					},
					"t_mapping(t_address,t_uint256)": {
						"encoding": "mapping",
						"key": "t_address",
						"label": "mapping(address => uint256)",
						"numberOfBytes": "32",
						"value": "t_uint256"
					},
					"t_string_storage": {
						"encoding": "bytes",
						"label": "string",
						"numberOfBytes": "32"
					},
					"t_uint256": {
						"encoding": "inplace",
						"label": "uint256",
						"numberOfBytes": "32"
					},
					"t_uint8": {
						"encoding": "inplace",
						"label": "uint8",
						"numberOfBytes": "1"
					}
				}
			},
			"userdoc": {
				"kind": "user",
				"methods": {},
				"version": 1
			}
		}
	}
}